:020000040000FA
:10000000A8290020F90200000103000003030000FA
:1000100005030000070300000903000000000000C2
:100020000000000000000000000000000B030000C2
:100030000D030000000000000F030000110300008A
:100040001303000013030000C508000013030000A1
:10005000130300001303000013030000B1030000AA
:1000600075080000130300001303000013030000D1
:100070001303000013030000130300001303000028
:100080001303000013030000130300001303000018
:100090001303000013030000130300001303000008
:1000A00013030000130300001303000013030000F8
:1000B0001303000013030000000000000000000014
:1000C00013030000130300001303000013030000D8
:1000D00013030000130300001303000000000000DE
:1000E0000000000000000000000000000000000010
:1000F0000000000000000000000000000000000000
:1001000000000000000000000000000000000000EF
:1001100000000000000000000000000000000000DF
:1001200000000000000000000000000000000000CF
:1001300000000000000000000000000000000000BF
:1001400000000000000000000000000000000000AF
:10015000000000000000000000000000000000009F
:10016000000000000000000000000000000000008F
:10017000000000000000000000000000000000007F
:10018000000000000000000000000000000000006F
:10019000000000000000000000000000000000005F
:1001A000000000000000000000000000000000004F
:1001B000000000000000000000000000000000003F
:1001C000000000000000000000000000000000002F
:1001D000000000000000000000000000000000001F
:1001E000000000000000000000000000000000000F
:1001F00000000000000000000000000000000000FF
:10020000DFF80CD000F0C2F800480047A90E00004B
:10021000A829002030B4044654E8000F0D4644E8F5
:100220000053002BF8D1156030BC704730B4044641
:1002300054E8000F40EA010544E80053002BF7D1D1
:10024000156030BC704730B4044654E8000F00EA33
:10025000010544E80053002BF7D1156030BC70470E
:1002600030B4044654E8000F80EA010544E8005326
:10027000002BF7D1156030BC704730B4044654E809
:10028000000F00EB010544E80053002BF7D1156087
:1002900030BC704730B4044654E8000FA0EB0105B1
:1002A00044E80053002BF7D1156030BC704770B4A0
:1002B00004464FF0000054E8006F0D68AE4207BFDF
:1002C00044E80023012044E800630E60002B1CBFBB
:1002D0000020F0E770BC704730B4044654E8000FCB
:1002E00088422CBF451A054644E80053002BF5D13F
:1002F000156030BC7047000006488047064800473C
:10030000FEE7FEE7FEE7FEE7FEE7FEE7FEE7FEE7C5
:10031000FEE7FEE7590500000102000000487047B3
:10032000F426000040EA01039B0703D009E008C956
:10033000121F08C0042AFAD203E011F8013B00F8AA
:10034000013B521EF9D27047D2B201E000F8012BF6
:10035000491EFBD270470022F6E710B513460A4645
:1003600004461946FFF7F0FF204610BD421C10F866
:10037000011B0029FBD1801A7047034611F8012B9D
:1003800000F8012B002AF9D118467047064C074D9A
:1003900006E0E06840F0010394E807009847103455
:1003A000AC42F6D3FFF730FFBC270000DC2700008B
:1003B0002DE9FE434FF48278404601F097FB4C4F05
:1003C00000254C4C012600B3404601F097FB94F801
:1003D0002E0010B194F82F10D1B18DF80050616843
:1003E00001912189ADF80810E26832B1218B618357
:1003F00062602181E56010B102E0257400E03E609A
:1004000021686846884784F82F5094F82E0060B31E
:100410004FF48077384601F069FB30B3384601F07D
:100420006DFB628B94F82D108A420AD9A2EB010071
:1004300080B260832289A2EB0000626802EB400078
:1004400005E007D1E06828B184F82F60658301F0EA
:1004500045FB04E08A4202D184F82F606583404660
:1004600001F04CFB2248001D06604FF488773846A7
:1004700001F03CFB48B1384601F040FB25740220F6
:100480008DF800002168684688474FF48A7738461F
:1004900001F02CFB28B1384601F030FB2574BDE893
:1004A000FE834FF000484FF48C7967691DE000BF70
:1004B000B7FA87F028FA00F109EB80058F43284648
:1004C00001F014FB88B1284601F018FBA5F58C75E6
:1004D000E8088DF8040045F38000401C8DF80060AA
:1004E0008DF80500216868468847002FE0D1D6E7DF
:1004F000007000409800002000F0EAB970B50E4688
:10050000144900EB400001EBC0051446E86A1835B9
:1005100020B101280FD0022805D113E0284600F0B1
:100520000BFAA04201D2002411E0224631462846AF
:1005300000F03AFA0BE0284600F0FEF9A042F4D2AF
:100540000446F2E73146284600F001FA0446204608
:1005500070BD000020070020F0B5B5480023021D43
:100560000178101D01254FF0805406290BD1167813
:10057000360708D10678C6F30316032E06D0042EDC
:1005800004D0052E02D0062907D00EE0B4F824636B
:10059000A84FC6F304263E6002E01678360704D161
:1005A0000678C6F30316032E02D0062904D00FE006
:1005B000A24FA14E7E670EE01678360708D1067866
:1005C000C6F30316032E06D0042E04D0052E02D047
:1005D000062907D00EE0D4F84462994FC6F342369C
:1005E0003E6002E01678360704D10678C6F303169B
:1005F000032E02D0062906D011E0924E376827F06C
:10060000807737600EE01678360708D10678C6F393
:100610000316032E06D0042E04D0052E02D0062980
:100620000AD011E04FF08046C6F80C31C6F8103100
:10063000834E361F336002E01678360704D1067801
:10064000C6F30316032E02D0062905D00CE07C4F1A
:10065000032664373E600AE01678360704D1067830
:10066000C6F30316032E02D006290DD014E0764FF0
:1006700005263E60744E78363560734E083633601A
:100680003F263F1D3E6002E01678360704D106780B
:10069000C6F30316052E02D0062957D062E06B4E32
:1006A00036686B4F3E60694E361D36683F1D3E60B2
:1006B000664E083636683F1D3E60644E0C3636681E
:1006C0003F1D3E60614E103636683F1D3E605F4EF6
:1006D000143636683F1D3E605C4E183636685C4FF7
:1006E00020373E60594E1C3636683F1D3E60574EDF
:1006F000203636683F1D3E60544E243636683F1D16
:100700003E60524E283636683F1D3E604F4E2C36B6
:1007100036683F1D3E604D4E303636684C4F403790
:100720003E604A4E343636683F1D3E60474E38368E
:1007300036683F1D3E60454E3C3636683F1D3E6084
:10074000424E403636683F1D3E6002E0167836075E
:1007500008D10678C6F30316032E06D0042E04D063
:10076000052E02D0062907D019E0D4F85812394ACC
:1007700001F04F01116002E0117809070FD10078F4
:10078000C0F30310032803D0042801D0052806D1A4
:1007900031480168C90702D06FF001010160D4F847
:1007A0003001062808D1D4F83401062804D12B489A
:1007B000016841F48061016022487438016841F4A5
:1007C00070010160BFF34F8FBFF36F8F4FF01021A7
:1007D000D1F80002002803DBD1F80402002822DA55
:1007E0001F4A15601F480468002CFCD01524C1F86E
:1007F00000420568002DFCD0C1F8044201680029C0
:10080000FCD0136001680029FCD0BFF34F8F0D4866
:10081000F0380168144A01F4E06111430160BFF34C
:100820004F8F00BFFDE7124910480860F0BD00007F
:10083000E00F00F0403501400DF0ADBA00C00740B8
:100840003C050040FCED00E01056004004040010A0
:1008500020C50040E40E0040000400403C1700406A
:1008600004E5014000E401400400FA050090D003D3
:10087000940000202DE9F047104E042700244FF487
:10088000A0784FF4803900BF08EB840509FA04F022
:10089000715961B1D6F80413014208D02946304697
:1008A00001F036F90648D0E9002128469047641C3B
:1008B000E4B2BC42E8D3BDE8F0870000008000400D
:1008C000C800002001480068004700000C0000201C
:1008D00010B5124C02202061606111A0A06104F1EA
:1008E0007800E0614FF4007020620020A062606236
:1008F0000BA1A164E06204F51E71E1641021A06502
:10090000C4E91410E06509A1E01DFFF736FD08A158
:100910002046FFF732FD2020A07110BD20070020E7
:100920005465726D696E616C000000005254540091
:1009300053454747455200000269C1688A4203D8BF
:100940008068401A104400E0501A401E70472DE99C
:10095000F047C4681746894606464FF000083069DC
:10096000A04201D9051B02E0B168201A0D1AB06837
:100970006D1E001BA84200D80546BD4200D33D466F
:1009800070682A4620444946FFF7CCFCB0687F1BBC
:100990002C44A844A944A04200D10024F460002FB4
:1009A000DDD14046BDE8F0872DE9F0410446884698
:1009B000D4E90207C51BE168606816460844B542E1
:1009C00006D94146FFF7AEFCB819E060BDE8F081FA
:1009D0002A464146FFF7A6FC761B08EB0501324686
:1009E0006068FFF79FFCE660F0E702E008C8121FAE
:1009F00008C1002AFAD170477047002001E001C108
:100A0000121F002AFBD1704772B600F079FF00BFB9
:100A100000F0CEFD0028FBD111481249401AC4084D
:100A2000012000EB044010A100F0DAFE114800683C
:100A3000C00700D000BE022000EB04400EA100F071
:100A4000CFFEBFF34F8F0B48E43801680E4A01F424
:100A5000E06111430160BFF34F8F00BFFDE700006D
:100A600034280000FC270000466174616C20657228
:100A7000726F7200F0ED00E053797374656D20724F
:100A800065736574000000000400FA050EB50021CE
:100A90000091CDE901106A4644F20100FFF7B4FF6E
:100AA0000EBD00F003B800F009B8000072B60248AD
:100AB0000168491C01607047140000200349086860
:100AC000401E086000D162B670470000140000208C
:100AD0002DE9F041064608680C46411C4FF0A0473E
:100AE0004FF0010506D005FA00F1C7F80815206897
:100AF00000F050FC6068411C02D0012100F038FC7D
:100B00003168A069C1F82405607D227D31681043F9
:100B1000C1F86C05D4E900123068C0F81425C0F89B
:100B20000C15207D012815D1A068411C02D00021A0
:100B300000F01EFCE068411C05D08540C7F8085550
:100B4000E06800F027FCD4E902123068C0F80825FC
:100B5000C0F81015BDE8F0812DE9F041064608689F
:100B60000C46411C4FF0A0474FF0010506D005FA96
:100B700000F1C7F80815206800F016FC6068411CF9
:100B800002D0012100F0FDFB3168A069C1F8240505
:100B9000607D217D32680843C2F86C05D4E90012FB
:100BA0003068C0F80C15C0F81425207D012815D137
:100BB000A068411C02D0002100F0E3FBE068411C6A
:100BC00005D08540C7F80855E06800F0EDFBD4E992
:100BD00002123068C0F80825C0F81015BDE8F08191
:100BE0002DE9F0470546861C90460F464FF0010957
:100BF0000020FFF756FF1B4C20683860D4E9000145
:100C0000401AA16804F21C47081A0EE00121384678
:100C100000F0D6F900F0FAF80146384600F0D0F9B5
:100C2000D4E90001401AA168081A401C8642EDD898
:100C3000B8F1000F03D0052065F3891002E006200B
:100C400065F39F50A2682168114004EB8101C860E0
:100C50002068304420600020FFF725FF4846BDE8AB
:100C6000F0870000FC02002030B482680468531C46
:100C70008360A154D0E901128A4202D330BC00F053
:100C800048BA30BC70470000034803C8814201D114
:100C90000120704700207047FC02002010B50021A1
:100CA000024800F098F980F3100010BD18070020EA
:100CB0002DE9FC5F0E008346DDE90C47C6F100001C
:100CC00098469246814600D40846012503E000BFBD
:100CD00090FBFAF06D1C5045FADAA84500D945465C
:100CE00024B1002E01DB780700D5641EB80702D5B9
:100CF000B8F1000F0AD0F80708D13CB1A54205D2DF
:100D000020215846641EFFF7AFFFF6E7002E02DAF7
:100D10004E462D2102E0780703D52B215846FFF7D8
:100D2000A3FF07F0030002280BD1B8F1000F08D190
:100D30003CB1A54205D230215846641EFFF794FF0E
:100D4000F6E7CDE90047434652463146584601F0A2
:100D500003FCBDE8FC9F000070B50D46044600682A
:100D60004FF4887100F0F0FE4FF49071206800F0AD
:100D7000EBFE4FF49271206800F0E6FE4FF4A27192
:100D8000206800F0E1FE20681249C0F804132068D2
:100D9000690740F30730090E002806DA00F00F005B
:100DA00000F1E02080F8141D03E000F1E02080F85D
:100DB00000142068012140F3073000F01F02914029
:100DC0004009800000F1E020C0F88012C0F8001156
:100DD00070BD000010030200024600201268530795
:100DE00013D502F00300012802D002280CD105E03F
:100DF000C2F383100B68801C184404E002230868C7
:100E000003EB925210440860012070472DE9FF4126
:100E10000026234800F0D1F82148001F074600F0C3
:100E2000CCF8204C60680090A56800E00098694606
:100E3000284004EB80000C30FFF7CEFF0028F5D1EE
:100E400001AA009901EA050304EB8303491CDB684E
:100E500042F82030401C00910228F2D3019800F0A3
:100E6000030001280BD0022810D10198032101EBC7
:100E700090500099BDF80A6001EB900005E00198E0
:100E8000BDF80A60C0F3831008440090384600F0B3
:100E900091F808B10098606004B03046BDE8F08178
:100EA00014070020FC0200200021084600F0F2FC9C
:100EB00008B1FFF7EBFD00F061FB07480749401A56
:100EC000C008032101EB004005A100F089FC00BF30
:100ED00000F06EFBFCE7000034280000FC27000057
:100EE00053414144432048414C2073696D706C6507
:100EF000206578616D706C652073746172746564CF
:100F00002E0000002DE9F047C5881E1DB6FBF5F741
:100F10008946B6FBF5F1044605FB176C4079166867
:100F20006843DDF820A0F718001F874200D9C61AD1
:100F3000166001E02468491E0029FBD1A5EB0C07CF
:100F40008846B74216D818E004EB0C00001D09EBE8
:100F50000803BAF1000F3A4602D00146184600E0F5
:100F60001946FFF7DFF92468F61B4FF0000CB84470
:100F7000B54201D9374600E02F46002EE4D1BDE846
:100F8000F087000030B5024651B100F0A1FC00210D
:100F9000074C08E034F821301568AB4202D11160EB
:100FA000002030BD491C8142F4D3052030BD000033
:100FB00000000000002100F009B8012100F010B885
:100FC00008B56A46FFF759F9009808BD08B56A46A2
:100FD000FFF739F908BD08B56A46FFF71BF908BDE8
:100FE00008B56A46FFF722F9009808BD08B56A46B9
:100FF000FFF750F9009808BD70B504460025284653
:10100000FFF74FFD21686268086890420ED9401EC4
:1010100008600178238AE26801FB0325227A2168AF
:10102000101AC0B20A79824200D208710020FFF77C
:101030003AFD284670BD70B505460C460020FFF706
:1010400030FDE868298A201AB0FBF1F12A6810689F
:10105000431C13600170BDE870400020FFF723BD02
:1010600010B530B1017A42680368891AC9B21A60B2
:1010700006E00E2010BD03681A68541C1C60117035
:10108000491EC9B2F7D2006800210171084610BD9F
:10109000F0B505460478154889B0164640F8242076
:1010A000124A0869121DA2F1080742F82400487F7D
:1010B000385520226846FFF735F904942878385CC3
:1010C00048B10EB10A4A00E000226946281D00F02E
:1010D000A1FE09B0F0BD0EB1064A00E0002269464B
:1010E00005F10C0000F068FDF3E7000004000020AB
:1010F00035240000812200000FB408B503990029AF
:1011000004D004AA00926A4600F00FF801B05DF81E
:1011100014FB10B582680446002A05D0D4E9040304
:10112000216898470020A06010BD2DE9FC4791463A
:101130000C00804676D014F8011B39B125290ED059
:101140004046FFF791FD20780028F4D198F80C0074
:10115000002867D04046BDE8FC47FFF7DABF002013
:10116000012221782B291BD02D2902D0302908D12A
:1011700002E040F0010001E040F00200641C002A9F
:10118000EFD100252A290ED02178A1F130020A2AB8
:1011900011D205EB850201EB4205641C303DF1E7FD
:1011A00040F00400EAE7D9F800100B1DC9F8003040
:1011B0000968641C0D44217800232E290BD114F8F2
:1011C000011FA1F130020A2A05D203EB830201EBD1
:1011D0004203303BF3E76C290DD068290BD0692915
:1011E00021D00BDC252918D0582931D063290ED005
:1011F000642915D117E014F8011FECE7702969D0B4
:10120000732932D075291BD0782909D120E0D9F86B
:101210000000011DC9F8001001784046FFF724FDC9
:10122000641C90E76CE0D9F800100A1DC9F8002092
:101230000968CDE900500A224046FFF739FDEFE783
:10124000D9F800100A1DC9F8002009680A2206E032
:10125000D9F800100A1DC9F8002009681022CDE94C
:101260000050404601F078F9DAE7D9F8001000277D
:101270000A1DC9F800200E68C00705D112E04046DB
:10128000761C7F1CFFF7F0FC31780029F7D104E0D1
:10129000202140466D1EFFF7E7FCBD42C0D9002D5E
:1012A000F6D1BDE74EB13046FFF760F8074604E0DF
:1012B000202140466D1EFFF7D7FCBD4206D9002D08
:1012C000F6D103E04046761CFFF7CEFC31780029CA
:1012D000F8D1A5E7D9F80000011DC9F8001005688C
:1012E00030214046FFF7C0FC78214046FFF7BCFCA8
:1012F00008200021CDE90001034610222946B0E76D
:10130000BDE8FC8770B541EA4201DDE904564FF0C3
:10131000A04441EA830141EA052104EB800041EA4F
:101320000641C0F8001770BD70B541EA4201DDE921
:1013300004564FF0A04441EA830141EA052104EB41
:10134000800041EA0641C0F8001770BD1CB50021BD
:1013500000910B4601220191FFF7D4FF1CBD1CB583
:10136000002100910B4601220191FFF7DDFF1CBD1A
:101370001CB500220B46009211460192FFF7C2FFF6
:101380001CBD1CB500220B46009211460192FFF7CE
:10139000CBFF1CBD1CB5002100910B460122019121
:1013A0001146FFF7AFFF1CBD1CB5002100910B4695
:1013B000012201911146FFF7B7FF1CBD30B5154A58
:1013C00001460020D2F8104423460AE0DB681D796C
:1013D000854205D1401C0A28F6DB4FF0FF3030BDB6
:1013E0001B68002BF2D1431CF9D0CB681871D2F8DE
:1013F000103443B1DB68CC681B682360D2F810243A
:10140000D268116030BDC2F81014C96800220A60A9
:1014100030BD0000FC0200207047FFF76DB8704738
:1014200008B5034A00924023024A00F005F808BDBF
:101430002921000024010020F0B595B01C46154676
:101440000F4608461A9E00F015FB182109A8FEF762
:1014500082FF0E96CDE909540023082203A93846DD
:1014600000F01DFB05980690BDF81000ADF81C00BB
:10147000BDF81200ADF81E0000208DF82100039881
:10148000082600F00300012802D0022818D032E01C
:1014900003983346850AC0F3C2008DF820000398F4
:1014A0000FA9C0F38314A200384600F0F8FA09A887
:1014B000009006AB22460FA9284600F037FA1AE042
:1014C0000398840DC0F3C2008DF82000082C01D2CF
:1014D000254600E0082533462A460FA9384600F085
:1014E000DEFA2E44641B09AB06AA29460FA800F0B9
:1014F0007BF9002CEAD1384600F0C2FA15B0F0BDF5
:101500007047012000F0DABE084810B50178084A9B
:10151000515C19B1001D00F009FD02E00C3000F033
:1015200017FCBDE81040002000F0C8BE20000020DD
:101530000000002008B5034A00924023024AFFF74A
:101540007BFF08BD79210000640100200A4A0129BF
:1015500002EBC00007D0022907D0032907D00429D5
:1015600007D00020704702207047042070470079A0
:101570007047407970470000FC27000010B5FFF766
:101580004CFF04210948FFF719FF08480124C068EF
:101590004471FFF7B6FF054804211030FFF70EFF36
:1015A00002481030C068447110BD0000DC27000004
:1015B0002DE9F0478CB0FFF767FB18B100200CB0A5
:1015C000BDE8F0877D4C0020C4F81804BFF34F8FAE
:1015D00060680290A5684FF00008284004EB800086
:1015E0000CE000BFD4F8180470B921680298814259
:1015F00001D86160E2E7284004EB80000C3002A9CA
:10160000FFF7EAFB0028EDD1002003AA029901EAC6
:10161000050304EB8303491CDB6842F82030401CBF
:1016200002910228F2D3039800F00300022802D0AE
:1016300001284DD0A7E003985022810D8946B2EBD6
:10164000905F00D850210E4666F39F5003900831FA
:101650005B4800F0C6F9070078D000F00BFA43466B
:10166000082203A9384600F022FA029908F1080A74
:101670002940681A8000001D864222D94F4D0C3542
:1016800030B1C2B204EB8101301A90460C3104E053
:101690002946F2B2002590462846C6B2534638463F
:1016A00000F005FA0AEB080325B132462946384610
:1016B00000F0FDF9029909F1030001EB900002909E
:1016C0003BE004EB81015346324638460C31EFE7EC
:1016D0000398C0F38310062800D30620039960F313
:1016E0008911C1F38310801C03918100344800F0FC
:1016F00078F9070047D000F0BDF94346082203A956
:10170000384600F0D4F908F1080800260FE00298E6
:10171000434600EA0501401C04EB810102900422CB
:1017200038460C3100F0C3F908F10408761C039820
:10173000C0F38310B042EAD847B1D4F81054D4F8BB
:10174000180478B1384600F09BF931E01BE0E868F6
:101750004079012804D12A68284639461268904702
:10176000E8680568002DF2D1384600F089F90020BC
:10177000FFF797F9D4F8180408B9029860600020C0
:10178000FFF791F914E0D4F8104405E021682046F1
:1017900089688847E0680468002CF7D109480A493D
:1017A000401AC008022101EB004008A100F018F81F
:1017B000FFF76AFA80F0010001E70000FC02002058
:1017C0003C28000034280000FC2700004261636BC5
:1017D000656E647320666C75736865640000000054
:1017E00000231A4600F0E8BC2DE9F0470E4680467B
:1017F0001C46924608293ED894F80C90002020738D
:101800001946104600F008FC0025B54206D218F82B
:1018100005201AA12046FFF76FFC03E019A120461E
:10182000FFF76AFC6D1C082DEFD317A12046FFF7C8
:1018300063FC0025B54210D218F80570FEF76EFD66
:101840000068C05D10F03E0F01D03A4600E02E2245
:101850000EA12046FFF750FC03E00DA12046FFF744
:101860004BFC6D1C082DE5D301222146504600F0AB
:10187000B5FB84F80C90BDE8F087000020253032DD
:1018800078000000202020007C000000256300007C
:10189000200000000B4810B5FF218160002101608D
:1018A0004160C0F81814C0F8141480F820140648D9
:1018B00000F0E4F8002803D1044800F000F900200B
:1018C00010BD0000FC0200203C280000642600003F
:1018D00002480349401AC008704700003C28000035
:1018E000FC27000013B56846FFF74CFB08B1002049
:1018F0001CBD0248009950F831001CBDFC270000B7
:1019000070B509480125D0F8104480F8205407E04C
:10191000E06845712168204649688847E0680468A6
:10192000002CF5D170BD0000FC0200202DE9FF471E
:1019300081460C9D00200C462F7B28739846164646
:101940002946184600F068FB072E42D2DFE806F071
:1019500004090F161F2A360049462846FFF7CCFB1C
:1019600037E0494628462268FFF7C6FB31E0D4E954
:10197000002349462846FFF7BFFB2AE0A0680090F5
:10198000D4E9002349462846FFF7B6FB21E0D4E915
:101990000201CDE90001D4E9002349462846FFF7BA
:1019A000ABFB16E004F1080007C88DE80700D4E996
:1019B000002349462846FFF79FFB0AE004F1080090
:1019C0000FC88DE80F00D4E9002349462846FFF7E9
:1019D00093FB00222946404600F000FB2F73BDE830
:1019E000FF872DE9F041058A80462D1F4819C01C4C
:1019F000B0FBF5F0C6B24046FFF7FEFA041E19D060
:101A00000020207101206071E58000272546761EA8
:101A1000C4F800800BE04046FFF7EEFA60B1617950
:101A2000491C6171286005467F1CC0F80080B742E0
:101A3000F1D32046BDE8F081204600F002F80020F6
:101A4000F8E72DE9F041457901466B1E002201E0DF
:101A50000968521C9A42FBD30F680146002605E034
:101A600038460C68FFF7E7FA2146761CAE42F7D3FA
:101A7000BDE8F0810121001DFFF7A2BAFFF7F0BA1F
:101A800010B504460121001DFFF7B0FA10F0FF0F5A
:101A900004D12046BDE81040FFF7D3BF10BD1CB5F0
:101AA00001920122009201AAFFF72CFA1CBD1CB57D
:101AB00001920022009201AAFFF724FA1CBD82685D
:101AC0000021916082681161826851618268D160F1
:101AD000826851608068016070470000024A1060AF
:101AE000101D0160704700002C76004002494058EC
:101AF000002800D00120704700700040034908B55D
:101B00000844002202600068009008BD0070004098
:101B100008B5002242504058009008BD40580028A7
:101B200000D00120704708B5002242504058009074
:101B300008BDD0F80403084000D001207047405889
:101B4000002800D00120704708B5002242504058BC
:101B5000009008BD0121B1EB507F01D101207047F9
:101B60000020704770B50D4600F0A2FA04000FD0B7
:101B70000020FEF796FF207920B10020FEF793FFAA
:101B8000112070BD0120256020710020FEF78BFF21
:101B9000002070BD10B500F08BFA002802D00021A3
:101BA0000160017110BD00000149024800F0AEBBA8
:101BB000D4000020002000402DE9F04105460079C6
:101BC00016460F4600EB40012D4A01EBC00102EB27
:101BD000810494F82A1011B10820BDE8F081294948
:101BE00051F820102868FFF7BDFF08B11120F4E775
:101BF00039462846FEF76CFF666038692060300081
:101C00004FF001062FD03F7F4FF48E712868FFF709
:101C10008AFF4FF4A2712868FFF785FF28681A49E8
:101C2000C0F8041328684FEA471140F30730002832
:101C300006DA00F00F0000F1E02080F8141D03E048
:101C400000F1E02080F80014286840F3073000F02D
:101C50001F0206FA02F14009800000F1E020C0F8FE
:101C60008012C0F8001128680421C0F80015002077
:101C7000A061E06184F8290044F8140FA675ACE770
:101C8000D40000200C260000800002002DE9F0475F
:101C9000054600790B4600EB400101EBC0002349EB
:101CA00001EB8004284600F043F810B11120BDE894
:101CB000F0874FF00008C4F82080A360626184F8C8
:101CC00028804FF48E76474631462868FFF72BFF71
:101CD00028684FF00109C0F808902146286800F0F4
:101CE000B1FA606800BBD5F800A00EE094F82800B7
:101CF00008B10F2716E031465046FFF70FFF0028C6
:101D0000F4D02146504600F09DFA216A6069814274
:101D1000F1D331462868FFF701FF0028F9D0286881
:101D2000C0F80C90C4F814803846C0E7D4000020F6
:101D3000007900EB400101EBC000044901EB800099
:101D40004069002800D0012070470000D400002026
:101D50002DE9F047044600794FF0000900EB4001FF
:101D600001EBC000254901EB80072068C0F8009511
:101D7000786880B120682249C0F8081320680121E2
:101D800040F3073000F01F0291404009800000F14D
:101D9000E020C0F880112068D0F80C25D0F8148518
:101DA000D0F80865D0F810554FF0FF31C0F8141581
:101DB000C0F80C152068C0F80815C0F81015501CA4
:101DC00002D01046FFF7C2FAB8F1FF3F02D04046FA
:101DD000FFF7BCFA681C02D02846FFF7B7FA701C60
:101DE00002D03046FFF7B2FA2068FFF7D3FE87F83B
:101DF0002A90C7F80490BDE8F0870000D4000020C6
:101E0000840202000149024800F02CBB00010020BE
:101E1000002000402DE9F0410546164600790F46A6
:101E2000154A00EBC00102EB810494F8201011B1B7
:101E30000820BDE8F081114951F820102868FFF70B
:101E400091FE08B11120F4E739462846FEF784FEDA
:101E50006660386920601EB1397F2846FEF77CFF36
:101E600028680821C0F800150020A061E061012168
:101E7000606184F82010DCE70001002010260000DB
:101E80002DE9F04704460E460079204900EBC000DA
:101E900001EB800517463046FFF75CFE30B1204667
:101EA00000F036F820B11120BDE8F0871020FBE7E4
:101EB0006F61AE604FF49076002731462068FFF7DF
:101EC00043FE4FF4AC7841462068FFF73DFE2068A2
:101ED000AA686969C0F84425C0F84815206801213E
:101EE0008160686878B9B14649462068FFF727FEE7
:101EF000064641462068FFF722FE0643F4D000B1B3
:101F00000F27002068613846CEE70000000100205E
:101F10000079054900EBC00001EB80004069002812
:101F200000D0012070470000000100202DE9F0479B
:101F300004460079274900EBC00001EB80072068C8
:101F40004FF00009C0F80095786880B120682249F8
:101F5000C0F808132068012140F3073000F01F0289
:101F600091404009800000F1E020C0F88011206815
:101F7000D0F80C25D0F81485D0F80865D0F81055A5
:101F80004FF0FF31C0F80C15C0F814152068C0F8E8
:101F90000815C0F81015501C02D01046FFF7DFF9E5
:101FA000B8F1FF3F02D04046FFF7D9F9681C02D0D4
:101FB0002846FFF7D4F9701C02D03046FFF7CFF95E
:101FC0002068FFF7E7FD87F82090C7F80490BDE888
:101FD000F0870000000100201003020010B50C463D
:101FE000017A052908D0407A38B1084808A102686A
:101FF0002046FFF781F800E01AB106A12046FFF75E
:102000007BF82046BDE81040FFF783B87000002041
:10201000257300000D0A000038B5C3880D4604463C
:1020200033B114A0009015A216A12846FFF764F85A
:10203000217A05291CD0607A48B1A088FFF786FA7A
:10204000164951F8202016A12846FFF755F8A08818
:102050000021FFF747FC03461049207A143951F854
:10206000202001B02846BDE830400EA1FFF744B85B
:1020700038BD00001B5B306D000000001B5B313B76
:1020800033316D0025734C6F67732064726F70700D
:102090006564202825642925730D0A00700000203E
:1020A000257300003C25733E2025733A2000000074
:1020B0000349884201D1034870470020704700005F
:1020C000002000400C00002070B5054688690C46D1
:1020D00000284FF4847128460AD0FFF724FDD5F874
:1020E0001805626AE1688854606A401C606270BDCD
:1020F000FFF719FDD5F8180570BD1FB501238DF840
:102100000030CDE90121D0E90012684690471FBD9B
:102110001FB501238DF800308DF808100192D0E929
:102120000012684690471FBD2DE9F0411400884613
:1021300018D000250E4F032608EB0501224600208B
:10214000FEF7DCF90544241A40B93878002809D094
:1021500008494FF47A408847761E05D00120387030
:10216000002CE9D1BDE8F08100203870FAE70000CA
:10217000180000203126000070B50D4C0020D2B2AE
:102180002070201D0B4D0378EB5C1BB1001DFFF789
:1021900077FE02E00C30FFF779FD08B1FEF776FC20
:1021A0006078002802D021780029FAD070BD0000A4
:1021B0001C000020000000202DE9F84F204D924621
:1021C000894606469846012269461846AF68FEF7DA
:1021D00007FD58B3009800210446801C09E000BFA9
:1021E00000EA07035AF8212005EB8303401C491C31
:1021F000DA604145F4D34FEA164AFEF74FFD4AEA4A
:102200000041601C384005EB80003C4005EB840237
:10221000C160D06866F3C50068F3891069F39F2038
:1022200020F00300401C20F00400D06095F820044A
:1022300002E000BFFFF7BCF90028FBD1BDE8F88F32
:10224000FC02002070B50C4605464FF48E71FFF776
:102250006AFC216AA068415C206A401C2062C5F8C3
:102260001C1570BD1FB500228DF8002002918168F9
:1022700001914261D0E90012684690471FBD0000FD
:102280001FB50A4601788DF8001041680191017A66
:102290008DF80810C0680390044850F82210001F01
:1022A00050F82220684690471FBD0000080000201B
:1022B00001490120087070471C00002010B588B04B
:1022C000044620220E496846FEF72CF806200090AE
:1022D000C01F0190029003904FF0EB7006900CB17C
:1022E000084A00E0002269460748FEF7D1FE08B11F
:1022F000FEF7CCFB0448001F447008B010BD00007E
:1023000044260000B1220000200000202DE9FF47F4
:102310000C4605464FF40071FFF70BFC01274FF404
:102320000178002618B34FF4927949462846FFF702
:10233000F5FBE0B149462846FFF7F5FBC5F80883F1
:1023400094F8290000B96F6002208DF80000D5F8DC
:102350008004C5F880040390A0690290E0680190B1
:10236000A661E661D4E900126846904728E004219E
:102370002846FFF7DEFB18B34FF484712846FFF7B9
:10238000CDFBE8B121462846FFF79EFE616AA069B1
:10239000884215D1E06938B1E268616AA0612069BC
:1023A000E6616662E06008E094F8290000B96F60B9
:1023B000C5F80883A661E268616A2046FFF79DFEC2
:1023C0004FF48E7841462846FFF7A8FB78B1206A83
:1023D0006169884202D294F8280020B34146284619
:1023E000FFF7A1FB616911B12046FFF73BFF4FF4F6
:1023F000A27841462846FFF791FB002818D04146B5
:102400002846FFF790FB94F8290000B12F60A069DF
:1024100000280DD0A661E268616A04B02046BDE8DC
:10242000F047FFF76ABE21462846FFF70BFFDEE7BD
:10243000BDE8FF871FB50A4601788DF80010416896
:102440000191017A8DF80810C0680390044850F893
:102450002210001F50F82220684690471FBD000040
:10246000080000202DE9FF410C464FF49277054605
:102470003946FFF764FB0026C0B139462846FFF70E
:1024800063FB02208DF80000D5F88004C5F88004B5
:102490000390D5F83C058DF80800E0680190A6612E
:1024A000E661D4E900126846904723E04FF488774C
:1024B00039462846FFF743FBE0B139462846FFF787
:1024C00043FBD5F83C15A069884213D1E06960B19F
:1024D000E268D5F8000220F02000C5F80002E069AB
:1024E000A0612069E661E06001E0A661E268204643
:1024F000FFF70EFE4FF4A27739462846FFF71FFB81
:1025000060B139462846FFF71FFBA06930B1A661CC
:10251000D5F83C152046E268FFF7FAFD4FF49077B6
:1025200039462846FFF70BFB002813D039462846CA
:10253000FFF70AFB606900280CD0D5F84C058DF830
:1025400000608DF80800A06801906661D4E900126F
:1025500068469047BDE8FF812DE9F05F8346DDE9DD
:102560000A4A994690460D460846012703E000BFF7
:10257000B0FBF8F07F1C4045FAD2B94500D94F4670
:102580005FEACA7012D18CB15FEA8A7002D5B9F1E4
:10259000000F01D0202607E0302605E031465846DE
:1025A000641EFEF761FB0CB1A742F7D35FF0010692
:1025B000B9F1010F02D9A9F1010903E0B5FBF6F069
:1025C000404502D306FB08F6F2E7DFF83C9000BF77
:1025D000B5FBF6F000FB165519F800105846FEF74B
:1025E00043FBB6FBF8F6002EF2D15FEACA7009D0C1
:1025F000002C07D0A74205D220215846641EFEF7C2
:1026000033FBF5E7BDE8F09F14260000A91B00008E
:10261000051E000030313233343536373839414207
:1026200043444546211400001F1400001914000003
:102630000338FDD87047000035150000091500006B
:1026400001150000FFFFFFFFFFFFFFFFFFFFFFFF80
:10265000FFFFFFFF00000000000000000000D601A7
:1026600006010000640200207F000000E402002058
:102670000040404040404040404041414141414095
:10268000404040404040404040404040404040404A
:1026900040050202020202020202020202020202D9
:1026A00002202020202020202020200202020202DE
:1026B0000202909090909090101010101010101036
:1026C0001010101010101010101010100202020242
:1026D0000202888888888888080808080808080886
:1026E0000808080808080808080808080202020282
:1026F00040000000712600007761726E696E67000D
:1027000064656275670000001B5B313B33306D0010
:102710001B5B306D000000001B5B313B33316D00F3
:102720001B5B313B33326D001B5B313B33336D0040
:102730001B5B313B33346D001B5B313B33356D002C
:102740001B5B313B33366D001B5B313B33376D0018
:10275000696E666F000000006572726F72000000A3
:10276000505049005052530053414144430000002F
:1027700054494D455200000055415254000000009C
:1027800055415254450000007077725F6D676D745B
:10279000000000007274745F6C6F675F6261636B4E
:1027A000656E6400756172745F6C6F675F62616310
:1027B0006B656E64000000006170700050280000BE
:1027C0000000002098000000EA090000E82800004E
:1027D0009800002010290000FA09000024260000BB
:1027E000000000009427000034000020382600007C
:1027F00000000000A42700003C000020602700002B
:1028000000000000642700000000000068270000AE
:102810000000000070270000000000007827000082
:102820000000000080270000000000008827000052
:1028300000000000B8270000000003034C00002047
:10284000440000204C000020A401002018000000DB
:102850000000000000000000000000000000000078
:102860000000000000000000000000000000000068
:102870000000000000200040000000000020004098
:102880000000000000000000FF0000000000000049
:10289000FF00000000000000000000000000000039
:1028A0000000000000000000000000000000000028
:1028B00058270000F82600005027000000270000DD
:1028C000102700000827000018270000202700001C
:1028D000282700003027000038270000402700008C
:0828E000482700000090D0031E
:0400000500000201F4
:00000001FF
