:020000040000FA
:1000000060200020150200001D0200001F020000F9
:100010002102000023020000250200000000000071
:1000200000000000000000000000000027020000A7
:1000300029020000000000002B0200002D02000039
:100040002F0200002F0200002F0200002F020000EC
:100050002F0200002F0200005D0200002F020000AE
:10006000CD0600002F0200002F0200002F0200002A
:100070002F0200002F0200002F0200002F020000BC
:100080002F0200002F0200002F0200002F020000AC
:100090002F0200002F0200002F0200002F0200009C
:1000A0002F0200002F0200002F0200002F0200008C
:1000B0002F0200002F0200000000000000000000DE
:1000C0002F0200002F0200002F0200002F0200006C
:1000D0002F0200002F0200002F020000000000008D
:1000E0000000000000000000000000000000000010
:1000F0000000000000000000000000000000000000
:1001000000000000000000000000000000000000EF
:1001100000000000000000000000000000000000DF
:1001200000000000000000000000000000000000CF
:1001300000000000000000000000000000000000BF
:1001400000000000000000000000000000000000AF
:10015000000000000000000000000000000000009F
:10016000000000000000000000000000000000008F
:10017000000000000000000000000000000000007F
:10018000000000000000000000000000000000006F
:10019000000000000000000000000000000000005F
:1001A000000000000000000000000000000000004F
:1001B000000000000000000000000000000000003F
:1001C000000000000000000000000000000000002F
:1001D000000000000000000000000000000000001F
:1001E000000000000000000000000000000000000F
:1001F00000000000000000000000000000000000FF
:10020000DFF80CD000F018F800480047A108000003
:10021000602000200648804706480047FEE7FEE7CA
:10022000FEE7FEE7FEE7FEE7FEE7FEE7FEE7FEE7A6
:10023000B103000001020000064C074D06E0E06833
:1002400040F0010394E8070098471034AC42F6D31D
:10025000FFF7DAFF1C0C00003C0C00002DE9F04316
:10026000002589B0DFF84091A8464FF4807601243C
:100270002F460695304600F0B1FB38B1D9F804039B
:10028000204203D0304600F09FFB2543361D64001A
:100290007F1CB6B2082FEDD34FF4BE74204600F099
:1002A0009DFB48B1204600F08FFB45F0004506AAB3
:1002B0000121002000F074FB3C4E15F0FF0F15D01B
:1002C000012700242F420DD009EB8401D1F810053D
:1002D000D1F81015C0F3042056F82420C1F30141D1
:1002E00002B190477F00641C082CEBD3002D2DDA5F
:1002F0004FF0FF30CDF808804AE004A9204600F016
:10030000EFFA002822D04FEA9518204600F0A8FA0C
:1003100056F820501DB1B8F1030F03D006E0B8F134
:10032000030F13D102A9204600F0E2FA4FF0A040DB
:1003300000EB8400D0F8000706A9C0F3014920466D
:1003400000F0CEFA28B1B9F1020F05D009B0BDE82E
:10035000F083B9F1030FF9D1B8F1030F07D1B9F167
:10036000020F1FD00221204600F0F0FA012715B13C
:1003700041462046A847002FE8D06A4601210020C8
:1003800000F00EFB069900988842DFD00690029894
:10039000049096F84450002768B225F0C004401C31
:1003A000ABD1D3E70321DEE700600040040000206A
:1003B000F0B5B5480023021D0178101D01254FF04E
:1003C000805406290BD11678360708D10678C6F373
:1003D0000316032E06D0042E04D0052E02D00629C3
:1003E00007D00EE0B4F82463A84FC6F304263E609D
:1003F00002E01678360704D10678C6F30316032EFA
:1004000002D0062904D00FE0A24FA14E7E670EE075
:100410001678360708D10678C6F30316032E06D0E1
:10042000042E04D0052E02D0062907D00EE0D4F801
:100430004462994FC6F342363E6002E016783607B2
:1004400004D10678C6F30316032E02D0062906D07F
:1004500011E0924E376827F0807737600EE016780B
:10046000360708D10678C6F30316032E06D0042EED
:1004700004D0052E02D006290AD011E04FF08046A4
:10048000C6F80C31C6F81031834E361F336002E0D7
:100490001678360704D10678C6F30316032E02D069
:1004A000062905D00CE07C4F032664373E600AE045
:1004B0001678360704D10678C6F30316032E02D049
:1004C00006290DD014E0764F05263E60744E78362E
:1004D0003560734E083633603F263F1D3E6002E0B4
:1004E0001678360704D10678C6F30316052E02D017
:1004F000062957D062E06B4E36686B4F3E60694EFE
:10050000361D36683F1D3E60664E083636683F1D14
:100510003E60644E0C3636683F1D3E60614E1036BC
:1005200036683F1D3E605F4E143636683F1D3E60A4
:100530005C4E183636685C4F20373E60594E1C368C
:1005400036683F1D3E60574E203636683F1D3E6080
:10055000544E243636683F1D3E60524E283636686B
:100560003F1D3E604F4E2C3636683F1D3E604D4E5F
:10057000303636684C4F40373E604A4E3436366827
:100580003F1D3E60474E383636683F1D3E60454E43
:100590003C3636683F1D3E60424E403636683F1D51
:1005A0003E6002E01678360708D10678C6F30316D7
:1005B000032E06D0042E04D0052E02D0062907D023
:1005C00019E0D4F85812394A01F04F01116002E0E5
:1005D000117809070FD10078C0F30310032803D066
:1005E000042801D0052806D131480168C90702D086
:1005F0006FF001010160D4F83001062808D1D4F869
:100600003401062804D12B48016841F4806101605F
:1006100022487438016841F470010160BFF34F8FC4
:10062000BFF36F8F4FF01021D1F80002002803DBD9
:10063000D1F80402002822DA1F4A15601F48046816
:10064000002CFCD01524C1F800420568002DFCD018
:10065000C1F8044201680029FCD013600168002938
:10066000FCD0BFF34F8F0D48F0380168144A01F4F5
:10067000E06111430160BFF34F8F00BFFDE71249F6
:1006800010480860F0BD0000E00F00F04035014068
:100690000DF0ADBA00C007403C050040FCED00E0A5
:1006A000105600400404001020C50040E40E004035
:1006B000000400403C17004004E5014000E4014014
:1006C0000400FA050090D003000000202DE9F04757
:1006D000104E042700244FF4A0784FF4803900BF57
:1006E00008EB840509FA04F0715961B1D6F80413D6
:1006F000014208D02946304600F078F90648D0E992
:10070000002128469047641CE4B2BC42E8D3BDE80F
:10071000F0870000008000405000002002E008C880
:10072000121F08C1002AFAD170477047002001E06B
:1007300001C1121F002AFBD17047000072B60948A0
:100740000068C00700D000BEBFF34F8F0548E438F3
:100750000168054A01F4E06111430160BFF34F8F66
:1007600000BFFDE7F0ED00E00400FA050EB5002142
:100770000091CDE901106A4644F20100FFF7DEFF67
:100780000EBD00002DE9FC410646C0074FF00005F4
:100790000ED0104F00240122385D00950023114631
:1007A000019500F0AFF8641C042CF4D300F01CF8A1
:1007B000B0070DD5074E0024361D0022305D0323FF
:1007C00000951146019500F09DF8641C042CF4D3AB
:1007D000BDE8FC810F0C00000249085C012100F01B
:1007E000D4B800000F0C000010B500242046FFF71D
:1007F000F3FF641C042CF9D310BD000005494FF031
:10080000FF32082841F8202002D3084480F83C2019
:100810007047000004000020F0B54FF0FF3512B122
:100820000023082601E0082309260C4C05E000BF40
:1008300054F823707F1C04D05B1CB342F8D32846C5
:10084000F0BD26185DB286F8245044F82310002A23
:10085000F5D1E11881F83C00F1E700000400002028
:100860000249084490F92400704700000400002069
:1008700010B50C460D2802D1112000F078F8022C9A
:1008800008D0012C08D0032C08D11420BDE810405A
:1008900000F06DB81220F9E71320F7E710BD000053
:1008A00008B50120FFF76EFF00F060F908B1FFF70F
:1008B0005DFF0948094A69460068009003208DF8E9
:1008C00001000D2000F0EAF808B1FFF74FFF012109
:1008D0000D2000F091F8FEE70C0C000071080000FC
:1008E000C20800F007030120895C98400840704767
:1008F00010B5C20800F00703885C01249C40204327
:10090000885410BD70B541EA4201DDE904564FF04C
:10091000A04441EA830141EA052104EB800041EA59
:100920000641C0F8001770BD70B541EA4201DDE92B
:1009300004564FF0A04441EA830141EA052104EB4B
:10094000800041EA0641C0F8001770BD4FF0A04298
:1009500002EB8000D0F8002722F44032C0F80027D4
:10096000D0F8002742EA0141C0F8001770474FF065
:10097000A042D2F804350121814021EA0300C2F8E7
:1009800008051940C2F80C15704701224FF0A0432A
:10099000824011B1C3F808257047C3F80C25704791
:1009A00018B5084B6C4601441B68009306E000BF75
:1009B00054F82030D3F81035401C08C28142F7D8D3
:1009C00018BD0000180C0000034908B508440021B8
:1009D00001600068009008BD006000400249405876
:1009E000012800D0002070470060004008B50022B8
:1009F00042504058009008BD2DE9F0418846054618
:100A000000F0ECF8234E002828461AD0FFF728FF04
:100A1000304490F83C008009032802D001280ED011
:100A200007E04FF0A040D0F81005E84010F0010FAB
:100A300005D003212846BDE8F041FFF787BF02211A
:100A4000F8E700F0D7F8002822D02846FFF708FF83
:100A500004464FF4807000EB84000F4F81B207EB27
:100A60008400D0F8102542F00102C0F81025084695
:100A7000FFF7AAFFB8F1000F0AD02846FFF7F0FEF3
:100A800056F82000002803D00120A040C7F8040336
:100A9000BDE8F08104000020006000402DE9FC4129
:100AA000DFF8BC80044608EB0400002790F924001E
:100AB0001346C0170E46401C01D008274CE0B07802
:100AC0001946C0F340022046FFF7A6FE0546401C2B
:100AD00041D0B078410719D4C0070AD04FF0A040E8
:100AE00000EB8401D1F8000720F00200C1F80007F4
:100AF00007E000217378204600910A460191FFF734
:100B000013FF174920464531FFF7F2FEB078800702
:100B100018D51448317800EB8500D0F81025124B19
:100B20001A40C0F810254FF4F8524FF4403302EA4F
:100B3000042203EA01410A43D0F810150A43C0F821
:100B4000102509E008EB0500327810F83C1F41EA57
:100B50008211017000E004273846BDE8FC810000E6
:100B60000400002000600040FFE0FCFF70B5184D5D
:100B700095F8490008B1082070BD0020411E2A18D0
:100B8000401CC0B282F824102028F8D3002420464C
:100B9000FFF734FE641CE4B2092CF8D300240D499D
:100BA00045F8454FC02081F8000401264020891FE8
:100BB000C1F88002C1F800014FF4BE70FFF704FFD6
:100BC0000549F007C1F804032E71204670BD0000EE
:100BD0000400002006E000E00060004004490844F2
:100BE00090F92400082801DB01207047002070479D
:100BF000040000200449084490F92400082801D288
:100C000001207047002070470400002001000011FF
:100C10001213140D0E0F1000000000503C0C0000C9
:100C200000000020040000001C070000400C000031
:100C3000040000205C2000002C0700000090D0037E
:0400000500000201F4
:00000001FF
