:020000040002F8
:10600000105F0020DD630200E5630200E763020029
:10601000E9630200EB630200ED6302000000000090
:10602000000000000000000000000000EF6302001C
:10603000F163020000000000F3630200F563020058
:10604000F1660200F7630200B56C020015690200F8
:10605000F7630200F7630200296502006D67020022
:10606000F76302008D6C0200A16C0200F76302006E
:10607000F7630200F7630200F7630200F7630200B0
:10608000F763020049670200F7630200F76302004A
:1060900069690200F76302006D690200F76302009C
:1060A000F7630200F7630200F7630200F763020080
:1060B000F7630200F7630200000000000000000028
:1060C000F7630200F7630200F7630200F763020060
:1060D000F7630200F7630200F763020000000000AC
:1060E00000000000000000000000000000000000B0
:1060F00000000000000000000000000000000000A0
:10610000000000000000000000000000000000008F
:10611000000000000000000000000000000000007F
:10612000000000000000000000000000000000006F
:10613000000000000000000000000000000000005F
:10614000000000000000000000000000000000004F
:10615000000000000000000000000000000000003F
:10616000000000000000000000000000000000002F
:10617000000000000000000000000000000000001F
:10618000000000000000000000000000000000000F
:1061900000000000000000000000000000000000FF
:1061A00000000000000000000000000000000000EF
:1061B00000000000000000000000000000000000DF
:1061C00000000000000000000000000000000000CF
:1061D00000000000000000000000000000000000BF
:1061E00000000000000000000000000000000000AF
:1061F000000000000000000000000000000000009F
:10620000DFF80CD000F052F90048004721AB020043
:10621000105F002000B583B002900091019244F21B
:10622000010071466A4600F051FF03B000BD000056
:1062300030B450E8012F93B2C48923448489A34227
:1062400028BF1B1B0489A34202BFBFF32F8F00206E
:1062500007E0C3EA020340E80134002CE9D14FF023
:1062600001000A6030BC704750E8012FC2EA0242C8
:1062700040E801210029F7D1704730B450E8022FDF
:106280001FFAA2F3C488A34202BFBFF32F8F0020DE
:106290000DE0C48923448489A34228BF1B1BC2EAA2
:1062A000034340E80234002CE8D14FF001000A60BB
:1062B00030BC704750E8022FC2EA224240E8022177
:1062C0000029F7D17047034653E8022FD988B2EB73
:1062D000324F4FF0000017BF92B241EA014142EA4B
:1062E000014104E05A68B2EB324F08BF012043E895
:1062F0000212002AE8D1704730B4044654E8000F77
:106300000D4644E80053002BF8D1156030BC7047AF
:1063100030B4044654E8000F40EA010544E8005355
:10632000002BF7D1156030BC704730B4044654E8F8
:10633000000F00EA010544E80053002BF7D1156077
:1063400030BC704730B4044654E8000F80EA0105C1
:1063500044E80053002BF7D1156030BC704730B4CF
:10636000044654E8000F00EB010544E80053002BFD
:10637000F7D1156030BC704730B4044654E8000FC4
:10638000A0EB010544E80053002BF7D1156030BCA9
:10639000704770B404464FF0000054E8006F0D6879
:1063A000AE4207BF44E80023012044E800630E60CA
:1063B000002B1CBF0020F0E770BC704730B40446CF
:1063C00054E8000F88422CBF451A054644E80053A4
:1063D000002BF5D1156030BC70470000064880479F
:1063E00006480047FEE7FEE7FEE7FEE7FEE7FEE7BA
:1063F000FEE7FEE7FEE7FEE77169020001620200C8
:10640000202A04DB203A00FA02F100207047914074
:10641000C2F1200320FA03F31943904070470000B3
:1064200000487047B812030040EA01039B0703D0FD
:1064300009E008C9121F08C0042AFAD203E011F8C3
:10644000013B00F8013B521EF9D27047D2B201E085
:1064500000F8012B491EFBD270470022F6E710B569
:1064600013460A4604461946FFF7F0FF204610BDC2
:10647000421C10F8011B0029FBD1801A704730B56F
:1064800004460020034600E05B1C934203D2E05C1C
:10649000CD5C401BF8D030BD034611F8012B00F84D
:1064A000012B002AF9D1184670470000064C074D11
:1064B00006E0E06840F0010394E8070098471034D4
:1064C000AC42F6D3FFF7A0FE442603006426030087
:1064D00070B58C1810F8015B15F0070301D110F8A6
:1064E000013B2A1106D110F8012B03E010F8016BD3
:1064F00001F8016B5B1EF9D12B0705D40023521E56
:106500000DD401F8013BFAE710F8013BCB1A921CBD
:1065100003E013F8015B01F8015B521EF9D5A142BB
:10652000D8D3002070BD00002DE9F04700268AB0C6
:10653000DFF85091B0464FF4807501243746069637
:10654000284605F0A3FC38B1D9F80403204203D053
:10655000284605F091FC26432D1D64007F1CADB23A
:10656000082FEDD34FF4BE74204605F08FFC48B1E0
:10657000204605F081FC46F0004606AA01210020D5
:1065800005F066FC404D16F0FF0F15D001270024E2
:1065900037420DD009EB8401D1F81005D1F8101560
:1065A000C0F3042055F82420C1F3014102B1904703
:1065B0007F00641C082CEBD3002E5FDA4FF0FF3015
:1065C000CDF8108054E0281910F8507F90F90000A1
:1065D00027F0C008401C3BD007A9404604F0D3FD7B
:1065E00010B34FEA9719404602F0DAF855F82070D8
:1065F0001FB1B9F1030F03D006E0B9F1030F27D1A2
:1066000004A9404604F0C7FD4FF0A04101EB88000B
:10661000D0F8000706A9C0F3014A404604F0B3FDD4
:1066200018B1BAF1020F03D012E0BAF1030F0FD183
:10663000B9F1030F08D1BAF1020F1DD00221404673
:1066400005F0DCFB761CF6B217B149464046B84768
:10665000641C042CB7D3002E10D06A460121002000
:1066600005F0F6FB06990098884207D0069004983A
:10667000002634460790A6E70321E0E70AB0BDE80C
:10668000F0870000006000402832002000F01F0268
:10669000012191404009800000F1E020C0F8801203
:1066A000704700F01F02012191404009800000F175
:1066B000E020C0F80011704700F01F020121914056
:1066C0004009800000F1E020C0F80012704749073F
:1066D000090E002806DA00F00F0000F1E02080F833
:1066E000141D704700F1E02080F80014704700008E
:1066F00070B54FF48076304604F08BFE114CB50532
:1067000060B1304604F08CFE0120C5F808036079C2
:1067100020B9012060712168002088474FF48276FB
:10672000304604F076FE00280AD0304604F078FEA9
:106730000220C5F808032168BDE870400120084721
:1067400070BD00003C2B002007480021C0F840111C
:10675000C0F84411C0F84811C0F84C11C0F800113D
:10676000C0F8041109F04CBD001001402DE9FE43B2
:106770004FF48278404605F0BDFF4C4F00254C4C4D
:10678000012600B3404605F0BDFF94F82E0010B17D
:1067900094F82F10D1B18DF80050616801912189D2
:1067A000ADF80810E26832B1218B6183626021810B
:1067B000E56010B102E0257400E03E6021686846A3
:1067C000884784F82F5094F82E0060B34FF48077F8
:1067D000384605F08FFF30B3384605F093FF628BE3
:1067E00094F82D108A420AD9A2EB010080B260838E
:1067F0002289A2EB0000626802EB400005E007D1AD
:10680000E06828B184F82F60658305F061FF04E03B
:106810008A4202D184F82F606583404605F072FFFA
:106820002248001D06604FF48877384605F062FF65
:1068300048B1384605F066FF257402208DF8000047
:106840002168684688474FF48A77384605F052FF3A
:1068500028B1384605F056FF2574BDE8FE834FF099
:1068600000484FF48C7967691DE000BFB7FA87F0E4
:1068700028FA00F109EB80058F43284605F03AFF1E
:1068800088B1284605F03EFFA5F58C75E8088DF81F
:10689000040045F38000401C8DF800608DF8050071
:1068A000216868468847002FE0D1D6E70070004095
:1068B000EC32002000F004BA70B50E46144900EB2B
:1068C000400001EBC0051446E86A183520B10128E4
:1068D0000FD0022805D113E0284600F025FAA04287
:1068E00001D2002411E022463146284600F054FA35
:1068F0000BE0284600F018FAA042F4D20446F2E772
:106900003146284600F01BFA0446204670BD0000C0
:10691000403C0020F8B51248124E04464FF48C71EA
:1069200006F07BF900281AD00025C4F81851D4F8D5
:1069300018010090F07F3446FF2806D0A17F11B1E6
:1069400005F06DFA01E005F071FA65772572D4E97A
:10695000002101B004F10800BDE8F0401047F8BD87
:10696000003000401C33002009F098BB06F0C8B886
:10697000F0B5B5480023021D0178101D01254FF028
:10698000805406290BD11678360708D10678C6F34D
:106990000316032E06D0042E04D0052E02D006299D
:1069A00007D00EE0B4F82463A84FC6F304263E6077
:1069B00002E01678360704D10678C6F30316032ED4
:1069C00002D0062904D00FE0A24FA14E7E670EE050
:1069D0001678360708D10678C6F30316032E06D0BC
:1069E000042E04D0052E02D0062907D00EE0D4F8DC
:1069F0004462994FC6F342363E6002E0167836078D
:106A000004D10678C6F30316032E02D0062906D059
:106A100011E0924E376827F0807737600EE01678E5
:106A2000360708D10678C6F30316032E06D0042EC7
:106A300004D0052E02D006290AD011E04FF080467E
:106A4000C6F80C31C6F81031834E361F336002E0B1
:106A50001678360704D10678C6F30316032E02D043
:106A6000062905D00CE07C4F032664373E600AE01F
:106A70001678360704D10678C6F30316032E02D023
:106A800006290DD014E0764F05263E60744E783608
:106A90003560734E083633603F263F1D3E6002E08E
:106AA0001678360704D10678C6F30316052E02D0F1
:106AB000062957D062E06B4E36686B4F3E60694ED8
:106AC000361D36683F1D3E60664E083636683F1DEF
:106AD0003E60644E0C3636683F1D3E60614E103697
:106AE00036683F1D3E605F4E143636683F1D3E607F
:106AF0005C4E183636685C4F20373E60594E1C3667
:106B000036683F1D3E60574E203636683F1D3E605A
:106B1000544E243636683F1D3E60524E2836366845
:106B20003F1D3E604F4E2C3636683F1D3E604D4E39
:106B3000303636684C4F40373E604A4E3436366801
:106B40003F1D3E60474E383636683F1D3E60454E1D
:106B50003C3636683F1D3E60424E403636683F1D2B
:106B60003E6002E01678360708D10678C6F30316B1
:106B7000032E06D0042E04D0052E02D0062907D0FD
:106B800019E0D4F85812394A01F04F01116002E0BF
:106B9000117809070FD10078C0F30310032803D040
:106BA000042801D0052806D131480168C90702D060
:106BB0006FF001010160D4F83001062808D1D4F843
:106BC0003401062804D12B48016841F4806101603A
:106BD00022487438016841F470010160BFF34F8F9F
:106BE000BFF36F8F4FF01021D1F80002002803DBB4
:106BF000D1F80402002822DA1F4A15601F480468F1
:106C0000002CFCD01524C1F800420568002DFCD0F2
:106C1000C1F8044201680029FCD013600168002912
:106C2000FCD0BFF34F8F0D48F0380168144A01F4CF
:106C3000E06111430160BFF34F8F00BFFDE71249D0
:106C400010480860F0BD0000E00F00F04035014042
:106C50000DF0ADBA00C007403C050040FCED00E07F
:106C6000105600400404001020C50040E40E00400F
:106C7000000400403C17004004E5014000E40140EE
:106C80000400FA050090D003502C00200422024991
:106C9000024803F0DFBB0000D43200200090004027
:106CA00004220249024803F0D5BB0000E032002074
:106CB00000A000400148006800470000442B00206D
:106CC00010B5124C02202061606111A0A06104F196
:106CD0007800E0614FF4007020620020A0626062E2
:106CE0000BA1A164E06204F51E71E1641021A065AE
:106CF000C4E91410E06509A1E01DFFF7CDFB08A170
:106D00002046FFF7C9FB2020A07110BD403C0020A9
:106D10005465726D696E616C00000000525454003D
:106D200053454747455200000269C1688A4203D86B
:106D30008068401A104400E0501A401E70472DE948
:106D4000F047C4681746894606464FF00008306988
:106D5000A04201D9051B02E0B168201A0D1AB068E3
:106D60006D1E001BA84200D80546BD4200D33D461B
:106D700070682A4620444946FFF756FBB0687F1BDF
:106D80002C44A844A944A04200D10024F460002F60
:106D9000DDD14046BDE8F0872DE9F0410446884644
:106DA000D4E90207C51BE168606816460844B5428D
:106DB00006D94146FFF738FBB819E060BDE8F0811D
:106DC0002A464146FFF730FB761B08EB05013246A9
:106DD0006068FFF729FBE660F0E702E008C8121FD1
:106DE00008C1002AFAD170477047002001E001C1B4
:106DF000121F002AFBD170470121202803DA8140AD
:106E00000548014003E0402802DA2038814009B1FA
:106E10000120704700207047FC06FFBD10B560B12F
:106E200059B102780B785208B2EB530F05D1062204
:106E3000401C491CFFF723FB08B1002010BD0120B6
:106E400010BD800701D00020704701207047C36843
:106E50008B4206D811440069491E814201D80120A5
:106E6000704700207047000030B52A48A5B03C218B
:106E7000406824902848807C8DF892006846FFF78F
:106E8000ECFA02208DF8000001248DF80240062063
:106E90008DF803003C210FA8FFF7DFFA24A81F4D4F
:106EA0001490ADF84C402A1D6846296800F054FC47
:106EB00020B11BA240F2BF11FFF7ACF9174A0FA88F
:106EC0000C32A96800F048FC20B115A24FF4E17122
:106ED000FFF7A0F918211EA8FFF7BFFA00208DF8D0
:106EE0008D408DF87840ADF884001F908DF88C00AF
:106EF0004FF4C850094920901EAAA1F1140072DF76
:106F0000002804D006A240F2D111FFF783F925B082
:106F100030BD0000040D0300682C0020BC2A0020B6
:106F20002E2E5C2E2E5C2E2E5C6D61696E2E630003
:106F300010B588B10F481049401AC008032101EB71
:106F400000400EA105F0BEF907F082FD002810D028
:106F50000EA24FF4987108E010480121007873DF09
:106F6000002806D009A24FF4A071BDE81040FFF739
:106F700051B910BD2C2703008426030045726173AC
:106F80006520626F6E647321000000002E2E5C2E5F
:106F90002E5C2E2E5C6D61696E2E6300A82A002087
:106FA00070B58CB015460E4600236C46C3F10F0138
:106FB000415CE1545B1C102BF8D30D2104F110004F
:106FC000FFF74BFA0020C0F10F02315C2244401C55
:106FD00011740328F7D3684646DF0020C0F10F0183
:106FE000214491F820102954401C0328F6D30CB0FA
:106FF00070BD00000149C97800F0E8BC102B0020EA
:1070000070B50024084D05E0686810F8340005F0FC
:1070100097FE641C28788442F6D304484068BDE893
:10702000704000F001BA0000502B0020080F030050
:1070300070B50024064D06E06868012110F83400A0
:1070400005F0A2FE641C28788442F5D3002070BDB0
:10705000502B0020F8B515460C460646052A01D2ED
:107060000720F8BD05F08CFF18B905F051FF002886
:10707000F7D1124900224E600C708D60C1E90422E4
:10708000C1E906220E4D0DE006EBC400296800910F
:1070900081788DF8011000780A4A694605F0C6FE2D
:1070A0000028DED1641EE4B2EED2BDE8F840044808
:1070B0000021054A001D00F035B90000502B0020CA
:1070C000080F0300059C0200518D0200FEB5154615
:1070D0000E46074672B605F0ABF900BF04F0D8FFC4
:1070E0000028FBD12249234A0120891AC90800EB54
:1070F0000144012F23D06FF48050381822D0B0F50E
:10710000405F24D06FF44051C84206D12B882046FE
:1071100019A16A6805F0E1F804E0204632461DA195
:1071200005F0D4F821480068C00700D000BE2A4608
:1071300003B031463846BDE8F04000F079B820464B
:107140001BA101E0204622A105F0BCF8EAE7A868EF
:1071500005F084FD0346D5E90001CDE90010029653
:10716000204624A1AA6805F0C9F820462BA1EBE728
:107170002C27030084260300415353455254494FA2
:107180004E204641494C45442061742025733A25E0
:1071900075000000554E4B4E4F574E204641554C02
:1071A000542061742030782530385800F0ED00E02C
:1071B000534F46544445564943453A20415353455D
:1071C0005254494F4E204641494C4544000000006E
:1071D000534F46544445564943453A20494E56413B
:1071E0004C4944204D454D4F52592041434345534E
:1071F000530000004552524F52202575205B2573E5
:107200005D2061742025733A25750D0A5043206175
:10721000743A20307825303878000000456E6420BC
:107220006F66206572726F72207265706F72740083
:1072300008B501238DF800309DF80030144B18601C
:1072400059609A606FF48041401807D001280FD12F
:10725000DA60D86800889861D86807E01A61186910
:107260008068586118690068986118694068D86139
:10727000186858689868D868186958699869D8690A
:1072800072B600BF9DF800000028FBD162B608BDB1
:107290006033002010B502280ED108480849401A72
:1072A000C108032000EB0140044606A105F00AF8DE
:1072B000204610A105F006F8012010BD2C27030080
:1072C00084260300506F776572206D616E6167657B
:1072D0006D656E742077616E747320746F207265B3
:1072E00073657420746F20444655206D6F64652E5D
:1072F00000000000506F776572206D616E616765F8
:107300006D656E7420616C6C6F77656420746F209E
:10731000726573657420746F20444655206D6F64E8
:10732000652E0000084B9B7823B12AB120B100687C
:10733000037C1BB1082070470720704700230374AB
:1073400041744261184670478033002070B507F0E1
:10735000A1FE104800240B21047044700E4D817072
:1073600014206C602C706C70FFF790F906211420CB
:10737000FFF7ADF91420FFF794F9084804600621DF
:107380001120FFF7A4F90548001F0068A86000203D
:1073900070BD000080330020702B002008150140D4
:1073A0002DE9FC47DFF8789099F8023073B368B3A1
:1073B000052902D20720BDE8FC87436933B3437C2B
:1073C000012B25D0002704460025884616468DF857
:1073D0000050684600F038F801A809F0ADF9C8B1CE
:1073E000012101700F4944600968C0E90218C0E931
:1073F00004769DF8040089F801009DF8000000F073
:1074000047F81420FFF758F92846D4E70820D2E7B8
:107410000F46D8E704259DF8000000F039F8F3E79F
:1074200080330020041501400649897839B130B114
:10743000416921B100210174022108F0BDBE08207C
:10744000704700008033002030B5EFF3108172B632
:107450000D4A9468012324B10370002900D162B65B
:1074600030BD93604FF0E023D3F88051074C2540A6
:107470001560C3F88041D3F8844154605A17C3F8AB
:10748000842100220270E8E78C340020FC06FFBD56
:107490000B498A68002A11D000280FD1EFF3108021
:1074A00072B60B684FF0E022C2F800314B68C2F8A8
:1074B000043100228A60002800D162B670470000C3
:1074C0008C3400202DE9F041064608680C46411C2A
:1074D0004FF0A0474FF0010506D005FA00F1C7F8BC
:1074E0000815206804F076FC6068411C02D0012178
:1074F00004F05EFC3168A069C1F82405607D227D3E
:1075000031681043C1F86C05D4E900123068C0F846
:107510001425C0F80C15207D012815D1A068411C48
:1075200002D0002104F044FCE068411C05D08540F5
:10753000C7F80855E06804F04DFCD4E90212306841
:10754000C0F80825C0F81015BDE8F0812DE9F0411C
:10755000064608680C46411C4FF0A0474FF0010555
:1075600006D005FA00F1C7F80815206804F03CFCC5
:107570006068411C02D0012104F023FC3168A0693D
:10758000C1F82405607D217D32680843C2F86C058E
:10759000D4E900123068C0F80C15C0F81425207D1D
:1075A000012815D1A068411C02D0002104F009FC7B
:1075B000E068411C05D08540C7F80855E06804F034
:1075C00013FCD4E902123068C0F80825C0F8101581
:1075D000BDE8F08103F074B92DE9F04781460588D4
:1075E0004A484FF000088AB001784246284600F029
:1075F00005FA99F80500400701D4002176E005F569
:107600008077B8B201AB0122072106F003FC040029
:107610003F48404A4FF00101A0EB02004FEAD00082
:1076200001EB00460AD0204605F018FB0246304622
:107630002B46394904F051FE214629E0284602F044
:10764000A3FD4FF6FF71044688422BD18A4602986B
:1076500002F004FD0446504510D00146284602F0D1
:1076600073FD2846FFF7C6FCE0B9284607F032FF55
:107670002846FFF7BFFC0028BFD013E006F096FDB8
:107680000446504508D1304624A104F01BFE0421D5
:10769000284607F04DFFB0E70146284602F054FDAA
:1076A0004FF00108B8B22246072106F02BFC070074
:1076B0001BD0862F1ED005F0D1FA024630462B464D
:1076C0002349009404F011FE3946284607F030FFA4
:1076D0000021484606F094FAB8F1000F02D0204687
:1076E00002F03CFD0AB0BDE8F0870121484606F0F3
:1076F00087FAF7E71822174903A8FEF795FEADF8B9
:107700000E5003A801F086FDEFE70000102B0020CB
:10771000C4260300842603001C1A0300436F756C03
:1077200064206E6F7420616C6C6F63617465206E91
:10773000657720706565725F696420666F72206985
:107740006E636F6D696E6720626F6E642E0000005D
:10775000C81A0300680E03002DE9FC4700251788AE
:107760000646158090F82D001446894630B13A46F9
:107770002146484600F06CF9051E09D1B0784FF05B
:107780000C0A18B32088C846001DB84202D95046DA
:10779000BDE8FC87684679DF0028F9D120880321FD
:1077A00008F8001020881921401C80B2208008F8B9
:1077B00000102088401C80B2208000EB0801BDF83A
:1077C000000008F0E5FE218808442080F0780222BD
:1077D000C8B1218896F9033001F1030C4846BC4535
:1077E000D5D8425421884FF0010C491C89B2218020
:1077F00000F801C02188491C89B2218009F80130B4
:107800002088401C20807068B8B1218890F9003031
:1078100001F1030C4846BC45B9D8425421880A22DC
:10782000491C89B2218042542188491C89B2218097
:1078300009F801302088401C2080308950B1CDE902
:1078400000474B460622022106F1080008F08CFF93
:10785000051E9DD1308A50B1CDE900474B46072225
:10786000032106F1100008F07FFF051E90D1308B38
:1078700050B1CDE900474B461522142106F11800FE
:1078800008F072FF051E83D1306A30B13B462246B4
:10789000494601F00CF9051EDBD1706A30B13B4658
:1078A0002246494603F02AFA051ED2D196F82C004A
:1078B00038B13B4622464946304607F03FFF051E99
:1078C000C7D1307838B13B4622464946304603F0AE
:1078D000C2FA051EBDD128465AE7000070B5040063
:1078E00012D001461C221448FEF79EFD1248134D8B
:1078F0000560206850B17ADF002806D12068016851
:1079000029604068686005E00E2070BD0B487BDF91
:107910000028FAD108484FF6FF711438084A20F8B9
:10792000041B0549343901600021FFF7FBFC0028E6
:10793000EBD0032070BD0000542F0020CC2A002083
:10794000A106030010B5044600F078F8002805D021
:107950002146BDE81040024803F079BB10BD00008D
:10796000802F002070B515460E46044608F0CCFE68
:10797000002809D0054800EB840080692A4631467A
:10798000BDE8704001F07ABE70BD0000702F00208D
:1079900070B50546002400F051F838B12946044876
:1079A00003F055FB08B1022400E00124204670BD1D
:1079B0007C2F002010B51821034803F023FB182862
:1079C00000D0C0B210BD0000702F002070B5054679
:1079D0000C46084608F098FE60B1284600F02EF8E4
:1079E00040B10548294600EB8400BDE870401830DE
:1079F00003F02DBB002070BD702F002070B5054630
:107A000014460E46084608F07FFE002812D028468D
:107A100000F014F800280DD00748294600EB860036
:107A200018301CB1BDE8704003F01CBBBDE87040CD
:107A300003F0CDBA70BD0000702F0020142801D3D0
:107A4000002070470146014803F001BB742F00205D
:107A50007CB5054608880C460930904201D90C20B7
:107A60007CBD68466DDF0028FAD121880820685463
:107A700020881B21401C80B2208029542088401C73
:107A800080B220802844DDF801100160BDF80510A7
:107A900081802088801D80B220809DF800104908D8
:107AA00000D0012129542088401C208000207CBD6A
:107AB00010B503F0BDFC002809D105484FF0030CB8
:107AC00000DF002803D1BDE8104003F017BD10BD52
:107AD000E43E002018B103490860002070470E20E2
:107AE000704700004C2C002010B54FF0FF310020F3
:107AF0003DDF00280BD1B1213CDF002807D104482D
:107B0000416901208847022004F0A8FD002010BD33
:107B1000C83E0020044810B500684169002088472D
:107B2000BDE81040FFF7E0BF4C2C002010B588B036
:107B3000044620216846FEF790FC0320ADF80000C3
:107B400020788DF802009DF80D00172140F02800E4
:107B50008DF80D0001208DF810008DF81300ADF8A0
:107B600004108DF812008DF80C008DF8110060885B
:107B7000A21D694600F01CFE08B010BD10B5184CDF
:107B800086B01ECC8DE81E0050B1164C4FF6FF712A
:107B9000A1800068002160616176217618B104E05F
:107BA0000E2006B010BD104860610E48FFF792FF2E
:107BB0000028F6D101208DF812004FF65960ADF87B
:107BC0001000A21C04A90120A8DF0028E9D1054962
:107BD000684662DF0028E4D10248FFF7A7FFE0E72C
:107BE00024120300C83E00209D8F020010B500281B
:107BF0000FD00188214C502926D00BDC10291DD034
:107C0000112906D1A1888088814202D14FF6FF70E8
:107C1000A08010BD512913D05329FAD1C088E18822
:107C20008842F6D1607E0028F3D0FFF773FF00286A
:107C3000EFD06169BDE81040022008478088E7E77F
:107C4000BDE8104005F060BE30F8061F6289914221
:107C5000DFD141890229DCD10C3000F037FC084922
:107C6000084A2076891AC908032202EB014302461A
:107C7000BDE8104004A1184604F028BBC83E00200F
:107C80002C270300842603005265636569766564CA
:107C900020696E6469636174696F6E2073746174C6
:107CA00065202564000000002DE9F0410546007BB9
:107CB000042601272E4C012811D002282CD00226A0
:107CC000287B314600F08EF818B120684169032006
:107CD0008847206841690220BDE8F04108472068D4
:107CE0004FF00008817E49B10621012000F07AF8AA
:107CF00000283BD0206841690320EDE74776012149
:107D0000084600F06FF8002830D02268112882F869
:107D10001980D5D10626D3E76A7B142A22D80AB364
:107D2000DFF8508005F10E0108F10400FEF77CFB3E
:107D3000697BC8F8181021684046897E0029BFD1A8
:107D4000A0F10C010A68011F904768B10F28B7D154
:107D500009480A49401AC00807EB0040084904F0E6
:107D6000B1FAADE70526ABE720688776BDE8F0817C
:107D70004C2C0020F03E00202C270300842603001A
:107D80001024030070B5154900250A68002A24D084
:107D90004A68002A21D00831904708281DD0104C8D
:107DA0000028206885760ED00621022000F01AF8FF
:107DB00018B1206841690320884720684169022082
:107DC000BDE8704008470121022000F00BF80028B0
:107DD00003D0206841690320F2E770BDE43E002033
:107DE0004C2C002086B00323ADF8003020238DF802
:107DF00014308DF8150000220E48019202928DF881
:107E00001610C188ADF8041002218DF8061005A9DE
:107E10000491ADF80820CDF80CD0808801A9AEDF20
:107E2000002804D1BDF80010032900D00C2006B0B2
:107E300070470000C83E0020114A124B03219A1AD5
:107E4000D20801EB024270B101280FD00C4A012187
:107E50009A1AD20801EB024202280AD003281046DF
:107E60000AD009A109E0104611A106E010461CA1A4
:107E700003E0104623A100E031A104F023BA000082
:107E8000842603002C270300556E6B6E6F776E20DF
:107E90006576656E742066726F6D20626C655F64D6
:107EA00066755F627574746F6E6C6573732E000017
:107EB00044657669636520697320707265706172CC
:107EC000696E6720746F20656E74657220626F6FD3
:107ED000746C6F61646572206D6F64652E000000C4
:107EE0004465766963652077696C6C20656E74659E
:107EF0007220626F6F746C6F61646572206D6F6465
:107F0000652E00005265717565737420746F20656D
:107F10006E74657220626F6F746C6F61646572203D
:107F20006D6F6465206661696C6564206173796E4C
:107F30006368726F6E656F75736C792E0000000058
:107F40005265717565737420746F2073656E64205B
:107F50006120726573706F6E736520746F20636C3F
:107F600069656E74206661696C65642E00000000AE
:107F70002DE9F843018800274C4C0646212974D08E
:107F80001CDC4B4A4B484FF00108A2EB00004FEAC3
:107F9000D0004FF0030202EB0045102920D0112938
:107FA0003DD0132939D100231A468521A0887FDFCF
:107FB000002832D040A240F2E9210DE03B296BD0ED
:107FC00052295ED0562928D18088132176DF0028D7
:107FD00023D039A240F20B31BDE8F843FEF71AB9BD
:107FE000284639A104F06EF984F80280454684F8E9
:107FF0000380012000F0C6FA002000F0BBFAB1882F
:10800000A180344803F08AF920B12BA24FF43271D9
:10801000FEF700F9FFF70CF86570BDE8F883284615
:108020002DA104F04FF92B48A77084F803800C3081
:1080300001F004F90028284601D02BA100E030A16E
:1080400004F040F9012000F095FA4FF6FF70A0808F
:10805000FEF7D6FF20B118A240F2DF21FEF7DAF8D2
:10806000BDE8F8430020FEF763BF009780886946AB
:108070008FDF0028D1D010A240F2F521FEF7CAF818
:10808000CBE700231A461946A088B1DF0028C4D0E8
:1080900009A240F2FB219FE78088132176DF0028A8
:1080A000BBD005A240F2033196E70000A82A0020C9
:1080B0002C270300842603002E2E5C2E2E5C2E2EF1
:1080C0005C6D61696E2E6300436F6E6E65637465EF
:1080D00064000000982C0020446973636F6E6E6525
:1080E0006374656400000000665F73796E632064EA
:1080F0006973206661696C65640D0A2E00000000DA
:10810000665F73796E63206469732073756363655A
:108110007373210D0A2E00002DE9F04701883B4EB4
:1081200040F2F3194FF6FF7510291BD011293ED0EC
:10813000122954D0502946D1C188F289841D914218
:1081400041D1618902293ED18688304602F0CAF8C1
:10815000050038D004F10C0000F0BCF9A8B32946A2
:1081600030464EE0C17B8788044601292BD1A846C2
:10817000284602F0B7F8050017D02F80002028729B
:10818000234843464A460168C5F80A104068C5F8C6
:108190000E0004F1100105F10A0002F087F968727F
:1081A000F08900280FD129462AE0042013E08088B6
:1081B00002F098F8040006D06068FFF735F908B1BE
:1081C00007F09AF92580BDE8F087FFE76868FFF7B8
:1081D0002BF90028F7D0BDE8F04707F08DB9878864
:1081E0000646384602F07EF80400ECD02B464A469C
:1081F00006F1080104F10A0002F058F96072214604
:108200003846BDE8F04700F0A5BC0000542F002020
:10821000CC2A00202DE9F04F0746858802883E4889
:10822000012197B08346102A09D0112A4BD01A2A6F
:108230006ED1387AB1EB101F47D2012246E0364C9E
:10824000083CA068C0430B9061680BA802F023FFB4
:108250000B990CA800F00CFC2C220CA96846FEF728
:10826000E3F80026E946A04610E000BF09EB46000F
:108270005FF00004B0F804A008EB84005146001D34
:1082800002F0A5FE641C1D2CF6D3761C0098B042AB
:10829000ECD8142D07D317B0E321BDE8F04F1FA28F
:1082A0000420FDF7B7BF2946584602F0DBFE2946F9
:1082B00008F1040002F0D6FEF87B012828D0164809
:1082C0002946001D15E029461AE000220221B1EBE3
:1082D000101F01D2012600E000260F49083901F1E4
:1082E0001000041D294682B102F0BCFE36B12946B9
:1082F000204617B0BDE8F04F02F0B4BE2946204634
:1083000017B0BDE8F04F02F062BE02F060FEF5E784
:1083100017B0BDE8F08F0000782F00202E2E5C2EC5
:108320002E5C2E2E5C2E2E5C2E2E5C2E2E5C636F11
:108330006D706F6E656E74735C626C655C636F6D9F
:108340006D6F6E5C626C655F636F6E6E5F737461A0
:1083500074652E630000000010B5044607480078DD
:1083600000280AD0204601F0EBFD204607F0C2FAB3
:108370002046BDE8104001F0C9BA10BD002B002016
:1083800070B58EB0044608686061304B4868A061E3
:108390000FCB08AD85E80F0004F1120108A862DFD9
:1083A000002851D1A07C8DF8320041F22350ADF865
:1083B000300022460CA90120A8DF002844D120214A
:1083C0006846FEF74AF841F22450ADF80000A07C60
:1083D00001258DF802008DF80C509DF80D00ADF8C8
:1083E0000650F42640F012008DF81150ADF80460EC
:1083F0008DF80D008DF81350208804F10A026946AB
:1084000000F0D6F900281FD120216846FEF725F894
:1084100041F22550ADF80000A07C8DF802009DF8D7
:108420000D00ADF806508DF80C5040F00E008DF8A0
:108430001150ADF804608DF80D008DF812502088B1
:10844000A21C694600F0B4F90EB070BDDC0E03004A
:1084500030B40288502A1BD1C4884D88821DAC429A
:1084600008D15389012B05D14B691BB1127B808840
:1084700030BC1847AC420BD15389012B08D98C6909
:10848000002C05D08088A44630BCDBB20C3260479B
:1084900030BC704786B01423ADF81030A0F57F4390
:1084A000FF3B11D000230093019302930393012318
:1084B0008DF802304989ADF8001004A9CDE9021207
:1084C0006946AEDF06B070470820FBE70078C0F3CE
:1084D00040007047007800F00100704708B504F0D4
:1084E000D5FA20B10D4A40F21E31FDF793FE00206F
:1084F00000906946012004F019F920B1074A4FF4B1
:108500004971FDF787FE684604F0AAF9002804D0F7
:10851000024A4FF44A71FDF77DFE08BD8C6F0200E0
:108520002DE9FC410646C0074FF000050ED0104F64
:1085300000240122385D009500231146019503F0C7
:10854000DDFB641C042CF4D300F024F8B0070DD537
:10855000074E0024361D0022305D0323009511468E
:10856000019503F0CBFB641C042CF4D3BDE8FC8123
:10857000250D03000249085C012103F05EBC0000E8
:10858000250D03000249085C002103F056BC0000E1
:10859000250D030010B500242046FFF7EBFF641CF7
:1085A000042CF9D310BD00002DE9F8430546861CC4
:1085B00000208DF8000090460F464FF001096846F4
:1085C000FEF742FF1B4C20683860D4E90001401AD6
:1085D000A16804F21C47081A0EE00121384602F097
:1085E00054FD02F04FFA0146384602F04EFDD4E940
:1085F0000001401AA168081A401C8642EDD8B8F163
:10860000000F03D0052065F3891002E0062065F312
:108610009F50A2682168114004EB8101C860206866
:10862000304420609DF80000FEF732FF4846BDE868
:10863000F88300001C38002030B482680468531CA2
:108640008360A154D0E901128A4202D330BC03F006
:108650001AB830BC70470000034803C8814201D1FA
:1086600001207047002070471C38002010B50D28ED
:1086700003D011A240F2473119E013481349401AC0
:10868000C008032101EB004011A103F01BFE002CE8
:1086900011D0A4F5405002380DD0082C0BD043F275
:1086A0000140844207D0204603A240F24231BDE897
:1086B0001040FDF7AFBD10BD2E2E5C2E2E5C2E2E71
:1086C0005C6D61696E2E63002C2703008426030015
:1086D00053656E6420627574746F6E207374617478
:1086E00065206368616E67652E0000001CB5044656
:1086F00001F04AFD00236A46092105F0CDFC05285A
:1087000005D10348012241792046FFF777F91CBDC6
:10871000D42A00201CB50021009142F6A621ADF814
:10872000001001218DF80210034901AA0968019186
:108730006946A0DF1CBD0000480D030005494FF04D
:10874000FF32082841F8202002D3084480F848204E
:108750007047000028320020F0B54FF0FF3512B10D
:108760000023082601E008230C260C4C05E000BF7E
:1087700054F823707F1C04D05B1CB342F8D3284606
:10878000F0BD26185DB286F8305044F82310002A58
:10879000F5D1E11881F84800F1E700002832002007
:1087A0000249084490F93000704700002832002048
:1087B0002DE9F0438146887891B090460C4600B987
:1087C00001208DF83E002088ADF83C000025009582
:1087D000607C694607F038F86E46A07C711C07F093
:1087E00033F8E07B00289DF8020002D040F008003A
:1087F00001E020F008008DF80200217C11B140F06A
:10880000100001E020F010008DF80200217B11B172
:1088100040F0010001E020F001008DF80200217D10
:1088200009B1022100E0012161F342008DF802004C
:108830001C2102A8FDF711FE607BC10601D4800651
:1088400017D50E950EAFE07C791C06F0FDFF9DF864
:108850003800079720F00F00401C20F0F000103087
:108860008DF838009DF83A0020F00600801C8DF845
:108870003A00607B8DF80800A07B8DF80900142178
:1088800009A8FDF7EAFD0FA8CDE90906A088ADF813
:108890003000A06820B1E088ADF82C00A0680D90F1
:1088A000A06998B301950088ADF81000A06901ADEA
:1088B00001A94088ADF81200A069406806950390B0
:1088C000A069007B06F0C0FFA069691C407B06F030
:1088D000BBFFA069807A00289DF8060002D040F016
:1088E000080001E020F008008DF80600A169C97AAF
:1088F00011B140F0100001E020F010008DF80600EA
:10890000A169097A19B140F0010002E00DE020F000
:1089100001008DF80600A169897B09B1022100E000
:10892000012161F342008DF80600E06900B1059075
:10893000434609AA02A94846AADF11B0BDE8F08360
:1089400070B504464FF6FF750A462846AC4209D179
:108950004FF480742146104602F054FB80B2A042CE
:108960000BD070BDFF2CFCD82146104602F03AFB1C
:1089700090F0010F01D0204670BD284670BD000068
:1089800070B5084C050009D010342168002907D0C3
:1089900008682060496828468847F6E70834F4E705
:1089A00070BD000014320020054A012120B10128C9
:1089B00005D19170FFF7E4BF51700020FAE77047CE
:1089C000143200202DE9F05F26484168F1B3DFF84A
:1089D00098B00E688146DBF8004087688078E11B1C
:1089E00021F07F45ED1CB0B9DFF880804FF4803076
:1089F000C8F84403C8F804031120FDF747FE11200E
:108A0000FDF74FFE4FF0010AC8F800A02F2004F038
:108A10008FF989F802A0B54200D23546124BE81909
:108A20003C3320F07F401860DBF800105A46091BE9
:108A300021F07F41001B20F07F40C91C81420FD9EB
:108A4000106818602F2004F073F900E004E0BDE81E
:108A5000F05F1120FDF730BEBDE8F05F06F01ABBF5
:108A6000BDE8F09F702B002004150140001001406C
:108A700073B58CB00646002000900D9880B100249C
:108A80006D4621460DA802F0E2FA30B1009805EBE0
:108A9000400084800098401C0090641C142CF0D38B
:108AA0002C2269463046FDF7BFFC0EB070BD2DE9A3
:108AB000F04117880646B81D14460D46984202D963
:108AC0000C20BDE8F0813188072206290AD34FF433
:108AD000486C4FF6FF73614501D9994202D1708805
:108AE000062801D21046ECE7604501D99842F9D139
:108AF000994203D0984201D08142F3D80520E8552D
:108B000020881221401C80B2208029542088401CDB
:108B100080B220804119308807F03AFD218808444E
:108B200080B220804119708807F032FD2188084406
:108B300020800020C5E7000002A240F29521FDF749
:108B400069BB00002E2E5C2E2E5C2E2E5C6D6169A2
:108B50006E2E630038B54A7A0F4B62B100220A725A
:108B60005969002906D001228DF80020ADF80200D5
:108B70006846884738BD0A7A62B19B684C680246ED
:108B800019462046FEF70CFC0028F3D0BDE838401B
:108B900006F0B2BC5B68F1E7542F0020F0B587B057
:108BA00016460F4604461D4618220B496846FDF737
:108BB0003BFC0A488DF80870ADF80240ADF80A6039
:108BC0008DF80C50017800222046FEF717FF68460A
:108BD00000F020FB07B0F0BD800E0300102B00203A
:108BE00070B588B00646002005900690ADF81410C8
:108BF000ADF816100190029001AA05A9304690DF49
:108C0000050021D004F02AF80346114811493246E4
:108C1000401AC108012000EB014004460E4903F050
:108C20005CFBBDF8042012B9BDF8060028B1BDF800
:108C30000630204609A103F050FBBDF808201AB108
:108C40002046164903F042FB08B0284670BD0000DC
:108C50008426030084260300BC12030054686520A8
:108C60007265717565737465642054582F5258206D
:108C70007061636B6574206C656E677468206973DE
:108C800020746F6F206C6F6E672062792025752FBE
:108C90002575206F63746574732E0000081303003C
:108CA00070B504460948012102F00AFABFF35F8F4C
:108CB0000025002808D1204601F05EFE002803D1DF
:108CC000BFF35F8F0148056070BD0000E02A0020FF
:108CD0007FB50C4610B1012004B070BD207900268C
:108CE00038B141F61D5501281BD0022826D00F208F
:108CF000F2E70220207102960396E068019069462F
:108D000001A806F023F950B102988188E18000881B
:108D10002081BDF80010029806F096F9DCE70A20E1
:108D2000DAE70A4B6A460021A01D06F0CBF838B1FD
:108D3000064918398E61CE610A28CDD12846CBE785
:108D400002488188019806F07FF9F5E7A42B0020FE
:108D50002DE9F0470025DFF88C803CE060680021B9
:108D600000EBC506012032789146FDF749FBD4E9B6
:108D7000062300EA020701EA030C57EA0C0728D091
:108D800082438B434846C4E9062304F0B7F832789F
:108D90008246914601200021FDF732FBD4E90423ED
:108DA00000EA020401EA03074A4650460021FDF7A3
:108DB00027FB44404F403C430BD17078012801D041
:108DC000012100E00021726881EA0A010AB14846E7
:108DD00090476D1CEDB298F8000044468542BDD323
:108DE000BDE8F087502B002038B51D4D2B789842F8
:108DF00001D3042038BD00EB400439B118480129E3
:108E0000406815D002291DD0012038BD01208DF801
:108E1000000068686A46002150F8240002F0F6FA63
:108E200008B1112817D19DF800000028F1D112E0F7
:108E300050F8240088B101681446496988470068E1
:108E4000206008E050F8240038B1016814464969F0
:108E5000884780882080002038BD032038BD00006E
:108E6000442C0020FEB51D4C2578A8420DD263B1DC
:108E700000EB4005606850F8256026B100EB8506E0
:108E8000777AFF0703D00320FEBD0420FEBD0092C9
:108E9000CDE901310121B17250F825606F4630688B
:108EA00041693046884700680099884214D9306883
:108EB000394682683046904710B10DE040688047DF
:108EC000606800EB8500817A0029F7D1606800EBCB
:108ED0008500007A0028D9D00120FEBD442C002056
:108EE00006490A78904201D301207047496800EB97
:108EF000400001EB8000407A70470000442C0020C5
:108F0000FEB5204C2578A8420DD263B100EB400598
:108F1000606850F8256026B100EB8506777AFF0778
:108F200003D00320FEBD0420FEBD777A7F0701D564
:108F30000220FEBD0092CDE901310121B17250F84D
:108F400025606F463068416930468847006800995F
:108F5000884214D930683946C2683046904710B10B
:108F60000DE040688047606800EB8500817A002949
:108F7000F7D1606800EB8500007A0028D9D0012085
:108F8000FEBD0000442C002010B50021024802F074
:108F900097F880F3100010BD383C002070470000A7
:108FA0000E4910B50A784C780023A24212D0521C08
:108FB000D2B20A70022A00D10B70084A0B780C3228
:108FC00052F8232002608868104420F07F408860B7
:108FD000012010BD0360002010BD0000702B002098
:108FE00013460A460021FFF7D9BD00002DE9F843DA
:108FF000104D0F4680461E4691466946286801F08E
:10900000BAFF040014D01C21FDF727FA01202071BB
:10901000C4F81490380BC4F80080C4E902606946B3
:10902000286801F0C9FF05F0C7FE0020BDE8F883FD
:109030000420FBE70011030010B503780022072B82
:1090400006D2DFE803F005040610202930000A707C
:1090500010BD01230B7003898B818388CB81C0688D
:1090600088600A7410BD02220A7002898A8182888F
:10907000CA81C2688A60807D062802D000200874F8
:1090800010BD0120FBE703220A70C2888A81028991
:10909000CA81C068886010BD04230B70C0888881B5
:1090A000CA818A6010BD0520087010BD70B5064DDC
:1090B0000646002455F8241009B130468847641C40
:1090C000042CF7D370BD0000C034002030B5044636
:1090D000006887B00D46806800281FD018216846B8
:1090E000FDF7BBF90195A0680590207910B1012822
:1090F00010D107E001208DF8000020690290E0689F
:10910000039005E002208DF80000E0680003029063
:1091100060690490206881686846884707B030BD60
:109120002DE9F04186B016460C00804629D0112C5E
:1091300027D0082C25D018216846FDF78EF9ADF808
:109140000280404601F020F8ADF804001B481C499D
:109150000027401AC5080D2C16D0204603F07EFDCE
:109160000246012000EB05404346164903F0B5F8DE
:1091700007208DF8000002948DF80C70684600F00E
:1091800057F806B0BDE8F081022000EB05404246EA
:109190000D4903F09BF803208DF8000026B13078CC
:1091A000C00701D0012000E002208DF8080041F244
:1091B00001108DF80C70ADF80A00DFE7CC26030033
:1091C00084260300E81C0300D81B030010B50446E6
:1091D000408800F0D9FFA080024801682046BDE821
:1091E00010400847DC2A00202DE9F0410746002402
:1091F000064E074D05E000BF56F824103846884754
:10920000641CE8788442F7DBBDE8F081C8310020B7
:10921000002B002010B50446408800F0B5FFA08068
:10922000024801682046BDE810400847340E03009C
:109230000149096808470000D80E0300F8B5044644
:10924000694607F0F8FA00280ED1217C4A060BD5B2
:1092500008060ED50098E2690123407804F1280140
:10926000FFF74EFE08B10120F8BD207C00F07F0022
:109270002074154E216A009801F0D0FD0028F3D12A
:10928000656A2946E87A40F02000E872A268206802
:1092900006F0D2FD05F11C00E16806F0E1FD314663
:1092A00005F1160006F0DCFD002105F1120006F0C4
:1092B000DFFD00980121C17006F050FE217C01F015
:1092C000BF012174F8BD00000000214870B586B0D0
:1092D000044618216846FDF7C0F8A0890125A0F5CD
:1092E0004040ADF804002078324E062835D2DFE841
:1092F00000F0340303032E4EA08900F08BF930B93F
:10930000E08943F6FE71A0F54040884225D8A07B55
:109310008DF808002078032811D000208DF809006E
:10932000A0680390606860B109208DF80000606853
:1093300004908DF81450684604F000FE0DE0012002
:10934000ECE708208DF800008DF81050F3E7A089B5
:1093500000F060F908B1E08930B17078002801D0E0
:1093600004F036FF06B070BD606840B10B208DF888
:109370000000606802908DF80C507570DBE70A20E1
:109380008DF80000BDF8040004F0C0FFF5E7606848
:1093900058B114208DF80000606802908DF80C50D0
:1093A0004FF6FF70ADF80400C5E713208DF80000FC
:1093B000F6E70000EC2A002038B504460E48007895
:1093C000A8B1A4F57F40FF380FD0684605F026FC11
:1093D00078B10521017001210171C480684605F052
:1093E0002BFC05F0DBFC002038BD042038BD02203A
:1093F00038BD082038BD0000AC2B00200C4808B553
:10940000007888B1684605F009FC78B10621017042
:10941000684605F011FC0748017809B10121017384
:1094200005F0BCFC002008BD022008BD082008BDD6
:10943000AC2B002084350020F0B587B0142168469D
:10944000FDF70BF82B4C207818B16846FFF72EFE7D
:109450004EE0201D01F016FEB8BB4FF01020416910
:109460000004026940694B1C01D100FB02F1224853
:1094700000220161A1F54051C160204902F098FA33
:10948000002820D11F481C238C221D49006801F0B0
:109490005FFD04F0E7FA051E14D0022812D0002761
:1094A0000126062D12D005A805F0B8FB88B106707C
:1094B0000C2D18D2DFE805F0170F170F1716171627
:1094C000171113110B2007B0F0BD11E02670676073
:1094D000BBE70820F7E7077105E0032100E0022160
:1094E000017100E0067105A805F0A6FB05F056FC29
:1094F0000020E8E7AC2B0020542C002010110300C2
:10950000D03400208810030038B5040014D0694618
:1095100005F01CFDA0B1BDF8000000EB800109487A
:1095200000EB8100C16849B1A17A39B1C168491E17
:10953000C1600020A07238BD052038BD062038BDAE
:109540000A2038BD5C3500201FB501A9684605F02A
:10955000B9FC04B010BD07B513460A4669460020A1
:1095600005F0B0FC0EBD07B513460A46002168465B
:1095700005F0A8FC0EBD20B119B1006808600020FC
:109580007047052070470000F8B50D46040018D05C
:10959000BDB1694605F0DAFCA8B1BDF800000B4981
:1095A00000EB800001EB800001210C30666801F0C7
:1095B0006CFD2E6060680C3068600120A072002095
:1095C000F8BD0520F8BD0A20F8BD00005C3500207C
:1095D00018B10323002207F06DBA0520704702235B
:1095E000002207F067BA0000084910B50A69042A8A
:1095F0000AD0074A096942F82100044801211030C5
:1096000001F043FD002010BD0C2010BD8C2B00206C
:10961000C034002043F6FE71A0F54040884201D8D6
:10962000012070470020704710B5044600781828C4
:1096300002D1FEF7BFF9207010BD10B504460078C6
:10964000182802D1FEF7B6F9207010BD70B5134688
:1096500000220546112900D10122074C33B121799E
:10966000FEF7CCF900226178284600E06178BDE879
:109670007040FEF7C3B90000182B0020F7B517465D
:109680000E0011D00098002560B1002421466846E4
:1096900001F0DDFC18B1A0B23946B0476D1C641C66
:1096A000142CF3D32846FEBD0020FEBD406805F013
:1096B000D5BA00000EB516A19DF8080020F00F00E5
:1096C000401C20F0F00010308DF808000C2202A899
:1096D0007CDF20B1124A4FF4C771FCF79BFD0020DC
:1096E000009001901020ADF80000ADF802005A2063
:1096F000ADF804004FF41670ADF8060068467ADF46
:10970000002804D0064A4FF4CC71FCF783FD0EBD4F
:10971000496D706564616E63654A595900000000C7
:109720008C6F020070B508B1012070BD1B4C002584
:10973000207B08B1257301E000F0A4F82078082808
:109740002AD2DFE800F02904080C10291422BDE811
:10975000704000F025B8BDE8704000F081B8BDE869
:10976000704000F063B8BDE8704000F03FB80620DC
:1097700020706088094900EB8000283901EB8000E7
:109780004068BDE8704004F04DB907202070656066
:10979000BDE8704004F054B90F2070BD843500203E
:1097A0001149F0B48A1C00200346A1F128050C18C9
:1097B000A67A4EB1A37200EB800405EB8404E66840
:1097C00016B9247C012C0AD0401C80B20228EED3AA
:1097D0000B704B804B60F0BC41F61D507047108001
:1097E000F0BC00F03DB80000843500200C484188F2
:1097F00001EB8102A0F1280101EB8201CA6852B19C
:10980000052101700748022181800168002301229F
:10981000054802F031B8042202704968F6E70000FA
:1098200084350020B42B0020542C002038B50A4980
:10983000084803240B684268898803EB8101538838
:109840000470DB1C00201B0400909B0B034802F0FB
:1098500067F938BD84350020B42B0020542C00203B
:10986000074910B54888091D05F0C0FB18B1BDE8CF
:109870001040FFF7DBBFBDE81040FFF7B7BF0000A7
:1098800084350020F0B51F481F49012506780224C1
:109890008B88A0F12802082E19D2DFE806F0041800
:1098A000181B222F2F170189491C0181002141809B
:1098B00080F80C1001EB810312F8233043B1002330
:1098C0004418491C89B2A3720229F3D30570F0BD74
:1098D0000123F5E742685288D21C1A448A8004703A
:1098E000F0BD46880D6806EB860602EB86025668D8
:1098F0000E60556013818C80062100E00721017005
:10990000F0BD000084350020B42B00202DE9F0418B
:10991000044680882188394E86B00746352937D0DD
:10992000502923D0522902D054295DD102E000F001
:10993000C7FF59E0182232496846FCF775FDADF8BB
:109940000270384600F020FCADF8040000F09CF9ED
:10995000002231793846FEF751F80022F178384676
:10996000FEF74CF86846FFF731FC3DE0207B01280C
:109970003AD1A07A012837D12089A0F524510239A3
:1099800032D10121384600F0EFFF06F071FE2BE0E6
:109990004FF0000842467179FEF730F8E288B2F5E0
:1099A000857F1DD017481849401AC008022101EBD5
:1099B000004512B1284615A10BE06289012A03D0A7
:1099C000284621A102F082FCA289012A04D028465F
:1099D0002CA102F07BFC03E0A07B00B101208046BB
:1099E0004146384606F08EFA00223549B078FDF738
:1099F000B9FF06B0BDE8F04105F0FABDD42A002059
:109A0000A40D03008C26030084260300556E6578A0
:109A100070656374656420474154542073746174A5
:109A20007573207768696C652067657474696E6703
:109A30002043415220636861722076616C75653AFB
:109A400020307825780000004D756C7469706C6565
:109A50002028256429204341522063686172616394
:109A600074657269737469637320666F756E642CB4
:109A7000207573696E6720746865206669727374F7
:109A80002E000000556E6578706563746564204330
:109A900041522063686172616374657269737469AD
:109AA000632076616C7565206C656E67746820282C
:109AB0002564292C2073746F726520302E000000FD
:109AC000D575020070B504460078002814D160886E
:109AD00000F0F6FE6588284600F098F928B107489E
:109AE0000122C1782846FDF789FF6088FEF7FEFD58
:109AF000BDE8704006F0BCBD70BD0000D42A002057
:109B000070B51A4C00252570FDF754FF6070FDF705
:109B100051FFA070FDF74EFFE070FDF74BFF207185
:109B2000FDF748FF607162780121182A12D0A278EF
:109B3000182A0FD0E278182A0CD02279182A09D0D6
:109B4000182807D004F10C000560BFF35F8F217067
:109B5000002070BD0648074A801AC00801EB00408B
:109B6000054902F0AFFB032070BD0000D42A00209D
:109B70008C26030084260300601303007CB5044692
:109B80000078082837D1607A58BB207A1C4E4FF6EF
:109B9000FF75012811D0072802D008282BD121E019
:109BA000A08800F03BFA0446A84224D0012100F02E
:109BB000DBFE2046FEF79AFD1DE0A0886A460121E3
:109BC00004F0DEF868B90198007850B1A08800F080
:109BD00025FAA8420FD00122F178FDF70FFF05F01A
:109BE00007FD08E0F068012805D1BFF35F8F044945
:109BF00000200C310860BDE87C4006F039BD000053
:109C0000D42A00202DE9F04180460246012000219F
:109C1000FCF7F6FB1A4F05460E467868FDF704FC84
:109C200000280CD1174CD4E9062110462A4001EA3D
:109C300006031A4305D0A843B143C4E90601BDE8B1
:109C4000F081404603F05AF930B1D4E904012843C9
:109C50003143C4E9040105E0D4E90410A943B04349
:109C6000C4E90410D4E9060128433143C4E90601DC
:109C7000A1687868BDE8F0410022FDF791BB0000C3
:109C8000080F0300502B00201CB5054AD2E9021230
:109C9000CDE900120022694604F038FA1CBD00002C
:109CA000C00D030003484FF6FF7181800121017050
:109CB00000207047E42A00202DE9FC41804600F096
:109CC00063FA002403250127A0F57F412646FF39CA
:109CD00008D06A46082104F053F818B90198841D89
:109CE0008688056832462B4621464046B1DF042867
:109CF00004D0082804D00B2808D002E0112000E08E
:109D00000020002F00D10B20BDE8FC810027A80710
:109D100001D50125E6E7344303D000242646032578
:109D2000E0E7064806494246401AC008012101EB17
:109D30000040044902F0CAFAE5E700009426030057
:109D400084260300D01503002DE9FC41804600F075
:109D50001BFAA0F57F410646FF390ED001252A46A1
:109D60006D1C0027ADB26B460821304604F052F856
:109D7000040006D0072C33D033E043F20200BDE8E4
:109D8000FC81019903230A1D0B604046891DB2DF47
:109D9000040004D00C2C09D0052C09D009E032466F
:109DA0000821104604F0AEF804461AE0012700E04E
:109DB00000240821304604F09BF870B102F04EFFF9
:109DC0000346094809493246401AC008012101EBFF
:109DD0000040074902F081FA0324002FBFD100E0C0
:109DE0000C242046CBE700009426030084260300C1
:109DF0005015030004488088A0F57F41FF3901D049
:109E000005F000BC70470000E42A00200EB502A94E
:109E1000019100F0B9F96A46012103F0B1FF08B1E0
:109E200000200EBD019800780EBD00002DE9F04124
:109E300007464FF6FF761048B3DF78B102F00EFF09
:109E400002460E480E49401AC008012101EB0040AD
:109E50000C4902F03BFA0320BDE8F081064C43F2C6
:109E60000305A41E324661883846AFDFA842F3D10D
:109E70006088401C6080F5E7E62A002094260300F5
:109E80008426030004150300428800EB82020C3292
:109E90008A4201D9022070478188A1F57F42FF3AAA
:109EA00003D0008808B10020704701207047884225
:109EB00004D20068401C01D0012070470020704788
:109EC0003EB5027802230C46B3EB520F17D1B0F81F
:109ED0000110ADF80010C1788DF802108188ADF83E
:109EE000041080798DF8060002AA01A92046FDF72A
:109EF00057F8032202A96846FCF7C1FA08B100200E
:109F00003EBD01203EBD000070B50D46044614283C
:109F100010D2FDF793FD68B1084904EB840001EB12
:109F20004000D0F802102960C188A980007AA87189
:109F3000002070BD43F2020070BD0000E82F002039
:109F400070B5018892B0102961D1011D2C2268469C
:109F5000FCF76AFA9DF804004FF6FF7603213446B9
:109F6000B1EB500F2BD004F08FF89DF804006D4634
:109F700040080ED001280CD0022820D118E00D99FD
:109F8000281D1131FCF74AFF18B100BFBDF82C4065
:109F900015E00CAA0BA9072004F04AF80028EED11E
:109FA0000DE00D99281D491CFFF78AFF0028EDD10F
:109FB0000CAA0BA9072004F03BF80028F1D1BDF84A
:109FC0000000B44200EB8001124820F8114000EB81
:109FD00041000199C0F80210BDF80810C1809DF839
:109FE0000A10017213D0BDF80000ADF82E00002059
:109FF000ADF83040084E8DF82C000BAD044600BF84
:10A0000056F8241028468847641C022CF8D312B056
:10A0100070BD0000E82F0020D40D03002DE9F041B1
:10A020004FF6FF760546B04213D00B4F002400BF19
:10A0300004EB840037F81000A84206D12046FDF753
:10A04000FDFC10B12046BDE8F081641CA4B2142CC4
:10A05000EED33046F7E70000E82F00203EB50C466F
:10A06000054604F011F80BE0BDF80000A04207D04F
:10A070002846029900F00EF810B1BDF800003EBD70
:10A0800001AA6946072003F0D3FF0028ECD14FF660
:10A09000FF703EBD2DE9F0410C46054600F1110769
:10A0A00001F111061022491C401CFCF7E8F948B9DF
:10A0B000681C00F01DFA28B1601C00F019FA08B104
:10A0C000012400E0002431463846FCF7A7FE3B7827
:10A0D0000222B2EB530F0CD00321B1EB530F08D087
:10A0E0003378B2EB530F04D0B1EB530F01D0012101
:10A0F00000E00021084201D18C4302D00120BDE8DC
:10A10000F0810020FBE7018811B9421892780AB16A
:10A1100001207047491C0829F7D30020704710B56B
:10A120000C460346FFF7EFFF00280AD01888218865
:10A13000884205D10822A11C981CFCF7A0F908B19F
:10A14000002010BD012010BD142804D2024A00EBEB
:10A15000800022F810107047E82F002070B50546E7
:10A16000FFF75CFF0446284603F00EFE002808D1E6
:10A17000142C06D2034B04EB84024FF6FF7123F834
:10A18000121070BDE82F002010B50446142808D224
:10A19000FDF754FC28B1044904EB840031F81000A9
:10A1A00010BD4FF6FF7010BDE82F00203EB50446ED
:10A1B00003F06AFF0EE0019920464631FFF7AFFF3A
:10A1C00028B9019920462A31FFF7A9FF10B1BDF83F
:10A1D00008003EBD6A4602A9072003F029FF0028B7
:10A1E000E9D14FF6FF703EBD10B50A4941600A48FB
:10A1F00000F048FF58B902F095FC07491C238C2257
:10A20000087404488C39001F006800F0A1FE00208B
:10A2100010BD000004110300303600202DE9F0418C
:10A220002D4F002518B17D600120BDE8F08108792F
:10A23000012258B1294E01280CD0274C4FF00208BA
:10A240000834022821D0032842D128E00A7103F003
:10A25000F7FB3BE05FF0000000EB800116F82110F7
:10A26000022908D0401C80B20228F5D33A707D60E4
:10A2700041F61D50D9E700EB800006F8205006EBB0
:10A280008000406803F0CEFB20E00D71A4F804804C
:10A29000002301221248216801F0EEFA16E00D7148
:10A2A000206803F0BFFB0D4923682831498801EB82
:10A2B000810206EB8201D1F804C0C4F800C04B60F3
:10A2C000A3880B81A4F8048006F822500028ACD0A3
:10A2D0007D600E20A9E70000AC2B00205C3500203B
:10A2E000542C00200146034802888A4200D00020F6
:10A2F00070470000402F00202DE9FC5F0E008346D0
:10A30000DDE90C47C6F1000098469246814600D42C
:10A310000846012503E000BF90FBFAF06D1C504594
:10A32000FADAA84500D9454624B1002E01DB7807AA
:10A3300000D5641EB80702D5B8F1000F0AD0F8079F
:10A3400008D13CB1A54205D220215846641EFEF733
:10A3500073F9F6E7002E02DA4E462D2102E0780767
:10A3600003D52B215846FEF767F907F003000228B2
:10A370000BD1B8F1000F08D13CB1A54205D2302174
:10A380005846641EFEF758F9F6E7CDE90047434604
:10A3900052463146584606F011F9BDE8FC9F0000D0
:10A3A00070B50D46044600684FF4887102F07CFCDD
:10A3B0004FF49071206802F077FC4FF4927120689E
:10A3C00002F072FC4FF4A271206802F06DFC20686C
:10A3D0001249C0F804132068690740F30730090EDA
:10A3E000002806DA00F00F0000F1E02080F8141DCC
:10A3F00003E000F1E02080F800142068012140F320
:10A40000073000F01F0291404009800000F1E02079
:10A41000C0F88012C0F8001170BD000010030200E7
:10A42000024600201268530713D502F003000128EA
:10A4300002D002280CD105E0C2F383100B68801C07
:10A44000184404E00223086803EB925210440860A9
:10A45000012070472DE9F041174688460646002442
:10A4600017E000BF4FF4A07000EB84054FF480307C
:10A470007159A04059B1D6F80413014207D02946BA
:10A48000304602F0F5FBD8E9002128469047641CCD
:10A49000E4B2BC42E6D3BDE8F08100000248007A95
:10A4A000002800D00120704730360020F0B58488A5
:10A4B000A518944200D82246A41AC288D6189A42F7
:10A4C00000D81346D21A4B880788BB420CD3408869
:10A4D000834209D88888A04206D3A84204D8C888F5
:10A4E000904201D3B04201D90020F0BD0120F0BD5F
:10A4F0000021425C0AB101207047491C1029F8D3A1
:10A5000000207047800701D000207047012070476D
:10A510000B480C4910B5401AC008032101EB004458
:10A520004FF0020022B1FEF72DF8204606A103E00D
:10A53000FEF720F8204609A1BDE8104001F0C2BE98
:10A540002C270300842603005265636569766564E1
:10A55000204C4544204F4E210000000052656365A9
:10A5600069766564204C4544204F46462100000032
:10A57000F7210180172141800021017141711B21C8
:10A580008171C171704700002DE9FE4F2E4F984632
:10A5900092460D00814601D000260DE0684600F08D
:10A5A000ADFC6A460021484603F044FB3878009E23
:10A5B00010B99DF8090098B152463146484605F059
:10A5C00011FB0446014600224846FFF73FF80D2CD8
:10A5D00037D008DCA4B3082C33D00B2C09D130E0E1
:10A5E0000520BDE8FE8F112C1ED0A4F54050023886
:10A5F00027D0204602F032FB0246144814494B464D
:10A60000401AC008012101EB0040124901F065FE2B
:10A610005FF00305B8F1000F04D0324621464846EA
:10A62000FEF77EFD2846DCE72A46F9784846FDF726
:10A63000E5F95246B9784846FDF7E0F90025E9E723
:10A64000FFE72546E6E70000182B0020CC26030094
:10A6500084260300901C03007EDF042800D1112013
:10A660007047000070B50D001446064617D0164816
:10A67000C1783046FDF7C2F93046FFF785FD014647
:10A68000A0F57F40FF3800D074B129463046FFF76F
:10A69000E3FF04462878C0070BD001220AE0BDE89A
:10A6A00070400021FFF7D8BF304600F00FF8044695
:10A6B00005E002222CB10021304604F0DBFE2046EA
:10A6C00070BD0121F8E70000102B00207CB50E467C
:10A6D00005466A460721304603F052FB040013D0BA
:10A6E000052C1DD0112C2BD002F0B8FA02461948C7
:10A6F00019493346401AC008012101EB00401749AF
:10A7000001F0EBFD03241BE0019C94F84400183495
:10A7100010F0010001D0019C34340CB110B106E0FE
:10A7200011240DE004F11200FFF7EDFC38B12246D0
:10A7300004F11201284685DF040008D000E00B2454
:10A7400000210022284604F095FE20467CBD012110
:10A75000F7E70000C426030084260300201B030043
:10A7600070B50E460C49154604460978FDF72EF9DA
:10A7700000280FD0204603F003FA00282A4631466D
:10A78000204603D0BDE8704003F000BABDE8704039
:10A79000FEF726BC70BD0000102B002070B5094DDF
:10A7A0000646A978FDF712F90446E9783046FDF728
:10A7B0000DF9014622463046BDE870400123FFF7FF
:10A7C000E3BE0000182B00202DE9F047394E00278A
:10A7D00080463D46DFF8E090D6F804A057E003D06D
:10A7E0000446D0F81C8035E099F8002002EB4201C5
:10A7F000521CD2B289F8002009EBC10199F802304D
:10A80000091D9A4201D189F8005048680A78044627
:10A81000012A12D0022A02D0032A3BD108E005F017
:10A820009BFC00B10127257434E00574C06900E089
:10A8300070680028F9D170602CE0207C50BB8868DB
:10A840006060C868A0600869E0604869A061F0784D
:10A8500000B165606268B168184B501A20F07F4003
:10A86000984202D2A168084406E0881AA16820F044
:10A870007F40814202D9081A206000E025606560AF
:10A880000120A56020742046E56105F047FCB8F181
:10A890000000A4D199F8001099F801008142A3D1D9
:10A8A00017B97168514502D00120BDE8F08700203A
:10A8B000FBE70000702B002080330020FFFF7F00AB
:10A8C000F0B587B00546002718216846FBF7C5FD9F
:10A8D000A5F57F40ADF80250FF3825D02846FFF798
:10A8E000EBF9040022D01B481B49401AC6080B2C68
:10A8F00022D0112C1ED0A4F5405002380ED0204694
:10A9000002F0ACF90246012000EB06402B46134949
:10A9100001F0E3FC2146284604F0F6FD10483A46D3
:10A9200081782846FDF76AF807B0F0BD0E208DF853
:10A9300000000BE00127F1E70F208DF80000022056
:10A9400000EB06402A46074901F0C0FC6846FEF7C6
:10A950003DFCE3E78C26030084260300301403004B
:10A96000D42A0020841403000A4602494978FDF7DE
:10A9700045B80000D42A00202DE9F041002786B018
:10A9800080463E46FFF7E0F9040022D0112C22D089
:10A990001B481C49401AC508862C1ED0A4F54050FF
:10A9A00002380ED0204602F059F90246012000EB91
:10A9B0000540434614A101F090FC2146404604F0B6
:10A9C000A3FD39464046FFF7CFFF06B03046BDE84D
:10A9D000F0810126F5E70127F3E718221A496846B6
:10A9E000FBF722FD0220ADF8028000EB0540424655
:10A9F00016A101F06BFC6846FEF7E8FBE1E70000FA
:10AA00008C260300842603006773636D5F6C6F639D
:10AA1000616C5F64625F63616368655F75706461E8
:10AA2000746528292072657475726E6564202573BB
:10AA300020666F7220636F6E6E5F68616E646C6516
:10AA40003A20256400000000740D0300466C617319
:10AA5000682066756C6C2E20436F756C64206E6F79
:10AA6000742073746F7265206461746120666F7204
:10AA700020636F6E6E5F68616E646C653A2025645A
:10AA8000000000002DE9FF410026234800F0F7FAFE
:10AA90002148001F074600F0F2FA204C6068009041
:10AAA000A56800E000986946284004EB80000C305F
:10AAB000FFF7B6FC0028F5D101AA009901EA0503C9
:10AAC00004EB8303491CDB6842F82030401C0091F2
:10AAD0000228F2D3019800F0030001280BD00228CD
:10AAE00010D10198032101EB90500099BDF80A6044
:10AAF00001EB900005E00198BDF80A60C0F38310F7
:10AB000008440090384600F0B7FA08B10098606039
:10AB100004B03046BDE8F081343C00201C380020F1
:10AB200088B04FF40041002001F04CFC20B15D4A98
:10AB300040F26231FBF76EFB01F090FA0120FDF765
:10AB4000EFFCFCF703FC20B1564A40F2E631FBF77C
:10AB500061FB40F2666201215348FCF77BFA20B1A9
:10AB6000504A40F25B31FBF755FB01F041FD20B14B
:10AB70004C4A40F26E31FBF74DFBFDF7AFFC03F0A2
:10AB80000BFCFEF797FD0021484800F00EFB20B1BA
:10AB9000444A40F2A111FBF73DFB454803244FF026
:10ABA000A045C0F8004740200127C5F80C0504F077
:10ABB000C1FA4049404AD1E90401CDE900013D48CC
:10ABC0008DF802406946083002F060FB20B1354A3A
:10ABD00040F2D331FBF71EFB04F0F4FDFCF744F91F
:10ABE0001C216846FBF739FC00264FF42030CDE9E4
:10ABF00000604FF4702002903048059030488DF886
:10AC00000C400690ADF80E608DF810606846FCF7B9
:10AC100065FE20B1234A4FF42B71FBF7FBFA29485C
:10AC20002949401AC00804EB0040044627A101F05E
:10AC300049FB0020FCF77CF920462AA101F042FBE9
:10AC4000194C0C3C01F024FA0028FBD1A178E078E3
:10AC5000014216D04020C5F80805164808300068A3
:10AC6000D0F810054FF4FA42C240124804230221E2
:10AC70000830009702F0F4FA0E48083002F0E2FAC9
:10AC800008E0884307D04020C5F80C050948083083
:10AC900002F0CAFAE67001F0FBF90028D6D101F003
:10ACA000BBFCD3E78C6F0200B42A0020842C002068
:10ACB00018000050040D03008D00030081D702002E
:10ACC000398B02002C27030084260300426C696E36
:10ACD0006B79206578616D706C6520737461727436
:10ACE00065642E004641544653206578616D706C52
:10ACF0006520737461727465642E000070B514462B
:10AD000082880E4605462088111D0144921C9942F6
:10AD100001D8FE2A01D90C2070BD521C3254208863
:10AD2000FF21401C80B2208031542088401C80B21A
:10AD300020808119288805F02BFC2188084480B2E6
:10AD40002080AA8842B1A96841B13044FBF76CFB6E
:10AD50002088A98808442080002070BD072070BD8D
:10AD60005FFA81F100F8011B521EFBD170472DE9FB
:10AD7000F047C5881E1DB6FBF5F78946B6FBF5F111
:10AD8000044605FB176C407916686843DDF820A07F
:10AD9000F718001F874200D9C61A166001E0246820
:10ADA000491E0029FBD1A5EB0C078846B74216D8EF
:10ADB00018E004EB0C00001D09EB0803BAF1000FCA
:10ADC0003A4602D00146184600E01946FBF72CFB34
:10ADD0002468F61B4FF0000CB844B54201D9374641
:10ADE00000E02F46002EE4D1BDE8F08730B50246E2
:10ADF00051B101F005FB0021074C08E034F8213087
:10AE00001568AB4202D11160002030BD491C81425F
:10AE1000F4D3052030BD00000000000070B50446EA
:10AE2000C06A0D460026A8420FD0204605F0DAF889
:10AE300006000AD1607801232A4604F13001FEF7AA
:10AE400011F808B1751E0126E562304670BDBFF3EA
:10AE50005F8F00F0FCB8F8B50F4601781446054640
:10AE6000012901D1687830B12088821C9A4232D8F9
:10AE7000012902D006E00720F8BD69780144891C49
:10AE8000994228D8181A801E86B2ADF80060218831
:10AE9000B81C084469467DDF0028EDD129780229D5
:10AEA00004D06878BDF80020904205D3BDF80000BA
:10AEB000B04201D809200AE00820012905D16978AB
:10AEC000B14202D8ADF8001001E0ADF80060BDF865
:10AED0000010FE2901D90C20F8BD2288491CB95464
:10AEE0002188491C89B2218078542088401C208008
:10AEF000BDF80010084420800020F8BD034A00215E
:10AF00009268C0E90021816070470000182B002082
:10AF100070B54FF6FF750E46A84201D1002000E043
:10AF2000401C84B208E02146304600F090F808B199
:10AF3000204670BD641CA4B2FF2CF4D9284670BD15
:10AF400010B5FBF7C0F908B1002010BD112010BDED
:10AF500010B531B1B2FBF3F403FB14241CB109208A
:10AF600010BD0E2010BD0160002141608160828112
:10AF7000C381084610BD70B50C460546FBF758F96D
:10AF8000002802D021882868084470BD10B50A88BE
:10AF900049888A4203D1FBF78DF9012010BD0020BA
:10AFA00010BD70B50C460546FBF767F9002802D0C6
:10AFB00061882868084470BD10B50A8849888A42AB
:10AFC00003D1FBF751F9012010BD002010BD01F0A5
:10AFD0001F0301229A40D243490900EB8100114628
:10AFE00000F059B80A4601F01F030121994010B53D
:10AFF00052090C4600EB820000F05DF8204000D0C2
:10B00000012010BD2DE9F04180460D460024481E68
:10B01000012101EB501716E058F82400C04390FAC4
:10B02000A0F0B0FA80F020280CD200EB4416AE421B
:10B0300008D231464046FFF7D5FF0028ECD1304614
:10B04000BDE8F081641CA742E6D82846F8E74A0923
:10B0500050F8220001F01F0201219140084000D069
:10B060000120704701F01F0301229A40490900EBBB
:10B070008100114600F029B8002100F017B8012125
:10B0800000F023B8012100F016B808B56A46FBF7B6
:10B0900066F9009808BD08B56A46FBF746F90098BE
:10B0A00008BD08B56A46FBF75AF908BD08B56A46F7
:10B0B000FBF73BF908BD08B56A46FBF729F908BD5F
:10B0C00008B56A46FBF718F908BD08B56A46FBF7EC
:10B0D0001FF9009808BD08B56A46FBF74DF90098BE
:10B0E00008BD38B5044600258DF800506846FCF7C9
:10B0F000ABF921686268086890420ED9401E08606A
:10B100000178238AE26801FB0325227A2168101A5C
:10B11000C0B20A79824200D208719DF80000FCF7A3
:10B12000B7F9284638BD38B5054600208DF800002F
:10B130000C466846FCF788F9E868298A201AB0FBB3
:10B14000F1F12A681068431C136001709DF800003B
:10B15000FCF79EF938BD10B530B1017A426803683A
:10B16000891AC9B21A6006E00E2010BD03681A6879
:10B17000541C1C601170491EC9B2F7D2006800212E
:10B180000171084610BDC20800F007030120895C68
:10B1900098400840704710B5C20800F00703885C6B
:10B1A00001249C402043885410BD10B560B101615A
:10B1B000F72120F8021B20F8021B1B2100F8021BBC
:10B1C000FFF7D6F9002010BD0E2010BDF0B5858820
:10B1D00093B00C46002D39D1018800263F4F242919
:10B1E0003BD006DC102909D011290CD0232958D1D5
:10B1F0004FE03A290BD0552953D129E0014620468A
:10B2000002F0D8FA4DE0A01DFFF7B2F949E022465E
:10B21000408934F8061F814200D80846608017280C
:10B2200000D217206080106970B1607960B1D7E9F1
:10B230000001CDE90301ADF80E506088ADF81000B3
:10B24000136903A9104698476671267113B0F0BDC3
:10B250000146204602F002FB23E0011D2C2206A835
:10B26000FBF7E2F8BDF81800BDF81C2004EBC001A4
:10B270004A732269AAB1D7E90423CDE90423ADF8C2
:10B280001200487B8DF814002269204604A99047DB
:10B2900007E0017A207B884200D201462846FDF76C
:10B2A0009FFCA07A0028D1D0E1882846A5DF01259F
:10B2B00080B11128CAD001F0D1FC024608480949E2
:10B2C00013B0401AC00805EB0040BDE8F04006A1ED
:10B2D00000F0FCBFA672E572B8E70000300D030075
:10B2E000842603008426030073645F626C655F67D5
:10B2F000617474635F65786368616E67655F6D74C0
:10B30000755F72657175657374282920726574752F
:10B31000726E65642025732E0000000020B1027853
:10B32000DE2A03D0082070470E207047418000209D
:10B33000704760B159B10278DE2A0AD009684160CD
:10B34000DE2101704FF6FF714180002070470E2012
:10B350007047082070477FB5054600294DD0002D65
:10B360004BD008780C46DE2847D1A88861888842EF
:10B3700002D1204605F0CEF92888012825D00228E0
:10B380003BD011283AD0512837D135F8040F6188C5
:10B39000884232D1A978A81C02292ED1017A042929
:10B3A00003D0062901D0052927D1002100910222CE
:10B3B0008DF8002001914FF4C07202910391ADF815
:10B3C0000420007A05280FD010E0297A20460129B0
:10B3D00013D1A988428891420FD10121017204B092
:10B3E000BDE8704005F096B9ADF8041028886946AC
:10B3F000B0DF002801D0616888477FBDA8886188D8
:10B400008842FAD14FF6FF7060807FBD03681B69E8
:10B41000184700F180400068002800D001207047E4
:10B4200008B500F18040002101600068009008BD6F
:10B4300070B54FF0102569691048114B0122181A98
:10B44000C00802EB0044491C12D06A69032101EBD9
:10B4500000400CA100F03AFF686913DF050005D039
:10B46000204613A100F02EFF284670BD002070BDBD
:10B4700020461CA100F026FF042070BD8426030096
:10B480002C27030053657474696E672076656374B6
:10B490006F72207461626C6520746F20626F6F74CC
:10B4A0006C6F616465723A2030782530387800001E
:10B4B0004661696C65642072756E6E696E67207393
:10B4C000645F736F66746465766963655F766563F0
:10B4D000746F725F7461626C655F626173655F73E4
:10B4E000657400004E6F20626F6F746C6F616465ED
:10B4F000722077617320666F756E640070B50C48BA
:10B500000C490D4A401AC508032000EB05400BA169
:10B5100000F0DCFE084813DF040007D0012000EB38
:10B52000054011A100F0CEFE204670BD002070BD88
:10B530002C27030084260300006002005365747406
:10B54000696E6720766563746F72207461626C65E2
:10B5500020746F206D61696E206170703A203078C0
:10B5600025303878000000004661696C65642072FF
:10B57000756E6E696E672073645F736F6674646561
:10B58000766963655F766563746F725F7461626C20
:10B59000655F626173655F736574000070B50B4C25
:10B5A000207808B185250FE00020A0606060206150
:10B5B000E060074801F096FB054601F0B3FA08B9D0
:10B5C00001F078FB01202070284670BD1432002065
:10B5D000A989020038B500258DF800506846FBF7B0
:10B5E00033FF074CE068401EE060E06810B901F0EE
:10B5F00089FBA5709DF80000FBF74AFF38BD0000ED
:10B6000014320020F0B505460478154889B0164676
:10B6100040F82420124A0869121DA2F1080742F8D6
:10B620002400487F385520226846FAF7FDFE04942E
:10B630002878385C48B10EB10A4A00E00022694619
:10B64000281D01F0B9FF09B0F0BD0EB1064A00E0B7
:10B650000022694605F10C0001F080FEF3E70000CE
:10B66000342B00206D040300B10203000FB408B5B1
:10B670000399002904D004AA00926A4600F00FF84A
:10B6800001B05DF814FB10B582680446002A05D0AD
:10B69000D4E90403216898470020A06010BD2DE97B
:10B6A000FC4791460C00804676D014F8011B39B156
:10B6B00025290ED04046FCF7BFFF20780028F4D1A2
:10B6C00098F80C00002867D04046BDE8FC47FFF71B
:10B6D000DABF0020012221782B291BD02D2902D08E
:10B6E000302908D102E040F0010001E040F0020002
:10B6F000641C002AEFD100252A290ED02178A1F15F
:10B7000030020A2A11D205EB850201EB4205641CC6
:10B71000303DF1E740F00400EAE7D9F800100B1DD6
:10B72000C9F800300968641C0D44217800232E29D3
:10B730000BD114F8011FA1F130020A2A05D203EB44
:10B74000830201EB4203303BF3E76C290DD06829FB
:10B750000BD0692921D00BDC252918D0582931D0EC
:10B7600063290ED0642915D117E014F8011FECE706
:10B77000702969D0732932D075291BD0782909D155
:10B7800020E0D9F80000011DC9F8001001784046FA
:10B79000FCF752FF641C90E76CE0D9F800100A1D1A
:10B7A000C9F800200968CDE900500A224046FEF79A
:10B7B000A3FDEFE7D9F800100A1DC9F800200968B9
:10B7C0000A2206E0D9F800100A1DC9F8002009680D
:10B7D0001022CDE90050404604F0F0FEDAE7D9F837
:10B7E000001000270A1DC9F800200E68C00705D107
:10B7F00012E04046761C7F1CFCF71EFF31780029C2
:10B80000F7D104E0202140466D1EFCF715FFBD4234
:10B81000C0D9002DF6D1BDE74EB13046FAF728FE6B
:10B82000074604E0202140466D1EFCF705FFBD429F
:10B8300006D9002DF6D103E04046761CFCF7FCFE4D
:10B8400031780029F8D1A5E7D9F80000011DC9F821
:10B850000010056830214046FCF7EEFE7821404696
:10B86000FCF7EAFE08200021CDE900010346102282
:10B870002946B0E7BDE8FC872DE9F8438846050076
:10B880002C482D499946A0EB01004FEAD0004FF01B
:10B890000101164601EB004424D0286800282CD072
:10B8A000002E34D0696840464FF010070A68511ED8
:10B8B00011EA080F11D1014672432846FBF7C7FA77
:10B8C00000282ED028684B463246046901B0414614
:10B8D0002846A446BDE8F04360472046174B18A20F
:10B8E000009722E00E2000902046144B1EA220A1BB
:10B8F00000F0FBFC0E20BDE8F883082000902046F5
:10B900000E4B26A21AA100F0F0FC0820F3E7092054
:10B9100000902046094B24A215A100F0E6FC092066
:10B92000E9E7064B214A2046009711A100F0DDFC13
:10B930001020E0E72427030084260300EB10030017
:10B94000616464725F69735F706167655F616C6990
:10B95000676E656428705F66732C20706167655F31
:10B960006164647229000000705F6673000000006B
:10B97000257320636865636B206661696C6564206C
:10B98000696E202573282920776974682076616C98
:10B99000756520307825782E00000000705F667392
:10B9A0002D3E705F617069006C656E004021030080
:10B9B00038B503001148124D4FF00E04A0EB0500FE
:10B9C0004FEAD0004FF0010505EB004009D061B10E
:10B9D00019600C6801B0A446BDE830401146184615
:10B9E0006047084B08A2009402E0064B08A20094AE
:10B9F00009A100F07AFC0E2038BD000024270300C6
:10BA000084260300A0100300705F6673000000002E
:10BA1000705F617069000000257320636865636B67
:10BA2000206661696C656420696E20257328292071
:10BA3000776974682076616C756520307825782E7A
:10BA400000000000044801214174007A08B1002080
:10BA5000704701207047000030360020012801D0D7
:10BA6000032808D10449002201284A7400D000208C
:10BA7000087403F043B970473036002070B50246B1
:10BA8000022801D0032A45D1234C207A002841D036
:10BA9000012833D0022831D120480023022A00682F
:10BAA00002D0032A2AD11BE0E360017911B10129F8
:10BAB00024D10DE0D0E90565711B4FF48056B142E9
:10BAC00000D33146294481614569A9420ED015E071
:10BAD0000169491C0161426991420FD1237213E04F
