:020000040002F8
:10600000B0550020DD630200E5630200E763020093
:10601000E9630200EB630200ED6302000000000090
:10602000000000000000000000000000EF6302001C
:10603000F163020000000000F3630200F563020058
:10604000C5660200F7630200296C0200896802003D
:10605000F7630200F7630200FD640200416702007B
:10606000F7630200016C0200156C0200F763020086
:10607000F7630200F7630200F7630200F7630200B0
:10608000F76302001D670200F7630200F763020076
:10609000DD680200F7630200E1680200F7630200B6
:1060A000F7630200F7630200F7630200F763020080
:1060B000F7630200F7630200000000000000000028
:1060C000F7630200F7630200F7630200F763020060
:1060D000F7630200F7630200F763020000000000AC
:1060E00000000000000000000000000000000000B0
:1060F00000000000000000000000000000000000A0
:10610000000000000000000000000000000000008F
:10611000000000000000000000000000000000007F
:10612000000000000000000000000000000000006F
:10613000000000000000000000000000000000005F
:10614000000000000000000000000000000000004F
:10615000000000000000000000000000000000003F
:10616000000000000000000000000000000000002F
:10617000000000000000000000000000000000001F
:10618000000000000000000000000000000000000F
:1061900000000000000000000000000000000000FF
:1061A00000000000000000000000000000000000EF
:1061B00000000000000000000000000000000000DF
:1061C00000000000000000000000000000000000CF
:1061D00000000000000000000000000000000000BF
:1061E00000000000000000000000000000000000AF
:1061F000000000000000000000000000000000009F
:10620000DFF80CD000F03CF900480047D59C0200B4
:10621000B055002000B583B002900091019244F285
:10622000010071466A4600F069FE03B000BD00003F
:1062300030B450E8012F93B2C48923448489A34227
:1062400028BF1B1B0489A34202BFBFF32F8F00206E
:1062500007E0C3EA020340E80134002CE9D14FF023
:1062600001000A6030BC704750E8012FC2EA0242C8
:1062700040E801210029F7D1704730B450E8022FDF
:106280001FFAA2F3C488A34202BFBFF32F8F0020DE
:106290000DE0C48923448489A34228BF1B1BC2EAA2
:1062A000034340E80234002CE8D14FF001000A60BB
:1062B00030BC704750E8022FC2EA224240E8022177
:1062C0000029F7D17047034653E8022FD988B2EB73
:1062D000324F4FF0000017BF92B241EA014142EA4B
:1062E000014104E05A68B2EB324F08BF012043E895
:1062F0000212002AE8D1704730B4044654E8000F77
:106300000D4644E80053002BF8D1156030BC7047AF
:1063100030B4044654E8000F40EA010544E8005355
:10632000002BF7D1156030BC704730B4044654E8F8
:10633000000F00EA010544E80053002BF7D1156077
:1063400030BC704730B4044654E8000F80EA0105C1
:1063500044E80053002BF7D1156030BC704730B4CF
:10636000044654E8000F00EB010544E80053002BFD
:10637000F7D1156030BC704730B4044654E8000FC4
:10638000A0EB010544E80053002BF7D1156030BCA9
:10639000704770B404464FF0000054E8006F0D6879
:1063A000AE4207BF44E80023012044E800630E60CA
:1063B000002B1CBF0020F0E770BC704730B40446CF
:1063C00054E8000F88422CBF451A054644E80053A4
:1063D000002BF5D1156030BC70470000064880479F
:1063E00006480047FEE7FEE7FEE7FEE7FEE7FEE7BA
:1063F000FEE7FEE7FEE7FEE7E56802000162020055
:10640000202A04DB203A00FA02F100207047914074
:10641000C2F1200320FA03F319439040704740EA89
:1064200001039B0703D009E008C9121F08C0042A12
:10643000FAD203E011F8013B00F8013B521EF9D2F9
:106440007047D2B201E000F8012B491EFBD2704721
:106450000022F6E710B513460A4604461946FFF730
:10646000F0FF204610BD30B504460020034600E092
:106470005B1C934203D2E05CCD5C401BF8D030BD86
:10648000064C074D06E0E06840F0010394E8070081
:1064900098471034AC42F6D3FFF7B6FE18DC020082
:1064A00038DC020070B58C1810F8015B15F007039A
:1064B00001D110F8013B2A1106D110F8012B03E09D
:1064C00010F8016B01F8016B5B1EF9D12B0705D4A5
:1064D0000023521E0DD401F8013BFAE710F8013BEE
:1064E000CB1A921C03E013F8015B01F8015B521E0A
:1064F000F9D5A142D8D3002070BD00002DE9F047A6
:1065000000268AB0DFF85091B0464FF48075012420
:1065100037460696284604F009F938B1D9F804033D
:10652000204203D0284604F0F7F826432D1D6400CE
:106530007F1CADB2082FEDD34FF4BE74204604F09B
:10654000F5F848B1204604F0E7F846F0004606AA00
:106550000121002004F0CCF8404D16F0FF0F15D0BB
:106560000127002437420DD009EB8401D1F8100532
:10657000D1F81015C0F3042055F82420C1F30141CF
:1065800002B190477F00641C082CEBD3002E5FDA29
:106590004FF0FF30CDF8108054E0281910F8507FEC
:1065A00090F9000027F0C008401C3BD007A94046E6
:1065B00003F0D2FD10B34FEA9719404601F0B8FC42
:1065C00055F820701FB1B9F1030F03D006E0B9F1FF
:1065D000030F27D104A9404603F0C6FD4FF0A041A8
:1065E00001EB8800D0F8000706A9C0F3014A404635
:1065F00003F0B2FD18B1BAF1020F03D012E0BAF104
:10660000030F0FD1B9F1030F08D1BAF1020F1DD05A
:106610000221404604F041F8761CF6B217B1494613
:106620004046B847641C042CB7D3002E10D06A46ED
:106630000121002004F05CF806990098884207D0F8
:1066400006900498002634460790A6E70321E0E769
:106650000AB0BDE8F0870000006000409C310020D7
:1066600000F01F02012191404009800000F1E0206C
:10667000C0F88012704700F01F02012191404009CC
:10668000800000F1E020C0F80011704700F01F0208
:10669000012191404009800000F1E020C0F8001283
:1066A00070474907090E002806DA00F00F0000F1D4
:1066B000E02080F8141D704700F1E02080F80014FD
:1066C0007047000070B54FF48076304603F09DFEB1
:1066D000114CB50560B1304603F09EFE0120C5F8AF
:1066E0000803607920B90120607121680020884783
:1066F0004FF48276304603F088FE00280AD03046F8
:1067000003F08AFE0220C5F808032168BDE8704046
:106710000120084770BD0000302B002007480021F1
:10672000C0F84011C0F84411C0F84811C0F84C112D
:10673000C0F80011C0F8041106F0AEBD0010014011
:106740002DE9FE434FF48278404604F06BF84C4F3D
:1067500000254C4C012600B3404604F06BF894F839
:106760002E0010B194F82F10D1B18DF8005061684F
:1067700001912189ADF80810E26832B1218B618363
:1067800062602181E56010B102E0257400E03E60A6
:1067900021686846884784F82F5094F82E0060B32B
:1067A0004FF48077384604F03DF830B3384604F0B3
:1067B00041F8628B94F82D108A420AD9A2EB0100AD
:1067C00080B260832289A2EB0000626802EB400085
:1067D00005E007D1E06828B184F82F60658304F0F4
:1067E0000FF804E08A4202D184F82F6065834046A6
:1067F00004F020F82248001D06604FF488773846E0
:1068000004F010F848B1384604F014F8257402205A
:106810008DF800002168684688474FF48A7738462B
:1068200004F000F828B1384604F004F82574BDE8F7
:10683000FE834FF000484FF48C7967691DE000BF7C
:10684000B7FA87F028FA00F109EB80058F43284654
:1068500003F0E8FF88B1284603F0ECFFA5F58C753E
:10686000E8088DF8040045F38000401C8DF80060B6
:106870008DF80500216868468847002FE0D1D6E7EB
:106880000070004010320020F8B51248124E044645
:106890004FF48C7104F081F900281AD00025C4F857
:1068A0001851D4F818010090F07F3446FF2806D024
:1068B000A17F11B103F002FF01E003F006FF65774D
:1068C0002572D4E9002101B004F10800BDE8F040D0
:1068D0001047F8BD003000404032002006F02ABCCE
:1068E00004F0CEB8F0B5B5480023021D0178101DA4
:1068F00001254FF0805406290BD11678360708D1B0
:106900000678C6F30316032E06D0042E04D0052EF7
:1069100002D0062907D00EE0B4F82463A84FC6F3CE
:1069200004263E6002E01678360704D10678C6F3E6
:106930000316032E02D0062904D00FE0A24FA14E69
:106940007E670EE01678360708D10678C6F3031680
:10695000032E06D0042E04D0052E02D0062907D01F
:106960000EE0D4F84462994FC6F342363E6002E02E
:106970001678360704D10678C6F30316032E02D024
:10698000062906D011E0924E376827F080773760ED
:106990000EE01678360708D10678C6F30316032EE4
:1069A00006D0042E04D0052E02D006290AD011E00C
:1069B0004FF08046C6F80C31C6F81031834E361FB2
:1069C000336002E01678360704D10678C6F3031662
:1069D000032E02D0062905D00CE07C4F0326643735
:1069E0003E600AE01678360704D10678C6F303162F
:1069F000032E02D006290DD014E0764F05263E6006
:106A0000744E78363560734E083633603F263F1D2E
:106A10003E6002E01678360704D10678C6F3031606
:106A2000052E02D0062957D062E06B4E36686B4FB8
:106A30003E60694E361D36683F1D3E60664E083624
:106A400036683F1D3E60644E0C3636683F1D3E6022
:106A5000614E103636683F1D3E605F4E1436366814
:106A60003F1D3E605C4E183636685C4F20373E60F6
:106A7000594E1C3636683F1D3E60574E20363668EC
:106A80003F1D3E60544E243636683F1D3E60524ED8
:106A9000283636683F1D3E604F4E2C3636683F1D07
:106AA0003E604D4E303636684C4F40373E604A4E61
:106AB000343636683F1D3E60474E383636683F1DD7
:106AC0003E60454E3C3636683F1D3E60424E403685
:106AD00036683F1D3E6002E01678360708D106781A
:106AE000C6F30316032E06D0042E04D0052E02D0C2
:106AF000062907D019E0D4F85812394A01F04F019D
:106B0000116002E0117809070FD10078C0F303107B
:106B1000032803D0042801D0052806D13148016894
:106B2000C90702D06FF001010160D4F830010628D6
:106B300008D1D4F83401062804D12B48016841F467
:106B40008061016022487438016841F4700101607D
:106B5000BFF34F8FBFF36F8F4FF01021D1F80002BA
:106B6000002803DBD1F80402002822DA1F4A15604E
:106B70001F480468002CFCD01524C1F800420568A9
:106B8000002DFCD0C1F8044201680029FCD013603C
:106B900001680029FCD0BFF34F8F0D48F038016821
:106BA000144A01F4E06111430160BFF34F8F00BF4D
:106BB000FDE7124910480860F0BD0000E00F00F04A
:106BC000403501400DF0ADBA00C007403C05004023
:106BD000FCED00E0105600400404001020C5004009
:106BE000E40E0040000400403C17004004E5014072
:106BF00000E401400400FA050090D003C42B0020FB
:106C000004220249024802F02FBE0000F8310020A1
:106C10000090004004220249024802F025BE000014
:106C20000432002000A00040014800680047000036
:106C3000382B002002E008C8121F08C1002AFAD130
:106C400070477047002001E001C1121F002AFBD1EC
:106C5000704700000121202803DA814005480140E7
:106C600003E0402802DA2038814009B10120704752
:106C700000207047FC06FFBD10B560B159B1027825
:106C80000B785208B2EB530F05D10622401C491C69
:106C9000FFF7E9FB08B1002010BD012010BD8007FF
:106CA00001D00020704701207047C3688B4206D88E
:106CB00011440069491E814201D80120704700201B
:106CC0007047000030B52A48A5B03C2140682490A8
:106CD0002848807C8DF892006846FFF7B9FB0220B7
:106CE0008DF8000001248DF8024006208DF8030085
:106CF0003C210FA8FFF7ACFB24A81F4D1490ADF862
:106D00004C402A1D6846296800F084FA20B11BA275
:106D100040F2BF11FFF77EFA174A0FA80C32A9689C
:106D200000F078FA20B115A24FF4E171FFF772FA82
:106D300018211EA8FFF78CFB00208DF88D408DF8E0
:106D40007840ADF884001F908DF88C004FF4C85047
:106D5000094920901EAAA1F1140072DF002804D076
:106D600006A240F2D111FFF755FA25B030BD000060
:106D700028D90200DC2B0020BC2A00202E2E5C2EFD
:106D80002E5C2E2E5C6D61696E2E630010B538B1DD
:106D900005F0D4F8002810D008A24FF4987108E04C
:106DA0000A480121007873DF002806D003A24FF4BF
:106DB000A071BDE81040FFF72DBA10BD2E2E5C2E3D
:106DC0002E5C2E2E5C6D61696E2E6300A82A002059
:106DD00070B58CB015460E4600236C46C3F10F010A
:106DE000415CE1545B1C102BF8D30D2104F1100021
:106DF000FFF72EFB0020C0F10F02315C2244401C43
:106E000011740328F7D3684646DF0020C0F10F0154
:106E1000214491F820102954401C0328F6D30CB0CB
:106E200070BD00000149C97800F02EBB102B002076
:106E300070B50024084D05E0686810F8340003F0D0
:106E4000FDFE641C28788442F6D304484068BDE8FF
:106E5000704000F015B90000402B0020E8DA020075
:106E600070B50024064D06E06868012110F8340072
:106E700003F008FF641C28788442F5D3002070BD1D
:106E8000402B0020F8B515460C460646052A01D2CF
:106E90000720F8BD03F0F2FF18B903F0B7FF002890
:106EA000F7D1124900224E600C708D60C1E90422B6
:106EB000C1E906220E4D0DE006EBC40029680091E1
:106EC00081788DF8011000780A4A694603F02CFF9A
:106ED0000028DED1641EE4B2EED2BDE8F8400448DA
:106EE0000021054A001D00F049B80000402B002099
:106EF000E8DA0200E99102009184020030B472B62F
:106F0000034B1B68DB0700D000BE30BC00F002B8AA
:106F1000F0ED00E008B501238DF800309DF8003059
:106F2000144B186059609A606FF48041401807D084
:106F300001280FD1DA60D86800889861D86807E026
:106F40001A61186980685861186900689861186941
:106F50004068D861186858689868D868186958698E
:106F60009869D86972B600BF9DF800000028FBD16F
:106F700062B608BD8432002001207047084B9B7820
:106F800023B12AB120B10068037C1BB108207047EF
:106F9000072070470023037441744261184670470C
:106FA000A432002070B505F04DFA104800240B21E2
:106FB000047044700E4D817014206C602C706C70E5
:106FC000FFF74EFB06211420FFF76BFB1420FFF7A1
:106FD00052FB0848046006211120FFF762FB0548B8
:106FE000001F0068A860002070BD0000A4320020CF
:106FF000602B0020081501402DE9FC47DFF8789050
:1070000099F8023073B368B3052902D20720BDE8AE
:10701000FC87436933B3437C012B25D0002704460A
:107020000025884616468DF80050684600F038F86E
:1070300001A806F0E5F9C8B1012101700F494460CB
:107040000968C0E90218C0E904769DF8040089F8CF
:1070500001009DF8000000F047F81420FFF716FB30
:107060002846D4E70820D2E70F46D8E704259DF844
:10707000000000F039F8F3E7A432002004150140C5
:107080000649897839B130B1416921B100210174D3
:10709000022106F0DDB8082070470000A43200206D
:1070A00030B5EFF3108172B60D4A9468012324B114
:1070B0000370002900D162B630BD93604FF0E02329
:1070C000D3F88051074C25401560C3F88041D3F8B0
:1070D000844154605A17C3F8842100220270E8E703
:1070E000B0330020FC06FFBD0B498A68002A11D08E
:1070F00000280FD1EFF3108072B60B684FF0E0223A
:10710000C2F800314B68C2F8043100228A600028BE
:1071100000D162B670470000B033002002F09EBD7F
:107120002DE9F04380460588384800268BB0017869
:107130003246284600F0C0F998F80500400701D40F
:10714000002154E005F58077B8B203AB0122072196
:1071500004F068FA010003D0284605F033FBEFE79E
:10716000284602F0C9FA4FF6FF710446884225D13D
:107170008946049802F02AFA04464946484510D048
:107180000146284602F098FA2846FFF74BFEA8B9B8
:10719000284605F0E9FA2846FFF744FE0028CFD03C
:1071A0000CE00E4604F0ACFB0446B04201D10421D1
:1071B000D2E70146284602F07FFA0126B8B22246FD
:1071C000072104F095FA010010D0862913D0284633
:1071D00005F0F8FA0021404604F064F9002E02D0D0
:1071E000204602F073FA0BB0BDE8F083012140465F
:1071F00004F058F9F7E71822054905A8FFF70FF939
:10720000ADF8165005A801F07BFBEFE7102B00202E
:1072100060DA02002DE9FC47002517880646158034
:1072200090F82D001446894630B13A46214648462A
:1072300000F06CF9051E09D1B0784FF00C0A18B3B4
:107240002088C846001DB84202D95046BDE8FC87D8
:10725000684679DF0028F9D12088032108F800105A
:1072600020881921401C80B2208008F80010208856
:10727000401C80B2208000EB0801BDF8000006F041
:1072800045F8218808442080F0780222C8B121887E
:1072900096F9033001F1030C4846BC45D5D8425459
:1072A00021884FF0010C491C89B2218000F801C0EF
:1072B0002188491C89B2218009F801302088401CAE
:1072C00020807068B8B1218890F9003001F1030C7A
:1072D0004846BC45B9D8425421880A22491C89B283
:1072E000218042542188491C89B2218009F801304B
:1072F0002088401C2080308950B1CDE900474B46A2
:107300000622022106F1080006F092F8051E9DD122
:10731000308A50B1CDE900474B460722032106F1E0
:10732000100006F085F8051E90D1308B50B1CDE9E4
:1073300000474B461522142106F1180006F078F894
:10734000051E83D1306A30B13B462246494600F0E3
:1073500076FF051EDBD1706A30B13B4622464946B6
:1073600002F068FD051ED2D196F82C0038B13B46DC
:1073700022464946304605F0ABFA051EC7D13078A3
:1073800038B13B4622464946304602F0A9FD051E6B
:10739000BDD128465AE7000070B5040012D001465E
:1073A0001C221448FFF73BF81248134D0560206873
:1073B00050B17ADF002806D1206801682960406852
:1073C000686005E00E2070BD0B487BDF0028FAD115
:1073D00008484FF6FF711438084A20F8041B054985
:1073E000343901600021FFF7C9FD0028EBD00320EC
:1073F00070BD0000C82E0020CC2A002069D30200F6
:1074000010B5044600F078F8002805D02146BDE804
:107410001040024802F061BE10BD0000F42E0020B2
:1074200070B515460E46044605F0D2FF002809D077
:10743000054800EB840080692A463146BDE870406B
:1074400001F092BC70BD0000E42E002070B505462E
:10745000002400F051F838B12946044802F03DFEFE
:1074600008B1022400E00124204670BDF02E002067
:1074700010B51821034802F00BFE182800D0C0B246
:1074800010BD0000E42E002070B505460C460846ED
:1074900005F09EFF60B1284600F02EF840B1054887
:1074A000294600EB8400BDE87040183002F015BE9C
:1074B000002070BDE42E002070B5054614460E462F
:1074C000084605F085FF002812D0284600F014F881
:1074D00000280DD00748294600EB860018301CB163
:1074E000BDE8704002F004BEBDE8704002F0B5BDDA
:1074F00070BD0000E42E0020142801D30020704746
:107500000146014802F0E9BDE82E00207CB50546A1
:1075100008880C460930904201D90C207CBD684691
:107520006DDF0028FAD121880820685420881B21AB
:10753000401C80B2208029542088401C80B22080CA
:107540002844DDF801100160BDF805108180208815
:10755000801D80B220809DF80010490800D00121D4
:1075600029542088401C208000207CBD10B502F0EA
:107570005BFF002809D105484FF0030C00DF00280D
:1075800003D1BDE8104002F059BF10BD8435002082
:1075900018B103490860002070470E2070470000B2
:1075A000C02B002010B54FF0FF3100203DDF002838
:1075B0000BD1B1213CDF002807D1044841690120EB
:1075C0008847022003F0F0F8002010BD6835002045
:1075D000044810B50068416900208847BDE81040A4
:1075E000FFF7E0BFC02B002010B588B00446202173
:1075F0006846FEF72DFF0320ADF8000020788DF8D7
:1076000002009DF80D00172140F028008DF80D00B4
:1076100001208DF810008DF81300ADF804108DF8DE
:1076200012008DF80C008DF811006088A21D6946CB
:1076300000F086FC08B010BD10B5184C86B01ECC0A
:107640008DE81E0050B1164C4FF6FF71A180006806
:10765000002160616176217618B104E00E2006B049
:1076600010BD104860610E48FFF792FF0028F6D168
:1076700001208DF812004FF65960ADF81000A21CE1
:1076800004A90120A8DF0028E9D10549684662DF86
:107690000028E4D10248FFF7A7FFE0E708DC02007A
:1076A00068350020C986020010B500280FD0018877
:1076B0001B4C502926D00BDC10291DD0112906D1D6
:1076C000A1888088814202D14FF6FF70A08010BD52
:1076D000512913D05329FAD1C088E1888842F6D1C4
:1076E000607E0028F3D0FFF773FF0028EFD06169B8
:1076F000BDE81040022008478088E7E7BDE8104059
:1077000003F08EBD30F8061F62899142DFD14189B6
:107710000229DCD10C3000F021FB207610BD0000E6
:10772000683500202DE9F0410546007B0426294CF0
:107730004FF00108012811D002282BD00226287B07
:10774000314600F07BF818B1206841690320884772
:10775000206841690220BDE8F04108472068002701
:10776000817E49B10621012000F068F800282CD064
:10777000206841690320EEE780F81980012108465E
:1077800000F05CF8002820D0216811284F76D6D16F
:107790000626D4E76A7B142A19D8C2B10E4F05F128
:1077A0000E01381DFEF73BFE687BB8612168384644
:1077B000897E0029C3D1A0F10C010A68011F9047FE
:1077C0000028BCD1216881F81A80BDE8F081052627
:1077D000B5E70000C02B00209035002070B515499A
:1077E00000250A68002A24D04A68002A21D00831DE
:1077F000904708281DD0104C0028206885760ED0B0
:107800000621022000F01AF818B12068416903200F
:107810008847206841690220BDE87040084701217F
:10782000022000F00BF8002803D0206841690320F3
:10783000F2E770BD84350020C02B002086B0032302
:10784000ADF8003020238DF814308DF8150000229B
:107850000E48019202928DF81610C188ADF80410FE
:1078600002218DF8061005A90491ADF80820CDF885
:107870000CD0808801A9AEDF002804D1BDF800102B
:10788000032900D00C2006B07047000068350020A6
:1078900070470000F8B50646018800203C4C2129BD
:1078A00055D012DC4FF00105102920D0112935D018
:1078B000132932D100231A468521A0887FDF0028B2
:1078C0002BD034A240F2E9210DE03B2956D05229B9
:1078D00049D0562921D1B088132176DF00281CD049
:1078E0002CA240F20B31BDE8F840FEF793BCA57026
:1078F000E570012000F08EFA002000F083FAB188D4
:10790000A180284802F006FD20B122A24FF4327176
:10791000FEF780FCFFF7A4FA6570F8BDA07021485F
:10792000E5700C3001F000F8012000F06BFA4FF622
:10793000FF70A080FFF77CFA20B116A240F2DF2191
:10794000FEF768FCBDE8F8400020FFF71FBA009082
:10795000B08869468FDF0028DFD00EA240F2F52103
:10796000FEF758FCF8BD00231A461946A088B1DF7F
:107970000028F7D007A240F2FB21B4E7B08813211A
:1079800076DF0028EED003A240F20331ABE700001F
:10799000A82A00202E2E5C2E2E5C2E2E5C6D616996
:1079A0006E2E63000C2C00202DE9F04701883B4E21
:1079B00040F2F3194FF6FF7510291BD011293ED064
:1079C000122954D0502946D1C188F289841D914290
:1079D00041D1618902293ED18688304601F03AFFC3
:1079E000050038D004F10C0000F0BCF9A8B329461A
:1079F00030464EE0C17B8788044601292BD1A8463A
:107A0000284601F027FF050017D02F80002028729C
:107A1000234843464A460168C5F80A104068C5F83D
:107A20000E0004F1100105F10A0001F049FF68722F
:107A3000F08900280FD129462AE0042013E080882D
:107A400001F008FF040006D06068FFF719FB08B1D9
:107A500004F09CFE2580BDE8F087FFE76868FFF72B
:107A60000FFB0028F7D0BDE8F04704F08FBE8788F1
:107A70000646384601F0EEFE0400ECD02B464A469E
:107A800006F1080104F10A0001F01AFF60722146B4
:107A90003846BDE8F04700F025BC0000C82E0020A5
:107AA000CC2A00202DE9F04F0746858802883E4801
:107AB000012197B08346102A09D0112A4BD01A2AE7
:107AC0006ED1387AB1EB101F47D2012246E0364C16
:107AD000083CA068C0430B9061680BA802F01BFB38
:107AE0000B990CA800F08CFB2C220CA96846FEF721
:107AF00096FC0026E946A04610E000BF09EB4600D0
:107B00005FF00004B0F804A008EB84005146001DAB
:107B100002F0A3FA641C1D2CF6D3761C0098B04228
:107B2000ECD8142D07D317B0E321BDE8F04F1FA206
:107B30000420FEF76FBB2946584602F0D9FA2946C1
:107B400008F1040002F0D4FAF87B012828D0164886
:107B50002946001D15E029461AE000220221B1EB5A
:107B6000101F01D2012600E000260F49083901F15B
:107B70001000041D294682B102F0BAFA36B1294636
:107B8000204617B0BDE8F04F02F0B2BA29462046B1
:107B900017B0BDE8F04F02F060BA02F05EFAF5E708
:107BA00017B0BDE8F08F0000EC2E00202E2E5C2ECA
:107BB0002E5C2E2E5C2E2E5C2E2E5C2E2E5C636F89
:107BC0006D706F6E656E74735C626C655C636F6D17
:107BD0006D6F6E5C626C655F636F6E6E5F73746118
:107BE00074652E630000000010B504460748007855
:107BF00000280AD0204601F05BFC204604F03EFF3E
:107C00002046BDE8104001F0F7B910BD002B002060
:107C100070B58EB0044608686061304B4868A0615A
:107C20000FCB08AD85E80F0004F1120108A862DF50
:107C3000002851D1A07C8DF8320041F22350ADF8DC
:107C4000300022460CA90120A8DF002844D12021C1
:107C50006846FEF7FDFB41F22450ADF80000A07C21
:107C600001258DF802008DF80C509DF80D00ADF83F
:107C70000650F42640F012008DF81150ADF8046063
:107C80008DF80D008DF81350208804F10A02694622
:107C900000F056F900281FD120216846FEF7D8FBD6
:107CA00041F22550ADF80000A07C8DF802009DF84F
:107CB0000D00ADF806508DF80C5040F00E008DF818
:107CC0001150ADF804608DF80D008DF81250208829
:107CD000A21C694600F034F90EB070BDC4DA02008F
:107CE00030B40288502A1BD1C4884D88821DAC4212
:107CF00008D15389012B05D14B691BB1127B8088B8
:107D000030BC1847AC420BD15389012B08D98C6980
:107D1000002C05D08088A44630BCDBB20C32604712
:107D200030BC704786B01423ADF81030A0F57F4307
:107D3000FF3B11D00023009301930293039301238F
:107D40008DF802304989ADF8001004A9CDE902127E
:107D50006946AEDF06B070470820FBE70078C0F345
:107D600040007047007800F00100704708B502F04D
:107D70004DFE20B10D4A40F21E31FEF74BFA0020B5
:107D800000906946012002F069FD20B1074A4FF4D6
:107D90004971FEF73FFA684602F0B0FD002804D0B2
:107DA000024A4FF44A71FEF735FA08BDBC6D020075
:107DB0002DE9FC410646C0074FF000050ED0104FDC
:107DC00000240122385D009500231146019502F040
:107DD00040FC641C042CF4D300F024F8B0070DD54B
:107DE000074E0024361D0022305D03230095114606
:107DF000019502F02EFC641C042CF4D3BDE8FC8138
:107E000049D902000249085C012102F065BC00006A
:107E100049D902000249085C002102F05DBC000063
:107E200049D9020010B500242046FFF7EBFF641C7F
:107E3000042CF9D310BD00000D2803D00BA240F292
:107E400047310FE0002B0FD0A3F5405002380BD084
:107E5000082B09D043F20140834205D0184603A203
:107E600040F24231FEF7D6B9704700002E2E5C2E4C
:107E70002E5C2E2E5C6D61696E2E63001CB504466F
:107E800001F03AFC00236A46092103F0C3FC0528EF
:107E900005D10348012241792046FFF70DFB1CBDA7
:107EA000D42A00201CB50021009142F6A621ADF88D
:107EB000001001218DF80210034901AA09680191FF
:107EC0006946A0DF1CBD00006CD9020005494FF0D7
:107ED000FF32082841F8202002D3084480F84820C7
:107EE000704700009C310020F0B54FF0FF3512B113
:107EF0000023082601E008230C260C4C05E000BFF7
:107F000054F823707F1C04D05B1CB342F8D328467E
:107F1000F0BD26185DB286F8305044F82310002AD0
:107F2000F5D1E11881F84800F1E700009C3100200C
:107F30000249084490F93000704700009C3100204D
:107F40002DE9F0438146887891B090460C4600B9FF
:107F500001208DF83E002088ADF83C0000250095FA
:107F6000607C694604F03AFD6E46A07C711C04F00A
:107F700035FDE07B00289DF8020002D040F00800AB
:107F800001E020F008008DF80200217C11B140F0E2
:107F9000100001E020F010008DF80200217B11B1EB
:107FA00040F0010001E020F001008DF80200217D89
:107FB00009B1022100E0012161F342008DF80200C5
:107FC0001C2102A8FEF744FA607BC10601D480069A
:107FD00017D50E950EAFE07C791C04F0FFFC9DF8E0
:107FE0003800079720F00F00401C20F0F000103000
:107FF0008DF838009DF83A0020F00600801C8DF8BE
:108000003A00607B8DF80800A07B8DF809001421F0
:1080100009A8FEF71DFA0FA8CDE90906A088ADF85A
:108020003000A06820B1E088ADF82C00A0680D9069
:10803000A06998B301950088ADF81000A06901AD62
:1080400001A94088ADF81200A06940680695039028
:10805000A069007B04F0C2FCA069691C407B04F0AD
:10806000BDFCA069807A00289DF8060002D040F08F
:10807000080001E020F008008DF80600A169C97A27
:1080800011B140F0100001E020F010008DF8060062
:10809000A169097A19B140F0010002E00DE020F079
:1080A00001008DF80600A169897B09B1022100E079
:1080B000012161F342008DF80600E06900B10590EE
:1080C000434609AA02A94846AADF11B0BDE8F083D9
:1080D00070B504464FF6FF750A462846AC4209D1F2
:1080E0004FF480742146104601F0D2FF80B2A042C6
:1080F0000BD070BDFF2CFCD82146104601F0B8FF14
:1081000090F0010F01D0204670BD284670BD0000E0
:1081100070B5084C050009D010342168002907D03B
:1081200008682060496828468847F6E70834F4E77D
:1081300070BD000088310020054A012120B10128CE
:1081400005D19170FFF7E4BF51700020FAE7704746
:10815000883100202DE9F05F26484168F1B3DFF84F
:1081600098B00E688146DBF8004087688078E11B94
:1081700021F07F45ED1CB0B9DFF880804FF48030EE
:10818000C8F84403C8F804031120FEF769FA112067
:10819000FEF771FA4FF0010AC8F800A02F2002F094
:1081A00045FD89F802A0B54200D23546124BE819C8
:1081B0003C3320F07F401860DBF800105A46091B62
:1081C00021F07F41001B20F07F40C91C81420FD964
:1081D000106818602F2002F029FD00E004E0BDE8DF
:1081E000F05F1120FEF752BABDE8F05F04F02AB943
:1081F000BDE8F09F602B00200415014000100140F5
:1082000073B58CB00646002000900D9880B1002414
:108210006D4621460DA801F060FF30B1009805EBD6
:10822000400084800098401C0090641C142CF0D303
:108230002C2269463046FEF7F2F80EB070BD2DE9EB
:10824000F04117880646B81D14460D46984202D9DB
:108250000C20BDE8F0813188072206290AD34FF4AB
:10826000486C4FF6FF73614501D9994202D170887D
:10827000062801D21046ECE7604501D99842F9D1B1
:10828000994203D0984201D08142F3D80520E855A5
:1082900020881221401C80B2208029542088401C54
:1082A00080B220804119308805F030F821880844D8
:1082B00080B220804119708805F028F82188084490
:1082C00020800020C5E7000002A240F29521FDF7C2
:1082D000A1BF00002E2E5C2E2E5C2E2E5C6D6169DF
:1082E0006E2E630038B54A7A0F4B62B100220A72D3
:1082F0005969002906D001228DF80020ADF802004E
:108300006846884738BD0A7A62B19B684C68024665
:1083100019462046FEF770FE0028F3D0BDE838402D
:1083200004F034BA5B68F1E7C82E0020F0B587B0DE
:1083300016460F4604461D4618220B496846FEF7AE
:108340006EF80A488DF80870ADF80240ADF80A6082
:108350008DF80C50017800222046FFF7ADF86846F2
:1083600000F0CEFA07B0F0BD78DA0200102B002042
:108370001FB500220092ADF800100192ADF8021076
:108380000292039202AA694690DF04B010BD000079
:1083900070B5044686B01C48012101F0CCFEBFF345
:1083A0005F8F0026002821D10025204600F0ABFF7A
:1083B00068B1112812D086281AD0A0F54051023990
:1083C00003D00146204604F0E9F9294607E006B04B
:1083D00029462046BDE8704001F074BC01212046CA
:1083E00001F070FCBFF35F8F0748066006B070BDF8
:1083F000182206496846FEF712F8ADF802406846B2
:1084000000F05AFAE1E70000E02A002098D90200C3
:108410007FB50C4610B1012004B070BD2079002654
:1084200038B141F61D5501281BD0022826D00F2057
:10843000F2E70220207102960396E06801906946F7
:1084400001A803F05BFF50B102988188E1800088A9
:108450002081BDF80010029803F0CEFFDCE70A206F
:10846000DAE70A4B6A460021A01D03F003FF38B18A
:10847000064918398E61CE610A28CDD12846CBE74E
:1084800002488188019803F0B7FFF5E7942B00209C
:108490002DE9F0470025DFF88C803CE06068002182
:1084A00000EBC506012032789146FDF7A9FFD4E91B
:1084B000062300EA020701EA030C57EA0C0728D05A
:1084C00082438B434846C4E9062302F095FC327888
:1084D0008246914601200021FDF792FFD4E9042352
:1084E00000EA020401EA03074A4650460021FDF76C
:1084F00087FF44404F403C430BD17078012801D0A6
:10850000012100E00021726881EA0A010AB14846AF
:1085100090476D1CEDB298F8000044468542BDD3EB
:10852000BDE8F087402B002038B51D4D2B789842D0
:1085300001D3042038BD00EB400439B118480129AB
:10854000406815D002291DD0012038BD01208DF8CA
:10855000000068686A46002150F8240001F052FFCC
:1085600008B1112817D19DF800000028F1D112E0C0
:1085700050F8240088B101681446496988470068AA
:10858000206008E050F8240038B1016814464969B9
:10859000884780882080002038BD032038BD000037
:1085A000B82B0020FEB51D4C2578A8420DD263B132
:1085B00000EB4005606850F8256026B100EB8506A9
:1085C000777AFF0703D00320FEBD0420FEBD009292
:1085D000CDE901310121B17250F825606F46306854
:1085E00041693046884700680099884214D930684C
:1085F000394682683046904710B10DE040688047A8
:10860000606800EB8500817A0029F7D1606800EB93
:108610008500007A0028D9D00120FEBDB82B0020AB
:1086200006490A78904201D301207047496800EB5F
:10863000400001EB8000407A70470000B82B00201A
:10864000FEB5204C2578A8420DD263B100EB400561
:10865000606850F8256026B100EB8506777AFF0741
:1086600003D00320FEBD0420FEBD777A7F0701D52D
:108670000220FEBD0092CDE901310121B17250F816
:1086800025606F4630684169304688470068009928
:10869000884214D930683946C2683046904710B1D4
:1086A0000DE040688047606800EB8500817A002912
:1086B000F7D1606800EB8500007A0028D9D001204E
:1086C000FEBD0000B82B0020704700000E4910B519
:1086D0000A784C780023A24212D0521CD2B20A70FF
:1086E000022A00D10B70084A0B780C3252F8232072
:1086F00002608868104420F07F408860012010BD2F
:108700000360002010BD0000602B002013460A46C5
:108710000021FFF70BBE00002DE9F843104D0F4676
:1087200080461E4691466946286801F06AFC0400AE
:1087300014D01C21FDF78CFE01202071C4F8149088
:10874000380BC4F80080C4E902606946286801F06B
:1087500079FC03F01BFD0020BDE8F8830420FBE753
:1087600034DB020010B503780022072B06D2DFE8C5
:1087700003F005040610202930000A7010BD012303
:108780000B7003898B818388CB81C06888600A74F1
:1087900010BD02220A7002898A818288CA81C26859
:1087A0008A60807D062802D00020087410BD012058
:1087B000FBE703220A70C2888A810289CA81C068E5
:1087C000886010BD04230B70C0888881CA818A60CC
:1087D00010BD0520087010BD70B5064D064600247A
:1087E00055F8241009B130468847641C042CF7D38F
:1087F00070BD0000E433002030B50446006887B047
:108800000D46806800281FD018216846FDF720FE1D
:108810000195A0680590207910B1012810D107E0DA
:1088200001208DF8000020690290E068039005E0C7
:1088300002208DF80000E068000302906069049057
:10884000206881686846884707B030BD70B586B03B
:1088500015460C0006461AD0112C18D0082C16D03C
:1088600018216846FDF7F4FDADF80260304600F0CF
:1088700043FFADF8040000200D2C0AD007218DF82D
:10888000001002948DF80C00684600F047F806B01E
:1088900070BD03218DF8001025B12978C90701D0DA
:1088A000012100E002218DF80C008DF8081041F242
:1088B0000110ADF80A00E7E710B50446408800F063
:1088C0001BFFA080024801682046BDE81040084711
:1088D000DC2A00202DE9F04107460024064E074D12
:1088E00005E000BF56F8241038468847641CE87835
:1088F0008442F7DBBDE8F0813C310020002B0020F2
:1089000010B50446408800F0F7FEA08002480168D8
:108910002046BDE8104008472CDA020001490968EA
:1089200008470000C0DA0200F8B50446694604F0C2
:10893000E6FD00280ED1217C4A060BD508060ED58F
:108940000098E2690123407804F12801FFF778FEDE
:1089500008B10120F8BD207C00F07F002074154E86
:10896000216A009801F09FFA0028F3D1656A294630
:10897000E87A40F02000E872A268206804F004FB66
:1089800005F11C00E16804F013FB314605F1160007
:1089900004F00EFB002105F1120004F011FB009819
:1089A0000121C17004F026FB217C01F0BF0121747C
:1089B000F8BD00000000214870B586B004461821BB
:1089C0006846FDF745FDA0890125A0F54040ADF8BA
:1089D00004002078324E062835D2DFE800F0340358
:1089E00003032E4EA08900F08BF930B9E08943F6DD
:1089F000FE71A0F54040884225D8A07B8DF8080084
:108A00002078032811D000208DF80900A068039079
:108A1000606860B109208DF80000606804908DF8EE
:108A20001450684602F080FE0DE00120ECE70820BB
:108A30008DF800008DF81050F3E7A08900F060F980
:108A400008B1E08930B17078002801D002F06AFFE7
:108A500006B070BD606840B10B208DF80000606802
:108A600002908DF80C507570DBE70A208DF800003D
:108A7000BDF8040002F0E4FFF5E7606858B1142087
:108A80008DF80000606802908DF80C504FF6FF7072
:108A9000ADF80400C5E713208DF80000F6E70000EC
:108AA000EC2A002038B504460E480078A8B1A4F599
:108AB0007F40FF380FD0684603F09AFA78B105215D
:108AC000017001210171C480684603F09FFA03F030
:108AD0004FFB002038BD042038BD022038BD0820DF
:108AE00038BD00009C2B00200C4808B5007888B1E8
:108AF000684603F07DFA78B106210170684603F0FC
:108B000085FA0748017809B10121017303F030FBB0
:108B1000002008BD022008BD082008BD9C2B0020B5
:108B2000A8340020F0B587B014216846FDF790FC0A
:108B30002B4C207818B16846FFF74EFE4EE0201D02
:108B400001F0E0FAB8BB4FF010204169000402695F
:108B500040694B1C01D100FB02F122480022016157
:108B6000A1F54051C160204901F0C9FC002820D185
:108B70001F481C238C221D49006801F02FFA02F0C7
:108B8000FDFB051E14D0022812D000270126062D59
:108B900012D005A803F02CFA88B106700C2D18D25B
:108BA000DFE805F0170F170F171617161711131117
:108BB0000B2007B0F0BD11E026706760BBE708200E
:108BC000F7E7077105E0032100E00221017100E0F1
:108BD000067105A803F01AFA03F0CAFA0020E8E7C4
:108BE0009C2B0020C82B002044DB0200F433002023
:108BF0001CDB020038B5040014D0694603F07EFB8C
:108C0000A0B1BDF8000000EB8001094800EB810035
:108C1000C16849B1A17A39B1C168491EC16000205B
:108C2000A07238BD052038BD062038BD0A2038BDE9
:108C3000803400201FB501A9684603F01BFB04B077
:108C400010BD07B513460A466946002003F012FB23
:108C50000EBD07B513460A460021684603F00AFB1D
:108C60000EBD20B119B100680860002070470520D2
:108C700070470000F8B50D46040018D0BDB1694634
:108C800003F03CFBA8B1BDF800000B4900EB8000ED
:108C900001EB800001210C30666801F036FA2E608D
:108CA00060680C3068600120A0720020F8BD0520CB
:108CB000F8BD0A20F8BD00008034002018B103235D
:108CC000002204F009BD052070470223002204F0B1
:108CD00003BD0000084910B50A69042A0AD0074AF2
:108CE000096942F8210004480121103001F00DFA11
:108CF000002010BD0C2010BD7C2B0020E433002090
:108D000043F6FE71A0F54040884201D8012070472B
:108D10000020704710B504460078182802D1FEF7ED
:108D2000A7FB207010BD10B504460078182802D1AA
:108D3000FEF79EFB207010BD70B51346002205465D
:108D4000112900D10122074C33B12179FEF7B4FB80
:108D500000226178284600E06178BDE87040FEF7A7
:108D6000ABBB0000182B0020F7B517460E0011D042
:108D70000098002560B100242146684601F0ADF955
:108D800018B1A0B23946B0476D1C641C142CF3D343
:108D90002846FEBD0020FEBD406803F049B9000032
:108DA0000EB516A19DF8080020F00F00401C20F021
:108DB000F00010308DF808000C2202A87CDF20B1F2
:108DC000124A4FF4C771FDF725FA00200090019078
:108DD0001020ADF80000ADF802005A20ADF80400F4
:108DE0004FF41670ADF8060068467ADF002804D00C
:108DF000064A4FF4CC71FDF70DFA0EBD496D706552
:108E000064616E63654A595900000000BC6D020040
:108E100070B508B1012070BD1B4C0025207B08B146
:108E2000257301E000F0A4F8207808282AD2DFE8B2
:108E300000F02904080C10291422BDE8704000F04D
:108E400025B8BDE8704000F081B8BDE8704000F082
:108E500063B8BDE8704000F03FB80620207060881D
:108E6000094900EB8000283901EB80004068BDE82B
:108E7000704002F063BA072020706560BDE8704062
:108E800002F06ABA0F2070BDA83400201149F0B476
:108E90008A1C00200346A1F128050C18A67A4EB1C1
:108EA000A37200EB800405EB8404E66816B9247C09
:108EB000012C0AD0401C80B20228EED30B704B80EC
:108EC0004B60F0BC41F61D5070471080F0BC00F0C4
:108ED0003DB80000A83400200C48418801EB810215
:108EE000A0F1280101EB8201CA6852B1052101708D
:108EF000074802218180016800230122054801F012
:108F0000D7BA042202704968F6E70000A8340020AE
:108F1000A42B0020C82B002038B50A490848032498
:108F20000B684268898803EB810153880470DB1C5D
:108F300000201B0400909B0B034801F057FB38BD39
:108F4000A8340020A42B0020C82B0020074910B50E
:108F50004888091D03F022FA18B1BDE81040FFF758
:108F6000DBBFBDE81040FFF7B7BF0000A83400200A
:108F7000F0B51F481F490125067802248B88A0F10F
:108F80002802082E19D2DFE806F00418181B222F39
:108F90002F170189491C01810021418080F80C10A4
:108FA00001EB810312F8233043B100234418491C1C
:108FB00089B2A3720229F3D30570F0BD0123F5E74E
:108FC00042685288D21C1A448A800470F0BD4688D8
:108FD0000D6806EB860602EB860256680E60556049
:108FE00013818C80062100E007210170F0BD000094
:108FF000A8340020A42B0020F0B5044680882188E6
:109000002E4D87B00646352937D0502923D0522916
:1090100002D0542947D102E000F020FE43E018229C
:1090200027496846FDF7FBF9ADF80260304600F0CD
:1090300063FBADF8040000F019F9002229793046ED
:10904000FEF73AFA0022E9783046FEF735FA68462C
:10905000FFF732FC27E0207B012824D1A07A0128E9
:1090600021D12089A0F5245102391CD1012130469B
:1090700000F028FE04F060F915E000273A4669790F
:10908000FEF71AFAE088B0F5857F08D038B9A089D4
:10909000012804D1A07B08B1012700E00027394650
:1090A000304603F091FF00220649A878FEF7B8F990
:1090B00007B0BDE8F04003F099BB0000D42A0020BF
:1090C000C8D902001D71020070B50446007800285E
:1090D00014D1608800F0C2FD6588284600F060F970
:1090E00028B107480122C1782846FEF7E5F96088D3
:1090F000FEF7C4FEBDE8704004F01EB970BD00006C
:10910000D42A002070B5154C00252570FEF7B0F963
:109110006070FEF7ADF9A070FEF7AAF9E070FEF7F7
:10912000A7F92071FEF7A4F960716178182913D0AE
:10913000A178182910D0E17818290DD021791829A3
:109140000AD0182808D004F10C000560BFF35F8F27
:1091500001202070002070BD032070BDD42A0020A3
:109160007CB504460078082837D1607A58BB207A4D
:109170001C4E4FF6FF75012811D0072802D0082891
:109180002BD121E0A08800F001FA0446A84224D0A7
:10919000012100F097FD2046FEF770FE1DE0A0883B
:1091A0006A46012102F01EFA68B90198007850B1B0
:1091B000A08800F0EBF9A8420FD00122F178FEF769
:1091C0007BF903F013FB08E0F068012805D1BFF339
:1091D0005F8F044900200C310860BDE87C4004F03A
:1091E000ABB80000D42A00202DE9F04180460246A9
:1091F00001200021FDF704F91A4F05460E46786854
:10920000FDF73EFF00280CD1174CD4E9062110468B
:109210002A4001EA06031A4305D0A843B143C4E932
:109220000601BDE8F081404601F0E6FD30B1D4E929
:10923000040128433143C4E9040105E0D4E90410E2
:10924000A943B043C4E90410D4E9060128433143DB
:10925000C4E90601A1687868BDE8F0410022FDF785
:10926000CBBE0000E8DA0200402B00201CB5054A06
:10927000D2E90212CDE900120022694602F003FB96
:109280001CBD0000E4D9020003484FF6FF71818045
:109290000121017000207047E42A00202DE9FC41E3
:1092A000804600F029FA002403250127A0F57F411C
:1092B0002646FF3908D06A46082102F093F918B90A
:1092C0000198841D8688056832462B462146404613
:1092D000B1DF042804D0082804D00B2808D002E00D
:1092E000112000E00020002F00D10B20BDE8FC8100
:1092F0000027A80701D50125E6E73443F5D000246F
:1093000026460325E0E72DE9FC41804600F0F4F90C
:109310000646A0F57F40FF380ED001252A466D1C79
:109320000027ADB26B460821304602F07BF90400FD
:1093300006D0072C25D025E043F20200BDE8FC81D1
:10934000019903230A1D0B604046891DB2DF04000A
:1093500004D00C2C09D0052C09D009E03246082194
:10936000104602F0C5F904460CE0012700E0002495
:109370000821304602F0B2F900B10324002FCDD10C
:1093800000E00C242046D9E704488088A0F57F41FE
:10939000FF3901D003F034BA70470000E42A0020FE
:1093A0000EB502A9019100F0A7F96A46012102F069
:1093B00019F908B100200EBD019800780EBD00001B
:1093C0002DE9F04107464FF6FF760A48B3DF10B1AA
:1093D0000320BDE8F081074C43F20305A41E32468A
:1093E00061883846AFDFA842F3D16088401C6080B6
:1093F000F5E70000E62A0020428800EB82020C32EA
:109400008A4201D9022070478188A1F57F42FF3A44
:1094100003D0008808B100207047012070478842BF
:1094200004D20068401C01D0012070470020704722
:109430003EB5027802230C46B3EB520F17D1B0F8B9
:109440000110ADF80010C1788DF802108188ADF8D8
:10945000041080798DF8060002AA01A92046FDF7C4
:10946000B7FC032202A96846FCF7FDFF08B1002003
:109470003EBD01203EBD000070B50D4604461428D7
:1094800010D2FEF739F868B1084904EB840001EB0B
:109490004000D0F802102960C188A980007AA87124
:1094A000002070BD43F2020070BD00005C2F002060
:1094B00070B5018892B0102961D1011D2C22684637
:1094C000FCF7ADFF9DF804004FF6FF76032134460C
:1094D000B1EB500F2BD002F095F99DF804006D46CA
:1094E00040080ED001280CD0022820D118E00D9998
:1094F000281D1131FDF7C0FB18B100BFBDF82C408D
:1095000015E00CAA0BA9072002F050F90028EED1B3
:109510000DE00D99281D491CFFF78AFF0028EDD1A9
:109520000CAA0BA9072002F041F90028F1D1BDF8DF
:109530000000B44200EB8001124820F8114000EB1B
:1095400041000199C0F80210BDF80810C1809DF8D3
:109550000A10017213D0BDF80000ADF82E000020F3
:10956000ADF83040084E8DF82C000BAD044600BF1E
:1095700056F8241028468847641C022CF8D312B0F1
:1095800070BD00005C2F0020F8D902002DE9F041E9
:109590004FF6FF760546B04213D00B4F002400BFB4
:1095A00004EB840037F81000A84206D12046FDF7EE
:1095B000A3FF10B12046BDE8F081641CA4B2142CB6
:1095C000EED33046F7E700005C2F00203EB50C4696
:1095D000054602F017F90BE0BDF80000A04207D0E5
:1095E0002846029900F00EF810B1BDF800003EBD0B
:1095F00001AA6946072002F0D9F80028ECD14FF6FD
:10960000FF703EBD2DE9F0410C46054600F1110703
:1096100001F111061022491C401CFCF724FF48B937
:10962000681C00F06FF928B1601C00F06BF908B1FC
:10963000012400E0002431463846FDF71DFB3B784D
:109640000222B2EB530F0CD00321B1EB530F08D021
:109650003378B2EB530F04D0B1EB530F01D001219B
:1096600000E00021084201D18C4302D00120BDE876
:10967000F0810020FBE7018811B9421892780AB105
:1096800001207047491C0829F7D30020704710B506
:109690000C460346FFF7EFFF00280AD01888218800
:1096A000884205D10822A11C981CFCF7DCFE08B1F9
:1096B000002010BD012010BD142804D2024A00EB86
:1096C000800022F8101070475C2F002070B505460E
:1096D000FFF75CFF0446284601F087FF002808D109
:1096E000142C06D2034B04EB84024FF6FF7123F8CF
:1096F000121070BD5C2F002010B50446142808D24B
:10970000FDF7FAFE28B1044904EB840031F810009B
:1097100010BD4FF6FF7010BD5C2F00203EB5044613
:1097200002F070F80EE0019920464631FFF7AFFFD6
:1097300028B9019920462A31FFF7A9FF10B1BDF8D9
:1097400008003EBD6A4602A9072002F02FF8002853
:10975000E9D14FF6FF703EBD10B50A4941600A4895
:1097600000F0D0FC58B901F09DF907491C238C2268
:10977000087404488C39001F006800F02FFC00209A
:1097800010BD000038DB0200543500202DE9F04107
:109790002D4F002518B17D600120BDE8F0810879CA
:1097A000012258B1294E01280CD0274C4FF0020855
:1097B0000834022821D0032842D128E00A7101F0A0
:1097C000CBFD3BE05FF0000000EB800116F82110BC
:1097D000022908D0401C80B20228F5D33A707D607F
:1097E00041F61D50D9E700EB800006F8205006EB4B
:1097F0008000406801F0A2FD20E00D71A4F8048013
:10980000002301221248216800F052FE16E00D717B
:10981000206801F093FD0D4923682831498801EB48
:10982000810206EB8201D1F804C0C4F800C04B608D
:10983000A3880B81A4F8048006F822500028ACD03D
:109840007D600E20A9E700009C2B002080340020C2
:10985000C82B00200146034802888A4200D000201D
:1098600070470000B42E00202DE9F04117468846CD
:109870000646002417E000BF4FF4A07000EB8405FB
:109880004FF480307159A04059B1D6F80413014209
:1098900007D02946304601F085F9D8E9002128464D
:1098A0009047641CE4B2BC42E6D3BDE8F0810000FE
:1098B0000248007A002800D001207047543500206B
:1098C000F0B58488A518944200D82246A41AC2880C
:1098D000D6189A4200D81346D21A4B880788BB4242
:1098E0000CD34088834209D88888A04206D3A84276
:1098F00004D8C888904201D3B04201D90020F0BDFD
:109900000120F0BD0021425C0AB101207047491CD2
:109910001029F8D300207047800701D0002070473D
:10992000012070474FF002000AB1FEF773BAFEF74C
:1099300069BAF7210180172141800021017141712D
:109940001B218171C17170472DE9FE4F254F98464B
:1099500091460D00824601D000260DE0684600F0D9
:1099600013FB6A460021504601F0B6FD3878009E90
:1099700010B99DF8090098B14A463146504603F0A7
:10998000D9F90446014600225046FFF7D5F90D2CBF
:1099900026D008DC24B3082C22D00B2C09D11FE0E0
:1099A0000520BDE8FE8F112C0ED0A4F540500238E2
:1099B00016D00325B8F1000F04D032462146504698
:1099C000FEF744FF2846ECE72A46F9785046FDF7B3
:1099D00073FD4A46B9785046FDF76EFD0025E9E76C
:1099E0002546E7E7182B00207EDF042800D1112050
:1099F0007047000070B50D001446064617D0164893
:109A0000C1783046FDF758FD3046FFF775FE014638
:109A1000A0F57F40FF3800D074B129463046FFF7EB
:109A2000E3FF04462878C0070BD001220AE0BDE816
:109A300070400021FFF7D8BF304600F00FF8044611
:109A400005E002222CB10021304602F05DFE2046E6
:109A500070BD0121F8E70000102B00207CB50B46FB
:109A600005466A460721184601F0BCFD040005D0F2
:109A7000052C0FD0112C1DD003241BE0019C94F861
:109A80004400183410F0010001D0019C34340CB1B2
:109A900010B106E011240DE004F11200FFF7EBFD18
:109AA00038B1224604F11201284685DF040008D0AF
:109AB00000E00B2400210022284602F025FE20466B
:109AC0007CBD0121F7E700002DE9F041194F0E465A
:109AD000154604463978FDF7D7FC002827D02046E4
:109AE00001F0DAFCE0B12046B978FDF7CDFC08B111
:109AF000012700E0022704F5807080B2072101F001
:109B0000EDFD010004D0052902D0204602F05AFEE6
:109B10002B46324639462046BDE8F041FEF706BCEA
:109B20002A4631462046BDE8F041FEF7EFBDBDE8CC
:109B3000F0810000102B002070B5094D0646A97871
:109B4000FDF7A2FC0446E9783046FDF79DFC01468E
:109B500022463046BDE870400123FFF7F5BE000005
:109B6000182B00202DE9F047394E002780463D464E
:109B7000DFF8E090D6F804A057E003D00446D0F810
:109B80001C8035E099F8002002EB4201521CD2B251
:109B900089F8002009EBC10199F80230091D9A42A9
:109BA00001D189F8005048680A780446012A12D089
:109BB000022A02D0032A3BD108E003F019FB00B1CE
:109BC0000127257434E00574C06900E0706800283E
:109BD000F9D170602CE0207C50BB88686060C86858
:109BE000A0600869E0604869A061F07800B1656034
:109BF0006268B168184B501A20F07F40984202D238
:109C0000A168084406E0881AA16820F07F408142DC
:109C100002D9081A206000E0256065600120A56077
:109C200020742046E56103F0C5FAB8F10000A4D124
:109C300099F8001099F801008142A3D117B9716811
:109C4000514502D00120BDE8F0870020FBE700006D
:109C5000602B0020A4320020FFFF7F0030B587B0CA
:109C60000546002418216846FCF7F2FBA5F57F4065
:109C7000ADF80250FF3815D02846FFF70FFB98B11A
:109C80000B2815D0112811D0A0F54051023903D06E
:109C90000146284602F082FD09482246817828467E
:109CA000FDF70AFC07B030BD0E2002E00124F3E707
:109CB0000F208DF800006846FEF7FEFDECE700007F
:109CC000D42A00200A4602494978FDF7F5BB000076
:109CD000D42A002088B00120FEF76AF8FDF762F967
:109CE00020B14C4A40F2E631FCF794FA40F2666249
:109CF00001214948FDF7C6F820B1464A40F25B31E0
:109D0000FCF788FA00F01AFD20B1424A40F26E31A9
:109D1000FCF780FAFEF72AF801F0D8FEFFF740F8CA
:109D200000213E4800F02AFA20B13A4A40F2A1113F
:109D3000FCF770FA3A4803244FF0A045C0F80047FA
:109D400040200127C5F80C0502F09CFB3549364A36
:109D5000D1E90401CDE9000132488DF8024069469D
:109D6000083001F0E3F920B12A4A40F2D331FCF780
:109D700051FA02F0F1FDFCF7A5FF1C216846FCF743
:109D800067FB00264FF42030CDE900604FF47020CF
:109D900002902648059026488DF80C400690ADF8B4
:109DA0000E608DF810606846FDF7F6FA20B1194A8A
:109DB0004FF42B71FCF72EFA0020FCF7E7FF164C4E
:109DC0000C3CA178E078014216D04020C5F8080587
:109DD000144808300068D0F810054FF4FA42C24029
:109DE0001048042302210830009701F089F90D483A
:109DF000083001F077F908E0884307D04020C5F823
:109E00000C050848083001F05FF9E67000F0AAFC84
:109E1000D7E70000BC6D0200B42A0020F82B002018
:109E20001800005028D9020025D10200EDB102002F
:109E3000C982020070B5144682880E460546208805
:109E4000111D0144921C994201D8FE2A01D90C200F
:109E500070BD521C32542088FF21401C80B22080EB
:109E600031542088401C80B220808119288803F05A
:109E70004DFA2188084480B22080AA8842B1A9689E
:109E800041B13044FCF7CBFA2088A98808442080EF
:109E9000002070BD072070BD5FFA81F100F8011B42
:109EA000521EFBD1704770B50446C06A0D460026AD
:109EB000A8420FD0204603F0E1F806000AD16078EE
:109EC00001232A4604F13001FEF76CFB08B1751E30
:109ED0000126E562304670BDBFF35F8F00F0FDB82C
:109EE000F8B50F46017814460546012901D1687876
:109EF00030B12088821C9A4232D8012902D006E073
:109F00000720F8BD69780144891C994228D8181A9D
:109F1000801E86B2ADF800602188B81C08446946EE
:109F20007DDF0028EDD12978022904D06878BDF8BA
:109F30000020904205D3BDF80000B04201D80920AE
:109F40000AE00820012905D16978B14202D8ADF8AC
:109F5000001001E0ADF80060BDF80010FE2901D945
:109F60000C20F8BD2288491CB9542188491C89B2AB
:109F7000218078542088401C2080BDF800100844BF
:109F800020800020F8BD0000034A00219268C0E94B
:109F90000021816070470000182B002070B54FF63B
:109FA000FF750E46A84201D1002000E0401C84B29B
:109FB00008E02146304600F090F808B1204670BD18
:109FC000641CA4B2FF2CF4D9284670BD10B5FCF770
:109FD0007AF908B1002010BD112010BD10B531B1C3
:109FE000B2FBF3F403FB14241CB1092010BD0E20B6
:109FF00010BD01600021416081608281C3810846FB
:10A0000010BD70B50C460546FCF712F9002802D0C9
:10A0100021882868084470BD10B50A8849888A429A
:10A0200003D1FCF747F9012010BD002010BD70B529
:10A030000C460546FCF721F9002802D06188286803
:10A04000084470BD10B50A8849888A4203D1FCF7DC
:10A050000BF9012010BD002010BD01F01F030122EB
:10A060009A40D243490900EB8100114600F053B8F1
:10A070000A4601F01F030121994010B552090C4610
:10A0800000EB820000F052F8204000D0012010BD0B
:10A090002DE9F04180460D460024481E012101EBC8
:10A0A000501716E058F82400C04390FAA0F0B0FA18
:10A0B00080F020280CD200EB4416AE4208D2314684
:10A0C0004046FFF7D5FF0028ECD13046BDE8F081CF
:10A0D000641CA742E6D82846F8E74A0950F822004F
:10A0E00001F01F0201219140084000D0012070477B
:10A0F00001F01F0301229A40490900EB810011463B
:10A1000000F01EB8012100F011B808B56A46FCF74E
:10A1100026F9009808BD08B56A46FCF706F90098CC
:10A1200008BD08B56A46FCF71AF908BD08B56A46C5
:10A13000FCF7EEF808BD08B56A46FCF7DDF808BD87
:10A1400008B56A46FCF7E4F8009808BD08B56A4609
:10A15000FCF712F9009808BDC20800F007030120BF
:10A16000895C98400840704710B5C20800F00703AA
:10A17000885C01249C402043885410BD10B560B118
:10A180000161F72120F8021B20F8021B1B2100F8B7
:10A19000021BFFF7CEFB002010BD0E2010BD0000FB
:10A1A0002DE9F047B0F804A08EB00C465FEA0A092A
:10A1B00057D10188564E0127002524297BD006DC83
:10A1C000102909D0112929D0232926D199E03A292B
:10A1D00028D0552921D147E021792173C07BA61DC4
:10A1E000012802D0022804D101E0208800E0608824
:10A1F000308031887088814208D94846A5DF10B187
:10A20000112802D002E0777100E03771B179F0795E
:10A2100081426BD94846FEF7ABF867E0A01DFFF717
:10A2200088FB63E02246408934F8061F814200D84B
:10A2300008466080172800D217206080106970B12E
:10A24000607960B1D6E90001CDE90001ADF8029076
:10A250006088ADF804001369694610469847657137
:10A2600025710EB0BDE8F087C08804F106081728F4
:10A2700000D21720B8F80010814200D80846A8F88C
:10A28000020088F804502846B8F80010B5DF98F8A6
:10A29000050058BB206948B3D6E90201CDE90001A9
:10A2A000ADF80290B8F80200ADF804002046694607
:10A2B00022691AE0FFE7011D2C226846FCF7AFF87F
:10A2C000BDF80000BDF8042004EBC0014A73226908
:10A2D00062B1D6E90423CDE90B23ADF82E00487B0B
:10A2E0008DF83000226920460BA99047A07A0028FB
:10A2F000B7D0E1885046A5DF0028B2D1A572E77239
:10A30000AFE7017A207B884284D2014682E70000D1
:10A3100054D9020020B10278DE2A03D00820704709
:10A320000E20704741800020704760B159B102781B
:10A33000DE2A0AD009684160DE2101704FF6FF7104
:10A340004180002070470E207047082070477FB57D
:10A35000054600294DD0002D4BD008780C46DE284C
:10A3600047D1A8886188884202D1204603F036F898
:10A370002888012825D002283BD011283AD051281E
:10A3800037D135F8040F6188884232D1A978A81CEA
:10A3900002292ED1017A042903D0062901D00529EA
:10A3A00027D10021009102228DF8002001914FF465
:10A3B000C07202910391ADF80420007A05280FD0F5
:10A3C00010E0297A2046012913D1A98842889142B8
:10A3D0000FD10121017204B0BDE8704002F0FEBF50
:10A3E000ADF8041028886946B0DF002801D0616804
:10A3F00088477FBDA88861888842FAD14FF6FF70F0
:10A4000060807FBD03681B69184700F180400068C9
:10A41000002800D00120704708B500F180400021DD
:10A4200001600068009008BD4FF010204169491C90
:10A4300002D0406913DF704704207047014813DFE2
:10A44000704700000060020070B50B4C207808B126
:10A4500085250FE00020A06060602061E060074873
:10A4600000F0BEFB054600F01DFB08B900F0A0FBA4
:10A4700001202070284670BD8831002039810200FB
:10A4800038B500258DF800506846FCF709FE074CEA
:10A49000E068401EE060E06810B900F0B1FBA57014
:10A4A0009DF80000FCF720FE38BD00008831002038
:10A4B0002DE9F0411F46164604000D4616D02068CF
:10A4C000B8B1C6B160680268501E284215D1724307
:10A4D0002046FCF7EAFB80B120683B463246D0F8C4
:10A4E00010C029462046BDE8F04160470E20BDE877
:10A4F000F0810820FBE70920F9E71020F7E720B1F9
:10A5000019B101600B68114618470E207047000012
:10A51000044801214174007A08B1002070470120ED
:10A520007047000054350020012801D0032808D1CD
:10A530000449002201284A7400D00020087401F068
:10A54000C7BD70475435002070B50246022801D0BF
:10A55000032A45D1234C207A002841D0012833D04A
:10A56000022831D120480023022A006802D0032AA1
:10A570002AD11BE0E360017911B1012924D10DE05A
:10A58000D0E90565711B4FF48056B14200D33146C6
:10A59000294481614569A9420ED015E00169491C31
:10A5A0000161426991420FD1237213E0E168491CB5
:10A5B000E160082908D9E3602372022A0AD00D213C
:10A5C000FEF71AF901F02AFD607C28B1BDE8704061
:10A5D00000F06EBA0021F3E7BDE8704001F078BDED
:10A5E00070BD000054350020AC2B00202DE9F8434D
:10A5F0001D46089F1646884604000DD066B12068A7
:10A6000060B135B160684068B5FBF0F100FB1150F6
:10A6100030B10920BDE8F8830E20FBE70820F9E7F8
:10A620004046FCF73CFB90B13046FCF738FB70B17C
:10A630002A4641462046FCF738FB40B10097206887
:10A640002B463246C76841462046B847E2E710200D
:10A65000E0E770B541EA4201DDE904564FF0A0445D
:10A6600041EA830141EA052104EB800041EA064109
:10A67000C0F8001770BD70B541EA4201DDE904562B
:10A680004FF0A04441EA830141EA052104EB800038
:10A6900041EA0641C0F8001770BD4FF0A04202EB3E
:10A6A0008000D0F8002722F44032C0F80027D0F80C
:10A6B000002742EA0141C0F8001770474FF0A0425E
:10A6C00001218140C2F80C1570474FF0A0420121D2
:10A6D0008140C2F80815704701224FF0A043824024
:10A6E00011B1C3F808257047C3F80C257047000066
:10A6F00018B5084B6C4601441B68009306E000BF88
:10A7000054F82030D3F81035401C08C28142F7D8E5
:10A7100018BD0000D4DA0200034908B5084400213E
:10A7200001600068009008BD006000400249405888
:10A73000012800D00020704700600040064910B595
:10A7400000204870091D0860BFF35F8F034904486B
:10A7500000F0FCF9002010BD742B002010DB02007B
:10A76000BC33002008B500208DF800006846FCF7D7
:10A7700097FCF1EE100A20F09F00E1EE100ABFF303
:10A780005F8F08494020C1F880029DF80000FCF767
:10A79000ABFC00F087F908B141DF08BD20BF40BF26
:10A7A00020BF08BD04E000E070B504460C4801215C
:10A7B000FFF7C1FCBFF35F8F0025002809D10120FE
:10A7C000074E042C08D0311F4A781AB1BFF35F8FAF
:10A7D000356070BD0C70487002F018F9F6E70000A3
:10A7E000782B002002A24FF4EF71FBF713BD00009D
:10A7F0002E2E5C2E2E5C2E2E5C6D61696E2E6300FB
:10A80000024A1060101D0160704700002C76004065
:10A81000030103481844C0F81425C0F81015704708
:10A820000070004002494058002800D001207047C5
:10A8300000700040034908B5084400220260006827
:10A84000009008BD0070004020B103490968016014
:10A85000002070470E207047DCDB0200FEB5064684
:10A860000D460846FFF7F0FF002845D1002400946C
:10A870000194012706208DF80060ADF804000294D1
:10A880008DF80270694620202A6869DF00948DF8EF
:10A8900001708DF80240019402948DF803406946DE
:10A8A00040202A6869DF00948DF80060F720ADF839
:10A8B000020001940294694623202A6869DF00940B
:10A8C00002208DF8000001940294694601202A6854
:10A8D00069DF4FF4B0600090019402946946A120B2
:10A8E0002A6869DF0094019402948DF8004069465B
:10A8F000A0202A6869DF0020FEBD000060DF00287C
:10A9000002D1024A0121117070470000B72B0020CC
:10A9100030B51748ADF5017D0078002825D04FF4FB
:10A92000FA7400BFADF8004280A9684661DF50B1FB
:10A9300005281AD00DF5017D0EA2BDE8304040F289
:10A940003911FBF767BC6D461A497DA800F0FEF887
:10A9500007E000BFD0E90021284690477DA800F01D
:10A960000CF97F980028DDD0F4E70DF5017D30BDAE
:10A97000B72B00202E2E5C2E2E5C2E2E5C2E2E5CF5
:10A980002E2E5C2E2E5C636F6D706F6E656E747311
:10A990005C736F66746465766963655C636F6D6D27
:10A9A0006F6E5C6E72665F7364685F626C652E6367
:10A9B00000000000E0DB0200F8B5134C2078C0B1C5
:10A9C0000120A07001F0C0FD112814D0022001F078
:10A9D000D3FD00258DF800506846FCF761FB11DFC0
:10A9E000064625709DF80000FCF77EFB2EB1304630
:10A9F000F8BD0820F8BD0020F8BDA57002F03CFAB3
:10AA0000032001F0B9FDF6E7B42B00207CB5194C0A
:10AA1000207808B108207CBD0120A070002001F042
:10AA200093FD112819D0002001F0A6FD1248002640
:10AA3000006801908DF800606846FCF731FB0F4913
:10AA400001A810DF05000AD0002020709DF800004A
:10AA5000FCF74AFB2DB128467CBD00207CBD0120BF
:10AA6000F3E7A670667002F043FA012001F084FD5E
:10AA7000F3E70000B42B002074DB0200FD6E02003F
:10AA80000EB50749684600F061F805E0D0E900100E
:10AA90008847684600F071F802980028F6D10EBD8C
:10AAA00090DB02000148007870470000B42B0020C2
:10AAB0000548817819B1007818B1FFF77DBF0820EB
:10AAC0007047FFF7A3BF0000B42B00201FB56846F6
:10AAD0004BDF40B1052816D004B00BA2BDE81040F2
:10AAE0006B21FBF797BB184901A800F02FF806E08F
:10AAF000D0E900210098904701A800F03EF80398A3
:10AB00000028E4D0F4E71FBD2E2E5C2E2E5C2E2EE6
:10AB10005C2E2E5C2E2E5C2E2E5C636F6D706F6E25
:10AB2000656E74735C736F66746465766963655C87
:10AB3000636F6D6D6F6E5C6E72665F7364685F737A
:10AB40006F632E6300000000FCDB020001600968F7
:10AB50004160AFF3008010B5D0E9002153689942FD
:10AB600001D1002104E0D1E90034A34202D019460A
:10AB7000816010BD08314160F0E7816800290BD089
:10AB8000026892680A44826041684B689A4203D125
:10AB900008314160FFF7DFBF70474058002800D000
:10ABA0000120704708B5002242504058009008BD6F
:10ABB00009480068012110F0010F08D14FF0E02092
:10ABC000C02280F80024C0F88012C0F800110349A8
:10ABD000012008607047000000E100E01805004017
:10ABE0000649024600200B790BB1852070470A60A8
:10ABF00001220A7100224A7170470000302B0020A8
:10AC000004490120086004480168C1F3004100299B
:10AC1000FAD170470C00004018040040002802D010
:10AC20000149800108477047E1DA0200002802D09C
:10AC30000149800108477047F1DA020010B5044667
:10AC400000F086FF28B12046BDE810400021FFF744
:10AC500024BD204600F088FF00280FD02046FDF7D5
:10AC600067F9074A02EB8001D1F8103523F00103A0
:10AC7000C1F8103501218140C2F8081310BD000051
:10AC8000006000402DE9F0418846054600F060FF75
:10AC9000234E002828461AD0FDF74AF9304490F890
:10ACA00048008009032802D001280ED007E04FF0A9
:10ACB000A040D0F81005E84010F0010F05D00321A6
:10ACC0002846BDE8F041FFF7E8BC0221F8E700F0B4
:10ACD0004BFF002822D02846FDF72AF904464FF4FE
:10ACE000807000EB84000F4F81B207EB8400D0F836
:10ACF000102542F00102C0F810250846FFF70CFDB0
:10AD0000B8F1000F0AD02846FDF712F956F82000D6
:10AD1000002803D00120A040C7F80403BDE8F0815B
:10AD20009C310020006000402DE9FC41DFF8BC8030
:10AD3000044608EB0400002790F930001346C017C2
:10AD40000E46401C01D008274CE0B0781946C0F3ED
:10AD500040022046FDF7C8F80546401C41D0B078B7
:10AD6000410719D4C0070AD04FF0A04000EB84017E
:10AD7000D1F8000720F00200C1F8000707E0002129
:10AD80007378204600910A460191FFF774FC174939
:10AD900020465431FFF7E8F9B078800718D51448F9
:10ADA000317800EB8500D0F81025124B1A40C0F81E
:10ADB00010254FF4F8524FF4403302EA042203EA1C
:10ADC00001410A43D0F810150A43C0F8102509E0E4
:10ADD00008EB0500327810F8481F41EA8211017033
:10ADE00000E004273846BDE8FC8100009C310020CB
:10ADF00000600040FFE0FCFF4FF0A041D1F81015CB
:10AE0000C14011F0010000D00120704770B5184D0D
:10AE100095F8580008B1082070BD0020411E2A187E
:10AE2000401CC0B282F830102028F8D300242046FD
:10AE3000FDF74CF8641CE4B20C2CF8D300240D4947
:10AE4000C0206C6581F8000401264020891FC1F8EC
:10AE50008002C1F800014FF4BE70FFF75DFC0649A7
:10AE6000F007C1F8040385F85860204670BD000063
:10AE70009C31002006E000E000600040034890F8AC
:10AE80005800002800D00120704700009C310020AD
:10AE900070B50C4626490A7C0AB1112070BD227992
:10AEA000244D0AB1012A01D100222A6001EB40029F
:10AEB000137F1BB911F82D3F5B1C0B70E1791177E3
:10AEC000217A517721786278302301F0030103EA77
:10AED00002121143A2784FF4E06303EA0222114305
:10AEE000E2784FF4805303EA0232114322794FF49F
:10AEF000E02303EA0242114362794FF4801303EA2C
:10AF000002521143A2791B0103EA02620A4B114368
:10AF100003EB0012C2F81815227AE179FFF778FCEA
:10AF2000207908B1012801D101202860002070BDDE
:10AF30001032002000750040007000402DE9F04103
:10AF40001E4C054694F82C0010B10820BDE8F08195
:10AF500044F8101B1A4928780860091D68780860B1
:10AF6000E878A0770127277700202070607760605D
:10AF7000144EE0776FF00040C6F808034FF482707B
:10AF8000FFF758FCB015FFF755FCA8780E494001B3
:10AF900081F800048020C91FC1F88002C1F80001B7
:10AFA0000220C6F80403A07F10B10120C6F80403F4
:10AFB0000348F03807600020C8E700001032002086
:10AFC000F07500400070004007E000E02DE9F0411E
:10AFD0002C4D80460B46287C10B11120BDE8F08135
:10AFE00001242C74284E0322C6F808232146184653
:10AFF000FFF706FC95F82D00012808D9002700224C
:10B00000F8B21146FFF704FC7F1C082FF7D305EBBD
:10B010004800427F017F4046FFF7FAFB002734607B
:10B020001948001D046042F210744FF482784046C3
:10B03000FFF7F8FB20B90020FFF7F0FD641EF6D102
:10B040004FF48070FFF7F6FB4046FFF7F3FB95F8EF
:10B050002D0001280AD9002405EB4400427F017F1E
:10B06000E0B2FFF7D5FB641C082CF5D395F82E0051
:10B0700008B1032000E00220C6F8040338462F740C
:10B08000ACE7000010320020007000402DE9F041D4
:10B0900006460D464FF4803400681746AC404BB16D
:10B0A0004FF4A07101EB8501FFF77CFD3068C0F81B
:10B0B000044301E0C0F80843306800EB8500C0F8A5
:10B0C0004075BDE8F081000002680121116100793E
:10B0D000034A00EB400002EB800001727047000061
:10B0E000F8310020016801220A600079034A00EB70
:10B0F000400002EB8000022101727047F83100200D
:10B10000F0B40468049E40F20115D4F800728D403A
:10B11000AF43C4F800720468D4F800521D43C4F869
:10B1200000523346F0BCFFF7B1BF00002DE9F041FB
:10B1300004460E4600792C4900EB400001EB8007E5
:10B14000387A10B10820BDE8F0813A6070680025B7
:10B150004FF4A078786006E008EB85012068FFF7DF
:10B1600021FD6D1CEDB26079A842F5D82068F17818
:10B1700040F3073000284FEA411106DA00F00F00D3
:10B1800000F1E02080F8141D03E000F1E02080F8D9
:10B1900000142068012240F3073000F01F0302FA78
:10B1A00003F14009800000F1E020C0F88012C0F8EF
:10B1B000001120687178D0F8043561F30103C0F8FC
:10B1C00004352068B178D0F8083561F30103C0F880
:10B1D000083520683178D0F8103561F30303C0F8E2
:10B1E00010353A720020AEE7F831002000780028D0
:10B1F0000AD106483B21808876DF002804D004A2CB
:10B2000040F28A21FBF706B870470000A82A002008
:10B210002E2E5C2E2E5C2E2E5C6D61696E2E6300D0
:10B220007FB51A4D8188AA8891422DD110F8061F4A
:10B23000022929D14188EA88914225D1017A04293D
:10B2400022D0062920D005291ED0841C0020009081
:10B2500002210190029003908DF80010297E19B10F
:10B2600001218DF8061001E040F2FD10ADF8040058
:10B27000A8886946B0DF1128FAD0BDF8040000287C
:10B2800002D12046FCF74EFA7FBD00006835002051
:10B2900048B1064A0168914205D140680449401806
:10B2A00002D0012800D0032070470000DEC0ADDED0
:10B2B00002FEE10E8A7D022A04D90289CB881A4453
:10B2C000D21C02814289C988511AC91E4181704726
:10B2D0002DE9F0410D460221904600F58056298067
:10B2E00000F10804144F1BE031462046FEF784F8B5
:10B2F00040B1B8F1000F02D0012288F800200228E6
:10B3000016D004E0A0687969884200D9786128885D
:10B3100061880844C01C2880608804EB80040C34D9
:10B3200031462046FEF77BF80028DDD1BDE8F081EC
:10B330004FF480602880F9E77C2B002008B50021BD
:10B34000009101460823024A0248FFF74FF908BD61
:10B350002CDB0200C82B002008B500200090044818
:10B360000823044A01680448FFF740F908BD0000BB
:10B37000A42B002024DB0200C82B00202DE9F05F65
:10B380000025DFF80891DFF808B12C464FF00308DC
:10B39000AA462F46D9F80C0000EB07363046FFF7D7
:10B3A00077FF78B3012847D0032862D100204FF4FB
:10B3B000806200BF56F82010491C0ED004EB8401B7
:10B3C0000BEB8102A8F10100566003221FFA80F8FE
:10B3D0000BF82120641CA4B24BE0401C9042E9D33E
:10B3E0002C48016879B104EB840102200BF821009C
:10B3F0000BEB81014E600881254828304480641C95
:10B40000A4B205E007E00221066081804FF0010A46
:10B4100045F001052DE004EB840100220BF821200A
:10B420000BEB810101F110024E6030460831FFF74D
:10B430004FFF45F00205CDE7BAF1000F0CD0022016
:10B4400004EB8401134A0BF821000BEB8101126815
:10B450004A60641C0881A4B20E480022011D0660E7
:10B460003046FFF735FF0B48808802280CD00820B3
:10B4700005437F1CBFB2032F8CD3B8F1020F00D25B
:10B480000025E8B2BDE8F09F0420F1E7C82B0020BA
:10B4900080340020A42B002001494978FBF7F4BF39
:10B4A000102B002000B587B002228DF80020028802
:10B4B000ADF802204079400701D5012000E00220CC
:10B4C0008DF808008DF809106846FDF719FA07B0E5
:10B4D00000BD002101F0A4BC30B587B00C460521A9
:10B4E0008DF800101546ADF80200FEF705F9ADF82D
:10B4F00004006846CDE90245FDF710FA07B030BDFB
:10B5000070B5054D06460024304655F8241088478E
:10B51000641C042CF8D370BD1CDA02007CB5104DFD
:10B52000002400BF04EB440005EB800002F0B0F8FB
:10B53000641C022CF6D350210220CDE900010849F9
:10B54000084BB039A02201F1A00000F04BFB08B17C
:10B5500003207CBD03490120091F487000207CBDE9
:10B56000E4300020FC2A002070B504460025C168A4
:10B570001A4A284600EB400302EB83035B688B42C8
:10B5800004D100EB400002EB800003E0401C0228E5
:10B59000F0DB00202178082904D0092908D01329DC
:10B5A00014D112E0617A89B980B102F07FF80DE020
:10B5B000617A59B950B100214160817A41F00201AC
:10B5C000817207490120087003E001252046FFF73A
:10B5D00097FF2846BDE8704000F006BEE43000202A
:10B5E000F82A0020002300F015B938B504460020E1
:10B5F00008E08178204600F071F808B105280FD1E5
:10B600000098401C00906946204602F029F8002866
:10B61000EFD1204600F078F9002802D0072800D0AA
:10B62000032038BD2DE9F0471F00154681460E4620
:10B6300004D0072E05D0082E06D102E00E20BDE86A
:10B64000F0870DB1022D01D90720F8E74FF000086F
:10B65000484601F0EBFF041E04D0207AA8420BD02C
:10B660000F20ECE7FF214FF6FF7001F0DFFF041E13
:10B6700006D0A0F80090A670607AFF2802D00AE0F9
:10B680001120DCE72946144800F07AFA6072FF289E
:10B6900013D04FF001082572617A0F4800F0B4FA18
:10B6A00002000ED0ABB23146384600F0A3F9B8F133
:10B6B000000F0FD0082E06D00CE0204601F0E8FF66
:10B6C000DEE70320BBE738886FF0050101EB80005F
:10B6D000796888800020B2E7D430002010B501F0EE
:10B6E000A5FF18B101F0E2FF002010BD052010BD3C
:10B6F00070B50C4606461546072901D0082C0ED118
:10B70000104600F00CF950B12146304601F08EFF92
:10B7100038B105808470BDE8704001F033BF072068
:10B7200070BD052070BD00004FF6FF7141800149DA
:10B730000968084700DA020030B587B01748FDF7FE
:10B74000C9FA10B1032007B030BDFDF7EBF908B11D
:10B750008620F8E700F0A0F9002002904CF20704E0
:10B7600003900EE0694604A8FDF784FA00988088EB
:10B77000A0F5404085B204A8FDF73CFA284600F049
:10B7800047F902AA04A92046FDF75BFA0028E9D090
:10B790000349012008700020D5E70000B9890200A4
:10B7A000EC2A002000F05AB900F05EB970B586B0FE
:10B7B00014460E46054600F00BF940B105F5404031
:10B7C00080B20F4A6946FDF73CFA40B902E0012019
:10B7D00006B070BD03A96846FDF74CFA08B1002019
:10B7E000F6E7A5700398408820800498606003986D
:10B7F0008088A0F5404030806846FDF7FBF9E6E719
:10B80000F02A00200248002141608160704700005A
:10B81000EC2A0020F0B587B01F46154606460C46B8
:10B82000FF280AD8084600F0D3F830B104AA214610
:10B83000304600F0B5F840B902E0072007B0F0BD8F
:10B8400002A904A8FDF716FA08B10520F6E7AC70C6
:10B850000298408828807FB1840039882646B1EB61
:10B86000800F00D20C46039922466868FAF7D7FD8C
:10B87000B44203D20C20E1E70398686004A8FDF706
:10B88000B9F90020DAE770B586B016460C460546D1
:10B89000FF2825D8A07800F09BF808B305F54040B4
:10B8A000ADF80000A07803AA00F54040ADF8020012
:10B8B0006068019020880290A178284600F070F816
:10B8C0000528694603A80DD0FDF7F8F968B10728E7
:10B8D00014D0082810D00E280ED0032006B070BD5A
:10B8E0000720FBE7FDF7F1F9F0E71EB1314603A8A9
:10B8F000FDF7B7F90020F1E71120EFE78620EDE72B
:10B900004FF6FF7000F084B810B5FF2801D907206A
:10B9100010BD00F083F800F005F8002010BD00F025
:10B92000C1B8000070B51C4D8CB000206870069046
:10B930004FF6FF760790304603E0204600F080F88F
:10B94000204600F08BF80446B04220D004F5404079
:10B9500080B206AA08A9FDF77CF90A28EDD004F503
:10B96000404080B2FDF79EF8082812D000280ED083
:10B9700006460125182209496846FAF750FDADF838
:10B98000044002968DF80C506846FFF7CDFE0CB0CF
:10B9900070BD01206870FAE7EC2A002004DA02008A
:10B9A0007CB5054616460C46084600F011F8002006
:10B9B000009005F54045019004F54044A8B2A1B2BD
:10B9C0006B463246FDF736F9002800D005207CBDD5
:10B9D00007280DD001280BD0082809D0052807D04A
:10B9E000062805D0092803D0042801D0002070477C
:10B9F0000120704710B503EB83034FF6FF7404EA90
:10BA000003138170DB1C99084260018010BD0000A7
:10BA10000149FCF75DBB0000FC30002010B5044676
:10BA2000A0F57F40FF3807D004492046FCF750FBC3
:10BA3000A04201D1012010BD002010BD1C3100200A
:10BA400010B50446044900F0F3FC03492046BDE864
:10BA50001040203100F0ECBCFC3000200149FEF722
:10BA60009DBA00001C31002070B50A49FEF796FA15
:10BA700004464FF6FF7507E000F01EF838B105499F
:10BA80002046FEF78BFA0446AC42F5D170BD204645
:10BA900070BD0000FC30002001484021FAF7D8BCFE
:10BAA000FC300020FF2803D801460248FEF715BBF2
:10BAB00000207047FC300020FF2803D801460248D0
:10BAC000FEF70BBB002070471C3100201CB500F0B6
:10BAD00017F920B11C4A4FF48771FAF79BFB00203D
