:020000040002F8
:10600000186A0020DD630200E5630200E763020016
:10601000E9630200EB630200ED6302000000000090
:10602000000000000000000000000000EF6302001C
:10603000F163020000000000F3630200F563020058
:106040001D670200F7630200E16C02004169020073
:10605000F7630200F76302005565020099670200CA
:10606000F7630200B96C0200CD6C0200F763020016
:10607000F7630200F7630200F7630200F7630200B0
:10608000F763020075670200F7630200F76302001E
:1060900095690200F763020099690200F763020044
:1060A000F7630200F7630200F7630200F763020080
:1060B000F7630200F7630200000000000000000028
:1060C000F7630200F7630200F7630200F763020060
:1060D000F7630200F7630200F763020000000000AC
:1060E00000000000000000000000000000000000B0
:1060F00000000000000000000000000000000000A0
:10610000000000000000000000000000000000008F
:10611000000000000000000000000000000000007F
:10612000000000000000000000000000000000006F
:10613000000000000000000000000000000000005F
:10614000000000000000000000000000000000004F
:10615000000000000000000000000000000000003F
:10616000000000000000000000000000000000002F
:10617000000000000000000000000000000000001F
:10618000000000000000000000000000000000000F
:1061900000000000000000000000000000000000FF
:1061A00000000000000000000000000000000000EF
:1061B00000000000000000000000000000000000DF
:1061C00000000000000000000000000000000000CF
:1061D00000000000000000000000000000000000BF
:1061E00000000000000000000000000000000000AF
:1061F000000000000000000000000000000000009F
:10620000DFF80CD000F068F90048004731C4020004
:10621000186A002000B583B002900091019244F208
:10622000010071466A4601F021F903B000BD00008B
:1062300030B450E8012F93B2C48923448489A34227
:1062400028BF1B1B0489A34202BFBFF32F8F00206E
:1062500007E0C3EA020340E80134002CE9D14FF023
:1062600001000A6030BC704750E8012FC2EA0242C8
:1062700040E801210029F7D1704730B450E8022FDF
:106280001FFAA2F3C488A34202BFBFF32F8F0020DE
:106290000DE0C48923448489A34228BF1B1BC2EAA2
:1062A000034340E80234002CE8D14FF001000A60BB
:1062B00030BC704750E8022FC2EA224240E8022177
:1062C0000029F7D17047034653E8022FD988B2EB73
:1062D000324F4FF0000017BF92B241EA014142EA4B
:1062E000014104E05A68B2EB324F08BF012043E895
:1062F0000212002AE8D1704730B4044654E8000F77
:106300000D4644E80053002BF8D1156030BC7047AF
:1063100030B4044654E8000F40EA010544E8005355
:10632000002BF7D1156030BC704730B4044654E8F8
:10633000000F00EA010544E80053002BF7D1156077
:1063400030BC704730B4044654E8000F80EA0105C1
:1063500044E80053002BF7D1156030BC704730B4CF
:10636000044654E8000F00EB010544E80053002BFD
:10637000F7D1156030BC704730B4044654E8000FC4
:10638000A0EB010544E80053002BF7D1156030BCA9
:10639000704770B404464FF0000054E8006F0D6879
:1063A000AE4207BF44E80023012044E800630E60CA
:1063B000002B1CBF0020F0E770BC704730B40446CF
:1063C00054E8000F88422CBF451A054644E80053A4
:1063D000002BF5D1156030BC70470000064880479F
:1063E00006480047FEE7FEE7FEE7FEE7FEE7FEE7BA
:1063F000FEE7FEE7FEE7FEE79D690200016202009C
:10640000202A04DB203A00FA02F100207047914074
:10641000C2F1200320FA03F31943904070470000B3
:10642000004870471840030040EA01039B0703D06F
:1064300009E008C9121F08C0042AFAD203E011F8C3
:10644000013B00F8013B521EF9D27047D2B201E085
:1064500000F8012B491EFBD270470022F6E710B569
:1064600013460A4604461946FFF7F0FF204610BDC2
:10647000421C10F8011B0029FBD1801A704730B56F
:1064800004460020034600E05B1C934203D2E05C1C
:10649000CD5C401BF8D030BD034611F8012B00F84D
:1064A000012B002AF9D11846704730B50B4601463A
:1064B00000202022012409E021FA02F59D4205D3A3
:1064C00003FA02F5491B04FA02F52844151EA2F14D
:1064D0000102F1DC30BD0000064C074D06E0E0682B
:1064E00040F0010394E8070098471034AC42F6D31B
:1064F000FFF78AFE045403002454030070B58C187F
:1065000010F8015B15F0070301D110F8013B2A11C7
:1065100006D110F8012B03E010F8016B01F8016BB4
:106520005B1EF9D12B0705D40023521E0DD401F8B0
:10653000013BFAE710F8013BCB1A921C03E013F879
:10654000015B01F8015B521EF9D5A142D8D30020AE
:1065500070BD00002DE9F04700268AB0DFF85091A9
:10656000B0464FF48075012437460696284607F05A
:106570004DFA38B1D9F80403204203D0284607F079
:106580003BFA26432D1D64007F1CADB2082FEDD3CE
:106590004FF4BE74204607F039FA48B1204607F0A0
:1065A0002BFA46F0004606AA0121002007F010FA57
:1065B000404D16F0FF0F15D00127002437420DD0B3
:1065C00009EB8401D1F81005D1F81015C0F30420AF
:1065D00055F82420C1F3014102B190477F00641CAB
:1065E000082CEBD3002E5FDA4FF0FF30CDF810808F
:1065F00054E0281910F8507F90F9000027F0C008E7
:10660000401C3BD007A9404606F003FB10B34FEAFD
:106610009719404602F002FD55F820701FB1B9F1FC
:10662000030F03D006E0B9F1030F27D104A94046B8
:1066300006F0F7FA4FF0A04101EB8800D0F8000710
:1066400006A9C0F3014A404606F0E3FA18B1BAF1D0
:10665000020F03D012E0BAF1030F0FD1B9F1030F0B
:1066600008D1BAF1020F1DD00221404607F07EF991
:10667000761CF6B217B149464046B847641C042C54
:10668000B7D3002E10D06A460121002007F0A0F9F0
:1066900006990098884207D0069004980026344650
:1066A0000790A6E70321E0E70AB0BDE8F087000005
:1066B00000600040C03C002000F01F02012191401A
:1066C0004009800000F1E020C0F88012704700F01F
:1066D0001F02012191404009800000F1E020C0F834
:1066E0000011704700F01F02012191404009800015
:1066F00000F1E020C0F8001270474907090E002899
:1067000006DA00F00F0000F1E02080F8141D704759
:1067100000F1E02080F800147047000070B54FF4DD
:106720008076304606F0BBFB114CB50560B13046B3
:1067300006F0BCFB0120C5F80803607920B90120F0
:1067400060712168002088474FF48276304606F059
:10675000A6FB00280AD0304606F0A8FB0220C5F8A8
:1067600008032168BDE870400120084770BD0000A3
:10677000642B002007480021C0F84011C0F84411E4
:10678000C0F84811C0F84C11C0F80011C0F804114D
:106790000CF084BB001001402DE9FE434FF48278D9
:1067A000404607F067FD4C4F00254C4C012600B3D6
:1067B000404607F067FD94F82E0010B194F82F10B2
:1067C000D1B18DF80050616801912189ADF80810B0
:1067D000E26832B1218B618362602181E56010B192
:1067E00002E0257400E03E6021686846884784F82E
:1067F0002F5094F82E0060B34FF48077384607F09E
:1068000039FD30B3384607F03DFD628B94F82D100A
:106810008A420AD9A2EB010080B260832289A2EBEE
:106820000000626802EB400005E007D1E06828B193
:1068300084F82F60658307F00BFD04E08A4202D1E3
:1068400084F82F606583404607F01CFD2248001D38
:1068500006604FF48877384607F00CFD48B138469B
:1068600007F010FD257402208DF8000021686846AD
:1068700088474FF48A77384607F0FCFC28B1384641
:1068800007F000FD2574BDE8FE834FF000484FF48B
:106890008C7967691DE000BFB7FA87F028FA00F12C
:1068A00009EB80058F43284607F0E4FC88B12846B1
:1068B00007F0E8FCA5F58C75E8088DF8040045F3B1
:1068C0008000401C8DF800608DF805002168684646
:1068D0008847002FE0D1D6E700700040843D0020BB
:1068E00000F004BA70B50E46144900EB400001EB0D
:1068F000C0051446E86A183520B101280FD00228D7
:1069000005D113E0284600F025FAA04201D2002468
:1069100011E022463146284600F054FA0BE02846A2
:1069200000F018FAA042F4D20446F2E731462846B5
:1069300000F01BFA0446204670BD00004C470020C2
:10694000F8B51248124E04464FF48C7107F025FF3B
:1069500000281AD00025C4F81851D4F81801009066
:10696000F07F3446FF2806D0A17F11B107F00FF861
:1069700001E007F013F865772572D4E9002101B032
:1069800004F10800BDE8F0401047F8BD00300040B9
:10699000CC3D00200CF0D0B907F072BEF0B5B54880
:1069A0000023021D0178101D01254FF08054062997
:1069B0000BD11678360708D10678C6F30316032ED6
:1069C00006D0042E04D0052E02D0062907D00EE0F2
:1069D000B4F82463A84FC6F304263E6002E016789C
:1069E000360704D10678C6F30316032E02D0062913
:1069F00004D00FE0A24FA14E7E670EE01678360756
:106A000008D10678C6F30316032E06D0042E04D050
:106A1000052E02D0062907D00EE0D4F84462994F23
:106A2000C6F342363E6002E01678360704D1067897
:106A3000C6F30316032E02D0062906D011E0924EAB
:106A4000376827F0807737600EE01678360708D170
:106A50000678C6F30316032E06D0042E04D0052EA6
:106A600002D006290AD011E04FF08046C6F80C315A
:106A7000C6F81031834E361F336002E016783607B1
:106A800004D10678C6F30316032E02D0062905D0DA
:106A90000CE07C4F032664373E600AE01678360728
:106AA00004D10678C6F30316032E02D006290DD0B2
:106AB00014E0764F05263E60744E78363560734E8E
:106AC000083633603F263F1D3E6002E016783607E9
:106AD00004D10678C6F30316052E02D0062957D036
:106AE00062E06B4E36686B4F3E60694E361D36680D
:106AF0003F1D3E60664E083636683F1D3E60644E60
:106B00000C3636683F1D3E60614E103636683F1DBC
:106B10003E605F4E143636683F1D3E605C4E183650
:106B200036685C4F20373E60594E1C3636683F1D34
:106B30003E60574E203636683F1D3E60544E243628
:106B400036683F1D3E60524E283636683F1D3E6017
:106B50004F4E2C3636683F1D3E604D4E30363668FF
:106B60004C4F40373E604A4E343636683F1D3E60DB
:106B7000474E383636683F1D3E60454E3C363668D7
:106B80003F1D3E60424E403636683F1D3E6002E08B
:106B90001678360708D10678C6F30316032E06D0FA
:106BA000042E04D0052E02D0062907D019E0D4F80F
:106BB0005812394A01F04F01116002E011780907BB
:106BC0000FD10078C0F30310032803D0042801D0AC
:106BD000052806D131480168C90702D06FF00101CC
:106BE0000160D4F83001062808D1D4F83401062811
:106BF00004D12B48016841F4806101602248743857
:106C0000016841F470010160BFF34F8FBFF36F8FD4
:106C10004FF01021D1F80002002803DBD1F8040264
:106C2000002822DA1F4A15601F480468002CFCD097
:106C30001524C1F800420568002DFCD0C1F80442BB
:106C400001680029FCD0136001680029FCD0BFF363
:106C50004F8F0D48F0380168144A01F4E061114388
:106C60000160BFF34F8F00BFFDE712491048086075
:106C7000F0BD0000E00F00F0403501400DF0ADBA6E
:106C800000C007403C050040FCED00E0105600400D
:106C90000404001020C50040E40E00400004004041
:106CA0003C17004004E5014000E401400400FA05FF
:106CB0000090D003882C002004220249024805F0ED
:106CC0002DB800006C3D00200090004004220249D5
:106CD000024805F023B80000783D002000A00040E5
:106CE00001480068004700006C2B002010B5124CD2
:106CF00002202061606111A0A06104F17800E061D0
:106D00004FF4007020620020A06260620BA1A164B9
:106D1000E06204F51E71E1641021A065C4E914105D
:106D2000E06509A1E01DFFF7B7FB08A12046FFF7CA
:106D3000B3FB2020A07110BD4C4700205465726D3C
:106D4000696E616C0000000052545400534547477F
:106D5000455200000269C1688A4203D88068401A1F
:106D6000104400E0501A401E70472DE9F047C468F7
:106D70001746894606464FF000083069A04201D9FF
:106D8000051B02E0B168201A0D1AB0686D1E001BC9
:106D9000A84200D80546BD4200D33D4670682A4649
:106DA00020444946FFF740FBB0687F1B2C44A844B1
:106DB000A944A04200D10024F460002FDDD1404658
:106DC000BDE8F0872DE9F04104468846D4E9020782
:106DD000C51BE168606816460844B54206D94146BD
:106DE000FFF722FBB819E060BDE8F0812A46414672
:106DF000FFF71AFB761B08EB050132466068FFF7C8
:106E000013FBE660F0E700000FB4084B10B504A9CF
:106E100002AA039800F02EF8044602A9002000F010
:106E2000CAF9204610BC5DF814FB0000B7710200DF
:106E300002E008C8121F08C1002AFAD17047704743
:106E4000002001E001C1121F002AFBD170470000A1
:106E50000121202803DA81400548014003E0402851
:106E600002DA2038814009B10120704700207047C4
:106E7000FC06FFBD2DE9FF4F8BB088460546002676
:106E800006E025280BD0DDE90D1290476D1C761C1D
:106E900028780028F5D10FB03046BDE8F08F0024E7
:106EA000A146A2460122AE4900E0044315F8013F85
:106EB000203B02FA03F00842F7D128782A2810D0A4
:106EC0006FF02F022878A0F13001092915D809EBBD
:106ED000890102EB410144F0020400EB01096D1C41
:106EE000F0E758F8041B5FEA010903D544F40054A5
:106EF000C9F1000944F002046D1C28782E2817D12E
:106F000015F8010F44F004042A280ED06FF02F0268
:106F10002878A0F1300109290AD80AEB8A0102EB8E
:106F2000410100EB010A6D1CF2E758F804AB6D1C3F
:106F300028786C280FD006DC4C2817D068280DD094
:106F40006A2814D104E0742810D07A280FD10DE0FB
:106F500044F400140AE044F4801401E044F44014C2
:106F60006978814202D104F580146D1C6D1C28786B
:106F7000692865D006DC00288DD0632827D06428D6
:106F800006D15DE06E2808D073282AD0752877D006
:106F9000DDE90D129047761CE0E0C4F302500228B0
:106FA00009D003280DD0D8F8001004280DD00E60A9
:106FB00008F10408D2E0D8F80010F217C1E9006225
:106FC000F6E7D8F800100E80F2E70E70F0E718F838
:106FD000041B8DF8001000208DF80100EB46012005
:106FE00003E058F804BB4FF0FF3061074FF0000793
:106FF00001D40AE07F1C57450DDA8742FADB1BF803
:1070000007100029F6D106E07F1C8742FCDB1BF845
:1070100007100029F8D1DDE90D23A9EB070081460F
:10702000214600F0B1F83044C61904E0DDE90D1244
:107030001BF8010B90477F1EF8D22146484688E096
:1070400058F8040BC4F302514FF00A0B032900D186
:1070500000B2042900D140B2002802DA40422D21BA
:1070600002E0210505D52B218DF82410012104E033
:1070700006E0E10710D02021F6E708AF089113E001
:1070800058F8040BC4F302514FF00A0B032900D146
:1070900080B2042900D1C0B20021EEE75946FFF7C3
:1070A00004FA303107F8011D0028F7D1ADEB0700D5
:1070B00000F1200B600702D524F4803401E04FF08A
:1070C000010ADA4502DDAAEB0B0000E0002082464F
:1070D00000EB0B0108980144A9EB01000A90E003C2
:1070E00006D4DDE90D2321460A9800F04DF8064448
:1070F0004FF0000908E009A911F80900DDE90D12B7
:10710000904709F10109761C08998945F3DBE003F2
:107110000CD5DDE90D2321460A9800F035F8064428
:1071200004E0DDE90D1230209047761CBAF1000131
:10713000AAF1010AF5DC05E0DDE90D1217F8010BF3
:107140009047761CBBF10001ABF1010BF4DC0A980F
:107150002146DDE90D2300F005F806446D1C97E695
:10716000092801002DE9F041044600251E46174676
:10717000880404D405E039462020B0476D1C641E05
:10718000F9D52846BDE8F0812DE9F04104460025F7
:107190001E469046C80301D5302700E0202788040A
:1071A00004D505E041463846B0476D1C641EF9D54C
:1071B0002846BDE8F0810A68531C0B6010707047C8
:1071C00010B560B159B102780B785208B2EB530F89
:1071D00005D10622401C491CFFF751F908B10020D7
:1071E00010BD012010BD800701D000207047012094
:1071F0007047C3688B4206D811440069491E81421A
:1072000001D80120704700207047000030B52948A0
:10721000A5B03C21406824902748807C8DF89200DE
:107220006846FFF71AF902208DF8000001248DF856
:10723000024006208DF803003C210FA8FFF70DF94E
:1072400024A81E4D1490ADF84C402A1D68462968AC
:1072500000F0C4FD20B11AA240F2BF11FEF7DAFF20
:10726000164A0FA80C32A96800F0B8FD20B114A28C
:107270004FF4E171FEF7CEFF18211EA8FFF7EDF8DD
:1072800000208DF88D408DF87840ADF884001F9077
:107290008DF88C004020094920901EAAA1F13000F1
:1072A00072DF002804D006A240F2D111FEF7B2FF2F
:1072B00025B030BDA0390300142F0020D82A0020AB
:1072C0002E2E5C2E2E5C2E2E5C6D61696E2E630060
:1072D00010B588B10F481049401AC008032101EBCE
:1072E00000400EA106F0AEFD09F09EFA002810D075
:1072F0000EA24FF4987108E010480121007873DF66
:10730000002806D009A24FF4A071BDE81040FEF796
:1073100081BF10BDEC5403004454030045726173F7
:107320006520626F6E647321000000002E2E5C2EBB
:107330002E5C2E2E5C6D61696E2E6300A82A0020E3
:1073400070B58CB015460E4600236C46C3F10F0194
:10735000415CE1545B1C102BF8D30D2104F11000AB
:10736000FFF77BF80020C0F10F02315C2244401C83
:1073700011740328F7D3684646DF0020C0F10F01DF
:10738000214491F820102954401C0328F6D30CB056
:1073900070BD00000149C97800F05ABE382B0020AA
:1073A00070B50024084D05E0686810F8340007F057
:1073B00087FA641C28788442F6D304484068BDE804
:1073C000704000F073BB0000782B0020DC3B030012
:1073D00070B50024064D06E06868012110F83400FD
:1073E00007F092FA641C28788442F5D3002070BD1F
:1073F000782B0020F8B515460C460646052A01D222
:107400000720F8BD07F07CFB18B907F041FB002806
:10741000F7D1124900224E600C708D60C1E9042240
:10742000C1E906220E4D0DE006EBC400296800916B
:1074300081788DF8011000780A4A694607F0B6FA9B
:107440000028DED1641EE4B2EED2BDE8F840044864
:107450000021054A001D00F0A7BA0000782B00208B
:10746000DC3B0300CDB40200E1970200FEB51546F7
:107470000E46074672B606F09BFD00BF06F0C8FB3D
:107480000028FBD12249234A0120891AC90800EBB0
:107490000144012F23D06FF48050381822D0B0F56A
:1074A000405F24D06FF44051C84206D12B8820465B
:1074B00019A16A6806F0D1FC04E0204632461DA1FD
:1074C00006F0C4FC21480068C00700D000BE2A4670
:1074D00003B031463846BDE8F04000F079B82046A8
:1074E0001BA101E0204622A106F0ACFCEAE7A86857
:1074F00007F074F90346D5E90001CDE900100296C2
:10750000204624A1AA6806F0B9FC20462BA1EBE78F
:10751000EC54030044540300415353455254494F23
:107520004E204641494C45442061742025733A253C
:1075300075000000554E4B4E4F574E204641554C5E
:10754000542061742030782530385800F0ED00E088
:10755000534F46544445564943453A2041535345B9
:107560005254494F4E204641494C454400000000CA
:10757000534F46544445564943453A20494E564197
:107580004C4944204D454D4F5259204143434553AA
:10759000530000004552524F52202575205B257341
:1075A0005D2061742025733A25750D0A50432061D2
:1075B000743A20307825303878000000456E642019
:1075C0006F66206572726F72207265706F727400E0
:1075D00008B501238DF800309DF80030144B186079
:1075E00059609A606FF48041401807D001280FD18C
:1075F000DA60D86800889861D86807E01A6118696D
:107600008068586118690068986118694068D86195
:10761000186858689868D868186958699869D86966
:1076200072B600BF9DF800000028FBD162B608BD0D
:10763000103E0020164B10B593F822402CB193F861
:107640002240032C03D0112010BD082010BD82B1B0
:10765000042483F822409C7A240700D44902C3E919
:1076600003019A820020DA829883012A03D95220EA
:1076700002E0072010BD5120012209F0B9FD20B120
:1076800004A240F20241FEF7C5FD002010BD00003B
:10769000543F00202E2E5C2E2E5C2E2E5C2E2E5C57
:1076A0002E2E5C2E2E5C636F6D706F6E656E747324
:1076B0005C6C69627261726965735C736463617248
:1076C000645C6170705F7364636172642E63000058
:1076D00070B51E4B144693F822202AB193F822204D
:1076E000032A03D0112070BD082070BD04B3052209
:1076F00083F822209A7A150700D44902C3E90301CE
:107700009C820020DC829883012C13D002F00700B9
:1077100001284FF0010217D02146D72009F068FD5B
:1077200020B10BA240F23C41FEF774FD002070BD79
:10773000072070BD0122582009F05AFD0028F5D01D
:1077400003A240F22D41EFE75920E7E7543F002024
:107750002E2E5C2E2E5C2E2E5C2E2E5C2E2E5C2E63
:107760002E5C636F6D706F6E656E74735C6C6962B6
:107770007261726965735C7364636172645C617089
:10778000705F7364636172642E630000054890F853
:107790002210032904D090F8220008B1012070477C
:1077A00000207047543F0020044890F8221003291D
:1077B00001D3001D7047002070470000543F002097
:1077C000F0B5314C054687B094F822000F4610B151
:1077D000082007B0F0BD002F54D0E878FF2851D022
:1077E0006978FF294ED02978FF294BD0A978FF2945
:1077F00048D0002684F858000122009633461146EE
:10780000019606F05FF894F8580006F0CEF81F4B8A
:107810000DF1080C0FCB8CE80F00A8788DF808004C
:1078200028788DF8090068788DF80A001748002339
:10783000174A02A9103805F02BFC20B115A240F21E
:107840006541FEF7E7FC44F8227B012004F81909A2
:107850000D4B6078383320F00F006070A676FF2063
:10786000E0770A20009009480122A3F110011038A6
:1078700005F046FC20B107A240F27141FEF7CAFCB8
:107880000020A6E70720A4E7543F0020783D03002E
:10789000752703002E2E5C2E2E5C2E2E5C2E2E5C69
:1078A0002E2E5C2E2E5C636F6D706F6E656E747322
:1078B0005C6C69627261726965735C736463617246
:1078C000645C6170705F7364636172642E63000056
:1078D0007CB50F4D95F8220028B195F822000328B9
:1078E00003D011207CBD08207CBD0A4807F002FBB4
:1078F000002495F85800009423462246214622355C
:10790000019405F0DFFF6C702C7000207CBD00003E
:10791000543F00206C3D030010B502280ED10848EA
:107920000849401AC108032000EB0140044606A1A3
:1079300006F088FA204610A106F084FA012010BD56
:10794000EC54030044540300506F776572206D615E
:107950006E6167656D656E742077616E74732074F7
:107960006F20726573657420746F20444655206DD6
:107970006F64652E00000000506F776572206D61A6
:107980006E6167656D656E7420616C6C6F776564A0
:1079900020746F20726573657420746F204446559F
:1079A000206D6F64652E0000084B9B7823B12AB1CF
:1079B00020B10068037C1BB1082070470720704786
:1079C000002303744174426118467047303E002022
:1079D00070B509F0FBFA104800240B2104704470C4
:1079E0000E4D817014206C602C706C70FEF764FE7C
:1079F00006211420FEF781FE1420FEF768FE0848D9
:107A0000046006211120FEF778FE0548001F00687B
:107A1000A860002070BD0000303E0020982B0020A0
:107A2000081501402DE9FC47DFF8789099F80230FD
:107A300073B368B3052902D20720BDE8FC87436908
:107A400033B3437C012B25D000270446002588460C
:107A500016468DF80050684600F038F801A80BF083
:107A6000B9FCC8B1012101700F4944600968C0E93F
:107A70000218C0E904769DF8040089F801009DF819
:107A8000000000F047F81420FEF72CFE2846D4E74B
:107A90000820D2E70F46D8E704259DF8000000F043
:107AA00039F8F3E7303E0020041501400649897893
:107AB00039B130B1416921B10021017402210BF0CB
:107AC000C9B9082070470000303E002030B5EFF300
:107AD000108172B60D4A9468012324B10370002905
:107AE00000D162B630BD93604FF0E023D3F88051EF
:107AF000074C25401560C3F88041D3F88441546099
:107B00005A17C3F8842100220270E8E73C3F0020A6
:107B1000FC06FFBD0B498A68002A11D000280FD14E
:107B2000EFF3108072B60B684FF0E022C2F800311C
:107B30004B68C2F8043100228A60002800D162B686
:107B4000704700003C3F00202DE9F04106460868E0
:107B50000C46411C4FF0A0474FF0010506D005FA36
:107B600000F1C7F80815206805F0E2FE6068411CC6
:107B700002D0012105F0CAFE3168A069C1F82405D0
:107B8000607D227D31681043C1F86C05D4E9001294
:107B90003068C0F81425C0F80C15207D012815D1D7
:107BA000A068411C02D0002105F0B0FEE068411C35
:107BB00005D08540C7F80855E06805F0B9FED4E95E
:107BC00002123068C0F80825C0F81015BDE8F08131
:107BD0002DE9F041064608680C46411C4FF0A047CD
:107BE0004FF0010506D005FA00F1C7F80815206826
:107BF00005F0A8FE6068411C02D0012105F08FFE4F
:107C00003168A069C1F82405607D217D3268084390
:107C1000C2F86C05D4E900123068C0F80C15C0F841
:107C20001425207D012815D1A068411C02D0002117
:107C300005F075FEE068411C05D08540C7F8085581
:107C4000E06805F07FFED4E902123068C0F808252C
:107C5000C0F81015BDE8F08104F0BABA2DE9F0477C
:107C6000814605884A484FF000088AB001784246AC
:107C7000284600F005FA99F80500400701D40021D4
:107C800076E005F58077B8B201AB0122072107F055
:107C9000ADFF04003F48404A4FF00101A0EB020055
:107CA0004FEAD00001EB00460AD0204606F096FDD0
:107CB000024630462B46394906F0CFF8214629E0E6
:107CC000284603F0C5FE4FF6FF71044688422BD1CB
:107CD0008A46029803F026FE0446504510D001461D
:107CE000284603F095FE2846FFF754FBE0B92846E6
:107CF0000AF08EF82846FFF74DFB0028BFD013E0AE
:107D000008F040F90446504508D1304624A106F059
:107D100099F8042128460AF0A9F8B0E70146284658
:107D200003F076FE4FF00108B8B22246072107F0B3
:107D3000D5FF07001BD0862F1ED006F04FFD024650
:107D400030462B462349009406F08FF839462846E2
:107D50000AF08CF80021484607F03EFEB8F1000F0B
:107D600002D0204603F05EFE0AB0BDE8F087012194
:107D7000484607F031FEF7E71822174903A8FEF737
:107D800053FBADF80E5003A802F022F9EFE7000014
:107D9000382B002084540300445403009047030010
:107DA000436F756C64206E6F7420616C6C6F6361DF
:107DB0007465206E657720706565725F6964206602
:107DC0006F7220696E636F6D696E6720626F6E649B
:107DD0002E0000003C480300303B03002DE9FC4727
:107DE000002517880646158090F82D001446894610
:107DF00030B13A462146484600F06CF9051E09D1DB
:107E0000B0784FF00C0A18B32088C846001DB8425D
:107E100002D95046BDE8FC87684679DF0028F9D1D1
:107E20002088032108F8001020881921401C80B206
:107E3000208008F800102088401C80B2208000EBD1
:107E40000801BDF800000BF0F1F9218808442080FA
:107E5000F0780222C8B1218896F9033001F1030CB1
:107E60004846BC45D5D8425421884FF0010C491CE6
:107E700089B2218000F801C02188491C89B2218083
:107E800009F801302088401C20807068B8B1218832
:107E900090F9003001F1030C4846BC45B9D8425472
:107EA00021880A22491C89B2218042542188491C18
:107EB00089B2218009F801302088401C2080308957
:107EC00050B1CDE900474B460622022106F10800D9
:107ED0000BF098FA051E9DD1308A50B1CDE90047CC
:107EE0004B460722032106F110000BF08BFA051E0A
:107EF00090D1308B50B1CDE900474B46152214216B
:107F000006F118000BF07EFA051E83D1306A30B1FD
:107F10003B462246494601F04CFA051EDBD1706A09
:107F200030B13B462246494604F024FC051ED2D11E
:107F300096F82C0038B13B462246494630460AF0B6
:107F40009BF8051EC7D1307838B13B4622464946DA
:107F5000304604F0C6FC051EBDD128465AE7000095
:107F600070B5040012D001461C221448FEF75CFADA
:107F70001248134D0560206850B17ADF002806D101
:107F80002068016829604068686005E00E2070BDC7
:107F90000B487BDF0028FAD108484FF6FF711438F0
:107FA000084A20F8041B0549343901600021FFF715
:107FB000FBFC0028EBD0032070BD0000EC39002052
:107FC000F42A00203D33030010B5044600F078F891
:107FD000002805D02146BDE81040024804F07DBDD0
:107FE00010BD0000183A002070B515460E46044634
:107FF0000BF0D8F9002809D0054800EB840080690F
:108000002A463146BDE8704002F0EEBE70BD000069
:10801000083A002070B50546002400F051F838B148
:108020002946044804F059FD08B1022400E0012467
:10803000204670BD143A002010B51821034804F002
:1080400027FD182800D0C0B210BD0000083A00205B
:1080500070B505460C4608460BF0A4F960B12846F9
:1080600000F02EF840B10548294600EB8400BDE839
:108070007040183004F031BD002070BD083A002077
:1080800070B5054614460E4608460BF08BF90028DD
:1080900012D0284600F014F800280DD007482946D1
:1080A00000EB860018301CB1BDE8704004F020BD24
:1080B000BDE8704004F0D1BC70BD0000083A00205B
:1080C000142801D3002070470146014804F005BD83
:1080D0000C3A00207CB5054608880C4609309042D1
:1080E00001D90C207CBD68466DDF0028FAD12188BB
:1080F0000820685420881B21401C80B2208029540D
:108100002088401C80B220802844DDF801100160E6
:10811000BDF8051081802088801D80B220809DF8E8
:108120000010490800D0012129542088401C2080DB
:1081300000207CBD10B504F0C1FE002809D105481F
:108140004FF0030C00DF002803D1BDE8104004F01D
:108150001BBF10BDF049002018B103490860002082
:1081600070470E2070470000842C002010B54FF09F
:10817000FF3100203DDF00280BD1B1213CDF00287A
:1081800007D10448416901208847022006F026F8FB
:10819000002010BDD4490020044810B50068416992
:1081A00000208847BDE81040FFF7E0BF842C002086
:1081B00010B588B0044620216846FEF74EF903202A
:1081C000ADF8000020788DF802009DF80D00172111
:1081D00040F028008DF80D0001208DF810008DF87A
:1081E0001300ADF804108DF812008DF80C008DF816
:1081F00011006088A21D694600F018FF08B010BD8C
:1082000010B5184C86B01ECC8DE81E0050B1164C2F
:108210004FF6FF71A18000680021606161762176D0
:1082200018B104E00E2006B010BD104860610E4881
:10823000FFF792FF0028F6D101208DF812004FF6CB
:108240005960ADF81000A21C04A90120A8DF002885
:10825000E9D10549684662DF0028E4D10248FFF70A
:10826000A7FFE0E7843F0300D4490020599D0200A6
:1082700010B500280FD00188214C502926D00BDCE6
:1082800010291DD0112906D1A1888088814202D1F0
:108290004FF6FF70A08010BD512913D05329FAD199
:1082A000C088E1888842F6D1607E0028F3D0FFF7CD
:1082B00073FF0028EFD06169BDE810400220084735
:1082C0008088E7E7BDE8104007F00ABA30F8061FDB
:1082D00062899142DFD141890229DCD10C3000F062
:1082E0002BFC0849084A2076891AC908032202EBA8
:1082F00001430246BDE8104004A1184605F0A6BDA2
:10830000D4490020EC5403004454030052656365D3
:108310006976656420696E6469636174696F6E2053
:108320007374617465202564000000002DE9F0413C
:108330000546007B042601272E4C012811D0022877
:108340002CD00226287B314600F08EF818B1206828
:10835000416903208847206841690220BDE8F04157
:10836000084720684FF00008817E49B106210120AE
:1083700000F07AF800283BD0206841690320EDE73F
:1083800047760121084600F06FF8002830D02268B7
:10839000112882F81980D5D10626D3E76A7B142AE2
:1083A00022D80AB3DFF8508005F10E0108F104006D
:1083B000FEF73AF8697BC8F8181021684046897EB4
:1083C0000029BFD1A0F10C010A68011F904768B1D4
:1083D0000F28B7D109480A49401AC00807EB0040E6
:1083E000084905F02FFDADE70526ABE72068877645
:1083F000BDE8F081842C0020FC490020EC540300EF
:1084000044540300D051030070B5154900250A6893
:10841000002A24D04A68002A21D008319047082831
:108420001DD0104C0028206885760ED00621022031
:1084300000F01AF818B120684169032088472068C5
:1084400041690220BDE8704008470121022000F088
:108450000BF8002803D0206841690320F2E770BDC3
:10846000F0490020842C002086B00323ADF80030B2
:1084700020238DF814308DF8150000220E4801924B
:1084800002928DF81610C188ADF8041002218DF803
:10849000061005A90491ADF80820CDF80CD080880D
:1084A00001A9AEDF002804D1BDF80010032900D0D7
:1084B0000C2006B070470000D4490020114A124B2E
:1084C00003219A1AD20801EB024270B101280FD0A1
:1084D0000C4A01219A1AD20801EB024202280AD062
:1084E000032810460AD009A109E0104611A106E0B0
:1084F00010461CA103E0104623A100E031A105F0C5
:10850000A1BC000044540300EC540300556E6B6E94
:108510006F776E206576656E742066726F6D20626F
:108520006C655F6466755F627574746F6E6C65739D
:10853000732E00004465766963652069732070724C
:1085400065706172696E6720746F20656E74657204
:1085500020626F6F746C6F61646572206D6F64650B
:108560002E0000004465766963652077696C6C2095
:10857000656E74657220626F6F746C6F6164657292
:10858000206D6F64652E00005265717565737420EF
:10859000746F20656E74657220626F6F746C6F61AA
:1085A000646572206D6F6465206661696C65642026
:1085B0006173796E6368726F6E656F75736C792E17
:1085C000000000005265717565737420746F20732C
:1085D000656E64206120726573706F6E73652074C0
:1085E0006F20636C69656E74206661696C65642ECA
:1085F00000000000F8B50188474D064621296AD0E1
:108600001ADC4648464A1029A0EB02004FEAD00087
:108610004FF0030202EB004420D0112938D0132977
:1086200035D100231A46852168897FDF00282ED0A6
:108630003CA24FF43C710DE03B2964D0522957D045
:10864000562924D18088132176DF00281FD035A237
:1086500040F21231BDE8F840FDF7DCBD204635A1FF
:1086600005F0F0FB012000F0CBFB002000F0C0FB88
:10867000B1886981324804F097FB20B129A240F209
:10868000D121FDF7C7FDFEF7A3FE0120A871F8BDBB
:1086900020462CA105F0D6FB29480C3001F0FEFD48
:1086A0000028204601D02BA100E030A105F0CAFB34
:1086B000012000F09DFB4FF6FF706881FEF770FE11
:1086C00020B118A240F2E621FDF7A4FDBDE8F84074
:1086D0000020FEF7FDBD00200090B08869468FDFC6
:1086E0000028D4D00FA24FF43F71FDF793FDF8BDE1
:1086F00000231A4619466889B1DF0028F7D009A27D
:1087000040F20231A6E78088132176DF0028EED000
:1087100004A240F20A319DE7A82A0020EC5403008D
:10872000445403002E2E5C2E2E5C2E2E5C6D61694F
:108730006E2E6300436F6E6E6563746564000000A7
:10874000442F0020446973636F6E6E6563746564C3
:1087500000000000665F73796E63206469732066B1
:1087600061696C65640D0A2E00000000665F737914
:108770006E63206469732073756363657373210D81
:108780000A2E00002DE9F04701883B4E40F2F31914
:108790004FF6FF7510291BD011293ED0122954D055
:1087A000502946D1C188F289841D914241D1618905
:1087B00002293ED18688304603F0F8F9050038D00A
:1087C00004F10C0000F0BCF9A8B3294630464EE095
:1087D000C17B8788044601292BD1A846284603F08F
:1087E000E5F9050017D02F80002028722348434662
:1087F0004A460168C5F80A104068C5F80E0004F141
:10880000100105F10A0003F0B5FA6872F08900283A
:108810000FD129462AE0042013E0808803F0C6F92E
:10882000040006D06068FFF741F908B109F002FBC7
:108830002580BDE8F087FFE76868FFF737F9002873
:10884000F7D0BDE8F04709F0F5BA87880646384604
:1088500003F0ACF90400ECD02B464A4606F10801BF
:1088600004F10A0003F086FA607221463846BDE83A
:10887000F04700F0F1BD0000EC390020F42A0020A0
:108880002DE9F04F0746858802883E48012197B0C0
:108890008346102A09D0112A4BD01A2A6ED1387A71
:1088A000B1EB101F47D2012246E0364C083CA068CD
:1088B000C0430B9061680BA804F033F90B990CA826
:1088C00000F058FD2C220CA96846FDF7ADFD0026EE
:1088D000E946A04610E000BF09EB46005FF0000447
:1088E000B0F804A008EB84005146001D04F0B5F870
:1088F000641C1D2CF6D3761C0098B042ECD8142DC5
:1089000007D317B0E321BDE8F04F1FA20420FDF705
:1089100081BC2946584604F0EBF8294608F10400CA
:1089200004F0E6F8F87B012828D016482946001DF7
:1089300015E029461AE000220221B1EB101F01D2F6
:10894000012600E000260F49083901F11000041D3E
:10895000294682B104F0CCF836B12946204617B03A
:10896000BDE8F04F04F0C4B82946204617B0BDE872
:10897000F04F04F072B804F070F8F5E717B0BDE8F6
:10898000F08F0000103A00202E2E5C2E2E5C2E2E32
:108990005C2E2E5C2E2E5C2E2E5C636F6D706F6EC7
:1089A000656E74735C626C655C636F6D6D6F6E5C3D
:1089B000626C655F636F6E6E5F73746174652E6366
:1089C0000000000010B504460748007800280AD0CF
:1089D000204602F019FF204609F02AFC2046BDE897
:1089E000104002F049BB10BD282B002070B58EB09E
:1089F000044608686061304B4868A0610FCB08AD41
:108A000085E80F0004F1120108A862DF002851D1A7
:108A1000A07C8DF8320041F22350ADF830002246A0
:108A20000CA90120A8DF002844D120216846FDF7C9
:108A300014FD41F22450ADF80000A07C01258DF812
:108A400002008DF80C509DF80D00ADF80650F4268C
:108A500040F012008DF81150ADF804608DF80D0053
:108A60008DF81350208804F10A02694600F0DEFAFE
:108A700000281FD120216846FDF7EFFC41F2255068
:108A8000ADF80000A07C8DF802009DF80D00ADF857
:108A900006508DF80C5040F00E008DF81150ADF8D6
:108AA00004608DF80D008DF812502088A21C6946D4
:108AB00000F0BCFA0EB070BDA43B030030B40288D5
:108AC000502A1BD1C4884D88821DAC4208D15389DD
:108AD000012B05D14B691BB1127B808830BC184734
:108AE000AC420BD15389012B08D98C69002C05D0DD
:108AF0008088A44630BCDBB20C32604730BC704783
:108B000086B01423ADF81030A0F57F43FF3B11D0A1
:108B10000023009301930293039301238DF8023005
:108B20004989ADF8001004A9CDE902126946AEDF0B
:108B300006B070470820FBE70078C0F3400070479C
:108B4000007800F00100704708B505F05FFD20B126
:108B50000D4A40F22531FDF75DFB0020009069468B
:108B6000012005F0A3FB20B1074A40F22B31FDF7AD
:108B700051FB684605F034FC002804D0024A40F25C
:108B80002F31FDF747FB08BD2C730200087A0A78E5
:108B90002AB1012A03D0022A01D0032A09D100EB0D
:108BA000400204484978406800EB820001720021CD
:108BB00081727047742C0020806970472DE9FE4354
:108BC0000E46016984698046B1F5007F02D0062017
:108BD000BDE8FE83134D696809B11120F8E7A6606E
:108BE000A261686010491430FEF7EAFD070008D161
:108BF000A6B900BFFEF7CAFD0028FBD1287878B1DE
:108C00000D27002068604EB1084A07CA8DE80700AA
:108C1000A0690290A2686946404690473846D7E767
:108C20000027FBE7B42B0020A9120300B83D030086
:108C300019B1012906D0062070470AB10020107032
:108C40000020704712B1001D1060F9E7072070473F
:108C5000FEB51C4F0646846978680D46B04202D1C5
:108C6000FEF794FD08B11120FEBD95E8070004F160
:108C70000C0383E80700A888296882B2A868FEF779
:108C8000D9FC050009D1A068C0B900BFFEF77EFD80
:108C90000028FBD1387898B10D25A06870B16DB16E
:108CA0000948016B806B029004F10C00CDE90010C3
:108CB000A0690290A2686946304690472846FEBDEA
:108CC0000025EAE7B42B0020A03D0300FEB5124FBB
:108CD000044685697868A04202D1FEF757FD08B1C5
:108CE0001120FEBDFEF7F4FD060000D17860A868F3
:108CF00078B10A4907C98DE807000EB1012000E0EC
:108D000000208DF80100A8690290AA6869462046F3
:108D100090473046FEBD0000B42B0020C43D030048
:108D2000FEB51C4F0646846978680D46B04202D1F4
:108D3000FEF72CFD08B11120FEBD95E8070004F1F7
:108D40000C0383E80700A888296882B2A868FEF7A8
:108D5000BFFC050009D1A068C0B900BFFEF716FD31
:108D60000028FBD1387898B10D25A06870B16DB19D
:108D70000948C16B406C029004F10C00CDE9001071
:108D8000A0690290A2686946304690472846FEBD19
:108D90000025EAE7B42B0020A03D03002DE9FC41AB
:108DA0000646C0074FF000050ED0104F00240122E8
:108DB000385D009500231146019504F029FD641CDF
:108DC000042CF4D300F024F8B0070DD5074E00248E
:108DD000361D0022305D032300951146019504F0F5
:108DE00017FD641C042CF4D3BDE8FC81ED390300AD
:108DF0000249085C012104F0DFBD0000ED390300E9
:108E00000249085C002104F0D7BD0000ED390300E1
:108E100010B500242046FFF7EBFF641C042CF9D3A7
:108E200010BD00002DE9F8430546861C00208DF892
:108E3000000090460F464FF001096846FEF746FED7
:108E40001B4C20683860D4E90001401AA16804F284
:108E50001C47081A0EE00121384603F05CFE03F0BF
:108E600099FA0146384603F056FED4E90001401A4B
:108E7000A168081A401C8642EDD8B8F1000F03D053
:108E8000052065F3891002E0062065F39F50A26873
:108E90002168114004EB8101C860206830442060E3
:108EA0009DF80000FEF736FE4846BDE8F883000056
:108EB0002843002030B482680468531C8360A154A6
:108EC000D0E901128A4202D330BC04F066B930BC4A
:108ED00070470000034803C8814201D10120704758
:108EE000002070472843002010B50D2803D011A2A0
:108EF00040F24E3119E013481349401AC0080321CB
:108F000001EB004011A104F09DFF002C11D0A4F54D
:108F1000405002380DD0082C0BD043F2014084425F
:108F200007D0204603A240F24931BDE81040FDF7CA
:108F300071B910BD2E2E5C2E2E5C2E2E5C6D6169DB
:108F40006E2E6300EC5403004454030053656E64BA
:108F500020627574746F6E20737461746520636829
:108F6000616E67652E0000001CB5044602F070FDBE
:108F700000236A46092106F07BFF052805D1034836
:108F8000012241792046FFF77BF81CBDFC2A002016
:108F90001CB50021009142F6A621ADF80010012178
:108FA0008DF80210034901AA096801916946A0DF02
:108FB0001CBD0000103A030005494FF0FF3208289D
:108FC00041F8202002D3084480F848207047000070
:108FD000C03C0020F0B54FF0FF3512B10023082649
:108FE00001E008230C260C4C05E000BF54F8237068
:108FF0007F1C04D05B1CB342F8D32846F0BD261872
:109000005DB286F8305044F82310002AF5D1E118FB
:1090100081F84800F1E70000C03C00200249084404
:1090200090F9300070470000C03C00202DE9F0436B
:109030008146887891B090460C4600B901208DF8A1
:109040003E002088ADF83C0000250095607C694614
:1090500009F098F86E46A07C711C09F093F8E07B4B
:1090600000289DF8020002D040F0080001E020F046
:1090700008008DF80200217C11B140F0100001E0E1
:1090800020F010008DF80200217B11B140F00100AA
:1090900001E020F001008DF80200217D09B10221DC
:1090A00000E0012161F342008DF802001C2102A8BA
:1090B000FDF7D3F9607BC10601D4800617D50E9564
:1090C0000EAFE07C791C09F05DF89DF83800079739
:1090D00020F00F00401C20F0F00010308DF8380018
:1090E0009DF83A0020F00600801C8DF83A00607B65
:1090F0008DF80800A07B8DF80900142109A8FDF760
:10910000ACF90FA8CDE90906A088ADF83000A06839
:1091100020B1E088ADF82C00A0680D90A06998B34C
:1091200001950088ADF81000A06901AD01A9408843
:10913000ADF81200A069406806950390A069007B15
:1091400009F020F8A069691C407B09F01BF8A069B0
:10915000807A00289DF8060002D040F0080001E067
:1091600020F008008DF80600A169C97A11B140F01D
:10917000100001E020F010008DF80600A169097AC6
:1091800019B140F0010002E00DE020F001008DF87F
:109190000600A169897B09B1022100E0012161F388
:1091A00042008DF80600E06900B10590434609AA27
:1091B00002A94846AADF11B0BDE8F08310B5044605
:1091C0000020E070401EE062204603F06DFB08B115
:1091D000042010BD04F22E2002F01CFEA0F52A414E
:1091E000553901D0032010BD94F83000E92805D08E
:1091F000EB2814D194F83200902810D104F16600C5
:1092000002F0FDFD0749B1EB002F06D004F182000A
:1092100002F0F5FD0449884201D1002010BD022072
:1092200010BD0000004641544641543370B5044619
:109230004FF6FF750A462846AC4209D14FF48074B8
:109240002146104603F024FC80B2A0420BD070BD32
:10925000FF2CFCD82146104603F00AFC90F0010FC9
:1092600001D0204670BD284670BD000070B5084C86
:10927000050009D010342168002907D00868206053
:10928000496828468847F6E70834F4E770BD0000CF
:10929000AC3C0020054A012120B1012805D1917084
:1092A000FFF7E4BF51700020FAE77047AC3C0020A4
:1092B0004269891E921E8A4201D800207047826A44
:1092C000408901FB002070472DE9F05F2648416886
:1092D000F1B3DFF898B00E688146DBF8004087688C
:1092E0008078E11B21F07F45ED1CB0B9DFF880806C
:1092F0004FF48030C8F84403C8F804031120FDF788
:10930000DBF91120FDF7E3F94FF0010AC8F800A0DE
:109310002F2005F0CDFA89F802A0B54200D23546DB
:10932000124BE8193C3320F07F401860DBF8001046
:109330005A46091B21F07F41001B20F07F40C91CC9
:1093400081420FD9106818602F2005F0B1FA00E0B3
:1093500004E0BDE8F05F1120FDF7C4B9BDE8F05F9F
:1093600007F034BEBDE8F09F982B002004150140A3
:109370000010014073B58CB00646002000900D9897
:1093800080B100246D4621460DA803F0A6FB30B144
:10939000009805EB400084800098401C0090641CFD
:1093A000142CF0D32C2269463046FDF73DF80EB060
:1093B00070BD2DE9F04117880646B81D14460D46CC
:1093C000984202D90C20BDE8F08131880722062995
:1093D0000AD34FF4486C4FF6FF73614501D99942A7
:1093E00002D17088062801D21046ECE7604501D909
:1093F0009842F9D1994203D0984201D08142F3D8E2
:109400000520E85520881221401C80B22080295474
:109410002088401C80B220804119308809F006FF66
:109420002188084480B220804119708809F0FEFE2E
:109430002188084420800020C5E7000002A240F2F5
:10944000A221FCF7E7BE00002E2E5C2E2E5C2E2EF5
:109450005C6D61696E2E630038B54A7A0F4B62B15C
:1094600000220A725969002906D001228DF80020D5
:10947000ADF802006846884738BD0A7A62B19B6839
:109480004C68024619462046FEF7CCFA0028F3D075
:10949000BDE8384008F0CEBC5B68F1E7EC3900204D
:1094A000F0B587B016460F4604461D4618220B49F4
:1094B0006846FCF7B9FF0A488DF80870ADF802401D
:1094C000ADF80A608DF80C50017800222046FEF7B6
:1094D000D7FD684600F07CFD07B0F0BD483B0300B7
:1094E000382B00202DE9F04105680F00804606D09A
:1094F00001F03EFF022809D20120BDE8F081EE68AC
:1095000016B16869B04207D8012605E0411CF4D0C5
:1095100069698142F1D83E4634466869641CA042BC
:1095200002D80224022E0AD32146404601F020FF31
:1095300038B10128E1D0411CDFD0B442EDD1002088
:10954000DBE74FF0FF3632462146284607F052FA55
:1095500030B957B122463946284607F04BFA20B1B8
:1095600001280FD001242046C7E7EC60D5E90401AB
:10957000891E884201D2401E2861287940F00100EE
:109580002871F0E73446EEE72DE9F0410E46203031
:109590000D6804460B22202103F028F90020014623
:1095A00008232A5C401C202A12D92F2A0BD05C2ABF
:1095B00009D02E2A01D0994214D30B2B37D02E2A52
:1095C00035D10CE0401C2B5C2F2BFBD05C2BF9D051
:1095D0002844306059B32078E52834D035E008219C
:1095E0000B23DEE7A2F181071E2F02D95F3F1C2F5C
:1095F00013D82F5C401CA7F1400CBCF13F0F04D3E3
:10960000A7F1800CBCF17D0F11D2A3F1010C6145D3
:109610000DD26254491C675413E010A700E07F1C70
:1096200097F800C0BCF1000F04D09445F7D1062094
:10963000BDE8F081A2F16107192F01D8203AD2B21A
:109640006254491CADE705202070202A01D804206F
:1096500000E00020E0720020EAE70000222A2B2C24
:109660003A3B3C3D3E3F5B5D7C7F000070B588B07F
:109670000646002005900690ADF81410ADF81610BF
:109680000190029001AA05A9304690DF050021D083
:1096900005F0A4F80346114811493246401AC108A2
:1096A000012000EB014004460E4904F0D6FBBDF852
:1096B000042012B9BDF8060028B1BDF806302046D6
:1096C00009A104F0CAFBBDF808201AB120461649CA
:1096D00004F0BCFB08B0284670BD000044540300F1
:1096E000445403003040030054686520726571756E
:1096F00065737465642054582F5258207061636BF1
:109700006574206C656E67746820697320746F6F70
:10971000206C6F6E672062792025752F2575206F6C
:1097200063746574732E00007C40030070B50446BA
:109730000948012103F00AFABFF35F8F00250028D2
:1097400008D1204602F0A0FD002803D1BFF35F8FAF
:109750000148056070BD0000082B002020BF704745
:109760007FB50C4610B1012004B070BD20790026F1
:1097700038B141F61D5501281BD0022826D00F20F4
:10978000F2E70220207102960396E0680190694694
:1097900001A807F03DFB50B102988188E180008864
:1097A0002081BDF80010029807F0B0FBDCE70A202A
:1097B000DAE70A4B6A460021A01D07F0E5FA38B146
:1097C000064918398E61CE610A28CDD12846CBE7EB
:1097D00002488188019807F099FBF5E7D42B002017
:1097E0002DE9F0470025DFF88C803CE0606800211F
:1097F00000EBC506012032789146FCF701FED4E962
:10980000062300EA020701EA030C57EA0C0728D0F6
:1098100082438B434846C4E9062305F02FF932788A
:109820008246914601200021FCF7EAFDD4E9042399
:1098300000EA020401EA03074A4650460021FCF709
:10984000DFFD44404F403C430BD17078012801D0EC
:10985000012100E00021726881EA0A010AB148464C
:1098600090476D1CEDB298F8000044468542BDD388
:10987000BDE8F087782B00202DE9F0410446002157
:10988000056800F008F9002826D12846A16903F0F0
:109890000BF802001FD1E069017899B1C17A01F09B
:1098A0003F01A171C17A09070FD404F120010B26F1
:1098B00010F8013B11F8017BDB1B761E04D0002B56
:1098C000F6D002E0042206E02BB10021204600F091
:1098D00005F80200D9D01046BDE8F0812DE9F04727
:1098E00005460769046880698946203710B1B7F5D5
:1098F000001F02D30420BDE8F087F90560D1401CA9
:10990000A86169694FF0000829B16089401E10EA1A
:10991000572F05D054E02089B0EB571F1DD94FE0D9
:10992000284601F025FD064601281BD9701C33D0BE
:109930006069B0423ED8B9F1000F0ED0284669697F
:10994000FFF7D0FD06000BD0012E0BD0701C23D0EA
:10995000204609F06FF9F8B906E0C5F81880C9E7A4
:109960000720C8E70220C6E74FF40072002104F187
:10997000300002F03BFF4FF0000831462046FFF771
:1099800097FC4FF00109E0620DE000BF84F80390FE
:10999000204609F04FF908B10120ACE7E06A08F170
:1099A0000108401CE06261894145EFD8E16AA1EB02
:1099B0000800E062314620466E61FFF779FCA8613D
:1099C000C7F30800204430302F61E861002092E79F
:1099D00070B504460E460420256821E0284602F0B2
:1099E00063FF10BBE2691178B1B1D27AE52902F0C8
:1099F0003F02A2710AD02E2908D00F2A06D022F0E9
:109A0000200108290AD00021B14210D000212046AF
:109A1000FFF764FF20B108E0042006E00121F3E72E
:109A2000A1690029DAD1002801D00021A16170BD0F
:109A300070B504460021066800F02DF80DE03046B0
:109A4000A16902F031FF50B9E0690078E52809D03A
:109A500040B101212046FFF741FF0028EFD0042844
:109A600007D007E03046A16902F01EFF050003D0D1
:109A70000FE0072005460CE020220021E06902F0FB
:109A8000B5FE0B2204F12001E06902F0A5FE0120E1
:109A9000F070284670BD2DE9F04107680E46054676
:109AA000B1F5001F36D2F00634D12E61AC6824B96E
:109AB0003878032805D37C6A1CB178894FEA40289E
:109AC00012E03889B0EB561F24D9786A12E0284694
:109AD00001F04EFC0446401C1AD0022C1AD37869BF
:109AE000A04217D9A6EB080646452146EFD23846D4
:109AF000FFF7DEFBC5E9054060B100EB5620A86129
:109B0000C6F3080038443030E8610020BDE8F08139
:109B10000120FBE70220F9E770B51C4C2178884250
:109B20000DD2616800EB400551F825303BB101EBE7
:109B300085014A7AD20704D04A6822B105E00320A1
:109B400070BD487A70BD124A4A6001228A7202468C
:109B50001868104906681846B04710B110E0406810
:109B60008047606800EB8500817A0029F7D1616841
:109B700001EB8501097A19B9417A21F0010141729D
:109B8000606800EB8500407A70BD0000742C0020F6
:109B90005D9702008D8B020038B51D4D2B789842E1
:109BA00001D3042038BD00EB400439B11848012925
:109BB000406815D002291DD0012038BD01208DF844
:109BC000000068686A46002150F8240003F064F938
:109BD00008B1112817D19DF800000028F1D112E03A
:109BE00050F8240088B10168144649698847006824
:109BF000206008E050F8240038B101681446496933
:109C0000884780882080002038BD032038BD0000B0
:109C1000742C0020FEB51D4C2578A8420DD263B1EE
:109C200000EB4005606850F8256026B100EB850622
:109C3000777AFF0703D00320FEBD0420FEBD00920B
:109C4000CDE901310121B17250F825606F463068CD
:109C500041693046884700680099884214D93068C5
:109C6000394682683046904710B10DE04068804721
:109C7000606800EB8500817A0029F7D1606800EB0D
:109C80008500007A0028D9D00120FEBD742C002068
:109C900006490A78904201D301207047496800EBD9
:109CA000400001EB8000407A70470000742C0020D7
:109CB000FEB5204C2578A8420DD263B100EB4005DB
:109CC000606850F8256026B100EB8506777AFF07BB
:109CD00003D00320FEBD0420FEBD777A7F0701D5A7
:109CE0000220FEBD0092CDE901310121B17250F890
:109CF00025606F46306841693046884700680099A2
:109D0000884214D930683946C2683046904710B14D
:109D10000DE040688047606800EB8500817A00298B
:109D2000F7D1606800EB8500007A0028D9D00120C7
:109D3000FEBD0000742C0020014A50601170704775
:109D4000742C002010B50021024802F0FFFE80F3C1
:109D5000100010BD44470020704700000E4910B5A8
:109D60000A784C780023A24212D0521CD2B20A7058
:109D7000022A00D10B70084A0B780C3252F82320CB
:109D800002608868104420F07F408860012010BD88
:109D90000360002010BD0000982B002013460A46E7
:109DA0000021FFF77DBB00002DE9F843104D0F4661
:109DB00080461E4691466946286802F022FE04004D
:109DC00014D01C21FCF749FB01202071C4F8149029
:109DD000380BC4F80080C4E902606946286802F0C4
:109DE00031FE06F04BFF0020BDE8F8830420FBE7BE
:109DF000603E030010B503780022072B06D2DFE88F
:109E000003F005040610202930000A7010BD01235C
:109E10000B7003898B818388CB81C06888600A744A
:109E200010BD02220A7002898A818288CA81C268B2
:109E30008A60807D062802D00020087410BD0120B1
:109E4000FBE703220A70C2888A810289CA81C0683E
:109E5000886010BD04230B70C0888881CA818A6025
:109E600010BD0520087010BD70B5064D06460024D3
:109E700055F8241009B130468847641C042CF7D3E8
:109E800070BD0000CC3F002030B50446006887B0AC
:109E90000D46806800281FD018216846FCF7DDFABF
:109EA0000195A0680590207910B1012810D107E034
:109EB00001208DF8000020690290E068039005E021
:109EC00002208DF80000E0680003029060690490B1
:109ED000206881686846884707B030BD2DE9F041A9
:109EE00086B016460C00804629D0112C27D0082CAD
:109EF00025D018216846FCF7B0FAADF8028040463C
:109F000001F0A6FDADF804001B481C490027401ACB
:109F1000C5080D2C16D0204604F060FC0246012036
:109F200000EB05404346164903F097FF07208DF8E4
:109F3000000002948DF80C70684600F057F806B0E7
:109F4000BDE8F081022000EB054042460D4903F0D8
:109F50007DFF03208DF8000026B13078C00701D0C6
:109F6000012000E002208DF8080041F201108DF878
:109F70000C70ADF80A00DFE78C5403004454030072
:109F80005C4A03004C49030010B50446408801F0C8
:109F90005FFDA080024801682046BDE810400847E8
:109FA000042B00202DE9F04107460024064E074D02
:109FB00005E000BF56F8241038468847641CE8784E
:109FC0008442F7DBBDE8F081603C0020282B0020B4
:109FD00010B50446408801F03BFDA08002480168AE
:109FE0002046BDE810400847FC3A030001490968D3
:109FF00008470000A03B030017B581B01446029843
:10A000000090684601F044FA002802DA0B2004B000
:10A0100010BD0B4A002352F8201001B10B700199BA
:10A02000002900D00B7042F8201001D0012C01D083
:10A030000020ECE7002201A902A800F04BFDE6E7B2
:10A04000802C00202DE9F7438CB005000BD002F0E6
:10A050003F06324669460DA800F03CFD04004FF073
:10A06000000804D0C0E009200FB0BDE8F0830098DC
:10A07000019001A80D9900F07DFE040004D19DF827
:10A080002F00000600D5062416F01C0F4CD04CB152
:10A09000042C03D101A8FFF7CBFC044646F00806C8
:10A0A0005CB1A1E09DF80A0010F0110F01D0072467
:10A0B0009AE0700701D5082496E0300743D54D4F4C
:10A0C000089839460E3008F0F3FC089839461630E7
:10A0D00008F0EEFC08992020C8720899009801F059
:10A0E0007BFE074600220899009808F0CDFC0898EE
:10A0F00000211C3008F0DCFC00990120C87007B377
:10A10000D1F82C900022394601A806F023FF040064
:10A110006AD14946009802F0C7FB04000098A7F1F5
:10A120000107C7600BD05FE0CCBB9DF80A00C106F9
:10A1300001D5042458E0B10701D5C007B7D13007D5
:10A1400001D546F040060098C16A29620899696203
:10A15000089901F041FEA86008981C3001F04FFEFC
:10A16000E8600098286000984FF400720021C088D1
:10A17000A8802E7485F81180C5F81C8005F1280090
:10A180008146C5F8148002F031FBB0062ED5EE688A
:10A1900066B36E610098A968408947020FE023E02A
:10A1A000284601F0E5F80146012800D80224481CA1
:10A1B00002D0F61B1CB104E00124F61B01E0BE42F4
:10A1C000EED8A96184B9F00510D00098FFF770F8B7
:10A1D00070B100EB5622EA610098012349464078AD
:10A1E000FFF718FD10B10124C5F8008020463BE7B9
:10A1F0000224F9E70000214813B582B0040006D01C
:10A200000022694603A800F065FC18B120E009208F
:10A2100004B010BD009921602046039900F0AAFD0A
:10A2200090B994F82B00000607D4A079C00612D587
:10A23000E169009801F0D0FDA0600098C188A1807C
:10A2400020460021FFF727FC042804D00028DFD097
:10A2500000212160DCE70520FAE738B50C46054609
:10A26000694609F036F9002813D1014628468CB119
:10A27000FFF7AEFB042801D000280AD1214628466A
:10A2800001F0D5F800212846FFF728FB042800D16B
:10A29000002038BDFFF7FFFB38BD0000F8B50446CD
:10A2A000694609F016F900280ED1217C4A060BD523
:10A2B00008060ED50098E2690123407804F12801D0
:10A2C000FFF7F6FC08B10120F8BD207C00F07F000C
:10A2D0002074154E216A009802F0E6FA0028F3D1A6
:10A2E000656A2946E87A40F02000E872A268206892
:10A2F00008F0CAFB05F11C00E16808F0D9FB314603
:10A3000005F1160008F0D4FB002105F1120008F059
:10A31000D7FB00980121C17008F048FC217C01F0B6
:10A32000BF012174F8BD0000000021482DE9FE4F57
:10A3300088460021196099461546044602A909F08D
:10A34000C8F8002806D1607C002803D1207C800753
:10A3500002D40720BDE8FE8F6069012742194FF043
:10A36000020A04F1280B824200D2C54394E06069DE
:10A37000C1056ED102994989491E11EA502612D1B0
:10A3800008B1A16902E0A06828B900212046FFF7C2
:10A39000A9F800287DD001282DD0411C54D0A061FF
:10A3A000A16801B9A060207C00060BD50298E26983
:10A3B000012340785946FFF77BFCA0BB207C00F0CE
:10A3C0007F002074A1690298FEF772FF98B13044B3
:10A3D0000190680A009027D0029932184889824279
:10A3E00001D9801B0090DDE9003248784146FFF733
:10A3F0005FFCC0B903E084F811A00220AAE7E1697C
:10A400000198081A009988420AD208EB40214FF4BB
:10A410000072584602F0E0F9207C00F07F002074C2
:10A420000098460227E00FE0E169019881420ED0D2
:10A43000E168606988420AD202980123594640784F
:10A44000019AFFF7E7FB10B16774012082E70198DA
:10A45000E061A08AC0F30800C0F50076AE4200D9E2
:10A460002E46204432464146283002F0B5F9207C81
:10A4700040F0800020746069B04430446061E1685D
:10A48000884200D80846E060D9F80000AD1B30448F
:10A4900000E004E0C9F80000002D7FF468AF207CE4
:10A4A00040F040002074002054E70000F8B501217E
:10A4B0004C48FFF741FC4C484C49401AC608032061
:10A4C00000EB064004464AA103F0BCFC0325002033
:10A4D000FFF722FB6D1E02D00028F8D103E010B177
:10A4E00020464BA160E0514F514879698847406848
:10A4F0004FF48011B1FBF0F579694D488847006849
:10A500004CA1B0FBF5F2204603F0A0FC20464DA183
:10A5100003F098FC01223DA14F48FFF76DFD002894
:10A52000204601D04DA13FE050A103F08BFC55A186
:10A530005548FFF761FE10B1204654A134E00520D4
:10A54000514D00EB06462C3505F109074E494E48A2
:10A550002C31FFF782FE10B153A1204624E0687A27
:10A5600088B1287AC00605D530463A4654A103F092
:10A570006DFC05E030463B4655A12A6803F06DFCB2
:10A58000687A0028E2D1304620A103F05BFC204627
:10A5900052A103F057FC3C48322258A18030FFF70B
:10A5A00051FD20B1204658A103F04CFCF8BD3648BF
:10A5B0006B461E225FA18030FFF7B8FE20B1204617
:10A5C00064A103F03FFC08E00649012040394871CE
:10A5D000204664A1009A03F039FC2B488030FFF735
:10A5E0005DFEF8BDE82A0020EC540300445403004B
:10A5F000496E697469616C697A696E672064697310
:10A600006B20302028534443292E2E2E00000000BA
:10A610004469736B20696E697469616C697A6174ED
:10A62000696F6E206661696C65642E00883D030069
:10A63000C839030043617061636974793A20256405
:10A64000204D42004D6F756E74696E6720766F6C99
:10A65000756D652E2E2E0000A02C00204D6F756E9E
:10A6600074206661696C65642E0000000D0A204C40
:10A67000697374696E67206469726563746F727957
:10A680003A202F002F000000D02E00204469726570
:10A6900063746F7279206C697374696E6720666188
:10A6A000696C6564210000004469726563746F72AF
:10A6B000792072656164206661696C65642E0000B2
:10A6C0002020203C4449523E2020202573000000D9
:10A6D00025396C75202025730000000057726974BD
:10A6E000696E6720746F2066696C65204E4F524416
:10A6F00049432E5458542E2E2E0000004E4F5244E3
:10A7000049432E5458540000556E61626C652074A4
:10A710006F206F70656E206F722063726561746563
:10A720002066696C653A204E4F524449432E545876
:10A73000542E0000496D706564656E636520636F1B
:10A740006C6C656374696F6E207374617274732EC0
:10A750000D0A00005772697465206661696C656452
:10A760000D0A2E0025642062797465732077726962
:10A770007474656E2E00000070B586B00446182112
:10A780006846FBF76AFEA0890125A0F54040ADF8B8
:10A7900004002078324E062835D2DFE800F034037A
:10A7A00003032E4EA08900F08BF930B9E08943F6FF
:10A7B000FE71A0F54040884225D8A07B8DF80800A6
:10A7C0002078032811D000208DF80900A06803909C
:10A7D000606860B109208DF80000606804908DF811
:10A7E0001450684605F096FA0DE00120ECE70820C9
:10A7F0008DF800008DF81050F3E7A08900F060F9A3
:10A8000008B1E08930B17078002801D005F0CCFBA8
:10A8100006B070BD606840B10B208DF80000606824
:10A8200002908DF80C507570DBE70A208DF800005F
:10A83000BDF8040005F056FCF5E7606858B1142037
:10A840008DF80000606802908DF80C504FF6FF7094
:10A85000ADF80400C5E713208DF80000F6E700000E
:10A86000142B002038B504460E480078A8B1A4F592
:10A870007F40FF380FD0684606F032F978B10521E5
:10A88000017001210171C480684606F037F906F0B5
:10A89000E7F9002038BD042038BD022038BD08206B
:10A8A00038BD0000DC2B00200C4808B5007888B1CA
:10A8B000684606F015F978B106210170684606F081
:10A8C0001DF90748017809B10121017306F0C8F9A3
:10A8D000002008BD022008BD082008BDDC2B002098
:10A8E00090400020F0B587B014216846FBF7B5FD15
:10A8F0002B4C207818B16846FFF7B6FA4EE0201DC1
:10A9000002F006F9B8BB4FF010204169000402695B
:10A9100040694B1C01D100FB02F122480022016179
:10A92000A1F54051C160204902F0CCFD002820D1A2
:10A930001F481C238C221D49006802F04FF804F0C8
:10A940007DFF051E14D0022812D000270126062DF7
:10A9500012D005A806F0C4F888B106700C2D18D2E4
:10A96000DFE805F0170F170F171617161711131139
:10A970000B2007B0F0BD11E026706760BBE7082030
:10A98000F7E7077105E0032100E00221017100E013
:10A99000067105A806F0B2F806F062F90020E8E7B3
:10A9A000DC2B00208C2C0020703E0300DC3F0020BC
:10A9B000E83D030038B5040014D0694606F028FAD3
:10A9C000A0B1BDF8000000EB8001094800EB810058
:10A9D000C16849B1A17A39B1C168491EC16000207E
:10A9E000A07238BD052038BD062038BD0A2038BD0C
:10A9F000684000201FB501A9684606F0C5F904B0FB
:10AA000010BD07B513460A466946002006F0BCF99A
:10AA10000EBD07B513460A460021684606F0B4F994
:10AA20000EBD20B119B100680860002070470520F4
:10AA300070470000F8B50D46040018D0BDB1694656
:10AA400006F0E6F9A8B1BDF800000B4900EB800064
:10AA500001EB800001210C30666802F05CF82E608A
:10AA600060680C3068600120A0720020F8BD0520ED
:10AA7000F8BD0A20F8BD00006840002018B103238B
:10AA8000002208F065BE052070470223002208F06E
:10AA90005FBE0000084910B50A69042A0AD0074AB7
:10AAA000096942F8210004480121103002F033F80E
:10AAB000002010BD0C2010BDBC2B0020CC3F00207E
:10AAC00043F6FE71A0F54040884201D8012070474E
:10AAD000002070472DE9FF41002790460E460F6089
:10AAE00000F0D6FC050003D50B2004B0BDE8F081D2
:10AAF000884850F825409CB13460207808F0FE0664
:10AB000020B16078FFF7C4F8C1070BD02770E8B216
:10AB1000B8466070FFF700F8C10708D00320E4E7EB
:10AB20000C20E2E70EB1400704D40020DDE71EB19F
:10AB3000400701D50A20D8E7002631462046FEF717
:10AB40003DFB022822D100254FEA0D0704EB05103A
:10AB500090F8F21100F5F77019B1083001F04FF9D3
:10AB600000E0002047F825006D1C042DEED30025E1
:10AB700057F8256036B131462046FEF71FFB022804
:10AB800001D203E003206D1C042DF1D3042809D069
:10AB900002286DD204F13B0001F03CF9B0F5007FD2
:10ABA00066D101E00120A0E704F1460001F032F98E
:10ABB00018B904F1540001F022F9A06194F8405052
:10ABC000A570012D01D0022D52D1454394F83D00CE
:10ABD0006081E8B3411E08424AD104F1410001F00E
:10ABE00019F92081000743D104F1430001F012F963
:10ABF000070004D104F1500001F001F9074604F107
:10AC00003E0001F007F9010032D02389481900EB1A
:10AC1000131297422CD3B81A6789B0FBF7F0B8B17A
:10AC200003274FF6F57C604500D8022740F6F57CF7
:10AC3000604500D80127801C3244A2623144606123
:10AC4000C4E90761032F15D013B12944616200E004
:10AC50000EE0022F1FD000F0010100EB400001EBDD
:10AC6000500000BFA16900F2FF10B1EB502F14D2C9
:10AC70000D203AE704F15A0001F0CCF80028F7D192
:10AC800020890028F4D104F15C0001F0B8F860627A
:10AC900060698000E6E74000E4E74FF0FF302061A4
:10ACA000E06080202071032F2CD104F1600001F0BE
:10ACB000B1F8012826D1711C204601F0F5FD08BB32
:10ACC00084F8048004F22E2001F0A4F8A0F52A41B3
:10ACD000553917D104F1300001F091F80E4988423E
:10ACE00010D104F5057001F08AF80C49884209D1A9
:10ACF00004F5067001F083F8206104F5077001F097
:10AD00007EF8E06003492770091F0888401C08800E
:10AD1000E0800AE7802C002052526141727241614A
:10AD200010B504460078182802D1FDF785F9207087
:10AD300010BD10B504460078182802D1FDF77CF943
:10AD4000207010BD70B5134600220546112900D1B0
:10AD50000122074C33B12179FDF792F90022617885
:10AD6000284600E06178BDE87040FDF789B9000031
:10AD7000402B002073B504460568019801E0401C93
:10AD8000019001782F29FAD05C29F8D00021A16028
:10AD900001980078202806D2802084F82B002046D5
:10ADA000FEF779FE7CBD01A92046FEF7EDFB0028E9
:10ADB000F8D12046FEF760FD94F82B1028B1042846
:10ADC000F0D14907EED405207CBD4907FCD4A07919
:10ADD000C006F8D5208AC0F3080041192846303152
:10ADE00000F0FAFFA060DEE7F7B517460E0011D0BD
:10ADF0000098002560B100242146684601F06DFEF0
:10AE000018B1A0B23946B0476D1C641C142CF3D3A2
:10AE10002846FEBD0020FEBD406805F081BE000052
:10AE20000EB516A19DF8080020F00F00401C20F080
:10AE3000F00010308DF808000E2202A87CDF20B14F
:10AE4000124A4FF4C771FBF7E5F90020009001901A
:10AE50001020ADF80000ADF802005A20ADF8040053
:10AE60004FF41670ADF8060068467ADF002804D06B
:10AE7000064A4FF4CC71FBF7CDF90EBD4E6F7264EC
:10AE800069635F426C696E6B793600002C73020057
:10AE900070B508B1012070BD1B4C0025207B08B1A6
:10AEA000257301E000F0A4F8207808282AD2DFE812
:10AEB00000F02904080C10291422BDE8704000F0AD
:10AEC00025B8BDE8704000F081B8BDE8704000F0E2
:10AED00063B8BDE8704000F03FB80620207060887D
:10AEE000094900EB8000283901EB80004068BDE88B
:10AEF000704004F083BC072020706560BDE870409E
:10AF000004F08ABC0F2070BD904000201149F0B4BD
:10AF10008A1C00200346A1F128050C18A67A4EB120
:10AF2000A37200EB800405EB8404E66816B9247C68
:10AF3000012C0AD0401C80B20228EED30B704B804B
:10AF40004B60F0BC41F61D5070471080F0BC00F023
:10AF50003DB80000904000200C48418801EB810280
:10AF6000A0F1280101EB8201CA6852B105210170EC
:10AF7000074802218180016800230122054802F070
:10AF800005BA042202704968F6E7000090400020EC
:10AF9000E42B00208C2C002038B50A4908480324F3
:10AFA0000B684268898803EB810153880470DB1CBD
:10AFB00000201B0400909B0B034802F03BFB38BDB4
:10AFC00090400020E42B00208C2C0020074910B575
:10AFD0004888091D05F06CFF18B1BDE81040FFF767
:10AFE000DBBFBDE81040FFF7B7BF00009040002076
:10AFF000F0B51F481F490125067802248B88A0F16F
:10B000002802082E19D2DFE806F00418181B222F98
:10B010002F170189491C01810021418080F80C1003
:10B0200001EB810312F8233043B100234418491C7B
:10B0300089B2A3720229F3D30570F0BD0123F5E7AD
:10B0400042685288D21C1A448A800470F0BD468837
:10B050000D6806EB860602EB860256680E605560A8
:10B0600013818C80062100E007210170F0BD0000F3
:10B0700090400020E42B00202DE9F0410446808818
:10B080002188394E86B00746352937D0502923D03C
:10B09000522902D054295DD102E001F099F859E01B
:10B0A000182232496846FBF7BFF9ADF802703846FE
:10B0B00000F0CEFCADF8040000F04AFA002231792D
:10B0C0003846FCF7DDFF0022F1783846FCF7D8FF60
:10B0D0006846FEF759FF3DE0207B01283AD1A07A6F
:10B0E000012837D12089A0F52451023932D101211C
:10B0F000384601F0C1F808F009F92BE04FF00008DC
:10B1000042467179FCF7BCFFE288B2F5857F1DD01D
:10B1100017481849401AC008022101EB004512B136
:10B12000284615A10BE06289012A03D0284621A1F7
:10B1300002F08CFEA289012A04D028462CA102F03C
:10B1400085FE03E0A07B00B10120804641463846E1
:10B1500007F000FD00223549B078FCF745FF06B046
:10B16000BDE8F04106F0E2BEFC2A00206C3A030084
:10B170004C54030044540300556E65787065637445
:10B18000656420474154542073746174757320774B
:10B1900068696C652067657474696E672043415205
:10B1A00020636861722076616C75653A203078257D
:10B1B000780000004D756C7469706C6520282564FA
:10B1C000292043415220636861726163746572692A
:10B1D000737469637320666F756E642C2075736970
:10B1E0006E67207468652066697273742E000000B3
:10B1F000556E6578706563746564204341522063C1
:10B2000068617261637465726973746963207661E1
:10B210006C7565206C656E67746820282564292C20
:10B220002073746F726520302E000000597C02007C
:10B2300070B504460078002814D1608800F0C8FF7B
:10B240006588284600F046FA28B107480122C178EF
:10B250002846FCF715FF6088FDF786FEBDE87040C4
:10B2600008F054B870BD0000FC2A002070B51A4CDC
:10B2700000252570FCF7E0FE6070FCF7DDFEA07095
:10B28000FCF7DAFEE070FCF7D7FE2071FCF7D4FE85
:10B29000607162780121182A12D0A278182A0FD082
:10B2A000E278182A0CD02279182A09D0182807D059
:10B2B00004F10C000560BFF35F8F2170002070BDAA
:10B2C0000648074A801AC00801EB0040054902F011
:10B2D000B9FD032070BD0000FC2A00204C5403007F
:10B2E00044540300D44003007CB504460078082889
:10B2F00037D1607A58BB207A1C4E4FF6FF75012873
:10B3000011D0072802D008282BD121E0A08800F016
:10B31000E9FA0446A84224D0012100F0ADFF2046FE
:10B32000FDF722FE1DE0A0886A46012104F014FC0E
:10B3300068B90198007850B1A08800F0D3FAA8420B
:10B340000FD00122F178FCF79BFE06F0EFFD08E03C
:10B35000F068012805D1BFF35F8F044900200C314C
:10B360000860BDE87C4007F0D1BF0000FC2A002047
:10B370002DE9F04104680D4602290BD36069A8420B
:10B3800008D920784FF0FF36012807D002282BD0AB
:10B39000032839D001263046BDE8F081206A05EB4C
:10B3A000550700EB5721204601F07EFA0028F2D124
:10B3B000C7F3080020447F1C90F83080206A00EB1F
:10B3C0005721204601F070FA0028E4D1C7F30800A5
:10B3D000204490F8301048EA0120E90701D006091E
:10B3E000D9E7C0F30B06D6E7206A00EB152120460B
:10B3F00001F05AFA0028CED1E8B204EB4000303018
:10B4000000F008FD0646C6E7206A00EBD51120468D
:10B4100001F04AFA0028BED140F2FF1000EA850090
:10B420002044303000F0EBFC20F07046B3E72DE90B
:10B43000F041002305464B7280690C46002825D058
:10B4400000210A462E26E869805C521C20280AD07A
:10B45000052800D1E520092A02D16718491C7E720F
:10B460006718491C78720B2AEDD360184372E8699B
:10B47000C07A2072E8691C3000F0C1FC2060E869E5
:10B48000163000F0BCFCE080000CA080BDE8F0812C
:10B4900010B504464FF0FF302268002A13D0114641
:10B4A00000E0491C0B78212B0ED33A2BF9D112F86E
:10B4B000013B303B0A2B06D28A4204D1002B02D139
:10B4C000491C1846216010BD002010BD2DE9F04137
:10B4D0008046024601200021FAF792FF1A4F0546E6
:10B4E0000E467868FCF7E2FA00280CD1174CD4E934
:10B4F000062110462A4001EA06031A4305D0A84354
:10B50000B143C4E90601BDE8F081404603F0B6FA54
:10B5100030B1D4E9040128433143C4E9040105E012
:10B52000D4E90410A943B043C4E90410D4E90601E6
:10B5300028433143C4E90601A1687868BDE8F041B9
:10B540000022FCF76FBA0000DC3B0300782B0020E0
:10B550001CB5054AD2E90212CDE900120022694663
:10B5600004F0C0FC1CBD0000883A030003484FF6FD
:10B57000FF71818001210170002070470C2B002099
:10B580002DE9FC41804600F063FA002403250127E1
:10B59000A0F57F412646FF3908D06A46082104F00D
:10B5A000DBFA18B90198841D8688056832462B4657
:10B5B00021464046B1DF042804D0082804D00B28D7
:10B5C00008D002E0112000E00020002F00D10B2065
:10B5D000BDE8FC810027A80701D50125E6E7344333
:10B5E00003D0002426460325E0E7064806494246E4
:10B5F000401AC008012101EB0040044902F026FC7A
:10B60000E5E700005454030044540300444303009E
:10B610002DE9FC41804600F01BFAA0F57F4106466B
:10B62000FF390ED001252A466D1C0027ADB26B46AE
:10B630000821304604F0DAFA040006D0072C33D093
:10B6400033E043F20200BDE8FC81019903230A1DA7
:10B650000B604046891DB2DF040004D00C2C09D0D9
:10B66000052C09D009E032460821104604F036FBCB
:10B6700004461AE0012700E000240821304604F0C7
:10B6800023FB70B103F0AAF8034609480949324682
:10B69000401AC008012101EB0040074902F0DDFB20
:10B6A0000324002FBFD100E00C242046CBE700008C
:10B6B0005454030044540300C442030004488088E7
:10B6C000A0F57F41FF3901D006F03ABC7047000079
:10B6D0000C2B00200EB502A9019100F0B9F96A46C1
:10B6E000012104F039FA08B100200EBD019800785C
:10B6F0000EBD00002DE9F04107464FF6FF761048D9
:10B70000B3DF78B103F06AF802460E480E49401ADA
:10B71000C008012101EB00400C4902F097FB032017
:10B72000BDE8F081064C43F20305A41E3246618851
:10B730003846AFDFA842F3D16088401C6080F5E74F
:10B740000E2B00205454030044540300784203009D
:10B75000428800EB82020C328A4201D902207047F3
:10B760008188A1F57F42FF3A03D0008808B100200C
:10B77000704701207047884204D20068401C01D005
:10B7800001207047002070473EB5027802230C4626
:10B79000B3EB520F17D1B0F80110ADF80010C1781B
:10B7A0008DF802108188ADF8041080798DF80600BC
:10B7B00002AA01A92046FBF7C3FD032202A968469D
:10B7C000FAF75DFE08B100203EBD01203EBD00003D
:10B7D00070B50D460446142810D2FCF771FC68B110
:10B7E000084904EB840001EB4000D0F80210296006
:10B7F000C188A980007AA871002070BD43F20200C0
:10B8000070BD0000803A002070B5018892B0102908
:10B8100061D1011D2C226846FAF706FE9DF804004E
:10B820004FF6FF7603213446B1EB500F2BD004F0D6
:10B8300017FB9DF804006D4640080ED001280CD07F
:10B84000022820D118E00D99281D1131FBF7B8FC12
:10B8500018B100BFBDF82C4015E00CAA0BA90720B9
:10B8600004F0D2FA0028EED10DE00D99281D491CF4
:10B87000FFF78AFF0028EDD10CAA0BA9072004F0DE
:10B88000C3FA0028F1D1BDF80000B44200EB8001FA
:10B89000124820F8114000EB41000199C0F8021055
:10B8A000BDF80810C1809DF80A10017213D0BDF8D0
:10B8B0000000ADF82E000020ADF83040084E8DF8A5
:10B8C0002C000BAD044600BF56F8241028468847CC
:10B8D000641C022CF8D312B070BD0000803A002026
:10B8E0009C3A03002DE9F0414FF6FF760546B04241
:10B8F00013D00B4F002400BF04EB840037F8100076
:10B90000A84206D12046FCF7DBFB10B12046BDE87B
:10B91000F081641CA4B2142CEED33046F7E700008B
:10B92000803A00203EB50C46054604F099FA0BE03B
:10B93000BDF80000A04207D02846029900F00EF89A
:10B9400010B1BDF800003EBD01AA6946072004F011
:10B950005BFA0028ECD14FF6FF703EBD2DE9F041B7
:10B960000C46054600F1110701F111061022491C91
:10B97000401CFAF784FD48B9681C00F01DFA28B194
:10B98000601C00F019FA08B1012400E000243146DF
:10B990003846FBF715FC3B780222B2EB530F0CD074
:10B9A0000321B1EB530F08D03378B2EB530F04D01F
:10B9B000B1EB530F01D0012100E00021084201D179
:10B9C0008C4302D00120BDE8F0810020FBE7018814
:10B9D00011B9421892780AB101207047491C082910
:10B9E000F7D30020704710B50C460346FFF7EFFF72
:10B9F00000280AD018882188884205D10822A11C75
:10BA0000981CFAF73CFD08B1002010BD012010BDC4
:10BA1000142804D2024A00EB800022F8101070476C
:10BA2000803A002070B50546FFF75CFF04462846C3
:10BA300004F096F8002808D1142C06D2034B04EB2E
:10BA400084024FF6FF7123F8121070BD803A002077
:10BA500010B50446142808D2FCF732FB28B104497B
:10BA600004EB840031F8100010BD4FF6FF7010BDDC
:10BA7000803A00203EB5044604F0F2F90EE0019948
:10BA800020464631FFF7AFFF28B9019920462A31F9
:10BA9000FFF7A9FF10B1BDF808003EBD6A4602A934
:10BAA000072004F0B1F90028E9D14FF6FF703EBD40
:10BAB00010B50A4941600A4801F02AF858B902F065
:10BAC000F1FD07491C238C22087404488C39001F9F
:10BAD000006800F083FF002010BD0000643E0300FA
