:020000040000FA
:10000000002F0020150300001D0300001F03000047
:10001000210300002303000025030000000000006E
:1000200000000000000000000000000027030000A6
:1000300029030000000000002B0300002D03000036
:100040002F0300002F0300009D0700002D04000077
:100050002F0300002F0300002F0300002F030000D8
:100060002F0300002F0300002F0300002F030000C8
:100070002F0300002F0300002F0300002F030000B8
:100080002F0300002F0300002F0300002F030000A8
:100090002F0300002F0300002F0300002F03000098
:1000A0002F0300002F0300002F0300002F03000088
:1000B0002F0300002F0300000000000000000000DC
:1000C0002F0300002F0300002F0300002F03000068
:1000D0002F0300002F0300002F030000000000008A
:1000E0000000000000000000000000000000000010
:1000F0000000000000000000000000000000000000
:1001000000000000000000000000000000000000EF
:1001100000000000000000000000000000000000DF
:1001200000000000000000000000000000000000CF
:1001300000000000000000000000000000000000BF
:1001400000000000000000000000000000000000AF
:10015000000000000000000000000000000000009F
:10016000000000000000000000000000000000008F
:10017000000000000000000000000000000000007F
:10018000000000000000000000000000000000006F
:10019000000000000000000000000000000000005F
:1001A000000000000000000000000000000000004F
:1001B000000000000000000000000000000000003F
:1001C000000000000000000000000000000000002F
:1001D000000000000000000000000000000000001F
:1001E000000000000000000000000000000000000F
:1001F00000000000000000000000000000000000FF
:10020000DFF80CD000F0D0F8004800479526000039
:10021000002F002000B583B002900091019244F2BB
:10022000010071466A4600F05BFB03B000BD0000B0
:1002300030B4044654E8000F0D4644E80053002B48
:10024000F8D1156030BC704730B4044654E8000F54
:1002500040EA010544E80053002BF7D1156030BC9B
:10026000704730B4044654E8000F00EA010544E842
:100270000053002BF7D1156030BC704730B40446F2
:1002800054E8000F80EA010544E80053002BF7D141
:10029000156030BC704730B4044654E8000F00EBE2
:1002A000010544E80053002BF7D1156030BC7047BE
:1002B00030B4044654E8000FA0EB010544E80053B5
:1002C000002BF7D1156030BC704770B404464FF076
:1002D000000054E8006F0D68AE4207BF44E80023F9
:1002E000012044E800630E60002B1CBF0020F0E7F3
:1002F00070BC704730B4044654E8000F88422CBFED
:10030000451A054644E80053002BF5D1156030BC72
:10031000704700000648804706480047FEE7FEE7B2
:10032000FEE7FEE7FEE7FEE7FEE7FEE7FEE7FEE7A5
:10033000810400000102000000487047545400008E
:1003400040EA01039B0703D009E008C9121F08C057
:10035000042AFAD203E011F8013B00F8013B521ED7
:10036000F9D27047D2B201E000F8012B491EFBD24E
:1003700070470022F6E710B513460A4604461946B0
:10038000FFF7F0FF204610BD421C10F8011B0029AA
:10039000FBD1801A7047034611F8012B00F8012B9E
:1003A000002AF9D118467047064C074D06E0E06870
:1003B00040F0010394E8070098471034AC42F6D3AC
:1003C000FFF722FF6C5900008C59000000F0ECB9D7
:1003D00070B50E46144900EB400001EBC005144611
:1003E000E86A183520B101280FD0022805D113E0A2
:1003F000284600F00DFAA04201D2002411E0224666
:100400003146284600F03CFA0BE0284600F000FA9E
:10041000A042F4D20446F2E73146284600F003FA3F
:100420000446204670BD0000780C0020F8B5124844
:10043000124E04464FF48C7103F039F800281AD09C
:100440000025C4F81851D4F818010090F07F344604
:10045000FF2806D0A17F11B102F05CFC01E002F0A0
:1004600060FC65772572D4E9002101B004F1080031
:10047000BDE8F0401047F8BD003000408C0500207A
:10048000F0B5B5480023021D0178101D01254FF07D
:10049000805406290BD11678360708D10678C6F3A2
:1004A0000316032E06D0042E04D0052E02D00629F2
:1004B00007D00EE0B4F82463A84FC6F304263E60CC
:1004C00002E01678360704D10678C6F30316032E29
:1004D00002D0062904D00FE0A24FA14E7E670EE0A5
:1004E0001678360708D10678C6F30316032E06D011
:1004F000042E04D0052E02D0062907D00EE0D4F831
:100500004462994FC6F342363E6002E016783607E1
:1005100004D10678C6F30316032E02D0062906D0AE
:1005200011E0924E376827F0807737600EE016783A
:10053000360708D10678C6F30316032E06D0042E1C
:1005400004D0052E02D006290AD011E04FF08046D3
:10055000C6F80C31C6F81031834E361F336002E006
:100560001678360704D10678C6F30316032E02D098
:10057000062905D00CE07C4F032664373E600AE074
:100580001678360704D10678C6F30316032E02D078
:1005900006290DD014E0764F05263E60744E78365D
:1005A0003560734E083633603F263F1D3E6002E0E3
:1005B0001678360704D10678C6F30316052E02D046
:1005C000062957D062E06B4E36686B4F3E60694E2D
:1005D000361D36683F1D3E60664E083636683F1D44
:1005E0003E60644E0C3636683F1D3E60614E1036EC
:1005F00036683F1D3E605F4E143636683F1D3E60D4
:100600005C4E183636685C4F20373E60594E1C36BB
:1006100036683F1D3E60574E203636683F1D3E60AF
:10062000544E243636683F1D3E60524E283636689A
:100630003F1D3E604F4E2C3636683F1D3E604D4E8E
:10064000303636684C4F40373E604A4E3436366856
:100650003F1D3E60474E383636683F1D3E60454E72
:100660003C3636683F1D3E60424E403636683F1D80
:100670003E6002E01678360708D10678C6F3031606
:10068000032E06D0042E04D0052E02D0062907D052
:1006900019E0D4F85812394A01F04F01116002E014
:1006A000117809070FD10078C0F30310032803D095
:1006B000042801D0052806D131480168C90702D0B5
:1006C0006FF001010160D4F83001062808D1D4F898
:1006D0003401062804D12B48016841F4806101608F
:1006E00022487438016841F470010160BFF34F8FF4
:1006F000BFF36F8F4FF01021D1F80002002803DB09
:10070000D1F80402002822DA1F4A15601F48046845
:10071000002CFCD01524C1F800420568002DFCD047
:10072000C1F8044201680029FCD013600168002967
:10073000FCD0BFF34F8F0D48F0380168144A01F424
:10074000E06111430160BFF34F8F00BFFDE7124925
:1007500010480860F0BD0000E00F00F04035014097
:100760000DF0ADBA00C007403C050040FCED00E0D4
:10077000105600400404001020C50040E40E004064
:10078000000400403C17004004E5014000E4014043
:100790000400FA050090D003B8000020014800686A
:1007A000004700002800002010B5124C02202061F4
:1007B000606111A0A06104F17800E0614FF4007065
:1007C00020620020A06260620BA1A164E06204F5D7
:1007D0001E71E1641021A065C4E91410E06509A14F
:1007E000E01DFFF7D8FD08A12046FFF7D4FD20202B
:1007F000A07110BD780C00205465726D696E616C3B
:100800000000000052545400534547474552000031
:100810000269C1688A4203D88068401A104400E027
:10082000501A401E70472DE9F047C46817468946A4
:1008300006464FF000083069A04201D9051B02E0CE
:10084000B168201A0D1AB0686D1E001BA84200D8AE
:100850000546BD4200D33D4670682A4620444946BD
:10086000FFF76EFDB0687F1B2C44A844A944A0424A
:1008700000D10024F460002FDDD14046BDE8F087B0
:100880002DE9F04104468846D4E90207C51BE1681A
:10089000606816460844B54206D94146FFF750FD48
:1008A000B819E060BDE8F0812A464146FFF748FDEF
:1008B000761B08EB050132466068FFF741FDE660F4
:1008C000F0E702E008C8121F08C1002AFAD17047F9
:1008D0007047002001E001C1121F002AFBD17047C0
:1008E000FEB514460E46074672B602F0F3FC00BF92
:1008F00002F02AFB0028FBD11D4A1E496FF48040FC
:100900003B18A2EB01014FF001004FEAD10100EBCF
:1009100001451AD0012B11D02846324616A102F00B
:100920002FFC1B480068C00700D000BE224603B061
:1009300031463846BDE8F04000F058B823882846D4
:1009400014A1626802F023FCEBE7A06802F0D0FD7E
:100950000346D4E90001CDE900100296284614A10F
:10096000A26802F01CFC28461BA102F005FCD8E797
:10097000CC590000AC590000554E4B4E4F574E20FD
:100980004641554C54206174203078253038580049
:10099000F0ED00E0415353455254494F4E2046413B
:1009A000494C45442061742025733A2575000000A8
:1009B0004552524F52202575205B25735D2061748E
:1009C0002025733A25750D0A50432061743A203072
:1009D0007825303878000000456E64206F66206509
:1009E00072726F72207265706F72740008B50123A5
:1009F0008DF800309DF80030144B186059609A60F3
:100A00006FF48041401807D001280FD1DA60D86810
:100A100000889861D86807E01A6118698068586191
:100A200018690068986118694068D8611868586842
:100A30009868D868186958699869D86972B600BF0B
:100A40009DF800000028FBD162B608BD000600201A
:100A5000164B10B593F822402CB193F82240032C8A
:100A600003D0112010BD082010BD82B1042483F8EA
:100A700022409C7A240700D44902C3E903019A82E8
:100A80000020DA829883012A03D9522002E007204D
:100A900010BD5120012203F025FA20B104A240F23A
:100AA0000241FFF7B7FB002010BD00002006002028
:100AB0002E2E5C2E2E5C2E2E5C2E2E5C2E2E5C2E70
:100AC0002E5C636F6D706F6E656E74735C6C6962C3
:100AD0007261726965735C7364636172645C617096
:100AE000705F7364636172642E63000070B51E4BA7
:100AF000144693F822202AB193F82220032A03D027
:100B0000112070BD082070BD04B3052283F8222097
:100B10009A7A150700D44902C3E903019C82002098
:100B2000DC829883012C13D002F0070001284FF0DB
:100B3000010217D02146D72003F0D4F920B10BA22F
:100B400040F23C41FFF766FB002070BD072070BDFE
:100B50000122582003F0C6F90028F5D003A240F284
:100B60002D41EFE75920E7E7200600202E2E5C2ECE
:100B70002E5C2E2E5C2E2E5C2E2E5C2E2E5C636F39
:100B80006D706F6E656E74735C6C696272617269B0
:100B900065735C7364636172645C6170705F7364DD
:100BA000636172642E630000054890F822100329E7
:100BB00004D090F8220008B101207047002070474F
:100BC00020060020044890F82210032901D3001DBC
:100BD000704700207047000020060020F0B5314C1F
:100BE000054687B094F822000F4610B1082007B0E0
:100BF000F0BD002F54D0E878FF2851D06978FF2944
:100C00004ED02978FF294BD0A978FF2948D000265B
:100C100084F858000122009633461146019602F0EE
:100C200025F894F8580002F083F81F4B0DF1080CDA
:100C30000FCB8CE80F00A8788DF8080028788DF885
:100C4000090068788DF80A0017480023174A02A99E
:100C5000103801F045FE20B115A240F26541FFF7C2
:100C6000D9FA44F8227B012004F819090D4B607869
:100C7000383320F00F006070A676FF20E0770A205E
:100C8000009009480122A3F11001103801F060FE24
:100C900020B107A240F27141FFF7BCFA0020A6E79D
:100CA0000720A4E720060020CC510000C148000026
:100CB0002E2E5C2E2E5C2E2E5C2E2E5C2E2E5C2E6E
:100CC0002E5C636F6D706F6E656E74735C6C6962C1
:100CD0007261726965735C7364636172645C617094
:100CE000705F7364636172642E6300007CB50F4DA6
:100CF00095F8220028B195F82200032803D011208E
:100D00007CBD08207CBD0A4802F006FD002495F851
:100D1000580000942346224621462235019401F0D2
:100D2000A5FF6C702C7000207CBD00002006002008
:100D3000C051000000F002B800F008B872B60248D6
:100D40000168491C016070473000002003490868B1
:100D5000401E086000D162B67047000030000020DD
:100D60002DE9F041064608680C46411C4FF0A047AB
:100D70004FF0010506D005FA00F1C7F80815206804
:100D800001F0B4FF6068411C02D0012101F092FF24
:100D90003168A069C1F82405607D227D3168104367
:100DA000C1F86C05D4E900123068C0F81425C0F809
:100DB0000C15207D012815D1A068411C02D000210E
:100DC00001F078FFE068411C05D08540C7F8085560
:100DD000E06801F08BFFD4E902123068C0F8082502
:100DE000C0F81015BDE8F0812DE9F041064608680D
:100DF0000C46411C4FF0A0474FF0010506D005FA04
:100E000000F1C7F80815206801F07AFF6068411CFE
:100E100002D0012101F057FF3168A069C1F8240513
:100E2000607D217D32680843C2F86C05D4E9001268
:100E30003068C0F80C15C0F81425207D012815D1A4
:100E4000A068411C02D0002101F03DFFE068411C78
:100E500005D08540C7F80855E06801F051FFD4E996
:100E600002123068C0F80825C0F81015BDE8F081FE
:100E7000087A0A782AB1012A03D0022A01D0032A6B
:100E800009D100EB400204484978406800EB820039
:100E900001720021817270470C0000208069704748
:100EA0002DE9FE430E46016984698046B1F5007F55
:100EB00002D00620BDE8FE83134D696809B11120F8
:100EC000F8E7A660A261686010491430FFF786FE5B
:100ED000070008D1A6B900BFFFF766FE0028FBD1C6
:100EE000287878B10D27002068604EB1084A07CAFB
:100EF0008DE80700A0690290A268694640469047C5
:100F00003846D7E70027FBE7340000209D3F00006C
:100F10000C52000019B1012906D0062070470AB111
:100F2000002010700020704712B1001D1060F9E71A
:100F300007207047FEB51C4F0646846978680D4649
:100F4000B04202D1FFF730FE08B11120FEBD95E896
:100F5000070004F10C0383E80700A888296882B21F
:100F6000A868FFF775FD050009D1A068C0B900BFEA
:100F7000FFF71AFE0028FBD1387898B10D25A0683C
:100F800070B16DB10948016B806B029004F10C00E7
:100F9000CDE90010A0690290A268694630469047EA
:100FA0002846FEBD0025EAE734000020F451000089
:100FB000FEB5124F044685697868A04202D1FFF75A
:100FC000F3FD08B11120FEBDFFF790FE060000D131
:100FD0007860A86878B10A4907C98DE807000EB1A2
:100FE000012000E000208DF80100A8690290AA68A5
:100FF0006946204690473046FEBD00003400002080
:1010000018520000FEB51C4F0646846978680D46EC
:10101000B04202D1FFF7C8FD08B11120FEBD95E82E
:10102000070004F10C0383E80700A888296882B24E
:10103000A868FFF75BFD050009D1A068C0B900BF33
:10104000FFF7B2FD0028FBD1387898B10D25A068D4
:1010500070B16DB10948C16B406C029004F10C0095
:10106000CDE90010A0690290A26869463046904719
:101070002846FEBD0025EAE734000020F4510000B8
:101080002DE9FC410646C0074FF000050ED0104F79
:1010900000240122385D009500231146019501F0DE
:1010A0009DFD641C042CF4D300F01CF8B0070DD592
:1010B000074E0024361D0022305D032300951146A3
:1010C000019501F08BFD641C042CF4D3BDE8FC8178
:1010D000985100000249085C012101F030BE000077
:1010E0009851000010B500242046FFF7F3FF641C60
:1010F000042CF9D310BD00002DE9F0470546861CED
:1011000090460F464FF001090020FFF713FE1B4CDD
:1011100020683860D4E90001401AA16804F21C4735
:10112000081A0EE00121384601F06FFB01F064FA65
:101130000146384601F069FBD4E90001401AA16874
:10114000081A401C8642EDD8B8F1000F03D00520E4
:1011500065F3891002E0062065F39F50A2682168BC
:10116000114004EB8101C8602068304420600020F9
:10117000FFF7E2FD4846BDE8F08700005408002074
:1011800030B482680468531C8360A154D0E9011212
:101190008A4202D330BC01F028BC30BC704700004A
:1011A000034803C8814201D10120704700207047E5
:1011B0005408002010B504460020E070401EE06294
:1011C000204601F003FB08B1042010BD04F22E20DC
:1011D00001F00CFAA0F52A41553901D0032010BDC9
:1011E00094F83000E92805D0EB2814D194F83200A7
:1011F000902810D104F1660001F0EDF90749B1EB38
:10120000002F06D004F1820001F0E5F9044988427C
:1012100001D1002010BD022010BD00000046415445
:10122000464154334269891E921E8A4201D80020E9
:101230007047826A408901FB002070472DE9F04128
:1012400005680F00804606D001F056F8022809D242
:101250000120BDE8F081EE6816B16869B04207D898
:10126000012605E0411CF4D069698142F1D83E466F
:1012700034466869641CA04202D80224022E0AD3B4
:101280002146404601F038F838B10128E1D0411C30
:10129000DFD0B442EDD10020DBE74FF0FF3632461D
:1012A0002146284602F03EFD30B957B12246394664
:1012B000284602F037FD20B101280FD00124204636
:1012C000C7E7EC60D5E90401891E884201D2401EBF
:1012D0002861287940F001002871F0E73446EEE7F4
:1012E0002DE9F0410E4620300D6804460B222021E6
:1012F00001F00EFA0020014608232A5C401C202A37
:1013000012D92F2A0BD05C2A09D02E2A01D099425B
:1013100014D30B2B37D02E2A35D10CE0401C2B5C7C
:101320002F2BFBD05C2BF9D02844306059B32078A8
:10133000E52834D035E008210B23DEE7A2F1810750
:101340001E2F02D95F3F1C2F13D82F5C401CA7F122
:10135000400CBCF13F0F04D3A7F1800CBCF17D0F12
:1013600011D2A3F1010C61450DD26254491C67549E
:1013700013E010A700E07F1C97F800C0BCF1000F3D
:1013800004D09445F7D10620BDE8F081A2F16107B1
:10139000192F01D8203AD2B26254491CADE705207A
:1013A0002070202A01D8042000E00020E0720020F4
:1013B000EAE70000222A2B2C3A3B3C3D3E3F5B5D96
:1013C0007C7F000020BF70472DE9F04104460021DA
:1013D000056800F008F9002826D12846A16901F027
:1013E000F5F902001FD1E069017899B1C17A01F0E5
:1013F0003F01A171C17A09070FD404F120010B2626
:1014000010F8013B11F8017BDB1B761E04D0002B8A
:10141000F6D002E0042206E02BB10021204600F0C5
:1014200005F80200D9D01046BDE8F0812DE9F0475B
:1014300005460769046880698946203710B1B7F509
:10144000001F02D30420BDE8F087F90560D1401CDD
:10145000A86169694FF0000829B16089401E10EA4F
:10146000572F05D054E02089B0EB571F1DD94FE00E
:10147000284600F041FF064601281BD9701C33D0D6
:101480006069B0423ED8B9F1000F0ED028466969B4
:10149000FFF7D4FE06000BD0012E0BD0701C23D01A
:1014A000204603F041FCF8B906E0C5F81880C9E70A
:1014B0000720C8E70220C6E74FF40072002104F1BC
:1014C000300001F025F94FF0000831462046FFF7C3
:1014D000A9FE4FF00109E0620DE000BF84F803901F
:1014E000204603F021FC08B10120ACE7E06A08F1D6
:1014F0000108401CE06261894145EFD8E16AA1EB37
:101500000800E062314620466E61FFF78BFEA8615D
:10151000C7F30800204430302F61E861002092E7D3
:1015200070B504460E460420256821E0284601F0E7
:101530004DF910BBE2691178B1B1D27AE52902F018
:101540003F02A2710AD02E2908D00F2A06D022F01D
:10155000200108290AD00021B14210D000212046E4
:10156000FFF764FF20B108E0042006E00121F3E763
:10157000A1690029DAD1002801D00021A16170BD44
:1015800070B504460021066800F02DF80DE03046E5
:10159000A16901F01BF950B9E0690078E52809D08C
:1015A00040B101212046FFF741FF0028EFD0042879
:1015B00007D007E03046A16901F008F9050003D023
:1015C0000FE0072005460CE020220021E06901F031
:1015D0009FF80B2204F12001E06901F08FF801204F
:1015E000F070284670BD2DE9F04107680E460546AB
:1015F000B1F5001F36D2F00634D12E61AC6824B9A3
:101600003878032805D37C6A1CB178894FEA4028D2
:1016100012E03889B0EB561F24D9786A12E02846C8
:1016200000F06AFE0446401C1AD0022C1AD37869D6
:10163000A04217D9A6EB080646452146EFD2384608
:10164000FFF7F0FDC5E9054060B100EB5620A86149
:10165000C6F3080038443030E8610020BDE8F0816E
:101660000120FBE70220F9E770B51C4C2178884285
:101670000DD2616800EB400551F825303BB101EB1C
:1016800085014A7AD20704D04A6822B105E00320D6
:1016900070BD487A70BD124A4A6001228A720246C1
:1016A0001868104906681846B04710B110E0406845
:1016B0008047606800EB8500817A0029F7D1616876
:1016C00001EB8501097A19B9417A21F001014172D2
:1016D000606800EB8500407A70BD00000C000020BF
:1016E000C5130000710E000038B51D4D2B789842CF
:1016F00001D3042038BD00EB400439B1184801295A
:10170000406815D002291DD0012038BD01208DF878
:10171000000068686A46002150F8240001F0DDF8F6
:1017200008B1112817D19DF800000028F1D112E06E
:1017300050F8240088B10168144649698847006858
:10174000206008E050F8240038B101681446496967
:10175000884780882080002038BD032038BD0000E5
:101760000C000020FEB51D4C2578A8420DD263B1B7
:1017700000EB4005606850F8256026B100EB850657
:10178000777AFF0703D00320FEBD0420FEBD009240
:10179000CDE901310121B17250F825606F46306802
:1017A00041693046884700680099884214D93068FA
:1017B000394682683046904710B10DE04068804756
:1017C000606800EB8500817A0029F7D1606800EB42
:1017D0008500007A0028D9D00120FEBD0C00002031
:1017E00006490A78904201D301207047496800EB0E
:1017F000400001EB8000407A704700000C000020A0
:10180000FEB5204C2578A8420DD263B100EB40050F
:10181000606850F8256026B100EB8506777AFF07EF
:1018200003D00320FEBD0420FEBD777A7F0701D5DB
:101830000220FEBD0092CDE901310121B17250F8C4
:1018400025606F46306841693046884700680099D6
:10185000884214D930683946C2683046904710B182
:101860000DE040688047606800EB8500817A0029C0
:10187000F7D1606800EB8500007A0028D9D00120FC
:10188000FEBD00000C000020014A5060117070473E
:101890000C00002010B50021024800F0C1FF80F3C9
:1018A000100010BD700C002038B5044600F05EF941
:1018B000002807D16946204603F046FC002801D1E4
:1018C0000021216038BD000017B581B01446029890
:1018D0000090684600F0A0FD002802DA0B2004B05A
:1018E00010BD0B4A002352F8201001B10B70019972
:1018F000002900D00B7042F8201001D0012C01D03B
:101900000020ECE7002201A902A800F095FBE6E721
:10191000180000202DE9F7438CB005000BD002F031
:101920003F06324669460DA800F086FB04004FF0E2
:10193000000804D0C0E009200FB0BDE8F083009893
:10194000019001A80D9900F09DFC040004D19DF8C0
:101950002F00000600D5062416F01C0F4CD04CB109
:10196000042C03D101A8FFF70BFE044646F008063D
:101970005CB1A1E09DF80A0010F0110F01D007241E
:101980009AE0700701D5082496E0300743D54D4F03
:10199000089839460E3003F031F908983946163068
:1019A00003F02CF908992020C8720899009800F0DB
:1019B000FFFD074600220899009803F00BF90898EC
:1019C00000211C3003F01AF900990120C87007B3F8
:1019D000D1F82C900022394601A802F018FA040030
:1019E0006AD14946009800F0F1FE04000098A7F182
:1019F0000107C7600BD05FE0CCBB9DF80A00C106B1
:101A000001D5042458E0B10701D5C007B7D130078C
:101A100001D546F040060098C16A296208996962BA
:101A2000089900F0C5FDA86008981C3000F0D3FDAF
:101A3000E8600098286000984FF400720021C08888
:101A4000A8802E7485F81180C5F81C8005F1280047
:101A50008146C5F8148000F05BFEB0062ED5EE6816
:101A600066B36E610098A968408947020FE023E0E1
:101A7000284600F041FC0146012800D80224481CF9
:101A800002D0F61B1CB104E00124F61B01E0BE42AB
:101A9000EED8A96184B9F00510D00098FFF7C2FB19
:101AA00070B100EB5622EA61009801234946407864
:101AB000FFF758FE10B10124C5F8008020463BE72F
:101AC0000224F9E70000214813B582B0040006D0D3
:101AD0000022694603A800F0AFFA18B120E00920FF
:101AE00004B010BD009921602046039900F0CAFBA4
:101AF00090B994F82B00000607D4A079C00612D53F
:101B0000E169009800F054FDA0600098C188A180B0
:101B100020460021FFF767FD042804D00028DFD00D
:101B200000212160DCE70520FAE738B50C460546C0
:101B3000694603F009FB002813D1014628468CB101
:101B4000FFF7EEFC042801D000280AD121462846E0
:101B500000F031FC00212846FFF768FC042800D182
:101B6000002038BDFFF73FFD38BD0000F8B5044642
:101B7000694603F0E9FA00280ED1217C4A060BD50C
:101B800008060ED50098E2690123407804F1280187
:101B9000FFF736FE08B10120F8BD207C00F07F0081
:101BA0002074154E216A009800F010FE0028F3D131
:101BB000656A2946E87A40F02000E872A268206849
:101BC00003F008F805F11C00E16803F017F831464E
:101BD00005F1160003F012F8002105F1120003F0E0
:101BE00015F800980121C17003F05AF8217C01F02A
:101BF000BF012174F8BD0000000021482DE9FE4F0F
:101C000088460021196099461546044602A903F04A
:101C10009BFA002806D1607C002803D1207C800735
:101C200002D40720BDE8FE8F6069012742194FF0FA
:101C3000020A04F1280B824200D2C54394E0606995
:101C4000C1056ED102994989491E11EA502612D167
:101C500008B1A16902E0A06828B900212046FFF779
:101C6000EDFA00287DD001282DD0411C54D0A06170
:101C7000A16801B9A060207C00060BD50298E2693A
:101C8000012340785946FFF7BBFDA0BB207C00F044
:101C90007F002074A1690298FFF7C4FA98B130441C
:101CA0000190680A009027D0029932184889824230
:101CB00001D9801B0090DDE9003248784146FFF7EA
:101CC0009FFDC0B903E084F811A00220AAE7E169F2
:101CD0000198081A009988420AD208EB40214FF473
:101CE0000072584600F00AFD207C00F07F0020744E
:101CF0000098460227E00FE0E169019881420ED08A
:101D0000E168606988420AD2029801235946407806
:101D1000019AFFF727FD10B16774012082E701984F
:101D2000E061A08AC0F30800C0F50076AE4200D999
:101D30002E46204432464146283000F0DFFC207C0D
:101D400040F0800020746069B04430446061E16814
:101D5000884200D80846E060D9F80000AD1B304446
:101D600000E004E0C9F80000002D7FF468AF207C9B
:101D700040F040002074002054E70000F8B5012135
:101D80004A48FFF781FD4A484A49401AC6080320DD
:101D900000EB0640044648A101F0EEF903250020BF
:101DA000FFF762FC6D1E02D00028F8D103E010B1ED
:101DB000204649A160E04F4D4F4869698847406817
:101DC0004FF48011B1FBF0F769694B488847006810
:101DD0004AA1B0FBF7F2204601F0D2F920464BA110
:101DE00001F0CAF901223BA14D48FFF76DFD002823
:101DF000204601D04BA13FE04EA101F0BDF953A117
:101E00005348FFF761FE10B1204652A134E005208F
:101E10004F4D00EB06462C3505F109074C494C485F
:101E20002C31FFF782FE10B151A1204624E0687AE0
:101E300088B1287AC00605D530463A4652A101F04D
:101E40009FF905E030463B4653A12A6801F09FF90F
:101E5000687A0028E2D130461EA101F08DF92046B3
:101E600050A101F089F93A48332256A14430FFF7D6
:101E700051FD20B1204656A101F07EF9F8BD34484D
:101E80006B4614225DA14430FFF7B8FE00282046BF
:101E900003D060A101F070F903E062A1009A01F0A3
:101EA0006FF92B484430FFF7FFFCF8BD000000201D
:101EB000CC590000AC590000496E697469616C69C5
:101EC0007A696E67206469736B203020285344431D
:101ED000292E2E2E000000004469736B20696E6964
:101EE0007469616C697A6174696F6E206661696C8E
:101EF00065642E00DC5100007C510000436170617C
:101F0000636974793A202564204D42004D6F756EE7
:101F100074696E6720766F6C756D652E2E2E0000CD
:101F2000BC0000204D6F756E74206661696C65643D
:101F30002E0000000D0A204C697374696E672064DE
:101F400069726563746F72793A202F002F00000068
:101F5000EC0200204469726563746F7279206C69C9
:101F60007374696E67206661696C656421000000A6
:101F70004469726563746F7279207265616420666A
:101F800061696C65642E00002020203C4449523E6B
:101F9000202020257300000025396C752020257332
:101FA0000000000057726974696E6720746F2066C4
:101FB000696C65204E4F524449432E5458542E2E7E
:101FC0002E0000004E4F524449432E5458540000F6
:101FD000556E61626C6520746F206F70656E206F46
:101FE00072206372656174652066696C653A204E83
:101FF0004F524449432E5458542E000053442063FA
:10200000617264206578616D706C65787878782E7F
:10201000000000005772697465206661696C656430
:102020000D0A2E0025642062797465732077726929
:102030007474656E2E0000002DE9FF410027904664
:102040000E460F6000F0E8F9050003D50B2004B040
:10205000BDE8F081884850F825409CB13460207874
:1020600008F0FE0620B16078FFF7BAFBC1070BD07D
:102070002770E8B2B8466070FFF7F6FAC10708D0DB
:102080000320E4E70C20E2E70EB1400704D400206F
:10209000DDE71EB1400701D50A20D8E7002631460A
:1020A0002046FFF787F8022822D100254FEA0D07C6
:1020B00004EB051090F8F21100F5F77019B1083033
:1020C00000F089FA00E0002047F825006D1C042D7F
:1020D000EED3002557F8256036B131462046FFF78C
:1020E00069F8022801D203E003206D1C042DF1D30E
:1020F000042809D002286DD204F13B0000F076FAE2
:10210000B0F5007F66D101E00120A0E704F14600B0
:1021100000F06CFA18B904F1540000F05CFAA06108
:1021200094F84050A570012D01D0022D52D14543A5
:1021300094F83D006081E8B3411E08424AD104F1A1
:10214000410000F053FA2081000743D104F143001D
:1021500000F04CFA070004D104F1500000F03BFA03
:10216000074604F13E0000F041FA010032D0238915
:10217000481900EB131297422CD3B81A6789B0FBA9
:10218000F7F0B8B103274FF6F57C604500D8022779
:1021900040F6F57C604500D80127801C3244A262DD
:1021A00031446061C4E90761032F15D013B129449C
:1021B000616200E00EE0022F1FD000F0010100EB91
:1021C000400001EB500000BFA16900F2FF10B1EB2D
:1021D000502F14D20D203AE704F15A0000F006FA0D
:1021E0000028F7D120890028F4D104F15C0000F028
:1021F000F2F9606260698000E6E74000E4E74FF0D2
:10220000FF302061E06080202071032F2CD104F189
:10221000600000F0EBF9012826D1711C204600F087
:10222000D5FA08BB84F8048004F22E2000F0DEF911
:10223000A0F52A41553917D104F1300000F0CBF94F
:102240000E49884210D104F5057000F0C4F90C491C
:10225000884209D104F5067000F0BDF9206104F54B
:10226000077000F0B8F9E06003492770091F08887B
:10227000401C0880E0800AE71800002052526141AB
:102280007272416173B504460568019801E0401C13
:10229000019001782F29FAD05C29F8D00021A160A3
:1022A00001980078202806D2802084F82B00204650
:1022B000FFF799F97CBD01A92046FFF711F8002826
:1022C000F8D12046FFF780F894F82B1028B10428A5
:1022D000F0D14907EED405207CBD4907FCD4A07994
:1022E000C006F8D5208AC0F30800411928463031CD
:1022F00000F05EF9A060DEE72DE9F04104680D46CC
:1023000002290BD36069A84208D920784FF0FF3624
:10231000012807D002282BD0032839D001263046C7
:10232000BDE8F081206A05EB550700EB57212046F8
:1023300000F04CFA0028F2D1C7F3080020447F1CBB
:1023400090F83080206A00EB5721204600F03EFADA
:102350000028E4D1C7F30800204490F8301048EA80
:102360000120E90701D00609D9E7C0F30B06D6E73B
:10237000206A00EB1521204600F028FA0028CED173
:10238000E8B204EB4000303000F030F90646C6E712
:10239000206A00EBD511204600F018FA0028BED1C3
:1023A00040F2FF1000EA85002044303000F013F9BD
:1023B00020F07046B3E72DE9F041002305464B724B
:1023C00080690C46002825D000210A462E26E8699F
:1023D000805C521C20280AD0052800D1E520092A5B
:1023E00002D16718491C7E726718491C78720B2A43
:1023F000EDD360184372E869C07A2072E8691C3036
:1024000000F0E9F82060E869163000F0E4F8E080B8
:10241000000CA080BDE8F08110B504464FF0FF30FD
:102420002268002A13D0114600E0491C0B78212BAA
:102430000ED33A2BF9D112F8013B303B0A2B06D2CE
:102440008A4204D1002B02D1491C1846216010BDDC
:10245000002010BD2DE9FC5F0E008346DDE90C472E
:10246000C6F1000098469246814600D408460125F0
:1024700003E000BF90FBFAF06D1C5045FADAA84566
:1024800000D9454624B1002E01DB780700D5641E33
:10249000B80702D5B8F1000F0AD0F80708D13CB14F
:1024A000A54205D220215846641EFEF769FEF6E7D4
:1024B000002E02DA4E462D2102E0780703D52B21AB
:1024C0005846FEF75DFE07F0030002280BD1B8F175
:1024D000000F08D13CB1A54205D230215846641EF8
:1024E000FEF74EFEF6E7CDE9004743465246314639
:1024F000584602F0CFFDBDE8FC9F000070B50D46C8
:10250000044600684FF4887101F012F84FF490719E
:10251000206801F00DF84FF49271206801F008F87E
:102520004FF4A271206801F003F820681249C0F846
:1025300004132068690740F30730090E002806DA03
:1025400000F00F0000F1E02080F8141D03E000F11E
:10255000E02080F800142068012140F3073000F0EB
:102560001F0291404009800000F1E020C0F8801275
:10257000C0F8001170BD00001003020002460020E8
:102580001268530713D502F00300012802D0022875
:102590000CD105E0C2F383100B68801C184404E0E2
:1025A0000223086803EB9252104408600120704730
:1025B00070B506460D4601F11A0000F017F8044602
:1025C0003078032805D105F1140000F00FF844EA33
:1025D0000044204670BDC178827842EA01214278E9
:1025E000007842EA012140EA0120704741780078F2
:1025F00040EA0120704700002DE9FF4100262348F2
:1026000000F000F92148001F074600F0FBF8204CBD
:1026100060680090A56800E000986946284004EBD7
:1026200080000C30FFF7AAFF0028F5D101AA00991D
:1026300001EA050304EB8303491CDB6842F8203000
:10264000401C00910228F2D3019800F003000128F9
:102650000BD0022810D10198032101EB9050009972
:10266000BDF80A6001EB900005E00198BDF80A6032
:10267000C0F3831008440090384600F0C0F808B159
:102680000098606004B03046BDE8F0816C0C00201A
:10269000540800200120FEF7F3FC0021084600F05A
:1026A000E3FD18B109A2BE21FDF7B4FD00F032FC34
:1026B0000A480B49401AC008032101EB004009A158
:1026C00000F05AFDFFF75AFB20BFFDE72E2E5C2ECF
:1026D0002E5C2E2E5C6D61696E2E6300CC5900005D
:1026E000AC5900004641544653206578616D706CCA
:1026F0006520737461727465642E0000002A05D031
:1027000011F8013B00F8013B521EF9D1704700005F
:102710005FFA81F100F8011B521EFBD170472DE9D1
:10272000F047C5881E1DB6FBF5F78946B6FBF5F1E7
:10273000044605FB176C407916686843DDF820A055
:10274000F718001F874200D9C61A166001E02468F6
:10275000491E0029FBD1A5EB0C078846B74216D8C5
:1027600018E004EB0C00001D09EB0803BAF1000FA0
:102770003A4602D00146184600E01946FDF7E0FD52
:102780002468F61B4FF0000CB844B54201D9374617
:1027900000E02F46002EE4D1BDE8F08730B50246B8
:1027A00051B100F07FFD0021074C08E034F82130E2
:1027B0001568AB4202D11160002030BD491C814236
:1027C000F4D3052030BD00000000000070B50446C1
:1027D000C06A0D460026A8420FD0204602F0A4FA97
:1027E00006000AD1607801232A4604F13001FEF781
:1027F000B9FF08B1751E0126E562304670BD0021A3
:1028000000F009B8012100F010B808B56A46FDF7DC
:1028100042FD009808BD08B56A46FDF722FD08BDD7
:1028200008B56A46FDF704FD08BD08B56A46FDF720
:102830000BFD009808BD08B56A46FDF739FD009804
:1028400008BD70B5044600252846FEF773FA2168D6
:102850006268086890420ED9401E08600178238A99
:10286000E26801FB0325227A2168101AC0B20A79B6
:10287000824200D208710020FEF75EFA284670BD41
:1028800070B505460C460020FEF754FAE868298A20
:10289000201AB0FBF1F12A681068431C1360017024
:1028A000BDE870400020FEF747BA10B530B1017A9C
:1028B00042680368891AC9B21A6006E00E2010BD8A
:1028C00003681A68541C1C601170491EC9B2F7D203
:1028D000006800210171084610BD03681B69184794
:1028E0002DE9FF411C460378164D174E45F823206D
:1028F0000C3545F82340F0CE8DE8F0000C788DF8CB
:1029000000404C788DF801408C788DF80240CC78EE
:102910008DF803400C798DF805404C798DF8064010
:102920008C6802940C7B8DF80C40497B8DF80D105F
:1029300002B1064A6946001D00F032FE04B0BDE84F
:10294000F081000074050020A0510000E14A000061
:102950001FB5001D069C8DE81E000022694600F090
:102960001FFF04B010BD0000F0B5054604781548FF
:1029700089B0164640F82420124A0869121DA2F1B7
:10298000080742F82400487F385520226846FDF7A2
:10299000D7FC04942878385C48B10EB10A4A00E0AC
:1029A00000226946281D01F063F809B0F0BD0EB1A0
:1029B000064A00E00022694605F10C0000F02AFFFB
:1029C000F3E7000020000020714F0000B54D00002B
:1029D0000FB408B50399002904D004AA00926A46EE
:1029E00000F00FF801B05DF814FB10B582680446E2
:1029F000002A05D0D4E90403216898470020A0608C
:102A000010BD2DE9FC4791460C00804676D014F8A5
:102A1000011B39B125290ED04046FEF7B1FB2078C5
:102A20000028F4D198F80C00002867D04046BDE893
:102A3000FC47FFF7DABF0020012221782B291BD0A9
:102A40002D2902D0302908D102E040F0010001E038
:102A500040F00200641C002AEFD100252A290ED084
:102A60002178A1F130020A2A11D205EB850201EB8F
:102A70004205641C303DF1E740F00400EAE7D9F874
:102A800000100B1DC9F800300968641C0D44217842
:102A900000232E290BD114F8011FA1F130020A2ABC
:102AA00005D203EB830201EB4203303BF3E76C29D1
:102AB0000DD068290BD0692921D00BDC252918D02D
:102AC000582931D063290ED0642915D117E014F8A4
:102AD000011FECE7702969D0732932D075291BD00A
:102AE000782909D120E0D9F80000011DC9F80010AB
:102AF00001784046FEF744FB641C90E76CE0D9F88F
:102B000000100A1DC9F800200968CDE900500A220A
:102B10004046FFF79FFCEFE7D9F800100A1DC9F8FF
:102B2000002009680A2206E0D9F800100A1DC9F839
:102B3000002009681022CDE90050404602F0AAFAB0
:102B4000DAE7D9F8001000270A1DC9F800200E683E
:102B5000C00705D112E04046761C7F1CFEF710FB33
:102B600031780029F7D104E0202140466D1EFEF7A0
:102B700007FBBD42C0D9002DF6D1BDE74EB13046AE
:102B8000FDF702FC074604E0202140466D1EFEF7DB
:102B9000F7FABD4206D9002DF6D103E04046761C77
:102BA000FEF7EEFA31780029F8D1A5E7D9F8000050
:102BB000011DC9F80010056830214046FEF7E0FA13
:102BC00078214046FEF7DCFA08200021CDE900011B
:102BD000034610222946B0E7BDE8FC8770B541EAFC
:102BE0004201DDE904564FF0A04441EA830141EA85
:102BF000052104EB800041EA0641C0F8001770BDD2
:102C000070B541EA4201DDE904564FF0A04441EAC3
:102C1000830141EA052104EB800041EA0641C0F846
:102C2000001770BD70B541EA4201DDE904564FF06E
:102C3000A04441EA830141EA052104EB800041EA16
:102C40000641C0F8001770BD70B541EA4201DDE9E8
:102C500004564FF0A04441EA830141EA052104EB08
:102C6000800041EA0641C0F8001770BD70B541EA26
:102C70004201DDE904564FF0A04441EA830141EAF4
:102C8000052104EB800041EA0641C0F8001770BD41
:102C90001CB5002100910B4601220191FFF7C2FFF4
:102CA0001CBD1CB5002100910B4601220191FFF7CC
:102CB000CBFF1CBD1CB500220B46009211460192B1
:102CC000FFF7B0FF1CBD1CB500220B460092114659
:102CD0000192FFF7B9FF1CBD1CB5002100910B4606
:102CE000012201911146FFF78BFF1CBD1CB500218D
:102CF00000910B46012201911146FFF793FF1CBD85
:102D00001CB5002100910B46012201911146FFF7ED
:102D10009BFF1CBD4FF0A04201218140C2F80C1561
:102D200070474FF0A04201218140C2F8081570475A
:102D30004FF0A04201218140C2F8081570470122DE
:102D40004FF0A043824011B1C3F808257047C3F883
:102D50000C25704730B5154A01460020D2F81044C2
:102D600023460AE0DB681D79854205D1401C0A280C
:102D7000F6DB4FF0FF3030BD1B68002BF2D1431C57
:102D8000F9D0CB681871D2F8103443B1DB68CC6845
:102D90001B682360D2F81024D268116030BDC2F8DD
:102DA0001014C96800220A6030BD000054080020D9
:102DB0007047FDF70BBB704708B5034A00924023EC
:102DC000024A00F005F808BD294800007C060020F2
:102DD000F0B595B01C4615460F4608461A9E00F001
:102DE00033FB182109A8FDF7C4FA0E96CDE9095462
:102DF0000023082203A9384600F03BFB0598069003
:102E0000BDF81000ADF81C00BDF81200ADF81E00B2
:102E100000208DF821000398082600F00300012807
:102E200002D0022818D032E003983346850AC0F356
:102E3000C2008DF8200003980FA9C0F38314A200EC
:102E4000384600F016FB09A8009006AB22460FA9F1
:102E5000284600F055FA1AE00398840DC0F3C2002A
:102E60008DF82000082C01D2254600E008253346C5
:102E70002A460FA9384600F0FCFA2E44641B09AB21
:102E800006AA29460FA800F099F9002CEAD1384685
:102E900000F0E0FA15B0F0BD7047002001F0A8BFC7
:102EA000084810B50178084A515C19B1001D00F0BE
:102EB0006BFE02E00C3000F079FDBDE81040002010
:102EC00001F096BF440000201C00002008B5034A12
:102ED00000924023024AFFF77BFF08BD79480000BB
:102EE000BC0600200A4A012902EBC00007D00229D3
:102EF00007D0032907D0042907D0002070470220FB
:102F0000704704207047007970474079704700008F
:102F1000AC59000010B5FFF74CFF04210948FFF73A
:102F200019FF08480124C0684471FFF7B6FF05483F
:102F300004211030FFF70EFF02481030C0684471C2
:102F400010BD00008C5900002DE9F0478CB0FEF751
:102F500027F918B100200CB0BDE8F0877D4C0020A7
:102F6000C4F81804BFF34F8F60680290A5684FF053
:102F70000008284004EB80000CE000BFD4F81804DF
:102F800070B921680298814201D86160E2E7284067
:102F900004EB80000C3002A9FFF7F0FA0028EDD115
:102FA000002003AA029901EA050304EB8303491CEC
:102FB000DB6842F82030401C02910228F2D30398CB
:102FC00000F00300022802D001284DD0A7E00398AA
:102FD0005022810D8946B2EB905F00D850210E46F9
:102FE00066F39F50039008315B4800F0E4F9070056
:102FF00078D000F029FA4346082203A9384600F0A9
:1030000040FA029908F1080A2940681A8000001D58
:10301000864222D94F4D0C3530B1C2B204EB81014A
:10302000301A90460C3104E02946F2B20025904651
:103030002846C6B25346384600F023FA0AEB080386
:1030400025B132462946384600F01BFA029909F1AB
:10305000030001EB900002903BE004EB810153463A
:10306000324638460C31EFE70398C0F38310062848
:1030700000D30620039960F38911C1F38310801CEB
:1030800003918100344800F096F9070047D000F022
:10309000DBF94346082203A9384600F0F2F908F1AB
:1030A000080800260FE00298434600EA0501401C8C
:1030B00004EB81010290042238460C3100F0E1F962
:1030C00008F10408761C0398C0F38310B042EAD8D4
:1030D00047B1D4F81054D4F8180478B1384600F049
:1030E000B9F931E01BE0E8684079012804D12A6889
:1030F0002846394612689047E8680568002DF2D1E5
:10310000384600F0A7F90020FDF714FED4F81804A3
:1031100008B9029860600020FDF70EFE14E0D4F8B4
:10312000104405E02168204689688847E068046803
:10313000002CF7D109480A49401AC008022101EBC6
:10314000004008A100F018F8FEF72AF880F001000E
:1031500001E7000054080020D4590000CC590000B9
:10316000AC5900004261636B656E647320666C75D8
:10317000736865640000000000231A4601F04ABD30
:1031800008B5012300926A4601F044FD08BD1CB554
:10319000CDE9002302236A4601F03CFD1CBD70B559
:1031A00086B00DF1280C9CE870008DE87C000523AA
:1031B0006A4601F02FFD06B070BD00002DE9F04712
:1031C0000E4680461C46924608293ED894F80C903C
:1031D000002020731946104600F04CFD0025B54232
:1031E00006D218F805201AA12046FFF7F1FB03E0EC
:1031F00019A12046FFF7ECFB6D1C082DEFD317A19A
:103200002046FFF7E5FB0025B54210D218F80570FF
:10321000FDF792F80068C05D10F03E0F01D03A460D
:1032200000E02E220EA12046FFF7D2FB03E00DA105
:103230002046FFF7CDFB6D1C082DE5D3012221466A
:10324000504600F0F9FC84F80C90BDE8F0870000CF
:103250002025303278000000202020007C00000073
:1032600025630000200000000B4810B5FF2181609D
:10327000002101604160C0F81814C0F81414012145
:1032800080F82014054800F0E3F8002803D1044832
:1032900000F0FFF8002010BD54080020D4590000B1
:1032A000C453000002480349401AC0087047000098
:1032B000D4590000AC59000013B56846FFF76EFA08
:1032C00008B100201CBD0248009950F831001CBD17
:1032D000AC59000070B509480125D0F8104480F8B9
:1032E000205407E0E0684571216820464968884716
:1032F000E0680468002CF5D170BD0000540800207F
:103300002DE9FF4781460C9D00200C462F7B28733A
:10331000984616462946184600F0ACFC072E42D2C5
:10332000DFE806F004090F161F2A36004946284632
:10333000FFF74EFB37E0494628462268FFF748FB77
:1033400031E0D4E9002349462846FFF741FB2AE053
:10335000A0680090D4E9002349462846FFF738FBCF
:1033600021E0D4E90201CDE90001D4E90023494676
:103370002846FFF72DFB16E004F1080007C88DE88A
:103380000700D4E9002349462846FFF721FB0AE05D
:1033900004F108000FC88DE80F00D4E90023494666
:1033A0002846FFF715FB00222946404600F044FC62
:1033B0002F73BDE8FF872DE9F041058A80462D1F58
:1033C0004819C01CB0FBF5F0C6B24046FFF739FA09
:1033D000041E19D00020207101206071E5800027B3
:1033E0002546761EC4F800800BE04046FFF729FA18
:1033F00060B16179491C6171286005467F1CC0F885
:103400000080B742F1D32046BDE8F081204600F0AD
:1034100002F80020F8E72DE9F041457901466B1EDE
:10342000002201E00968521C9A42FBD30F68014652
:10343000002605E038460C68FFF722FA2146761C84
:10344000AE42F7D3BDE8F0810121001DFFF7DDB9E1
:10345000FFF72BBA10B504460121001DFFF7EBF969
:1034600010F0FF0F04D12046BDE81040FFF7D3BF96
:1034700010BD1CB501920122009201AAFFF74FF97D
:103480001CBD1CB501920022009201AAFFF747F96A
:103490001CBD82680021916082681161826851615F
:1034A0008268D160826851608068016070474058CE
:1034B000002800D0012070470C4A10B502F58C732B
:1034C0000EE0991AC91001EBD171491002EBC1014C
:1034D0000C68844201D90B4602E005D201F10802D2
:1034E0009A42EED3002010BD486810BD6052000023
:1034F00000B5FFF7E1FF002800D1014800BD000042
:103500004C5200004058002800D00120704708B5F8
:10351000002242504058009008BDD0F804030840F3
:1035200000D0012070474058002800D0012070478B
:1035300008B5002242504058009008BD0121B1EB6F
:10354000507F01D101207047002070470121B1EB6D
:10355000507F01D1012070470020704770B50D46A3
:1035600000F0D4FB04000FD00020FDF7E3FB20792E
:1035700020B10020FDF7E0FB112070BD0120256087
:1035800020710020FDF7D8FB002070BD10B500F0C1
:10359000BDFB002802D000210160017110BD0000B8
:1035A0002DE9FC470C46154601798046584A01EB47
:1035B000C10002EB80069946307F10B10820BDE8BB
:1035C000FC87544AD8F80000074652F82110FFF74C
:1035D000C5FF08B11120F2E7C6E90059207B012898
:1035E000207802D8FFF796FB01E0FFF79AFB4FF037
:1035F000000ACDF800A0CDF804A02078534652462A
:103600000121FFF7FDFA60784FF0FF35FF2806D063
:103610008146FFF77FFB4846FFF75EFB00E0A946C7
:10362000A078FF2809D0002205465346CDF800A017
:103630001146CDF804A0FFF7E3FAA07886F8200041
:10364000E078F077E078FF280BD0217911B1FFF70F
:1036500061FB01E0FFF765FBE078FFF73DFB2079B8
:10366000B0772178C7F80815C7F80C95C7F810553A
:10367000A068C7F82405217B607B00B101200129E7
:1036800004D0022905D0032908D105E040F002004A
:1036900004E040F0040001E040F00600C7F85405E3
:1036A000A079C7F8C005306810B14020C7F80403FE
:1036B0000720C7F800053068012118B3D8F80000CA
:1036C000627940F3073000284FEA421206DA00F030
:1036D0000F0000F1E02080F8142D03E000F1E0205D
:1036E00080F80024D8F8000040F3073000F01F03F2
:1036F00001FA03F24009800000F1E020C0F88022C6
:10370000C0F80021504686F81DA0317757E7000029
:103710008C050020B05100002DE9FC4107460079DE
:103720001D4900EBC00001EB80040121206860B15D
:10373000386840F3073000F01F0201FA02F2400936
:10374000800000F1E020C0F880213D68206800265C
:1037500070B11248C5F80803607F48B169614FF441
:10376000827841462846FFF7A2FE0028F9D0667706
:1037700094F82000FF2806D0002300960122194665
:103780000196FFF73DFAC5F800653868FFF7FEFEC1
:103790002677BDE8FC8100008C050020520108005E
:1037A0002DE9F04105460F460079154900EBC000B0
:1037B00001EB80041646607F10B11120BDE8F08156
:1037C000206820B116F0140F01D10120607797E82E
:1037D0000F0004F10C0888E80F00E07FFF2806D0F6
:1037E000A17F11B1FFF79DFA01E0FFF793FA33468D
:1037F0003A4621462868BDE8F04101F08DB9000045
:103800008C0500200149024801F01EBBB0050020D4
:10381000002000402DE9F0410546007916460F468C
:1038200000EB40012D4A01EBC00102EB810494F84A
:103830002A1011B10820BDE8F081294951F8201063
:103840002868FFF78BFE08B11120F4E739462846B7
:10385000FDF786FA66603869206030004FF0010697
:103860002FD03F7F4FF48E712868FFF750FE4FF442
:10387000A2712868FFF74BFE28681A49C0F80413A4
:1038800028684FEA471140F30730002806DA00F0B5
:103890000F0000F1E02080F8141D03E000F1E020AB
:1038A00080F80014286840F3073000F01F0206FA81
:1038B00002F14009800000F1E020C0F88012C0F859
:1038C000001128680421C0F800150020A061E06103
:1038D00084F8290044F8140FA675ACE7B005002061
:1038E000B4510000800002002DE9F0470546007940
:1038F0000B4600EB400101EBC000234901EB8004C3
:10390000284600F043F810B11120BDE8F0874FF0D1
:103910000008C4F82080A360626184F828804FF416
:103920008E76474631462868FFF7F1FD28684FF04C
:103930000109C0F808902146286801F01EFA606865
:1039400000BBD5F800A00EE094F8280008B10F27BE
:1039500016E031465046FFF7D5FD0028F4D0214649
:10396000504601F00AFA216A60698142F1D331467A
:103970002868FFF7C7FD0028F9D02868C0F80C9028
:10398000C4F814803846C0E7B0050020007900EB89
:10399000400101EBC000044901EB800040690028B0
:1039A00000D0012070470000B00500202DE9F0474D
:1039B000044600794FF0000900EB400101EBC00024
:1039C000254901EB80072068C0F80095786880B130
:1039D00020682249C0F808132068012140F307300D
:1039E00000F01F0291404009800000F1E020C0F883
:1039F00080112068D0F80C25D0F81485D0F808651F
:103A0000D0F810554FF0FF31C0F81415C0F80C1560
:103A10002068C0F80815C0F81015501C02D01046D8
:103A2000FFF736F9B8F1FF3F02D04046FFF730F913
:103A3000681C02D02846FFF72BF9701C02D03046D4
:103A4000FFF726F92068FFF7A1FD87F82A90C7F84D
:103A50000490BDE8F0870000B00500208402020059
:103A60000149024801F09CBADC050020002000401A
:103A70002DE9F0410546164600790F46154A00EB40
:103A8000C00102EB810494F8201011B10820BDE8B8
:103A9000F081114951F820102868FFF75FFD08B147
:103AA0001120F4E739462846FDF79EF9666038692B
:103AB00020601EB1397F2846FEF720FD28680821C6
:103AC000C0F800150020A061E0610121606184F868
:103AD0002010DCE7DC050020B85100002DE9F0479C
:103AE00004460E460079204900EBC00001EB80053A
:103AF00017463046FFF72AFD30B1204600F036F871
:103B000020B11120BDE8F0871020FBE76F61AE60A7
:103B10004FF49076002731462068FFF709FD4FF4F7
:103B2000AC7841462068FFF703FD2068AA68696900
:103B3000C0F84425C0F848152068012181606868F4
:103B400078B9B14649462068FFF7EDFC0646414684
:103B50002068FFF7E8FC0643F4D000B10F270020EF
:103B600068613846CEE70000DC0500200079054991
:103B700000EBC00001EB80004069002800D001206C
:103B800070470000DC0500202DE9F047044600796D
:103B9000274900EBC00001EB800720684FF00009C7
:103BA000C0F80095786880B120682249C0F80813F1
:103BB0002068012140F3073000F01F0291404009C6
:103BC000800000F1E020C0F880112068D0F80C25BA
:103BD000D0F81485D0F80865D0F810554FF0FF31B3
:103BE000C0F80C15C0F814152068C0F80815C0F806
:103BF0001015501C02D01046FFF753F8B8F1FF3FE4
:103C000002D04046FFF74DF8681C02D02846FFF767
:103C100048F8701C02D03046FFF743F82068FFF7E1
:103C2000B5FC87F82090C7F80490BDE8F087000045
:103C3000DC0500201003020010B50C46017A0529AE
:103C400008D0407A38B1084808A102682046FEF73B
:103C5000BFFE00E01AB106A12046FEF7B9FE2046DD
:103C6000BDE81040FEF7C1BE94000020257300009F
:103C70000D0A000038B5C3880D46044633B114A0C0
:103C8000009015A216A12846FEF7A2FE217A05296A
:103C90001CD0607A48B1A088FFF724F9164951F882
:103CA000202016A12846FEF793FEA0880021FFF7EA
:103CB00003FB03461049207A143951F8202001B043
:103CC0002846BDE830400EA1FEF782BE38BD000098
:103CD0001B5B306D000000001B5B313B33316D001E
:103CE00025734C6F67732064726F70706564202851
:103CF00025642925730D0A00940000202573000017
:103D00003C25733E2025733A200000000349884279
:103D100001D1034870470020704700000020004098
:103D2000280000202DE9F047022617460D460446DC
:103D3000022969D36069A84266D920784FF0010949
:103D4000012804D0022836D003285DD143E0216A3F
:103D500005EB550801EB58212046FEF737FD06001C
:103D600052D1C8F308002044303008F10108E907B7
:103D700004D00178FAB262F31F1100E039460170F5
:103D800084F80390216A204601EB5821FEF71EFDBE
:103D9000060039D1C8F3080020443030E90702D0CA
:103DA000C7F3071105E00178C7F3032201F0F00122
:103DB0001143017026E0206A00EB15212046FEF732
:103DC00005FD060020D1E8B204EB4000B9B2303066
:103DD00000F01CFF16E0206A00EBD5112046FEF72C
:103DE000F5FC060010D140F2FF1000EA85002044E7
:103DF00030300546FEF7EFFB67F31B00014628460F
:103E000000F0FCFE84F803903046BDE8F0872DE911
:103E1000F041056813460E46074602292DD368690E
:103E2000B0422AD93BB14FF0FF3219462846FFF77E
:103E300079FF00281FD131463846FEF75DFA0400AD
:103E400018D0012C19D0601C19D000223146284608
:103E5000FFF768FF00280ED1D5E90410821E9142B9
:103E600005D2491C2961297941F0010129712646B1
:103E7000B042E0D80020BDE8F0810220FBE701203D
:103E8000F9E770B5054688690C4600284FF484713F
:103E900028460AD0FFF73BFBD5F81805626AE168AF
:103EA0008854606A401C606270BDFFF730FBD5F833
:103EB000180570BD1FB501238DF80030CDE9012133
:103EC000D0E90012684690471FBD1FB501238DF849
:103ED00000308DF808100192D0E900126846904732
:103EE0001FBD00002DE9F0412B4B93F8234014B186
:103EF0001120BDE8F0810125002783F82350040636
:103F000012D5022483F82340772483F82840002424
:103F100083F8294083F82A4083F82B40062783F84A
:103F20002C40FF2483F82D40DC1900F07F0684F834
:103F300028600E0E84F829600E0C84F82A600E0AA0
:103F400084F82B6084F82C10402810D0482810D01A
:103F50005FF0FF0184F82D100521022A0BD0032AFF
:103F600009D083F82450000608D5012008E09521E7
:103F7000F0E78721EEE783F82410F4E793F82400B4
:103F8000054A0E30C3B238320621A2F1100000F00B
:103F90000DFC0020ADE7000020060020FEB5224EFB
:103FA00005464078307077682978BC6961B11F4850
:103FB00001291FD0022932D003B08121BDE8F04091
:103FC0001B4A0320FCF726B9FCF7FCFD00682060C3
:103FD0004FF40070606070688069806800281DD0B0
:103FE0000020009001900290687800B101208DF8C7
:103FF00001000DE0A168002910D007C88DE8070076
:10400000687800B101208DF8010004F10C000190E6
:10401000A0690290A268694638469047FEBDA16833
:104020000029FBD00C30E8E734000020F4510000F8
:104030006C5400002DE9F84FB14C1746D0F8012020
:10404000264612BA037922F0FF02B6F820C042EAEF
:10405000030E8A46A38B06F1480596F80AB001784C
:104060004FF40E7804220CF1010C00261FFA8CF993
:10407000434577D022DC40F21325A3F2132CAB4248
:1040800042D010DC4FF4047783B3BB422AD1012223
:1040900000214020FFF726FF18B19AA2B91CFCF7B7
:1040A000B9F8A5837AE09648BCF1060F807A20F033
:1040B00007003CD0BCF1130F14D157E040F2612C43
:1040C000A3F26128634570D006DCA3F500734D3B75
:1040D0006CD0062B06D198E0B8F10A0F67D0B8F182
:1040E0000F0F7CD0A6830320BDE8F88FFFE70122E5
:1040F00000214020FFF7F6FE20B182A240F20F21FE
:10410000FCF788F8A78349E0880801D03A70D0E02E
:1041100003224FF4D5714820FFF7E4FE20B179A2C5
:104120004FF40671FCF776F840F2192018E04B07BF
:1041300003D4C01CA0728808E8D12684A07A00F0BD
:10414000070003280FD000210222E920FFF7CAFE52
:1041500020B16CA240F22521FCF75CF840F2262049
:10416000A0831BE01CE04FF08041EDE74B073AD500
:10417000401CA072A4F82090B9F5FA6F01D9022072
:1041800088E0022200214120FFF7ACFE20B15DA2B1
:1041900040F23721FCF73EF8A4F81C800120A3E789
:1041A0008808B3D1C807E5D137E049E01BE05AE001
:1041B000A4F82090B9F5FA6FE1D80BF007000328B6
:1041C0000ED000210222E920FFF78CFE20B14DA283
:1041D0004FF41371FCF71EF840F24D20C0E74DE09C
:1041E0004FF08041EEE7880890D1C807E0D1022265
:1041F00000217A20FFF776FE20B142A240F2522140
:10420000FCF708F840F25320AAE7880894D15FEA47
:104210004E0002D54BF00800A072A07A00F0070013
:1042200003280FD0012251025020FFF75BFE20B17E
:1042300034A24FF41871FBF7EDFF40F261208FE7D5
:104240008808AED10120E560A08202460021492005
:10425000FFF748FE20B12BA240F26A21FBF7DAFFFC
:1042600040F26B207CE789089BD1AAF1010101F0A3
:10427000FF0AE6834FF41C71A183401C6B46102299
:10428000514600F0BDF8022801D200202CE79DF82D
:10429000000008B138700CE0287880090CD00128A3
:1042A00023D0022808D0304660604FF4007020818F
:1042B0003E70A683022017E7287AE979800900EB8F
:1042C0008100A979AA7A01F0030100EB81206B7AC1
:1042D0006979D20903F0030301F00F0102EB4302F5
:1042E0001144401CC91F8840DEE7287A0102E879A2
:1042F00001EB0040697A0844800200F58060D3E752
:10430000200600202E2E5C2E2E5C2E2E5C2E2E5C87
:104310002E2E5C2E2E5C636F6D706F6E656E7473E7
:104320005C6C69627261726965735C73646361720B
:10433000645C6170705F7364636172642E6300001B
:10434000F8B51F4C16464FF42673A28B002542B1D8
:104350009A4210D0A2F50072A23A2DD0A583032074
:10436000F8BD0278920801D0042010E0491EE583D0
:10437000C9B2A383401C6B464FF4007200F040F8B2
:10438000022801D20020F8BD9DF8000008B130706D
:1043900013E0A08A01280FD9012200214C20FFF749
:1043A000A1FD20B107A240F2A121FBF733FF40F2AB
:1043B000A220A0830120F8BD3570A5830220F8BD9E
:1043C000200600202E2E5C2E2E5C2E2E5C2E2E5CC7
:1043D0002E2E5C2E2E5C636F6D706F6E656E747327
:1043E0005C6C69627261726965735C73646361724B
:1043F000645C6170705F7364636172642E6300005B
:104400002DE9F05F554C9A461646E38B254605F19B
:10441000380240F2D91B2835A3F2D91C4FF000090D
:104420005B4560D005DC7BB1A3F58073C73B06D14B
:1044300055E0BCF1070F7AD0BCF1130F76D0A4F889
:104440001E900320BDE8F09FA38AE38270E000BFC6
:10445000A4F8209084F82870A4F81890032384F816
:104460002330238C44F620675B1C9BB22384BB4221
:1044700004D902210AE0491EC9B2401C59B103788F
:10448000FF2BF8D0DBB2FE2B0FD005218AF80010ED
:10449000A4F81E9060E010230121284600F086F960
:1044A00040F2C710E0830120CCE7491E0423C9B2C3
:1044B000401C84F82330B14201D9374600E00F4652
:1044C000002306E0D4F80C8010F803C008F803C0FD
:1044D0005B1CBB42F6D32783E3683B44E36094F85C
:1044E0002330032BBDD0208BB04213D2301A86B2BA
:1044F000F02E00D9F026F3B201212846E26800F040
:1045000055F9E0683044E060208B30442083A4F803
:104510001EB0C8E7E08A0223401EE082012128463F
:1045200000F044F94FF4F070BCE700E00EE0002129
:10453000E38AFF27002B8BD184F828700223012106
:10454000284600F033F94FF4F670ABE784F8239077
:104550008AF80090A4F81E90022073E7200600203D
:104560002DE9F05F814C164623460746B4F81C80BF
:1045700003F1380203F1280093F823909D8A002369
:104580004FF0040A4FF0020E4FF0030C44F6206B7C
:10459000B8F53B7F78D00EDCB8F1000F1AD0A8F543
:1045A0000078B8F1C30831D0B8F1100F59D0B8F184
:1045B000210F0BD155E0A8F50078B8F5857870D0BB
:1045C000B8F1160F6ED0B8F1260F6CD0A38303207C
:1045D000BDE8F09F3978890803D000BF86F800A0B5
:1045E000AFE0A17A01F00701012912D0012D10D905
:1045F000012259202169FFF775FC20B15CA240F22D
:10460000C221FBF707FE40F2C32016E03978890883
:10461000E4D1E58270E0238384F823A084F8281095
:10462000012D01D9FC2100E0FE2184F8291002238C
:10463000194600F0BBF840F2D320A0836FE000BF22
:10464000C3F5007085B2F02D00D9F025C818E9B285
:10465000012300F0ABF8208B284420834FF43970FD
:10466000EBE74249238BC968B3F5007FE8D301F536
:104670000071E16084F823C00323012100F096F863
:104680004FF43B70D9E7FFE794F83A1001F01F01AF
:10469000052909D00B2901D00D299FD105203070A3
:1046A0004FE013E03DE04FE023841FE0218C491CE4
:1046B00089B22184594502D986F800E041E01023EF
:1046C000012100F073F840F20A30B6E74FF0000C19
:1046D0000AE000BF17F80C80B8F1000F02D084F890
:1046E000233006E00CF1010C8C45F3D3B9F1030F34
:1046F000DCD0E18A491EE182E78AFF21002F8AD1BE
:10470000012D31D984F82810FD2184F829100323C4
:1047100002211C3400F04AF84FF448702080012038
:1047200056E7238484F823C0218C491C89B2218454
:104730005945C1D81023012100F038F84FF44C70CE
:104740007BE7A383022043E7002508E017F805C0B4
:10475000BCF1000F02D084F8233005E06D1C8D42BF
:10476000F4D3B9F1030FDFD03370EAE7200600205D
:104770002E2E5C2E2E5C2E2E5C2E2E5C2E2E5C2E73
:104780002E5C636F6D706F6E656E74735C6C6962C6
:104790007261726965735C7364636172645C617099
:1047A000705F7364636172642E630000F8B50C4639
:1047B0000C494FF0A04691F858500121A940C6F885
:1047C0000C1500931346014622460748FEF7C0F831
:1047D000002805D0BDE8F84004A2F021FBF71ABD7F
:1047E000F8BD000020060020BC5100002E2E5C2EDB
:1047F0002E5C2E2E5C2E2E5C2E2E5C2E2E5C636F7D
:104800006D706F6E656E74735C6C696272617269F3
:1048100065735C7364636172645C6170705F736420
:10482000636172642E6300002DE9F0411400884634
:1048300018D000250E4F032608EB05012246002064
:10484000FBF7C6FD0544241A40B93878002809D082
:1048500008494FF47A408847761E05D00120387009
:10486000002CE9D1BDE8F08100203870FAE70000A3
:104870003C0000209153000070B50E4C0020D2B2D5
:104880002070201D0C4D0378EB5C1BB1001DFFF761
:1048900025F902E00C30FFF727F818B1074A532139
:1048A000FBF7B8FC6078002802D021780029FAD004
:1048B00070BD0000400000201C000020785800005F
:1048C0002DE9F04FDFF8D4810746057CC468B8F8BD
:1048D000160087B018B998F85800FEF729FA98F82A
:1048E000230000264FF0020B4FF003094FF0010A9E
:1048F000022801D0012852D17968AD1FA41D097882
:10490000EDB24C2903D15DB16D1EEDB2641C1DB139
:104910002278FF2AF8D005E04C2901D0002403E0DA
:104920000125641E002C31D198F8221001292DD0C8
:104930008DF801A098F82210504601290AD00229CA
:1049400008D0042913D0052914D055A24FF463715F
:10495000032009E08DF8006088F82290FCF7C6F982
:1049600050B14FA240F28331FBF754FC04E08DF8C4
:10497000000001E08DF800B098F85800FEF7D8F973
:1049800088F822906846D8F800106BE0022804D11D
:1049900088F823A02078400817D088F823600620E4
:1049A0008DF80C0098F8220001281AD002281CD09B
:1049B00004283ED0052857D039A24FF47671032041
:1049C000FBF728FC07B0BDE8F08F98F82400334AC5
:1049D0000E30C3B238320621A2F10A00FFF7E6FE1C
:1049E000F0E788F822B0A8F81C6003AA2946204600
:1049F000FFF720FB0228E5D38DF808609DF80C0036
:104A00008DF8090088F8229098F85800FEF790F980
:104A10009DF80C0038B1FCF769F920B120A240F2F2
:104A2000B731FBF7F7FB2D494FF08040C1F8240563
:104A300015E003AA29462046FFF782FC0228C1D3CD
:104A40008DF808A09DF80C008DF8090088F82290D8
:104A5000A8F81460A8F8166088F8236019E0D8F860
:104A6000001002A88847ADE703AA29462046FFF7B1
:104A700077FD0228A6D38DF808B09DF80C008DF8BC
:104A8000090088F8229088F82360A8F81460A8F834
:104A9000166098F85800FEF74BF9E0E72006002072
:104AA0002E2E5C2E2E5C2E2E5C2E2E5C2E2E5C2E40
:104AB0002E5C636F6D706F6E656E74735C6C696293
:104AC0007261726965735C7364636172645C617066
:104AD000705F7364636172642E6300000030004095
:104AE00000B585B00A4601788DF800104168019143
:104AF000017A8DF80810C1680391007C8DF81000D0
:104B0000044850F822100C3850F82220684690478C
:104B100005B000BD800500202DE9F843044610686B
:104B20001E4615460F464FF0000810B1FEF706FD71
:104B3000F8B1A86810B1FEF701FDD0B1D5E90001C8
:104B4000C4F84405C4F84815D5E90201C4F8340591
:104B5000C4F838154FF48C754046C4F81881D4F861
:104B600018110091F2074FF0010107D0C4F8501559
:104B700006E087F81D801020BDE8F883C4F85005D2
:104B8000B20702D5C4F8401501E0C4F8400530076B
:104B900000D42161386848B146F38000401C4FF0D2
:104BA000400014D0C4F804030020E5E7294620465D
:104BB000FEF77DFC0028F9D0F87FFF28F4D0B97FFC
:104BC00011B1FEF7A7F8EFE7FEF7ABF8ECE7C4F892
:104BD0000803E9E770B50C460646154691B204F1A4
:104BE0001A0000F013F83078032806D1290C04F1DC
:104BF0001400BDE8704000F009B870BD0170090AEA
:104C00004170090A8170090AC17070470170090A70
:104C1000417070472DE9F84F204D9246894606466F
:104C20009846012269461846AF68FCF765FA58B302
:104C3000009800210446801C09E000BF00EA070339
:104C40005AF8212005EB8303401C491CDA604145DA
:104C5000F4D34FEA164AFCF71DFE4AEA0041601CF5
:104C6000384005EB80003C4005EB8402C160D06811
:104C700066F3C50068F3891069F39F2020F00300F4
:104C8000401C20F00400D06095F8200402E000BF32
:104C9000FEF75AF90028FBD1BDE8F88F5408002030
:104CA00070B5044600F040F8050036D1207803289E
:104CB0002CD12079012829D1420204F130000021B1
:104CC0000646FDF725FD4AF6552104F22E20FFF792
:104CD0009DFF13493046FFF791FF124904F5057017
:104CE000FFF78CFF04F506702169FFF787FF04F5D5
:104CF0000770E168FFF782FFE2690123521CE2625C
:104D000060783146FCF77CFD00202071002260783D
:104D10001146FCF7E9FC00B10125284670BD0000F2
:104D200052526141727241612DE9F0410446C078EE
:104D30000027F8B1E56A04F13001607801232A46C2
:104D40008846FCF75DFD08B1012713E00020E07004
:104D5000206AA169281A88420CD2A67808E0A069C6
:104D60000123054460782A464146FCF749FD761E3A
:104D7000022EF4D23846BDE8F08170B50C460546E7
:104D80004FF48E71FEF7C3FB216AA068415C206A74
:104D9000401C2062C5F81C1570BD1FB500228DF89F
:104DA00000200291816801914261D0E900126846B9
:104DB00090471FBD1FB50A4601788DF80010416865
:104DC0000191017A8DF80810C0680390044850F8EA
:104DD0002210001F50F82220684690471FBD000097
:104DE0002400002001490120087070474000002085
:104DF00010B588B0044620220F496846FBF7A0FA98
:104E000006200090C01F0190029003904FF0EB70BD
:104E100006900CB1094A00E0002269460848FDF7F7
:104E2000A3FD18B1074A4321FBF7F4F90448001F1A
:104E3000447008B010BD0000A4530000E54D000010
:104E400044000020785800002DE9FF470C46054635
:104E50004FF40071FEF761FB01274FF40178002643
:104E600018B34FF4927949462846FEF74BFBE0B160
:104E700049462846FEF74BFBC5F8088394F82900FD
:104E800000B96F6002208DF80000D5F88004C5F8E5
:104E900080040390A0690290E0680190A661E66139
:104EA000D4E900126846904728E004212846FEF71E
:104EB00034FB18B34FF484712846FEF723FBE8B1A6
:104EC00021462846FEF7DDFF616AA069884215D1B8
:104ED000E06938B1E268616AA0612069E6616662F2
:104EE000E06008E094F8290000B96F60C5F8088315
:104EF000A661E268616A2046FEF7DCFF4FF48E7817
:104F000041462846FEF7FEFA78B1206A6169884278
:104F100002D294F8280020B341462846FEF7F7FA5B
:104F2000616911B12046FFF738FF4FF4A27841467E
:104F30002846FEF7E7FA002818D041462846FEF733
:104F4000E6FA94F8290000B12F60A06900280DD07E
:104F5000A661E268616A04B02046BDE8F047FEF74A
:104F6000A9BF21462846FFF708FFDEE7BDE8FF8717
:104F70001FB50A4601788DF8001041680191017A49
:104F80008DF80810C0680390044850F82210001FE4
:104F900050F82220684690471FBD000024000020E2
:104FA0002DE9FF410C464FF4927705463946FEF74E
:104FB000BAFA0026C0B139462846FEF7B9FA0220EF
:104FC0008DF80000D5F88004C5F880040390D5F86A
:104FD0003C058DF80800E0680190A661E661D4E91F
:104FE00000126846904723E04FF4887739462846F8
:104FF000FEF799FAE0B139462846FEF799FAD5F856
:105000003C15A069884213D1E06960B1E268D5F827
:10501000000220F02000C5F80002E069A0612069CC
:10502000E661E06001E0A661E2682046FEF74DFF20
:105030004FF4A27739462846FEF775FA60B1394633
:105040002846FEF775FAA06930B1A661D5F83C157F
:105050002046E268FEF739FF4FF49077394628463C
:10506000FEF761FA002813D039462846FEF760FAA9
:10507000606900280CD0D5F84C058DF800608DF8DB
:105080000800A06801906661D4E900126846904764
:10509000BDE8FF812DE9F05F8346DDE90A4A9946C4
:1050A00090460D460846012703E000BFB0FBF8F02C
:1050B0007F1C4045FAD2B94500D94F465FEACA7015
:1050C00012D18CB15FEA8A7002D5B9F1000F01D01C
:1050D000202607E0302605E031465846641EFCF7DE
:1050E0004FF80CB1A742F7D35FF00106B9F1010FF9
:1050F00002D9A9F1010903E0B5FBF6F0404502D35E
:1051000006FB08F6F2E7DFF83C9000BFB5FBF6F0CF
:1051100000FB165519F800105846FCF731F8B6FB9D
:10512000F8F6002EF2D15FEACA7009D0002C07D041
:10513000A74205D220215846641EFCF721F8F5E766
:10514000BDE8F09F3C52000070B50D4604000CD045
:10515000206850B1017841B1C188A288914204D140
:105160004078FCF73DFBC00703D0002028600920F1
:1051700070BD20682860002070BD0000DC51000078
:105180006454000060540000585400000002000005
:10519000021C031D58050020111213140D0E0F10D0
:1051A000FFFFFFFF0006FF000000004000000000BE
:1051B0002D04000005380000613A000000000000E6
:1051C000003000400000000001000000000000FF6F
:1051D00006FF00000000000400000000A10E000017
:1051E000B10F0000350F000005100000150F000082
:1051F0009D0E000002000000000000000000000002
:10520000030000000000000000000000000100009A
:10521000000000000000000001000000000000008D
:10522000000000000201000000000000000000007B
:1052300002010000000000000000000030313233A5
:10524000343536373839414243444546556E6B6EE6
:105250006F776E206572726F7220636F64650000F5
:10526000000000001C58000001000000DC56000097
:1052700002000000D054000003000000505700005E
:1052800004000000A4570000050000008456000040
:105290000600000020560000070000008C570000A8
:1052A000080000009856000009000000FC560000AD
:1052B0000A000000045800000B000000B854000071
:1052C0000C000000B05600000D0000005458000013
:1052D0000E0000007C5700000F000000B8570000CF
:1052E00010000000EC57000011000000685800009A
:1052F0008000000038560000810000007455000056
:1053000082000000345500008300000014550000A6
:105310008400000050550000850000005C5600002D
:105320008600000064570000900000000056000056
:1053300091000000F454000092000000C4560000E8
:1053400000820000CC5700000182000018570000C6
:1053500002820000345700000084000090550000D5
:10536000018400002858000002840000D855000085
:1053700003840000B4550000B92D0000B72D0000D3
:10538000B12D00000000000000000000000000003F
:105390000338FDD870470000CD2E0000A12E00007C
:1053A000992E0000FFFFFFFFFFFFFFFFFFFFFFFF42
:1053B000FFFFFFFF00000000000000000000D6011A
:1053C00006010000BC0700207F0000003C08002010
:1053D0000040404040404040404041414141414008
:1053E00040404040404040404040404040404040BD
:1053F000400502020202020202020202020202024C
:105400000220202020202020202020020202020250
:1054100002029090909090901010101010101010A8
:1054200010101010101010101010101002020202B4
:1054300002028888888888880808080808080808F8
:1054400008080808080808080808080802020202F4
:1054500040000000D1530000312E30300000000029
:10546000534443004E6F7264696300002E2E5C2E1D
:105470002E5C2E2E5C2E2E5C2E2E5C2E2E5C636FF0
:105480006D706F6E656E74735C6C69627261726967
:1054900065735C626C6F636B5F6465765C73646399
:1054A0005C6E72665F626C6F636B5F6465765F7380
:1054B00064632E63000000004E52465F4552524F17
:1054C000525F494E56414C49445F444154410000AB
:1054D0004E52465F4552524F525F534F46544445D9
:1054E000564943455F4E4F545F454E41424C4544FB
:1054F000000000004E52465F4552524F525F4645F3
:1055000041545552455F4E4F545F454E41424C45C4
:10551000440000004E52465F4552524F525F4D5577
:105520005445585F554E4C4F434B5F4641494C459F
:10553000440000004E52465F4552524F525F4D5557
:105540005445585F4C4F434B5F4641494C454400DE
:105550004E52465F4552524F525F4D555445585F2B
:10556000434F4E445F494E49545F4641494C454480
:10557000000000004E52465F4552524F525F4D555B
:105580005445585F494E49545F4641494C45440093
:105590004E52465F4552524F525F424C455F495012
:1055A00053505F52585F504B545F5452554E4341D5
:1055B000544544004E52465F4552524F525F424C52
:1055C000455F495053505F504545525F52454A45EB
:1055D00043544544000000004E52465F4552524F2E
:1055E000525F424C455F495053505F4C494E4B5FB0
:1055F000444953434F4E4E45435445440000000038
:105600004E52465F4552524F525F4150495F4E4F96
:10561000545F494D504C454D454E544544000000A3
:105620004E52465F4552524F525F4E4F545F535554
:1056300050504F52544544004E52465F4552524FCF
:10564000525F4D4F44554C455F4E4F545F494E4954
:105650005449414C495A4544000000004E52465FAF
:105660004552524F525F4D4F44554C455F414C524D
:10567000454144595F494E495449414C495A454472
:10568000000000004E52465F4552524F525F4E4F4F
:10569000545F464F554E44004E52465F4552524F5E
:1056A000525F494E56414C49445F53544154450062
:1056B0004E52465F4552524F525F444154415F53F0
:1056C000495A45004E52465F4552524F525F494F2C
:1056D0005F50454E44494E47000000004E52465F21
:1056E0004552524F525F5356435F48414E444C45DA
:1056F000525F4D495353494E470000004E52465F9A
:105700004552524F525F494E56414C49445F4C45B9
:105710004E475448000000004E52465F4552524FDB
:10572000525F4452565F5457495F4552525F414E53
:1057300041434B004E52465F4552524F525F4452D6
:10574000565F5457495F4552525F444E41434B00A8
:105750004E52465F4552524F525F494E5445524E4B
:10576000414C00004E52465F4552524F525F5354D7
:105770004F524147455F46554C4C00004E52465FE4
:105780004552524F525F4E554C4C00004E52465FB0
:105790004552524F525F494E56414C49445F504129
:1057A00052414D004E52465F4552524F525F4E4F4E
:1057B0005F4D454D000000004E52465F4552524F2E
:1057C000525F464F5242494444454E004E52465F56
:1057D0004552524F525F4452565F5457495F4552AB
:1057E000525F4F56455252554E0000004E52465F92
:1057F0004552524F525F494E56414C49445F4144D5
:10580000445200004E52465F4552524F525F494E3D
:1058100056414C49445F464C414753004E52465F07
:1058200053554343455353004E52465F4552524FE2
:10583000525F424C455F495053505F4348414E4E82
:10584000454C5F414C52454144595F45584953547A
:10585000530000004E52465F4552524F525F54492A
:105860004D454F55540000004E52465F4552524F31
:10587000525F4255535900002E2E5C2E2E5C2E2E68
:105880005C2E2E5C2E2E5C2E2E5C636F6D706F6E08
:10589000656E74735C6C69627261726965735C6C6D
:1058A0006F675C7372635C6E72665F6C6F675F627A
:1058B00061636B656E645F756172742E63000000D6
:1058C0007761726E696E67006465627567000000DB
:1058D0001B5B313B33306D001B5B306D0000000003
:1058E0001B5B313B33316D001B5B313B33326D0051
:1058F0001B5B313B33336D001B5B313B33346D003D
:105900001B5B313B33356D001B5B313B33366D0028
:105910001B5B313B33376D00696E666F0000000022
:105920006572726F72000000505253005350494D1F
:1059300000000000554152540000000055415254EF
:10594000450000007274745F6C6F675F6261636B27
:10595000656E6400756172745F6C6F675F6261632E
:105960006B656E640000000061707000E859000013
:1059700000000020BC000000C2080000A45A000083
:10598000BC000020442E0000D20800007853000024
:105990000000000044590000580000209853000007
:1059A0000000000054590000600000202859000049
:1059B000000000002C5900000000000034590000D5
:1059C000000000003C590000000000006859000081
:1059D0000000030370000020680000207000002019
:1059E000FC060020180000007C51000000000000B0
:1059F00000010000000000000000000000000000A6
:105A00000000000000000000000000000000000096
:105A10000000000000000000000000000000000086
:105A20000000000000000000000000000000000076
:105A300000200040000000000020004000000000A6
:105A400000000000FF00000000000000FF00000058
:105A50000000000000000000000000000000000046
:105A600000000000000000000000000020590000BD
:105A7000C058000018590000C8580000D85800004D
:105A8000D0580000E0580000E8580000F05800002E
:105A9000F858000000590000085900001059000093
:045AA0000090D0039F
:0400000500000201F4
:00000001FF
