:020000040002F8
:1060000008830020156302001D6302001F63020065
:1060100021630200236302002563020000000000E8
:1060200000000000000000000000000027630200E4
:1060300029630200000000002B6302002D630200B0
:10604000856502002F630200856902002F6302004C
:106050002F6302002F630200CD6302002F63020052
:106060002F6302002F6302002F6302002F630200E0
:106070002F6302002F6302002F6302002F630200D0
:106080002F630200DD6502002F6302002F63020010
:10609000616602002F630200656602002F63020042
:1060A0002F6302002F6302002F6302002F630200A0
:1060B0002F6302002F6302000000000000000000B8
:1060C0002F6302002F6302002F6302002F63020080
:1060D0002F6302002F6302002F6302000000000004
:1060E00000000000000000000000000000000000B0
:1060F00000000000000000000000000000000000A0
:10610000000000000000000000000000000000008F
:10611000000000000000000000000000000000007F
:10612000000000000000000000000000000000006F
:10613000000000000000000000000000000000005F
:10614000000000000000000000000000000000004F
:10615000000000000000000000000000000000003F
:10616000000000000000000000000000000000002F
:10617000000000000000000000000000000000001F
:10618000000000000000000000000000000000000F
:1061900000000000000000000000000000000000FF
:1061A00000000000000000000000000000000000EF
:1061B00000000000000000000000000000000000DF
:1061C00000000000000000000000000000000000CF
:1061D00000000000000000000000000000000000BF
:1061E00000000000000000000000000000000000AF
:1061F000000000000000000000000000000000009F
:10620000DFF80CD000F0D0F80048004765770200B6
:106210000883002000B583B002900091019244F2FF
:10622000010071466A4600F04FFC03B000BD00005B
:1062300030B4044654E8000F0D4644E80053002BE8
:10624000F8D1156030BC704730B4044654E8000FF4
:1062500040EA010544E80053002BF7D1156030BC3B
:10626000704730B4044654E8000F00EA010544E8E2
:106270000053002BF7D1156030BC704730B4044692
:1062800054E8000F80EA010544E80053002BF7D1E1
:10629000156030BC704730B4044654E8000F00EB82
:1062A000010544E80053002BF7D1156030BC70475E
:1062B00030B4044654E8000FA0EB010544E8005355
:1062C000002BF7D1156030BC704770B404464FF016
:1062D000000054E8006F0D68AE4207BF44E8002399
:1062E000012044E800630E60002B1CBF0020F0E793
:1062F00070BC704730B4044654E8000F88422CBF8D
:10630000451A054644E80053002BF5D1156030BC12
:10631000704700000648804706480047FEE7FEE752
:10632000FEE7FEE7FEE7FEE7FEE7FEE7FEE7FEE745
:10633000696602000162020000487047889C020002
:1063400040EA01039B0703D009E008C9121F08C0F7
:10635000042AFAD203E011F8013B00F8013B521E77
:10636000F9D27047D2B201E000F8012B491EFBD2EE
:1063700070470022F6E710B513460A460446194650
:10638000FFF7F0FF204610BD421C10F8011B00294A
:10639000FBD1801A7047034611F8012B00F8012B3E
:1063A000002AF9D118467047064C074D06E0E06810
:1063B00040F0010394E8070098471034AC42F6D34C
:1063C000FFF722FF90A10200B0A102002DE9F043E7
:1063D000002589B0DFF84091A8464FF4807601246B
:1063E0002F460695304601F02BFD38B1D9F804034D
:1063F000204203D0304601F019FD2543361D6400CC
:106400007F1CB6B2082FEDD34FF4BE74204601F0C6
:1064100017FD48B1204601F009FD45F0004506AAE8
:106420000121002001F0EEFC3C4E15F0FF0F15D0CD
:10643000012700242F420DD009EB8401D1F810056B
:10644000D1F81015C0F3042056F82420C1F30141FF
:1064500002B190477F00641C082CEBD3002D2DDA8D
:106460004FF0FF30CDF808804AE004A9204601F043
:106470008FFA002822D04FEA9518204600F0F4FE4B
:1064800056F820501DB1B8F1030F03D006E0B8F163
:10649000030F13D102A9204601F082FA4FF0A04069
:1064A00000EB8400D0F8000706A9C0F3014920469C
:1064B00001F06EFA28B1B9F1020F05D009B0BDE8BC
:1064C000F083B9F1030FF9D1B8F1030F07D1B9F196
:1064D000020F1FD00221204601F082FC012715B1D6
:1064E00041462046A847002FE8D06A4601210020F7
:1064F00001F088FC069900988842DFD00690029847
:10650000049096F84450002768B225F0C004401C5F
:10651000ABD1D3E70321DEE700600040B058002094
:1065200000F01F02012191404009800000F1E020AD
:10653000C0F88012704700F01F020121914040090D
:10654000800000F1E020C0F80011704700F01F0249
:10655000012191404009800000F1E020C0F80012C4
:1065600070474907090E002806DA00F00F0000F115
:10657000E02080F8141D704700F1E02080F800143E
:106580007047000070B54FF48076304601F012FA83
:10659000114CB50560B1304601F013FA0120C5F881
:1065A0000803607920B901206071216800208847C4
:1065B0004FF48276304601F0FDF900280AD03046CB
:1065C00001F0FFF90220C5F808032168BDE870401A
:1065D0000120084770BD0000C45700200748002173
:1065E000C0F84011C0F84411C0F84811C0F84C116F
:1065F000C0F80011C0F8041102F084BF001001407F
:1066000000F0C6B970B50E46144900EB400001EB2E
:10661000C0051446E86A183520B101280FD00228B9
:1066200005D113E0284600F0E7F9A04201D200248A
:1066300011E022463146284600F016FA0BE02846C3
:1066400000F0DAF9A042F4D20446F2E731462846D7
:1066500000F0DDF90446204670BD00008060002097
:1066600002F09EBE01F0A4BFF0B5B5480023021DA4
:106670000178101D01254FF0805406290BD11678A2
:10668000360708D10678C6F30316032E06D0042E6B
:1066900004D0052E02D0062907D00EE0B4F82463FA
:1066A000A84FC6F304263E6002E01678360704D1F0
:1066B0000678C6F30316032E02D0062904D00FE095
:1066C000A24FA14E7E670EE01678360708D10678F5
:1066D000C6F30316032E06D0042E04D0052E02D0D6
:1066E000062907D00EE0D4F84462994FC6F342362B
:1066F0003E6002E01678360704D10678C6F303162A
:10670000032E02D0062906D011E0924E376827F0FA
:10671000807737600EE01678360708D10678C6F322
:106720000316032E06D0042E04D0052E02D006290F
:106730000AD011E04FF08046C6F80C31C6F810318F
:10674000834E361F336002E01678360704D1067890
:10675000C6F30316032E02D0062905D00CE07C4FA9
:10676000032664373E600AE01678360704D10678BF
:10677000C6F30316032E02D006290DD014E0764F7F
:1067800005263E60744E78363560734E08363360A9
:106790003F263F1D3E6002E01678360704D106789A
:1067A000C6F30316052E02D0062957D062E06B4EC1
:1067B00036686B4F3E60694E361D36683F1D3E6041
:1067C000664E083636683F1D3E60644E0C363668AD
:1067D0003F1D3E60614E103636683F1D3E605F4E85
:1067E000143636683F1D3E605C4E183636685C4F86
:1067F00020373E60594E1C3636683F1D3E60574E6E
:10680000203636683F1D3E60544E243636683F1DA4
:106810003E60524E283636683F1D3E604F4E2C3645
:1068200036683F1D3E604D4E303636684C4F40371F
:106830003E604A4E343636683F1D3E60474E38361D
:1068400036683F1D3E60454E3C3636683F1D3E6013
:10685000424E403636683F1D3E6002E016783607ED
:1068600008D10678C6F30316032E06D0042E04D0F2
:10687000052E02D0062907D019E0D4F85812394A5B
:1068800001F04F01116002E0117809070FD1007883
:10689000C0F30310032803D0042801D0052806D133
:1068A00031480168C90702D06FF001010160D4F8D6
:1068B0003001062808D1D4F83401062804D12B4829
:1068C000016841F48061016022487438016841F434
:1068D00070010160BFF34F8FBFF36F8F4FF0102136
:1068E000D1F80002002803DBD1F80402002822DAE4
:1068F0001F4A15601F480468002CFCD01524C1F8FD
:1069000000420568002DFCD0C1F80442016800294E
:10691000FCD0136001680029FCD0BFF34F8F0D48F5
:10692000F0380168144A01F4E06111430160BFF3DB
:106930004F8F00BFFDE7124910480860F0BD00000E
:10694000E00F00F0403501400DF0ADBA00C0074047
:106950003C050040FCED00E010560040040400102F
:1069600020C50040E40E0040000400403C170040F9
:1069700004E5014000E401400400FA050090D00362
:10698000785800200148006800470000CC570020DC
:1069900010B5124C02202061606111A0A06104F1C9
:1069A0007800E0614FF4007020620020A062606215
:1069B0000BA1A164E06204F51E71E1641021A065E1
:1069C000C4E91410E06509A1E01DFFF7E4FC08A18B
:1069D0002046FFF7E0FC2020A07110BD8060002061
:1069E0005465726D696E616C000000005254540071
:1069F00053454747455200000269C1688A4203D89F
:106A00008068401A104400E0501A401E70472DE97B
:106A1000F047C4681746894606464FF000083069BB
:106A2000A04201D9051B02E0B168201A0D1AB06816
:106A30006D1E001BA84200D80546BD4200D33D464E
:106A400070682A4620444946FFF77AFCB0687F1BED
:106A50002C44A844A944A04200D10024F460002F93
:106A6000DDD14046BDE8F0872DE9F0410446884677
:106A7000D4E90207C51BE168606816460844B542C0
:106A800006D94146FFF75CFCB819E060BDE8F0812B
:106A90002A464146FFF754FC761B08EB05013246B7
:106AA0006068FFF74DFCE660F0E702E008C8121FDF
:106AB00008C1002AFAD170477047002001E001C1E7
:106AC000121F002AFBD17047FEB515460E46074639
:106AD00072B601F07FFC00BF01F0B4FA0028FBD1D0
:106AE0002249234A0120891AC90800EB0144012FD9
:106AF00023D06FF48050381822D0B0F5405F24D0F6
:106B00006FF44051C84206D12B88204619A16A680B
:106B100001F0BDFB04E0204632461DA101F0B0FBB0
:106B200021480068C00700D000BE2A4603B03146A5
:106B30003846BDE8F04000F085B820461BA101E0D2
:106B4000204622A101F098FBEAE7A86801F0CCFDFD
:106B50000346D5E90001CDE900100296204624A1A4
:106B6000AA6801F09CFB20462BA1EBE700A20200E3
:106B7000D0A10200415353455254494F4E20464143
:106B8000494C45442061742025733A257500000066
:106B9000554E4B4E4F574E204641554C5420617434
:106BA0002030782530385800F0ED00E0534F46543F
:106BB0004445564943453A20415353455254494F61
:106BC0004E204641494C454400000000534F465476
:106BD0004445564943453A20494E56414C49442084
:106BE0004D454D4F525920414343455353000000FA
:106BF0004552524F52202575205B25735D206174EC
:106C00002025733A25750D0A50432061743A2030CF
:106C10007825303878000000456E64206F66206566
:106C200072726F72207265706F7274000EB50021FF
:106C30000091CDE901106A4644F20100FFF744FFDC
:106C40000EBD000008B501238DF800309DF800301E
:106C5000144B186059609A606FF48041401807D057
:106C600001280FD1DA60D86800889861D86807E0F9
:106C70001A61186980685861186900689861186914
:106C80004068D861186858689868D8681869586961
:106C90009869D86972B600BF9DF800000028FBD142
:106CA00062B608BD4C5900202DE9F84F254C8146AD
:106CB000924660880E46814241D800274FF6FF7801
:106CC0008DF80070684600F0F1F822786078A188AD
:106CD000884201DA401C00E00020C0B2904204D19A
:106CE0009DF8000000F006F927E06578607888429A
:106CF00001DA401C00E0002060709DF8000000F008
:106D0000F9F8454519D0A068B9F1000F40F835A051
:106D10000DD066B16188E068324605FB0100494646
:106D2000FFF70EFBA06800EBC500868002E000EBD9
:106D3000C50087800020BDE8F88F0420FBE709200C
:106D4000F9E70000D457002010B50E4C03E0401CBA
:106D500000E00020207020786178814210D02278F5
:106D60006188E068A36802FB010003EBC20153F8ED
:106D70003220898890472078A1888842E9DAE6E7BE
:106D800010BD0000D4570020084B9B7823B12AB1D6
:106D900020B10068037C1BB10820704707207047B2
:106DA0000023037441744261184670476C590020F7
:106DB00070B502F061F9104800240B210470447092
:106DC0000E4D817014206C602C706C70FFF7A8FB66
:106DD00006211420FFF7C5FB1420FFF7ACFB084881
:106DE000046006211120FFF7BCFB0548001F006866
:106DF000A860002070BD00006C590020E4570020FE
:106E0000081501402DE9FC47DFF8789099F8023029
:106E100073B368B3052902D20720BDE8FC87436934
:106E200033B3437C012B25D0002704460025884638
:106E300016468DF80050684600F038F801A802F0B8
:106E4000AFFDC8B1012101700F4944600968C0E974
:106E50000218C0E904769DF8040089F801009DF845
:106E6000000000F047F81420FFF770FB2846D4E735
:106E70000820D2E70F46D8E704259DF8000000F06F
:106E800039F8F3E76C590020041501400649897868
:106E900039B130B1416921B100210174022102F000
:106EA0000DBB0820704700006C59002030B5EFF38F
:106EB000108172B60D4A9468012324B10370002931
:106EC00000D162B630BD93604FF0E023D3F880511B
:106ED000074C25401560C3F88041D3F884415460C5
:106EE0005A17C3F8842100220270E8E7785A00207C
:106EF000FC06FFBD0B498A68002A11D000280FD17B
:106F0000EFF3108072B60B684FF0E022C2F8003148
:106F10004B68C2F8043100228A60002800D162B6B2
:106F200070470000785A00202DE9F04106460868B5
:106F30000C46411C4FF0A0474FF0010506D005FA62
:106F400000F1C7F80815206800F036FF6068411CA2
:106F500002D0012100F01EFF3168A069C1F82405AC
:106F6000607D227D31681043C1F86C05D4E90012C0
:106F70003068C0F81425C0F80C15207D012815D103
:106F8000A068411C02D0002100F004FFE068411C11
:106F900005D08540C7F80855E06800F00DFFD4E93A
:106FA00002123068C0F80825C0F81015BDE8F0815D
:106FB0002DE9F041064608680C46411C4FF0A047F9
:106FC0004FF0010506D005FA00F1C7F80815206852
:106FD00000F0FCFE6068411C02D0012100F0E3FEDD
:106FE0003168A069C1F82405607D217D32680843BD
:106FF000C2F86C05D4E900123068C0F80C15C0F86E
:107000001425207D012815D1A068411C02D0002143
:1070100000F0C9FEE068411C05D08540C7F808555E
:10702000E06800F0D3FED4E902123068C0F8082509
:10703000C0F81015BDE8F0812DE9F8430546861C1F
:1070400000208DF8000090460F464FF00109684679
:10705000FFF72CFF1B4C20683860D4E90001401A70
:10706000A16804F21C47081A0EE00121384600F01E
:1070700021FC00F029FB0146384600F01BFCD4E956
:107080000001401AA168081A401C8642EDD8B8F1E8
:10709000000F03D0052065F3891002E0062065F398
:1070A0009F50A2682168114004EB8101C8602068EC
:1070B000304420609DF80000FFF71CFF4846BDE803
:1070C000F88300005C5C002030B482680468531CC4
:1070D0008360A154D0E901128A4202D330BC00F08F
:1070E00018BD30BC70470000034803C8814201D17D
:1070F00001207047002070475C5C00201849194A45
:1071000070B5891AC9080322144D02EB01440D28F9
:1071100002D00E2815D10AE0204613A101F0ACF8E8
:1071200000224FF480416868FFF76CFE06E02046BD
:1071300013A101F0A1F86868FFF7A8FE08B1FFF7F6
:1071400075FD00F011F90F28204604D012A1BDE80A
:10715000704001F091B81EA1F9E70000D09902003B
:1071600000A20200D0A10200537461727420746FF7
:1071700067676C696E67204C454420312E00000023
:1071800053746F7020746F67676C696E67204C452D
:107190004420312E00000000427574746F6E206828
:1071A000616E646C657220697320657865637574BF
:1071B000696E6720696E20696E746572727570748D
:1071C0002068616E646C6572206D6F64652E0000CE
:1071D000427574746F6E2068616E646C65722069AC
:1071E0007320657865637574696E6720696E2074B5
:1071F00068726561642F6D61696E206D6F64652EC4
:107200000000000005494FF0FF32082841F8202017
:1072100002D3084480F83C2070470000B05800209A
:10722000F0B54FF0FF3512B10023082601E0082326
:1072300009260C4C05E000BF54F823707F1C04D0D5
:107240005B1CB342F8D32846F0BD26185DB286F821
:10725000245044F82310002AF5D1E11881F83C00AD
:10726000F1E70000B05800200249084490F92400DA
:1072700070470000B058002070B5084C050009D0D8
:1072800010342168002907D0086820604968284622
:107290008847F6E70834F4E770BD00009C580020EA
:1072A000054A012120B1012805D19170FFF7E4BF03
:1072B00051700020FAE770479C5800202DE9F05FDC
:1072C00026484168F1B3DFF898B00E688146DBF8D4
:1072D000004087688078E11B21F07F45ED1CB0B944
:1072E000DFF880804FF48030C8F84403C8F8040306
:1072F0001120FFF715F91120FFF71DF94FF0010AD2
:10730000C8F800A02F2001F071FA89F802A0B54258
:1073100000D23546124BE8193C3320F07F4018600C
:10732000DBF800105A46091B21F07F41001B20F0BA
:107330007F40C91C81420FD9106818602F2001F0CE
:1073400055FA00E004E0BDE8F05F1120FFF7FEB859
:10735000BDE8F05F01F090BEBDE8F09FE45700206B
:107360000415014000100140EFF30580C005C00D79
:1073700010D0103840B2002806DA00F00F0000F1FB
:10738000E02090F8140D03E000F1E02090F80004F4
:10739000400970470F20704710B50021024800F0E7
:1073A00094FA80F3100010BD786000200E4910B5EB
:1073B0000A784C780023A24212D0521CD2B20A7032
:1073C000022A00D10B70084A0B780C3252F82320A5
:1073D00002608868104420F07F408860012010BD62
:1073E0000360002010BD0000E45700201CB501F030
:1073F000BFFA08B1FFF71AFC0020019001A9112083
:1074000001F0EEFA08B1FFF711FC112001F048FB82
:107410000F48104A69460068009003208DF801006B
:107420000D2001F03DFA08B1FFF700FC094A69465A
:107430000E2001F035FA08B1FFF7F8FB01210D200D
:1074400001F0DCF901210E2001F0D8F91CBD00008B
:10745000D099020059740200FFF750BE2DE9FC5F7D
:107460000E008346DDE90C47C6F1000098469246BF
:10747000814600D40846012503E000BF90FBFAF0E6
:107480006D1C5045FADAA84500D9454624B1002EB6
:1074900001DB780700D5641EB80702D5B8F1000FEC
:1074A0000AD0F80708D13CB1A54205D220215846A0
:1074B000641EFFF709FEF6E7002E02DA4E462D2184
:1074C00002E0780703D52B215846FFF7FDFD07F0B2
:1074D000030002280BD1B8F1000F08D13CB1A5423E
:1074E00005D230215846641EFFF7EEFDF6E7CDE9E0
:1074F0000047434652463146584602F0F7F9BDE888
:10750000FC9F000070B50D46044600684FF488717A
:1075100001F00AF94FF49071206801F005F94FF479
:107520009271206801F000F94FF4A271206801F017
:10753000FBF820681249C0F804132068690740F37B
:107540000730090E002806DA00F00F0000F1E020F5
:1075500080F8141D03E000F1E02080F8001420689A
:10756000012140F3073000F01F02914040098000E4
:1075700000F1E020C0F88012C0F8001170BD0000DA
:1075800010030200024600201268530713D502F0D0
:107590000300012802D002280CD105E0C2F38310B9
:1075A0000B68801C184404E00223086803EB925225
:1075B00010440860012070470268134602E08A42C6
:1075C00004D01268002AFAD10B60016070470000F5
:1075D0002DE9F047394E002780463D46DFF8E09020
:1075E000D6F804A057E003D00446D0F81C8035E05C
:1075F00099F8002002EB4201521CD2B289F8002017
:1076000009EBC10199F80230091D9A4201D189F8AC
:10761000005048680A780446012A12D0022A02D093
:10762000032A3BD108E001F019FF00B101272574BE
:1076300034E00574C06900E070680028F9D170601A
:107640002CE0207C50BB88686060C868A060086936
:10765000E0604869A061F07800B165606268B16877
:10766000184B501A20F07F40984202D2A16808447B
:1076700006E0881AA16820F07F40814202D9081AEA
:10768000206000E0256065600120A5602074204630
:10769000E56101F0C5FEB8F10000A4D199F8001031
:1076A00099F801008142A3D117B97168514502D000
:1076B0000120BDE8F0870020FBE70000E457002030
:1076C0006C590020FFFF7F002DE9FF410026234871
:1076D00000F0EDF82148001F074600F0E8F8204CC4
:1076E00060680090A56800E000986946284004EBB7
:1076F00080000C30FFF746FF0028F5D101AA009961
:1077000001EA050304EB8303491CDB6842F82030DF
:10771000401C00910228F2D3019800F003000128D8
:107720000BD0022810D10198032101EB9050009951
:10773000BDF80A6001EB900005E00198BDF80A6011
:10774000C0F3831008440090384600F0ADF808B14B
:107750000098606004B03046BDE8F081746000209D
:107760005C5C002000F036F908B1FFF75FFA0020FA
:1077700000F064F94FF40041002000F0F5FD08B17D
:10778000FFF754FA00F044FCFFF730FEFFF710FB60
:1077900008B1FFF74BFA0B4A01210B48FFF7F4FA47
:1077A00008B1FFF743FA09480949401AC008032104
:1077B00001EB004007A100F05FFD00BFFFF7C4FA36
:1077C00030BFFBE7FD920200D499020000A2020044
:1077D000D0A102005363686564756C65722074758E
:1077E000746F7269616C206578616D706C6520736F
:1077F0007461727465642E002DE9F047C5881E1D02
:10780000B6FBF5F78946B6FBF5F1044605FB176CA8
:10781000407916686843DDF820A0F718001F8742FA
:1078200000D9C61A166001E02468491E0029FBD160
:10783000A5EB0C078846B74216D818E004EB0C00FD
:10784000001D09EB0803BAF1000F3A4602D00146C9
:10785000184600E01946FEF773FD2468F61B4FF04A
:10786000000CB844B54201D9374600E02F46002E3F
:10787000E4D1BDE8F087000030B5024651B100F018
:1078800091FD0021074C08E034F821301568AB4227
:1078900002D11160002030BD491C8142F4D3052083
:1078A00030BD000000000000002100F009B80121F7
:1078B00000F010B808B56A46FEF7EDFC009808BD68
:1078C00008B56A46FEF7CDFC08BD08B56A46FEF766
:1078D000AFFC08BD08B56A46FEF7B6FC009808BDC7
:1078E00008B56A46FEF7E4FC009808BD38B50446C2
:1078F00000258DF800506846FFF7D8FA21686268C5
:10790000086890420ED9401E08600178238AE26818
:1079100001FB0325227A2168101AC0B20A7982423B
:1079200000D208719DF80000FFF7E4FA284638BD40
:1079300038B5054600208DF800000C466846FFF774
:10794000B5FAE868298A201AB0FBF1F12A681068B4
:10795000431C136001709DF80000FFF7CBFA38BD9F
:1079600010B530B1017A42680368891AC9B21A6049
:1079700006E00E2010BD03681A68541C1C601170CC
:10798000491EC9B2F7D2006800210171084610BD36
:10799000C20800F007030120895C98400840704746
:1079A00010B5C20800F00703885C01249C40204306
:1079B000885410BD00F180400068002800D00120EC
:1079C000704708B500F18040002101600068009018
:1079D00008BD000070B50B4C207808B185250FE07C
:1079E0000020A06060602061E060074800F0BAFEFF
:1079F000054600F0EFFD08B900F09CFE0120207064
:107A0000284670BD9C580020A172020038B50025A0
:107A10008DF800506846FFF749FA074CE068401EB1
:107A2000E060E06810B900F0D3FEA5709DF800009A
:107A3000FFF760FA38BD00009C580020F8B5134DE0
:107A40000446A878002648B114B16168012088472F
:107A50008DF800606846FFF729FA0EE08DF80060A7
:107A60006846FFF723FA24B1084821461030FFF793
:107A7000A3FDE86808B900F085FEE868401CE860EE
:107A80009DF80000FFF736FAF8BD00009C58002072
:107A9000F0B505460478154889B0164640F824200C
:107AA000124A0869121DA2F1080742F82400487F13
:107AB000385520226846FEF743FC04942878385C49
:107AC00048B10EB10A4A00E000226946281D01F0C3
:107AD00061F909B0F0BD0EB1064A00E00022694626
:107AE00005F10C0001F028F8F3E70000BC57002076
:107AF000C99702000D9602000FB408B5039900293A
:107B000004D004AA00926A4600F00FF801B05DF8B4
:107B100014FB10B582680446002A05D0D4E904039A
:107B2000216898470020A06010BD2DE9FC479146D0
:107B30000C00804676D014F8011B39B125290ED0EF
:107B40004046FFF7C1FA20780028F4D198F80C00DD
:107B5000002867D04046BDE8FC47FFF7DABF0020A9
:107B6000012221782B291BD02D2902D0302908D1C0
:107B700002E040F0010001E040F00200641C002A35
:107B8000EFD100252A290ED02178A1F130020A2A4E
:107B900011D205EB850201EB4205641C303DF1E793
:107BA00040F00400EAE7D9F800100B1DC9F80030D6
:107BB0000968641C0D44217800232E290BD114F888
:107BC000011FA1F130020A2A05D203EB830201EB67
:107BD0004203303BF3E76C290DD068290BD06929AB
:107BE00021D00BDC252918D0582931D063290ED09B
:107BF000642915D117E014F8011FECE7702969D04A
:107C0000732932D075291BD0782909D120E0D9F801
:107C10000000011DC9F8001001784046FFF754FA32
:107C2000641C90E76CE0D9F800100A1DC9F8002028
:107C30000968CDE900500A224046FFF70FFCEFE744
:107C4000D9F800100A1DC9F8002009680A2206E0C8
:107C5000D9F800100A1DC9F8002009681022CDE9E2
:107C60000050404601F042FEDAE7D9F80010002744
:107C70000A1DC9F800200E68C00705D112E0404671
:107C8000761C7F1CFFF720FA31780029F7D104E039
:107C9000202140466D1EFFF717FABD42C0D9002DC6
:107CA000F6D1BDE74EB13046FEF76EFB074604E065
:107CB000202140466D1EFFF707FABD4206D9002D70
:107CC000F6D103E04046761CFFF7FEF93178002933
:107CD000F8D1A5E7D9F80000011DC9F80010056822
:107CE00030214046FFF7F0F978214046FFF7ECF9E4
:107CF00008200021CDE90001034610222946B0E703
:107D0000BDE8FC8770B541EA4201DDE904564FF059
:107D1000A04441EA830141EA052104EB800041EAE5
:107D20000641C0F8001770BD70B541EA4201DDE9B7
:107D300004564FF0A04441EA830141EA052104EBD7
:107D4000800041EA0641C0F8001770BD70B541EAF5
:107D50004201DDE904564FF0A04441EA830141EAC3
:107D6000052104EB800041EA0641C0F8001770BD10
:107D70001CB5002100910B4601220191FFF7D4FFB1
:107D80001CBD1CB5002100910B4601220191FFF79B
:107D9000DDFF1CBD1CB500220B460092114601926E
:107DA000FFF7C2FF1CBD1CB500220B460092114616
:107DB0000192FFF7CBFF1CBD1CB5002100910B46C3
:107DC000012201911146FFF7AFFF1CBD1CB5002138
:107DD00000910B46012201911146FFF7B7FF1CBD30
:107DE0004FF0A04202EB8000D0F8002722F440328E
:107DF000C0F80027D0F8002742EA0141C0F8001778
:107E00007047000018B5084B6C4601441B6800938E
:107E100006E000BF54F82030D3F81035401C08C2EB
:107E20008142F7D818BD0000D8990200034908B56F
:107E30000844002101600068009008BD0060004017
:107E400002494058012800D00020704700600040DF
:107E500030B5154A01460020D2F8104423460AE006
:107E6000DB681D79854205D1401C0A28F6DB4FF0FE
:107E7000FF3030BD1B68002BF2D1431CF9D0CB681A
:107E80001871D2F8103443B1DB68CC681B682360EA
:107E9000D2F81024D268116030BDC2F81014C9683D
:107EA00000220A6030BD00005C5C00207047FEF7D5
:107EB000A7BB704708B5034A00924023024A00F06E
:107EC00005F808BD65910200845A0020F0B595B010
:107ED0001C4615460F4608461A9E00F035FB182131
:107EE00009A8FEF746FA0E96CDE9095400230822A8
:107EF00003A9384600F03DFB05980690BDF8100038
:107F0000ADF81C00BDF81200ADF81E0000208DF881
:107F100021000398082600F00300012802D002285F
:107F200018D032E003983346850AC0F3C2008DF8BA
:107F3000200003980FA9C0F38314A200384600F074
:107F400018FB09A8009006AB22460FA9284600F0AE
:107F500057FA1AE00398840DC0F3C2008DF8200090
:107F6000082C01D2254600E0082533462A460FA9F1
:107F7000384600F0FEFA2E44641B09AB06AA2946D7
:107F80000FA800F09BF9002CEAD1384600F0E2FA85
:107F900015B0F0BD7047002001F056BB084810B581
:107FA0000178084A515C19B1001D00F07FFF02E022
:107FB0000C3000F08DFEBDE81040002001F044BB05
:107FC00000580020B857002008B5034A009240230B
:107FD000024AFFF77BFF08BDB5910200C45A00209A
:107FE0000A4A012902EBC00007D0022907D0032961
:107FF00007D0042907D000207047022070470420D2
:10800000704700797047407970470000D0A10200A6
:1080100010B5FFF74CFF04210948FFF719FF084886
:108020000124C0684471FFF7B6FF054804211030F1
:10803000FFF70EFF02481030C068447110BD000009
:10804000B0A102002DE9F04F8DB0FFF74DF818B147
:1080500000200DB0BDE8F08F7E4C4FF0000BC4F84F
:1080600018B4BFF34F8F60680290A568D8462840C7
:1080700004EB80000CE000BFD4F8180470B921684C
:108080000298814201D86160E2E7284004EB800059
:108090000C3002A9FFF776FA0028EDD1002005AADE
:1080A000029901EA050304EB8303491CDB6842F8EB
:1080B0002030401C02910228F2D3059800F0030002
:1080C000022802D001284DD0AAE005985022810D47
:1080D0008946B2EB905F00D850210E4666F39F5060
:1080E000059008315C4800F0E6F9070078D000F010
:1080F0002BFA4346082205A9384600F042FA0299B5
:1081000008F1080A2940681A8000001D864222D919
:10811000504D0C3530B1C2B204EB8101301A90469B
:108120000C3104E02946F2B2002590462846C6B23A
:108130005346384600F025FA0AEB080325B13246CB
:108140002946384600F01DFA029909F1030001EBB7
:10815000900002903BE004EB8101534632463846E2
:108160000C31EFE70598C0F38310062800D30620F2
:10817000059960F38911C1F38310801C059181007A
:10818000354800F098F907004AD000F0DDF9434681
:10819000082205A9384600F0F4F908F1080800267D
:1081A0000FE00298434600EA0501401C04EB810100
:1081B0000290042238460C3100F0E3F908F104087B
:1081C000761C0598C0F38310B042EAD847B1D4F8C2
:1081D0001054D4F8180478B1384600F0BBF934E0F4
:1081E0001EE0E8684079012804D12A68284639460B
:1081F00012689047E8680568002DF2D1384600F013
:10820000A9F98DF800B06846FEF750FED4F81804BE
:1082100008B9029860609DF80000FEF76BFE14E05C
:10822000D4F8104405E02168204689688847E06852
:108230000468002CF7D109480949401AC0080221F6
:1082400001EB004007A100F017F8FEF74DFF80F0AA
:108250000100FEE65C5C002018A2020000A2020001
:10826000D0A102004261636B656E647320666C7519
:10827000736865640000000000231A4600F0CABF5E
:1082800008B5012300926A4600F0C4FF08BD1CB582
:10829000CDE9002302236A4600F0BCFF1CBD70B587
:1082A00086B00DF1280C9CE870008DE87C00052359
:1082B0006A4600F0AFFF06B070BD00002DE9F04740
:1082C0000E4680461C46924608293ED894F80C90EB
:1082D000002020731946104600F076FE0025B542B6
:1082E00006D218F805201AA12046FFF705FC03E086
:1082F00019A12046FFF700FC6D1C082DEFD317A134
:108300002046FFF7F9FB0025B54210D218F805709A
:10831000FEF712F80068C05D10F03E0F01D03A463B
:1083200000E02E220EA12046FFF7E6FB03E00DA1A0
:108330002046FFF7E1FB6D1C082DE5D30122214605
:10834000504600F023FE84F80C90BDE8F087000052
:108350002025303278000000202020007C00000022
:1083600025630000200000000B4810B5FF2181604C
:10837000002101604160C0F81814C0F814140121F4
:1083800080F82014054800F0E3F8002803D10448E1
:1083900000F0FFF8002010BD5C5C002018A2020075
:1083A000849B020002480349401AC008704700003D
:1083B00018A20200D0A1020013B56846FFF75CFACC
:1083C00008B100201CBD0248009950F831001CBDC6
:1083D000D0A1020070B509480125D0F8104480F8FA
:1083E000205407E0E06845712168204649688847C5
:1083F000E0680468002CF5D170BD00005C5C0020D2
:108400002DE9FF4781460C9D00200C462F7B2873E9
:10841000984616462946184600F0D6FD072E42D249
:10842000DFE806F004090F161F2A360049462846E1
:10843000FFF762FB37E0494628462268FFF75CFBFE
:1084400031E0D4E9002349462846FFF755FB2AE0EE
:10845000A0680090D4E9002349462846FFF74CFB6A
:1084600021E0D4E90201CDE90001D4E90023494625
:108470002846FFF741FB16E004F1080007C88DE825
:108480000700D4E9002349462846FFF735FB0AE0F8
:1084900004F108000FC88DE80F00D4E90023494615
:1084A0002846FFF729FB00222946404600F06EFDD2
:1084B0002F73BDE8FF872DE9F041058A80462D1F07
:1084C0004819C01CB0FBF5F0C6B24046FFF70EFAE3
:1084D000041E19D00020207101206071E580002762
:1084E0002546761EC4F800800BE04046FFF7FEF9F3
:1084F00060B16179491C6171286005467F1CC0F834
:108500000080B742F1D32046BDE8F081204600F05C
:1085100002F80020F8E72DE9F041457901466B1E8D
:10852000002201E00968521C9A42FBD30F68014601
:10853000002605E038460C68FFF7FAF92146761C5C
:10854000AE42F7D3BDE8F0810121001DFFF7B2B9BB
:10855000FFF706BA10B504460121001DFFF7C0F968
:1085600010F0FF0F04D12046BDE81040FFF7D3BF45
:1085700010BD1CB501920122009201AAFFF73CF93F
:108580001CBD1CB501920022009201AAFFF734F92C
:108590001CBD82680021916082681161826851610E
:1085A0008268D16082685160806801607047000015
:1085B0000EB50749684600F053F805E0D0E9001011
:1085C0008847684600F063F802980028F6D10EBD8F
:1085D000BC9B0200014800787047000074580020DE
:1085E0001FB568464BDF40B1052816D004B00BA27A
:1085F000BDE810406B21FDF70DBE184901A800F041
:108600002FF806E0D0E900210098904701A800F07B
:108610003EF803980028E4D0F4E71FBD2E2E5C2E10
:108620002E5C2E2E5C2E2E5C2E2E5C2E2E5C636F0E
:108630006D706F6E656E74735C736F66746465766F
:108640006963655C636F6D6D6F6E5C6E72665F73A0
:1086500064685F736F632E6300000000F89B020084
:10866000016009684160AFF3008010B5D0E90021D6
:108670005368994201D1002104E0D1E90034A342BA
:1086800002D01946816010BD08314160F0E7816871
:1086900000290BD0026892680A44826041684B68E6
:1086A0009A4203D108314160FFF7DFBF70470000F5
:1086B0000C4A10B502F594730EE0991AC91001EB3B
:1086C000D171491002EBC1010C68844201D90B46FB
:1086D00002E005D201F108029A42EED3002010BD5B
:1086E000486810BD1C9A020000B5FFF7E1FF0028A2
:1086F00000D1014800BD0000089A0200405800283F
:1087000000D00120704708B5002242504058009028
:1087100008BDD0F80403084000D00120704740583D
:10872000002800D00120704708B500224250405870
:10873000009008BD09480068012110F0010F08D120
:108740004FF0E020C02280F80024C0F88012C0F86A
:1087500000110349012008607047000000E100E0BB
:10876000180500400649024600200B790BB1852010
:1087700070470A6001220A7100224A7170470000A6
:10878000C457002070B54FF48270FFF71AF9022029
:108790004107C1F804030B4B196841F08070186061
:1087A0000948026842F00104046044684FF40A5525
:1087B0004668361BAE42FBD30260196003490120B4
:1087C000086070BDFCED00E0001000E00800004013
:1087D00004490120086004480168C1F300410029F0
:1087E000FAD170470C00004018040040002802D065
:1087F0000149800108477047F19902002DE9F041D5
:108800008846054600F0AAFB234E002828461AD0C9
:10881000FEF72AFD304490F83C008009032802D07E
:1088200001280ED007E04FF0A040D0F81005E84036
:1088300010F0010F05D003212846BDE8F041FFF7F5
:10884000CFBA0221F8E700F095FB002822D0284695
:10885000FEF70AFD04464FF4807000EB84000F4FD2
:1088600081B207EB8400D0F8102542F00102C0F875
:1088700010250846FFF7DAFAB8F1000F0AD02846AB
:10888000FEF7F2FC56F82000002803D00120A0409B
:10889000C7F80403BDE8F081B05800200060004034
:1088A0002DE9FC41DFF8BC80044608EB04000027FA
:1088B00090F924001346C0170E46401C01D008272B
:1088C0004CE0B0781946C0F340022046FEF7A8FC01
:1088D0000546401C41D0B078410719D4C0070AD0E2
:1088E0004FF0A04000EB8401D1F8000720F0020017
:1088F000C1F8000707E000217378204600910A467E
:108900000191FFF7FFF9174920464531FFF748F875
:10891000B078800718D51448317800EB8500D0F87E
:108920001025124B1A40C0F810254FF4F8524FF49E
:10893000403302EA042203EA01410A43D0F8101549
:108940000A43C0F8102509E008EB0500327810F85A
:108950003C1F41EA8211017000E004273846BDE85F
:10896000FC810000B058002000600040FFE0FCFFE8
:1089700070B5184D95F8490008B1082070BD002069
:10898000411E2A18401CC0B282F824102028F8D3B7
:1089900000242046FEF736FC641CE4B2092CF8D310
:1089A00000240D4945F8454FC02081F800040126F8
:1089B0004020891FC1F88002C1F800014FF4BE7049
:1089C000FFF734FA0549F007C1F804032E71204679
:1089D00070BD0000B058002006E000E000600040DC
:1089E0002DE9FC4104462B480F462044002590F910
:1089F0002410491C01D0082546E0B978002651B35F
:108A0000012200212046FEF70BFC411C21D08300EF
:108A100021483A7818447978D0F81035DFF87CC0CE
:108A200003EA0C03C0F81035D0F810354FF4F85CA9
:108A30000CEA042C43EA0C034FF4403C0CEA0242DB
:108A40004FF4801C0CEA01510A431343C0F810355F
:108A500004E0042518E0FE2180F824107A78012033
:108A6000A0404FF0A041012A11D0C1F80C0501220D
:108A700020460096002311460196FFF743F9054969
:108A800020464531FEF78CFF2846BDE8FC81C1F841
:108A90000805ECE7B058002000600040FFE0ECFF64
:108AA0004FF0A04201218140C2F8081570474FF0F5
:108AB000A042D2F804350121814021EA0300C2F826
:108AC00008051940C2F80C1570470121B1EB507F21
:108AD00001D1012070470020704738B50D4600F0E5
:108AE000BFFA040014D000208DF800006846FEF79D
:108AF000DDF9207928B19DF80000FEF7FBF911207F
:108B000038BD0120256020719DF80000FEF7F2F9C4
:108B1000002038BD10B500F0A3FA002802D00021D3
:108B20000160017110BD00000149024800F0B8BDAC
:108B3000FC580020002000402DE9F0410546007956
:108B400016460F4600EB40012D4A01EBC00102EB37
:108B5000810494F82A1011B10820BDE8F081294958
:108B600051F820102868FFF7B8FF08B11120F4E78A
:108B700039462846FEF7D8F966603869206030002B
:108B80004FF001062FD03F7F4FF48E712868FFF71A
:108B9000BAFD4FF4A2712868FFF7B5FD28681A499D
:108BA000C0F8041328684FEA471140F30730002843
:108BB00006DA00F00F0000F1E02080F8141D03E059
:108BC00000F1E02080F80014286840F3073000F03E
:108BD0001F0206FA02F14009800000F1E020C0F80F
:108BE0008012C0F8001128680421C0F80015002088
:108BF000A061E06184F8290044F8140FA675ACE781
:108C0000FC580020DC990200800002002DE9F047AA
:108C1000054600790B4600EB400101EBC0002349FB
:108C200001EB8004284600F043F810B11120BDE8A4
:108C3000F0874FF00008C4F82080A360626184F8D8
:108C400028804FF48E76474631462868FFF75BFD53
:108C500028684FF00109C0F808902146286800F004
:108C6000B7FC606800BBD5F800A00EE094F82800BF
:108C700008B10F2716E031465046FFF73FFD0028A8
:108C8000F4D02146504600F0A3FC216A606981427D
:108C9000F1D331462868FFF731FD0028F9D0286864
:108CA000C0F80C90C4F814803846C0E7FC58002087
:108CB000007900EB400101EBC000044901EB8000AA
:108CC0004069002800D0012070470000FC580020B7
:108CD0002DE9F047044600794FF0000900EB400110
:108CE00001EBC000254901EB80072068C0F8009522
:108CF000786880B120682249C0F8081320680121F3
:108D000040F3073000F01F0291404009800000F15D
:108D1000E020C0F880112068D0F80C25D0F8148528
:108D2000D0F80865D0F810554FF0FF31C0F8141591
:108D3000C0F80C152068C0F80815C0F81015501CB4
:108D400002D01046FFF714F8B8F1FF3F02D04046BA
:108D5000FFF70EF8681C02D02846FFF709F8701CD0
:108D600002D03046FFF704F82068FFF7D3FE87F8FB
:108D70002A90C7F80490BDE8F0870000FC58002056
:108D8000840202000149024800F036BD2859002043
:108D9000002000402DE9F0410546164600790F46B7
:108DA000154A00EBC00102EB810494F8201011B1C8
:108DB0000820BDE8F081114951F820102868FFF71C
:108DC0008CFE08B11120F4E739462846FEF7F0F88A
:108DD0006660386920601EB1397F2846FEF792FB35
:108DE00028680821C0F800150020A061E061012179
:108DF000606184F82010DCE728590020E099020027
:108E00002DE9F04704460E460079204900EBC000EA
:108E100001EB800517463046FFF757FE30B120467C
:108E200000F036F820B11120BDE8F0871020FBE7F4
:108E30006F61AE604FF49076002731462068FFF7EF
:108E400073FC4FF4AC7841462068FFF76DFC206856
:108E5000AA686969C0F84425C0F84815206801214E
:108E60008160686878B9B14649462068FFF757FCC9
:108E7000064641462068FFF752FC0643F4D000B195
:108E80000F27002068613846CEE7000028590020EF
:108E90000079054900EBC00001EB80004069002823
:108EA00000D0012070470000285900202DE9F0472C
:108EB00004460079274900EBC00001EB80072068D9
:108EC0004FF00009C0F80095786880B12068224909
:108ED000C0F808132068012140F3073000F01F029A
:108EE00091404009800000F1E020C0F88011206826
:108EF000D0F80C25D0F81485D0F80865D0F81055B6
:108F00004FF0FF31C0F80C15C0F814152068C0F8F8
:108F10000815C0F81015501C02D01046FEF731FF9E
:108F2000B8F1FF3F02D04046FEF72BFF681C02D08D
:108F30002846FEF726FF701C02D03046FEF721FFC0
:108F40002068FFF7E7FD87F82090C7F80490BDE898
:108F5000F08700002859002010030200044908444B
:108F600090F92400082801DB012070470020704799
:108F7000B05800200449084490F92400082801D280
:108F80000120704700207047B058002010B50C46F3
:108F9000017A052908D0407A38B1084808A102684A
:108FA0002046FEF7A9FD00E01AB106A12046FEF713
:108FB000A3FD2046BDE81040FEF7ABBD5058002091
:108FC000257300000D0A000038B5C3880D4604461D
:108FD00033B114A0009015A216A12846FEF78CFD0F
:108FE000217A05291CD0607A48B1A088FEF7F8FFE5
:108FF000164951F8202016A12846FEF77DFDA088CD
:109000000021FFF7D9F903461049207A143951F8A5
:10901000202001B02846BDE830400EA1FEF76CBD0F
:1090200038BD00001B5B306D000000001B5B313B56
:1090300033316D0025734C6F67732064726F7070ED
:109040006564202825642925730D0A0050580020E6
:10905000257300003C25733E2025733A2000000054
:109060000349884201D1034870470020704700003F
:1090700000200040CC57002070B5012670044FF04E
:10908000E0210025C1F88001084C4010C4F84803D5
:10909000C4F8080366602F20FFF7A8FBA660044C05
:1090A0002F20A560FFF7A2FBA57070BD0010014046
:1090B000E457002070B5054688690C4600284FF437
:1090C000847128460AD0FFF71EFBD5F81805626A9E
:1090D000E1688854606A401C606270BDFFF713FB52
:1090E000D5F8180570BD1FB501238DF80030CDE906
:1090F0000121D0E90012684690471FBD1FB501232A
:109100008DF800308DF808100192D0E90012684601
:1091100090471FBD38B50021012548B101280CD06A
:10912000032809D1FFF706FBBDE83840FEF76EBC07
:109130004FF0E020C0F8805138BD8DF8001068462F
:10914000FDF7B4FE064C207808B9FEF743FCE06852
:10915000401CE060A5709DF80000FDF7CBFE38BD17
:109160009C5800202DE9F0411400884618D00025B5
:109170000E4F032608EB050122460020FDF742FAB8
:109180000544241A40B93878002809D008494FF41A
:109190007A408847761E05D001203870002CE9D12E
:1091A000BDE8F08100203870FAE70000F857002091
:1091B000519B020070B50E4C0020D2B22070201DD1
:1091C0000C4D0378EB5C1BB1001DFFF719FE02E0AC
:1091D0000C30FFF71BFD18B1074A5321FDF71AF8B1
:1091E0006078002802D021780029FAD070BD0000F4
:1091F000FC570020B857002078A00200002805D1B5
:109200000349012048700020FEF736B8704700007F
:109210009C5800202DE9F84F204D9246894606467D
:109220009846012269461846AF68FDF705FF58B316
:10923000009800210446801C09E000BF00EA0703F3
:109240005AF8212005EB8303401C491CDA60414594
:10925000F4D34FEA164AFEF79FF84AEA0041601C31
:10926000384005EB80003C4005EB8402C160D068CB
:1092700066F3C50068F3891069F39F2020F00300AE
:10928000401C20F00400D06095F8200402E000BFEC
:10929000FEF7D8FE0028FBD1BDE8F88F5C5C00200B
:1092A00010B50446082905D005A240F2731100202C
:1092B000FCF7B0FFD4E90010BDE8104008470000FB
:1092C0002E2E5C2E2E5C2E2E5C2E2E5C2E2E5C2ED8
:1092D0002E5C636F6D706F6E656E74735C6C69622B
:1092E0007261726965735C74696D65725C617070DE
:1092F0005F74696D65722E630000000010B5112067
:10930000FFF7D5FBFEF730F80849094A891AC90862
:10931000032202EB01420F28104604D005A1BDE84C
:109320001040FEF7A9BF11A1F9E7000000A202005A
:10933000D0A1020054696D656F75742068616E6418
:109340006C657220697320657865637574696E67F2
:1093500020696E20696E7465727275707420686120
:109360006E646C6572206D6F64652E0054696D6566
:109370006F75742068616E646C6572206973206516
:109380007865637574696E6720696E2074687265AC
:1093900061642F6D61696E206D6F64652E00000041
:1093A0002DE9F84F1D4C00256846D4E901A6FDF7CC
:1093B000FDFF002738B30023009A61681CE0D1F854
:1093C00000C00846944503D9ACEB02020A6015E0E0
:1093D000A2EB0C0263440760D0F80CC0C16981465F
:1093E000BCF1000F08D006EB030828F07F48C0E965
:1093F000018CC9F81C5005460029E0D1284661605F
:10940000FEF7E6F803E02846FEF7E2F810B1504612
:10941000FDF754FFE770BDE8F88F0000E457002027
:109420000D4B10B5596831B102680C68A24204D8DE
:10943000A21A0A60C161586010BD0B4603E00B46DA
:10944000C969121B21B10C689442F8D3A41A0C60AC
:109450000260C161D86110BDE45700202DE9F041E0
:10946000144E77683D462C4603E0844204D02546DE
:10947000E469002CF9D11BE0D4B1A5420BD1F86905
:10948000706040B90C49012088600021B160F07023
:109490002F20FFF7ABF92168E069E86110B102689D
:1094A000114401607068874202D00120BDE8F0815C
:1094B0000020FBE7E4570020001001407CB5064681
:1094C00000240D468DF800406846FDF7EFFC01A82A
:1094D00000F066FA70B10570094946609DF8040015
:1094E00048709DF80000FDF705FD1420FDF72EF8EB
:1094F00020467CBD04249DF80000FDF7FBFCF7E747
:109500006C5900202DE9FC411F4D6C68002C38D0AF
:109510001E4800270068A968B846401A20F07F4618
:109520002068B04218D8361A07442046E469017C06
:1095300081B180F810804169009180690190144ADE
:1095400008216846FDF7B0FB20B112A240F2871156
:10955000FCF760FE002CE3D129786878814206D1BF
:10956000401CC0B26870022801D185F8018006480D
:1095700069780C3040F82170BDE8FC411420FCF7FC
:10958000E5BFBDE8FC810000E45700200415014060
:10959000A19202002E2E5C2E2E5C2E2E5C2E2E5CB6
:1095A0002E2E5C2E2E5C636F6D706F6E656E747305
:1095B0005C6C69627261726965735C74696D657215
:1095C0005C6170705F74696D65722E6300000000ED
:1095D00070B50C4605464FF48E71FFF794F8216A7A
:1095E000A068415C206A401C2062C5F81C1570BD53
:1095F0001FB500228DF8002002918168019142611F
:10960000D0E90012684690471FBD00001FB50A460A
:1096100001788DF8001041680191017A8DF80810E9
:10962000C0680390044850F82210001F50F8222010
:10963000684690471FBD0000C05700200149012027
:1096400008707047FC57002010B588B004462022EF
:109650000F496846FCF774FE06200090C01F019079
:10966000029003904FF0EB7006900CB1094A00E0B5
:10967000002269460848FEF70BFA18B1074A432151
:10968000FCF7C8FD0448001F447008B010BD00007E
:10969000649B02003D9602000058002078A0020062
:1096A0002DE9FF470C4605464FF40071FFF731F8EE
:1096B00001274FF40178002618B34FF492794946F8
:1096C0002846FFF71BF8E0B149462846FFF71BF88C
:1096D000C5F8088394F8290000B96F6002208DF85E
:1096E0000000D5F88004C5F880040390A0690290BA
:1096F000E0680190A661E661D4E9001268469047EF
:1097000028E004212846FFF704F818B34FF48471C9
:109710002846FEF7F3FFE8B121462846FFF7CAFCCA
:10972000616AA069884215D1E06938B1E268616A6E
:10973000A0612069E6616662E06008E094F82900B3
:1097400000B96F60C5F80883A661E268616A2046C7
:10975000FFF7C9FC4FF48E7841462846FEF7CEFF4E
:1097600078B1206A6169884202D294F8280020B357
:1097700041462846FEF7C7FF616911B12046FFF751
:1097800037FF4FF4A27841462846FEF7B7FF00287E
:1097900018D041462846FEF7B6FF94F8290000B1DC
:1097A0002F60A06900280DD0A661E268616A04B04C
:1097B0002046BDE8F047FFF796BC21462846FFF754
:1097C00007FFDEE7BDE8FF871FB50A4601788DF881
:1097D000001041680191017A8DF80810C06803906B
:1097E000044850F82210001F50F822206846904785
:1097F0001FBD0000C05700202DE9FF410C464FF46B
:10980000927705463946FEF78AFF0026C0B13946F1
:109810002846FEF789FF02208DF80000D5F8800465
:10982000C5F880040390D5F83C058DF80800E06881
:109830000190A661E661D4E900126846904723E0F2
:109840004FF4887739462846FEF769FFE0B139467C
:109850002846FEF769FFD5F83C15A069884213D168
:10986000E06960B1E268D5F8000220F02000C5F898
:109870000002E069A0612069E661E06001E0A661A4
:10988000E2682046FFF73AFC4FF4A27739462846B3
:10989000FEF745FF60B139462846FEF745FFA0694F
:1098A00030B1A661D5F83C152046E268FFF726FCEA
:1098B0004FF4907739462846FEF731FF002813D041
:1098C00039462846FEF730FF606900280CD0D5F8ED
:1098D0004C058DF800608DF80800A0680190666165
:1098E000D4E9001268469047BDE8FF812DE9F05F9A
:1098F0008346DDE90A4A994690460D460846012707
:1099000003E000BFB0FBF8F07F1C4045FAD2B94538
:1099100000D94F465FEACA7012D18CB15FEA8A70F3
:1099200002D5B9F1000F01D0202607E0302605E06E
:1099300031465846641EFDF7C7FB0CB1A742F7D36A
:109940005FF00106B9F1010F02D9A9F1010903E0A5
:10995000B5FBF6F0404502D306FB08F6F2E7DFF868
:109960003C9000BFB5FBF6F000FB165519F800104F
:109970005846FDF7A9FBB6FBF8F6002EF2D15FEAD8
:10998000CA7009D0002C07D0A74205D22021584622
:10999000641EFDF799FBF5E7BDE8F09FF69902001C
:1099A0000A494A788B78521CD2B2934200D10022E5
:1099B0000B78934201D1002070470270487800EB89
:1099C000400001EBC000001D704700006C590020F2
:1099D000020002007C58002000000050298B020089
:1099E000858D020000000000000000000000000063
:1099F0000338FDD870473031323334353637383993
:109A00004142434445460000556E6B6E6F776E20B1
:109A10006572726F7220636F646500000000000061
:109A200004A0020001000000B09E0200020000003D
:109A3000A49C020003000000249F02000400000018
:109A4000789F020005000000589E020006000000FA
:109A5000F49D020007000000609F02000800000063
:109A60006C9E020009000000D09E02000A00000067
:109A7000EC9F02000B0000008C9C02000C00000018
:109A8000849E02000D00000054A002000E000000A1
:109A9000509F02000F0000008C9F02001000000089
:109AA000C09F02001100000068A002001200000028
:109AB0003CA0020013000000D89F020080000000BC
:109AC0000C9E020081000000489D02008200000000
:109AD000089D020083000000E89C02008400000052
:109AE000249D020085000000309E020086000000D8
:109AF000389F020090000000D49D020091000000F9
:109B0000C89C020092000000989E020000820000A3
:109B1000A09F020001820000EC9E02000282000071
:109B2000089F020000840000649D02000184000080
:109B300010A0020002840000AC9D0200038400001B
:109B4000889D0200B57E0200B37E0200AD7E020059
:109B50000338FDD870470000C97F02009D7F0200D6
:109B6000957F0200FFFFFFFFFFFFFFFFFFFFFFFFEB
:109B7000FFFFFFFF00000000000000000000D60112
:109B800006010000C45B00207F000000445C002050
:109B900000000000000000000000000000000000C5
:109BA00001000007909B0200A09B0200080000003B
:109BB000C89B0200D89B020008000000D89B02004E
:109BC000E89B0200080000003CA2020044A2020040
:109BD000000000000000000034A202003CA20200CD
:109BE00000000000000000002CA2020034A20200CD
:109BF0000000000000000000E89B0200F89B02004B
:109C0000080000000040404040404040404041418A
:109C10004141414040404040404040404040404041
:109C200040404040400502020202020202020202DB
:109C300002020202022020202020202020202002D8
:109C40000202020202029090909090901010101068
:109C50001010101010101010101010101010101004
:109C60000202020202028888888888880808080898
:109C70000808080808080808080808080808080864
:109C80000202020240000000059C02004E52465FA4
:109C90004552524F525F494E56414C49445F4441F0
:109CA000544100004E52465F4552524F525F534F4F
:109CB00046544445564943455F4E4F545F454E41D7
:109CC000424C4544000000004E52465F4552524F00
:109CD000525F464541545552455F4E4F545F454E85
:109CE00041424C45440000004E52465F4552524F9F
:109CF000525F4D555445585F554E4C4F434B5F4650
:109D000041494C45440000004E52465F4552524F77
:109D1000525F4D555445585F4C4F434B5F46414948
:109D20004C4544004E52465F4552524F525F4D558E
:109D30005445585F434F4E445F494E49545F464136
:109D4000494C4544000000004E52465F4552524F78
:109D5000525F4D555445585F494E49545F464149FD
:109D60004C4544004E52465F4552524F525F424C62
:109D7000455F495053505F52585F504B545F5452A7
:109D8000554E4341544544004E52465F4552524F52
:109D9000525F424C455F495053505F504545525FBA
:109DA00052454A4543544544000000004E52465F28
:109DB0004552524F525F424C455F495053505F4CA1
:109DC000494E4B5F444953434F4E4E4543544544DF
:109DD000000000004E52465F4552524F525F4150C4
:109DE000495F4E4F545F494D504C454D454E54458B
:109DF000440000004E52465F4552524F525F4E4F54
:109E0000545F535550504F52544544004E52465F94
:109E10004552524F525F4D4F44554C455F4E4F5443
:109E20005F494E495449414C495A4544000000009D
:109E30004E52465F4552524F525F4D4F44554C452E
:109E40005F414C52454144595F494E495449414C48
:109E5000495A4544000000004E52465F4552524F59
:109E6000525F4E4F545F464F554E44004E52465F30
:109E70004552524F525F494E56414C49445F5354EC
:109E8000415445004E52465F4552524F525F444145
:109E900054415F53495A45004E52465F4552524F16
:109EA000525F494F5F50454E44494E470000000005
:109EB0004E52465F4552524F525F5356435F4841A0
:109EC0004E444C45525F4D495353494E47000000A4
:109ED0004E52465F4552524F525F494E56414C4991
:109EE000445F4C454E475448000000004E52465FC8
:109EF0004552524F525F4452565F5457495F455244
:109F0000525F414E41434B004E52465F4552524FC5
:109F1000525F4452565F5457495F4552525F444E18
:109F200041434B004E52465F4552524F525F494E9D
:109F30005445524E414C00004E52465F4552524FDE
:109F4000525F53544F524147455F46554C4C0000B9
:109F50004E52465F4552524F525F4E554C4C000098
:109F60004E52465F4552524F525F494E56414C4900
:109F7000445F504152414D004E52465F4552524F50
:109F8000525F4E4F5F4D454D000000004E52465F00
:109F90004552524F525F464F5242494444454E004B
:109FA0004E52465F4552524F525F4452565F54578D
:109FB000495F4552525F4F56455252554E00000080
:109FC0004E52465F4552524F525F494E56414C49A0
:109FD000445F4144445200004E52465F4552524F46
:109FE000525F5245534F5552434553004E52465FC0
:109FF0004552524F525F494E56414C49445F464C80
:10A00000414753004E52465F535543434553530017
:10A010004E52465F4552524F525F424C455F495047
:10A0200053505F4348414E4E454C5F414C52454171
:10A0300044595F4558495354530000004E52465FFF
:10A040004552524F525F434F4E4E5F434F554E5411
:10A05000000000004E52465F4552524F525F544935
:10A060004D454F55540000004E52465F4552524FE9
:10A07000525F4255535900002E2E5C2E2E5C2E2E20
:10A080005C2E2E5C2E2E5C2E2E5C636F6D706F6EC0
:10A09000656E74735C6C69627261726965735C6C25
:10A0A0006F675C7372635C6E72665F6C6F675F6232
:10A0B00061636B656E645F756172742E630000008E
:10A0C0007761726E696E6700646562756700000093
:10A0D0001B5B313B33306D001B5B306D00000000BB
:10A0E0001B5B313B33316D001B5B313B33326D0009
:10A0F0001B5B313B33336D001B5B313B33346D00F5
:10A100001B5B313B33356D001B5B313B33366D00E0
:10A110001B5B313B33376D00696E666F00000000DA
:10A120006572726F72000000636C6F636B000000F9
:10A13000434C4F434B0000004750494F54450000EB
:10A1400050525300554152540000000055415254A2
:10A15000450000007274745F6C6F675F6261636BCF
:10A16000656E6400756172745F6C6F675F626163D6
:10A170006B656E6400000000617070006E72665F57
:10A18000736468006E72665F7364685F736F630008
:10A1900044A20200B8570020C4000000AA6A0200CE
:10A1A00008A302007C5800208C2A0000BA6A020032
:10A1B000449B02000000000054A10200145800203B
:10A1C000589B02000000000064A102001C580020FF
:10A1D00028A102000000000030A1020000000000E1
:10A1E00038A102000000000040A1020000000000B1
:10A1F00044A10200000000004CA102000000000089
:10A2000078A10200000003037CA102000000030308
:10A2100084A10200000003032C58002024580020D1
:10A220002C580020045B002018000000FD91020063
:10A2300000000000E185020000000000159102000E
:10A24000000000000000000000000000000000000E
:10A2500000000000000000000000000000000000FE
:10A2600000000000000000000000000000000000EE
:10A2700000000000000000000000000000000000DE
:10A2800000000000000000000000000000000000CE
:10A2900000200040000000000020004000000000FE
:10A2A00000000000FF00000000000000FF000000B0
:10A2B000000000000000000000000000000000009E
:10A2C00000000000000000000000000020A10200CB
:10A2D000C0A0020018A10200C8A00200D8A002007D
:10A2E000D0A00200E0A00200E8A00200F0A002005E
:10A2F000F8A0020000A1020008A1020010A10200C3
:08A30000000000000090D003F2
:040000050002620192
:00000001FF
