:020000040002F8
:10600000D8650020156302001D6302001F630200B3
:1060100021630200236302002563020000000000E8
:1060200000000000000000000000000027630200E4
:1060300029630200000000002B6302002D630200B0
:10604000916602002F630200556C0200B5680200E1
:106050002F6302002F630200C96402000D67020073
:106060002F6302002D6C0200416C02002F630200BE
:106070002F6302002F6302002F6302002F630200D0
:106080002F630200E96602002F6302002F63020003
:10609000096902002F6302000D6902002F630200EC
:1060A0002F6302002F6302002F6302002F630200A0
:1060B0002F6302002F6302000000000000000000B8
:1060C0002F6302002F6302002F6302002F63020080
:1060D0002F6302002F6302002F6302000000000004
:1060E00000000000000000000000000000000000B0
:1060F00000000000000000000000000000000000A0
:10610000000000000000000000000000000000008F
:10611000000000000000000000000000000000007F
:10612000000000000000000000000000000000006F
:10613000000000000000000000000000000000005F
:10614000000000000000000000000000000000004F
:10615000000000000000000000000000000000003F
:10616000000000000000000000000000000000002F
:10617000000000000000000000000000000000001F
:10618000000000000000000000000000000000000F
:1061900000000000000000000000000000000000FF
:1061A00000000000000000000000000000000000EF
:1061B00000000000000000000000000000000000DF
:1061C00000000000000000000000000000000000CF
:1061D00000000000000000000000000000000000BF
:1061E00000000000000000000000000000000000AF
:1061F000000000000000000000000000000000009F
:10620000DFF80CD000F012F9004800475DA502004D
:10621000D865002000B583B002900091019244F24D
:10622000010071466A4601F067F903B000BD000045
:1062300030B4044654E8000F0D4644E80053002BE8
:10624000F8D1156030BC704730B4044654E8000FF4
:1062500040EA010544E80053002BF7D1156030BC3B
:10626000704730B4044654E8000F00EA010544E8E2
:106270000053002BF7D1156030BC704730B4044692
:1062800054E8000F80EA010544E80053002BF7D1E1
:10629000156030BC704730B4044654E8000F00EB82
:1062A000010544E80053002BF7D1156030BC70475E
:1062B00030B4044654E8000FA0EB010544E8005355
:1062C000002BF7D1156030BC704770B404464FF016
:1062D000000054E8006F0D68AE4207BF44E8002399
:1062E000012044E800630E60002B1CBF0020F0E793
:1062F00070BC704730B4044654E8000F88422CBF8D
:10630000451A054644E80053002BF5D1156030BC12
:10631000704700000648804706480047FEE7FEE752
:10632000FEE7FEE7FEE7FEE7FEE7FEE7FEE7FEE745
:106330001169020001620200202A04DB203A00FAFF
:1063400002F1002070479140C2F1200320FA03F3CC
:1063500019439040704700000048704758F1020010
:1063600040EA01039B0703D009E008C9121F08C0D7
:10637000042AFAD203E011F8013B00F8013B521E57
:10638000F9D27047D2B201E000F8012B491EFBD2CE
:1063900070470022F6E710B513460A460446194630
:1063A000FFF7F0FF204610BD421C10F8011B00292A
:1063B000FBD1801A7047034611F8012B00F8012B1E
:1063C000002AF9D1184670472DE9F05F05460020F4
:1063D00092469B4688460646814640241BE0284656
:1063E00041464746224600F033F853465A46C01A03
:1063F000914110D3114618462246FFF79DFF2D1AF2
:1064000067EB01084F46224601200021FFF794FF69
:1064100017EB00094E41201EA4F10104DFDC4846C1
:1064200031462A464346BDE8F09F0000064C074D22
:1064300006E0E06840F0010394E807009847103454
:10644000AC42F6D3FFF7E0FE74F9020094F90200C3
:10645000202A04DB203A21FA02F00021704721FAB9
:1064600002F3D040C2F12002914008431946704720
:1064700070B58C1810F8015B15F0070301D110F806
:10648000013B2A1106D110F8012B03E010F8016B33
:1064900001F8016B5B1EF9D12B0705D40023521EB6
:1064A0000DD401F8013BFAE710F8013BCB1A921C1E
:1064B00003E013F8015B01F8015B521EF9D5A1421C
:1064C000D8D3002070BD00002DE9F04700268AB027
:1064D000DFF85091B0464FF4807501243746069698
:1064E000284604F067FF38B1D9F80403204203D0EE
:1064F000284604F055FF26432D1D64007F1CADB2D5
:10650000082FEDD34FF4BE74204604F053FF48B17A
:10651000204604F045FF46F0004606AA012100206F
:1065200004F02AFF404D16F0FF0F15D0012700247C
:1065300037420DD009EB8401D1F81005D1F81015C0
:10654000C0F3042055F82420C1F3014102B1904763
:106550007F00641C082CEBD3002E5FDA4FF0FF3075
:10656000CDF8108054E0281910F8507F90F9000001
:1065700027F0C008401C3BD007A9404604F014FB9C
:1065800010B34FEA9719404602F05CF955F82070B5
:106590001FB1B9F1030F03D006E0B9F1030F27D102
:1065A00004A9404604F008FB4FF0A04101EB88002D
:1065B000D0F8000706A9C0F3014A404604F0F4FAF7
:1065C00018B1BAF1020F03D012E0BAF1030F0FD1E4
:1065D000B9F1030F08D1BAF1020F1DD002214046D4
:1065E00004F098FE761CF6B217B149464046B8470B
:1065F000641C042CB7D3002E10D06A460121002061
:1066000004F0BAFE06990098884207D006900498D4
:10661000002634460790A6E70321E0E70AB0BDE86C
:10662000F087000000600040643A002000F01F0284
:10663000012191404009800000F1E020C0F8801263
:10664000704700F01F02012191404009800000F1D5
:10665000E020C0F80011704700F01F0201219140B6
:106660004009800000F1E020C0F80012704749079F
:10667000090E002806DA00F00F0000F1E02080F893
:10668000141D704700F1E02080F8001470470000EE
:1066900070B54FF48076304604F0CDFB114CB50553
:1066A00060B1304604F0CEFB0120C5F808036079E4
:1066B00020B9012060712168002088474FF482765C
:1066C000304604F0B8FB00280AD0304604F0BAFB8C
:1066D0000220C5F808032168BDE870400120084782
:1066E00070BD0000882B002007480021C0F8401131
:1066F000C0F84411C0F84811C0F84C11C0F800119E
:10670000C0F8041108F00CB8001001402DE9FE4358
:106710004FF48278404605F05BFA4C4F00254C4C14
:10672000012600B3404605F05BFA94F82E0010B144
:1067300094F82F10D1B18DF8005061680191218932
:10674000ADF80810E26832B1218B6183626021816B
:10675000E56010B102E0257400E03E602168684603
:10676000884784F82F5094F82E0060B34FF4807758
:10677000384605F02DFA30B3384605F031FA628B11
:1067800094F82D108A420AD9A2EB010080B26083EE
:106790002289A2EB0000626802EB400005E007D10D
:1067A000E06828B184F82F60658305F0FFF904E004
:1067B0008A4202D184F82F606583404605F010FAC2
:1067C0002248001D06604FF48877384605F000FA2D
:1067D00048B1384605F004FA257402208DF800000F
:1067E0002168684688474FF48A77384605F0F0F903
:1067F00028B1384605F0F4F92574BDE8FE834FF062
:1068000000484FF48C7967691DE000BFB7FA87F044
:1068100028FA00F109EB80058F43284605F0D8F9E6
:1068200088B1284605F0DCF9A5F58C75E8088DF8E7
:10683000040045F38000401C8DF800608DF80500D1
:10684000216868468847002FE0D1D6E700700040F5
:10685000283B002000F004BA70B50E46144900EB46
:10686000400001EBC0051446E86A183520B1012844
:106870000FD0022805D113E0284600F025FAA042E7
:1068800001D2002411E022463146284600F054FA95
:106890000BE0284600F018FAA042F4D20446F2E7D2
:1068A0003146284600F01BFA0446204670BD000021
:1068B00050430020F8B51248124E04464FF48C7134
:1068C00005F0E1FB00281AD00025C4F81851D4F8CF
:1068D00018010090F07F3446FF2806D0A17F11B147
:1068E00004F029FD01E004F02DFD65772572D4E95F
:1068F000002101B004F10800BDE8F0401047F8BDE8
:1069000000300040703B002007F058BE05F03CBB53
:10691000F0B5B5480023021D0178101D01254FF088
:10692000805406290BD11678360708D10678C6F3AD
:106930000316032E06D0042E04D0052E02D00629FD
:1069400007D00EE0B4F82463A84FC6F304263E60D7
:1069500002E01678360704D10678C6F30316032E34
:1069600002D0062904D00FE0A24FA14E7E670EE0B0
:106970001678360708D10678C6F30316032E06D01C
:10698000042E04D0052E02D0062907D00EE0D4F83C
:106990004462994FC6F342363E6002E016783607ED
:1069A00004D10678C6F30316032E02D0062906D0BA
:1069B00011E0924E376827F0807737600EE0167846
:1069C000360708D10678C6F30316032E06D0042E28
:1069D00004D0052E02D006290AD011E04FF08046DF
:1069E000C6F80C31C6F81031834E361F336002E012
:1069F0001678360704D10678C6F30316032E02D0A4
:106A0000062905D00CE07C4F032664373E600AE07F
:106A10001678360704D10678C6F30316032E02D083
:106A200006290DD014E0764F05263E60744E783668
:106A30003560734E083633603F263F1D3E6002E0EE
:106A40001678360704D10678C6F30316052E02D051
:106A5000062957D062E06B4E36686B4F3E60694E38
:106A6000361D36683F1D3E60664E083636683F1D4F
:106A70003E60644E0C3636683F1D3E60614E1036F7
:106A800036683F1D3E605F4E143636683F1D3E60DF
:106A90005C4E183636685C4F20373E60594E1C36C7
:106AA00036683F1D3E60574E203636683F1D3E60BB
:106AB000544E243636683F1D3E60524E28363668A6
:106AC0003F1D3E604F4E2C3636683F1D3E604D4E9A
:106AD000303636684C4F40373E604A4E3436366862
:106AE0003F1D3E60474E383636683F1D3E60454E7E
:106AF0003C3636683F1D3E60424E403636683F1D8C
:106B00003E6002E01678360708D10678C6F3031611
:106B1000032E06D0042E04D0052E02D0062907D05D
:106B200019E0D4F85812394A01F04F01116002E01F
:106B3000117809070FD10078C0F30310032803D0A0
:106B4000042801D0052806D131480168C90702D0C0
:106B50006FF001010160D4F83001062808D1D4F8A3
:106B60003401062804D12B48016841F4806101609A
:106B700022487438016841F470010160BFF34F8FFF
:106B8000BFF36F8F4FF01021D1F80002002803DB14
:106B9000D1F80402002822DA1F4A15601F48046851
:106BA000002CFCD01524C1F800420568002DFCD053
:106BB000C1F8044201680029FCD013600168002973
:106BC000FCD0BFF34F8F0D48F0380168144A01F430
:106BD000E06111430160BFF34F8F00BFFDE7124931
:106BE00010480860F0BD0000E00F00F040350140A3
:106BF0000DF0ADBA00C007403C050040FCED00E0E0
:106C0000105600400404001020C50040E40E00406F
:106C1000000400403C17004004E5014000E401404E
:106C20000400FA050090D0036C2C002004220249D5
:106C3000024803F025BB0000103B002000900040FC
:106C400004220249024803F01BBB00001C3B002049
:106C500000A000400148006800470000902B002081
:106C600010B5124C02202061606111A0A06104F1F6
:106C70007800E0614FF4007020620020A062606242
:106C80000BA1A164E06204F51E71E1641021A0650E
:106C9000C4E91410E06509A1E01DFFF78CFB08A111
:106CA0002046FFF788FB2020A07110BD5043002034
:106CB0005465726D696E616C00000000525454009E
:106CC00053454747455200000269C1688A4203D8CC
:106CD0008068401A104400E0501A401E70472DE9A9
:106CE000F047C4681746894606464FF000083069E9
:106CF000A04201D9051B02E0B168201A0D1AB06844
:106D00006D1E001BA84200D80546BD4200D33D467B
:106D100070682A4620444946FFF722FBB0687F1B73
:106D20002C44A844A944A04200D10024F460002FC0
:106D3000DDD14046BDE8F0872DE9F04104468846A4
:106D4000D4E90207C51BE168606816460844B542ED
:106D500006D94146FFF704FBB819E060BDE8F081B1
:106D60002A464146FFF7FCFA761B08EB050132463E
:106D70006068FFF7F5FAE660F0E700000FB4084B33
:106D800010B504A902AA039800F02EF8044602A93F
:106D9000002000F05AFA204610BC5DF814FB0000F9
:106DA0004B72020002E008C8121F08C1002AFAD183
:106DB00070477047002001E001C1121F002AFBD17B
:106DC000704700000121202803DA81400548014076
:106DD00003E0402802DA2038814009B101207047E1
:106DE00000207047FC06FFBD2DE9FF4F8DB00F4618
:106DF0000546002606E025280BD0DDE90F12904756
:106E00006D1C761C28780028F5D111B03046BDE8FD
:106E1000F08F0024A246A1460122EC4900E0044381
:106E200015F8013F203B02FA03F00842F7D1287819
:106E30002A2810D06FF02F022878A0F130010929FC
:106E400014D80AEB8A0102EB410144F0020400EB82
:106E5000010A6D1CF0E701CF5FEA000A03D544F494
:106E60000054CAF1000A44F002046D1C28782E2850
:106E700017D115F8010F44F004042A280ED06FF042
:106E80002F022878A0F1300109290AD809EB8901DD
:106E900002EB410100EB01096D1CF2E757F8049B7E
:106EA0006D1C28786C280FD006DC4C2817D0682879
:106EB0000DD06A2814D104E0742810D07A280FD19C
:106EC0000DE044F400140AE044F4801401E044F4BA
:106ED00040146978814202D104F580146D1C6D1C48
:106EE0002A786E2A1FD00CDC632A31D004DC002AF9
:106EF0008BD0582A11D1A3E0642A68D0692A0CD11A
:106F000065E0732A2ED004DC6F2A73D0702A04D176
:106F10009BE0752A6FD0782A6ED01046DDE90F12FB
:106F20009047761C50E1C4F30250022806D0032893
:106F300009D0042801CF09D0066045E101CFF1173F
:106F4000C0E9006140E101CF06803DE106703BE110
:106F500017F8040B8DF8000000208DF80100EB46B7
:106F6000012003E057F804BB4FF0FF3061074FF0FA
:106F7000000102D40DE008F10101884649450FDA0D
:106F80008045F8DB1BF808100029F4D108E008F16F
:106F9000010188468142FADB1BF808100029F6D16E
:106FA000DDE90F23AAEB08008146214600F036F9FF
:106FB000304400EB080604E0DDE90F121BF8010B7A
:106FC0009047B8F10108F7D221464846F7E00A2178
:106FD000C4F302534FF0000B0891022B04D001CFF1
:106FE000C117032B09D00AE0FF1D27F00707F7E8B8
:106FF000020108E032E01FE020E000B2C117042BDC
:1070000001D140B2C117031E71F1000307DA4FF03E
:10701000000CD0EB0C006CEB01012D2302E02305EA
:1070200004D52B238DF82430012303E0E30701D09E
:107030002023F7E7984658E00A2110E010210EE0DF
:1070400010204FF0000B08900CE010214FF0000BC7
:1070500044F004044FF00809089103E008214FF0C0
:10706000000B0891C4F30253022B04D001CF00217E
:10707000032B06D006E0FF1D27F00707F7E8020103
:1070800003E080B2042B00D1C0B24FF00008230708
:107090002BD5702A07D0DDF820C08CF0100C5CEAEC
:1070A0000B0C05D00EE040238DF82430012308E0BE
:1070B00050EA010306D030238DF824308DF82520C6
:1070C00002239846DDF820C08CF0080C5CEA0B0C1B
:1070D0000BD150EA010301D1630706D530238DF8A7
:1070E00024304FF00108A9F10109582A04D038A230
:1070F0000B9208AA0A920BE03AA2F9E75B46089ABB
:10710000FFF762F90B9B9B5C0A9A521E0A9213705E
:1071100050EA0102F2D10A98ADEB000000F1200B19
:10712000600702D524F4803401E04FF00109D9450D
:1071300002DDA9EB0B0000E0002000EB0B01414455
:107140000890AAEB010AE00306D4DDE90F232146EB
:10715000504600F063F806444FF0000908E009A922
:1071600011F80900DDE90F12904709F10109761CB9
:10717000C145F4DBE0030CD5DDE90F232146504681
:1071800000F04CF8064404E0DDE90F12302090478F
:10719000761C0899481E08900029F5DC08E00A983A
:1071A0000A990078491C0A91DDE90F129047761C74
:1071B000BBF10001ABF1010BF1DC21465046DDE9EA
:1071C0000F2300F019F806446D1C1BE60928010086
:1071D000303132333435363738396162636465664D
:1071E000000000003031323334353637383941420F
:1071F00043444546000000002DE9F04104460025C7
:107200001E461746880404D405E039462020B047BE
:107210006D1C641EF9D52846BDE8F0812DE9F041CA
:10722000044600251E469046C80301D5302700E0DD
:107230002027880404D505E041463846B0476D1C38
:10724000641EF9D52846BDE8F0810A68531C0B601E
:10725000107070472DE9F0475C48C6B03C2140688B
:107260002E905B48807C8DF8BA006846FFF791F855
:1072700002208DF8000001258DF802504FF006081D
:107280008DF8038040212FA8FFF783F83FA86DDF1A
:1072900000203FA90DF18406C0F105020A4452788E
:1072A0003254401CC0B20628F6D34A484A499DF8D9
:1072B0008420401AC108032000EB014447A1204666
:1072C00004F098FA9DF88520204644A104F092FA33
:1072D0009DF88620204641A104F08CFA9DF8872075
:1072E00020463EA104F086FA9DF8882020463BA166
:1072F00004F080FA9DF88920204638A104F07AFA3B
:10730000142123A8FFF745F8002427460DF18C0926
:107310004FF03A0A1E97325D34A11EA8FFF72EFDEA
:1073200004EB44019DF8782009F8012001EB0900E5
:107330009DF87920891C4270112901DA80F802A099
:10734000641C062CE6DB41A809904396ADF8088141
:107350003C210FA8FFF71DF82EA8254C1490ADF87E
:107360004C50221D6846216800F074FC20B121A217
:107370004FF49171FEF74EFF1D4A0FA80C32A16821
:1073800000F068FC20B11BA240F22511FEF742FF7D
:10739000182128A8FEF7FDFF8DF8B55040201449AC
:1073A0008DF8A0502A90ADF8AC7029978DF8B47084
:1073B00028AAA1F1300072DF002804D00DA240F20B
:1073C0003511FEF727FF46B0BDE8F0872CED02002F
:1073D000E42E00200CFA0200B4F902006164647229
:1073E0006573733A2530327800000000255800009C
:1073F000582B00202E2E5C2E2E5C2E2E5C6D61698B
:107400006E2E6300074810B50121007873DF20B1AC
:10741000054A40F2C511FEF7FDFEBDE81040002010
:1074200001F02AB9282B0020A0A7020070B5002483
:10743000084D05E0686810F8340004F0B7FE641CDD
:1074400028788442F6D304484068BDE8704000F0D4
:107450002BBB0000982B0020CCED020070B500245F
:10746000064D06E06868012110F8340004F0C2FE01
:10747000641C28788442F5D3002070BD982B00202E
:10748000F8B515460C460646052A01D20720F8BD78
:1074900004F0ACFF18B904F071FF0028F7D11249CD
:1074A00000224E600C708D60C1E90422C1E9062201
:1074B0000E4D0DE006EBC4002968009181788DF82F
:1074C000011000780A4A694604F0E6FE0028DED181
:1074D000641EE4B2EED2BDE8F84004480021054A3B
:1074E000001D00F05FBA0000982B0020CCED0200D8
:1074F0008DA00200D58E0200FEB515460E46074649
:1075000072B604F021FA00BF04F056F80028FBD14F
:107510002249234A0120891AC90800EB0144012F9E
:1075200023D06FF48050381822D0B0F5405F24D0BB
:107530006FF44051C84206D12B88204619A16A68D1
:1075400004F05FF904E0204632461DA104F052F930
:1075500021480068C00700D000BE2A4603B031466B
:107560003846BDE8F04000F079B820461BA101E0A4
:10757000204622A104F03AF9EAE7A86804F0A4FD45
:107580000346D5E90001CDE900100296204624A16A
:10759000AA6804F03EF920462BA1EBE70CFA0200A2
:1075A000B4F90200415353455254494F4E204641CD
:1075B000494C45442061742025733A25750000002C
:1075C000554E4B4E4F574E204641554C54206174FA
:1075D0002030782530385800F0ED00E0534F465405
:1075E0004445564943453A20415353455254494F27
:1075F0004E204641494C454400000000534F46543C
:107600004445564943453A20494E56414C49442049
:107610004D454D4F525920414343455353000000BF
:107620004552524F52202575205B25735D206174B1
:107630002025733A25750D0A50432061743A203095
:107640007825303878000000456E64206F6620652C
:1076500072726F72207265706F72740008B50123C8
:107660008DF800309DF80030144B186059609A6016
:107670006FF48041401807D001280FD1DA60D86834
:1076800000889861D86807E01A61186980685861B5
:1076900018690068986118694068D8611868586866
:1076A0009868D868186958699869D86972B600BF2F
:1076B0009DF800000028FBD162B608BDB43B002055
:1076C000164B10B593F822402CB193F82240032CAE
:1076D00003D0112010BD082010BD82B1042483F80E
:1076E00022409C7A240700D44902C3E903019A820C
:1076F0000020DA829883012A03D9522002E0072071
:1077000010BD5120012205F09FFE20B104A240F2DD
:107710000241FEF77FFD002010BD0000F83C002074
:107720002E2E5C2E2E5C2E2E5C2E2E5C2E2E5C2E93
:107730002E5C636F6D706F6E656E74735C6C6962E6
:107740007261726965735C7364636172645C6170B9
:10775000705F7364636172642E63000070B51E4BCA
:10776000144693F822202AB193F82220032A03D04A
:10777000112070BD082070BD04B3052283F82220BB
:107780009A7A150700D44902C3E903019C820020BC
:10779000DC829883012C13D002F0070001284FF0FF
:1077A000010217D02146D72005F04EFE20B10BA2D2
:1077B00040F23C41FEF72EFD002070BD072070BD59
:1077C0000122582005F040FE0028F5D003A240F227
:1077D0002D41EFE75920E7E7F83C00202E2E5C2EE4
:1077E0002E5C2E2E5C2E2E5C2E2E5C2E2E5C636F5D
:1077F0006D706F6E656E74735C6C696272617269D4
:1078000065735C7364636172645C6170705F736400
:10781000636172642E630000054890F8221003290A
:1078200004D090F8220008B1012070470020704772
:10783000F83C0020044890F82210032901D3001DD1
:107840007047002070470000F83C0020F0B5314C34
:10785000054687B094F822000F4610B1082007B003
:10786000F0BD002F54D0E878FF2851D06978FF2967
:107870004ED02978FF294BD0A978FF2948D000267F
:1078800084F858000122009633461146019603F011
:10789000EDFC94F8580003F05CFD1F4B0DF1080C53
:1078A0000FCB8CE80F00A8788DF8080028788DF8A9
:1078B000090068788DF80A0017480023174A02A9C2
:1078C000103803F0FBFA20B115A240F26541FEF733
:1078D000A1FC44F8227B012004F819090D4B6078C3
:1078E000383320F00F006070A676FF20E0770A2082
:1078F000009009480122A3F11001103803F016FB93
:1079000020B107A240F27141FEF784FC0020A6E7F7
:107910000720A4E7F83C002068EF020051E00200D5
:107920002E2E5C2E2E5C2E2E5C2E2E5C2E2E5C2E91
:107930002E5C636F6D706F6E656E74735C6C6962E4
:107940007261726965735C7364636172645C6170B7
:10795000705F7364636172642E6300007CB50F4DC9
:1079600095F8220028B195F82200032803D01120B1
:107970007CBD08207CBD0A4804F032FF002495F845
:10798000580000942346224621462235019403F0F4
:107990006DFC6C702C7000207CBD0000F83C002059
:1079A0005CEF0200084B9B7823B12AB120B100683C
:1079B000037C1BB108207047072070470023037425
:1079C0004174426118467047D43B002070B505F001
:1079D0003BFC104800240B21047044700E4D817054
:1079E00014206C602C706C70FEF720FE06211420B1
:1079F000FEF73DFE1420FEF724FE08480460062131
:107A00001120FEF734FE0548001F0068A860002022
:107A100070BD0000D43B0020B82B002008150140A9
:107A20002DE9FC47DFF8789099F8023073B368B31A
:107A3000052902D20720BDE8FC87436933B3437CA4
:107A4000012B25D0002704460025884616468DF8D0
:107A50000050684600F038F801A807F0CFF8C8B128
:107A6000012101700F4944600968C0E90218C0E9AA
:107A700004769DF8040089F801009DF8000000F0EC
:107A800047F81420FEF7E8FD2846D4E70820D2E79F
:107A90000F46D8E704259DF8000000F039F8F3E719
:107AA000D43B0020041501400649897839B130B132
:107AB000416921B100210174022106F00DBE0820A8
:107AC00070470000D43B002030B5EFF3108172B650
:107AD0000D4A9468012324B10370002900D162B6D5
:107AE00030BD93604FF0E023D3F88051074C254020
:107AF0001560C3F88041D3F8844154605A17C3F825
:107B0000842100220270E8E7E03C0020FC06FFBD73
:107B10000B498A68002A11D000280FD1EFF310809A
:107B200072B60B684FF0E022C2F800314B68C2F821
:107B3000043100228A60002800D162B6704700003C
:107B4000E03C00202DE9F041064608680C46411C47
:107B50004FF0A0474FF0010506D005FA00F1C7F835
:107B60000815206803F0B8FB6068411C02D00121B1
:107B700003F0A0FB3168A069C1F82405607D227D77
:107B800031681043C1F86C05D4E900123068C0F8C0
:107B90001425C0F80C15207D012815D1A068411CC2
:107BA00002D0002103F086FBE068411C05D085402F
:107BB000C7F80855E06803F08FFBD4E9021230687B
:107BC000C0F80825C0F81015BDE8F0812DE9F04196
:107BD000064608680C46411C4FF0A0474FF00105CF
:107BE00006D005FA00F1C7F80815206803F07EFBFF
:107BF0006068411C02D0012103F065FB3168A06977
:107C0000C1F82405607D217D32680843C2F86C0507
:107C1000D4E900123068C0F80C15C0F81425207D96
:107C2000012815D1A068411C02D0002103F04BFBB4
:107C3000E068411C05D08540C7F80855E06803F0AE
:107C400055FBD4E902123068C0F80825C0F81015B9
:107C5000BDE8F0812DE9FC47002517880646158010
:107C600090F82D001446894630B13A4621464846E0
:107C700000F0E6F8051E09D1B0784FF00C0A18B3F1
:107C80002088C846001DB84202D95046BDE8FC878E
:107C9000684679DF0028F9D12088032108F8001010
:107CA00020881921401C80B2208008F8001020880C
:107CB000401C80B2208000EB0801BDF8000006F0F7
:107CC000F7FE218808442080F0780222C8B121887C
:107CD00096F9033001F1030C4846BC45D5D842540F
:107CE00021884FF0010C491C89B2218000F801C0A5
:107CF0002188491C89B2218009F801302088401C64
:107D000020807068B8B1218890F9003001F1030C2F
:107D10004846BC45B9D8425421880A22491C89B238
:107D2000218042542188491C89B2218009F8013000
:107D30002088401C2080308950B1CDE900474B4657
:107D40000622022106F1080006F070FF051E9DD1F3
:107D5000308A50B1CDE900474B460722032106F196
:107D6000100006F063FF051E90D1308B50B1CDE9B5
:107D700000474B461522142106F1180006F056FF65
:107D8000051E83D1306A30B13B462246494600F099
:107D900004FF051EDBD1706A30B13B4622464946DE
:107DA00002F062FD051ED2D196F82C0038B13B4698
:107DB00022464946304606F06BF8051EC7D130789A
:107DC00038B13B4622464946304602F000FE051EC9
:107DD000BDD128465AE7000070B5040012D0014614
:107DE0001C221448FEF7BCFA1248134D05602068A7
:107DF00050B17ADF002806D1206801682960406808
:107E0000686005E00E2070BD0B487BDF0028FAD1CA
:107E100008484FF6FF711438084A20F8041B05493A
:107E2000343901600021FFF7BDFD0028EBD00320AD
:107E300070BD0000BC390020742B002071EB0200E3
:107E40007CB5054608880C460930904201D90C20C3
:107E50007CBD68466DDF0028FAD12188082068546F
:107E600020881B21401C80B2208029542088401C7F
:107E700080B220802844DDF801100160BDF80510B3
:107E800081802088801D80B220809DF800104908E4
:107E900000D0012129542088401C208000207CBD76
:107EA000F8B5474D064602886889212A68D019DC52
:107EB0004449454B102AA1EB03014FEAD1014FF091
:107EC000030303EB01441FD0112A37D0132A34D106
:107ED00000231A4685217FDF00282ED03BA24FF4D5
:107EE000FE710DE03B2A62D0522A56D0562A24D188
:107EF000B088132176DF00281FD034A240F21E2163
:107F0000BDE8F840FEF786B9204634A103F06EFCC8
:107F1000012000F0B1FB002000F0A6FBB1886981D0
:107F2000314802F00DFF20B128A240F2DD11FEF72A
:107F300071F9FFF793FA0120A871F8BD20462BA133
:107F400003F054FC28480C3001F0F2FB00282046D6
:107F500001D02AA100E02FA103F048FC012000F08D
:107F600083FB4FF6FF706881FFF760FA20B117A21C
:107F70004FF4F971FEF74EF9BDE8F840FFF742BA49
:107F800000200090B08869468FDF0028D5D00FA26E
:107F90004FF40271FEF73EF9F8BD00231A46194668
:107FA000B1DF0028F8D009A240F20E21A8E7B0887E
:107FB000132176DF0028EFD004A240F216219FE7BC
:107FC000282B00200CFA0200B4F902002E2E5C2EA1
:107FD0002E5C2E2E5C6D61696E2E6300436F6E6E9B
:107FE0006563746564000000142F002044697363A6
:107FF0006F6E6E656374656400000000665F737980
:108000006E6320646973206661696C65640D0A2E75
:1080100000000000665F73796E63206469732073EB
:10802000756363657373210D0A2E00002DE9F04717
:1080300001883B4E40F2F3194FF6FF7510291BD013
:1080400011293ED0122954D0502946D1C188F28935
:10805000841D914241D1618902293ED186883046F2
:1080600002F056F8050038D004F10C0000F0A4F935
:10807000A8B3294630464EE0C17B878804460129D3
:108080002BD1A846284602F043F8050017D02F80D0
:1080900000202872234843464A460168C5F80A1062
:1080A0004068C5F80E0004F1100105F10A0002F065
:1080B0000AF96872F08900280FD129462AE00420C5
:1080C00013E0808802F024F8040006D06068FFF70F
:1080D000EBFC08B105F088FE2580BDE8F087FFE7DE
:1080E0006868FFF7E1FC0028F7D0BDE8F04705F02D
:1080F0007BBE87880646384602F00AF80400ECD0BA
:108100002B464A4606F1080104F10A0002F0DBF8AA
:10811000607221463846BDE8F04700F091BD00008E
:10812000BC390020742B00202DE9F04F07468588CC
:1081300002883E48012197B08346102A09D0112AAF
:108140004BD01A2A6ED1387AB1EB101F47D20122D8
:1081500046E0364C083CA068C0430B9061680BA811
:1081600002F0B4FC0B990CA800F0F8FC2C220CA92E
:108170006846FEF7F5F80026E946A04610E000BF85
:1081800009EB46005FF00004B0F804A008EB84009F
:108190005146001D02F06EFC641C1D2CF6D3761CAB
:1081A0000098B042ECD8142D07D317B0E321BDE8F6
:1081B000F04F1FA20420FEF72DB82946584602F0C2
:1081C0006FFC294608F1040002F06AFCF87B0128E4
:1081D00028D016482946001D15E029461AE000223D
:1081E0000221B1EB101F01D2012600E000260F4949
:1081F000083901F11000041D294682B102F050FC3B
:1082000036B12946204617B0BDE8F04F02F048BC11
:108210002946204617B0BDE8F04F02F02BBC02F013
:1082200029FCF5E717B0BDE8F08F0000E039002029
:108230002E2E5C2E2E5C2E2E5C2E2E5C2E2E5C2E78
:108240002E5C636F6D706F6E656E74735C626C65CF
:108250005C636F6D6D6F6E5C626C655F636F6E6E9D
:108260005F73746174652E630000000070B58EB09A
:10827000044608686061304B4868A0610FCB08ADC8
:1082800085E80F0004F1120108A862DF002851D12F
:10829000A07C8DF8320041F22350ADF83000224628
:1082A0000CA90120A8DF002844D120216846FEF750
:1082B00070F841F22450ADF80000A07C01258DF843
:1082C00002008DF80C509DF80D00ADF80650F42614
:1082D00040F012008DF81150ADF804608DF80D00DB
:1082E0008DF81350208804F10A02694600F0B2FAB2
:1082F00000281FD120216846FEF74BF841F2255097
:10830000ADF80000A07C8DF802009DF80D00ADF8DE
:1083100006508DF80C5040F00E008DF81150ADF85D
:1083200004608DF80D008DF812502088A21C69465B
:1083300000F090FA0EB070BD8CED020030B40288EF
:10834000502A1BD1C4884D88821DAC4208D1538964
:10835000012B05D14B691BB1127B808830BC1847BB
:10836000AC420BD15389012B08D98C69002C05D064
:108370008088A44630BCDBB20C32604730BC70470A
:1083800086B01423ADF81030A0F57F43FF3B11D029
:108390000023009301930293039301238DF802308D
:1083A0004989ADF8001004A9CDE902126946AEDF93
:1083B00006B070470820FBE7007800F00100704726
:1083C00008B503F0A7FD20B10D4A40F23121FDF7B9
:1083D00021FF002000906946012003F015FC20B128
:1083E000074A40F23721FDF715FF684603F0A6FC67
:1083F000002804D0024A40F23B21FDF70BFF08BDE4
:10840000A0A70200087A0A782AB1012A03D0022A1A
:1084100001D0032A09D100EB4002044849784068A2
:1084200000EB820001720021817270475C2C0020F9
:10843000806970472DE9FE430E46016984698046D4
:10844000B1F5007F02D00620BDE8FE83134D6968B8
:1084500009B11120F8E7A660A261686010491430E4
:10846000FFF7F4F9070008D1A6B900BFFFF7D4F968
:108470000028FBD1287878B10D27002068604EB124
:10848000084A07CA8DE80700A0690290A2686946F9
:10849000404690473846D7E70027FBE7D42B00201B
:1084A00001D50200A8EF020019B1012906D006206B
:1084B00070470AB1002010700020704712B1001DF3
:1084C0001060F9E707207047FEB51C4F0646846927
:1084D00078680D46B04202D1FFF79EF908B111202D
:1084E000FEBD95E8070004F10C0383E80700A888A7
:1084F000296882B2A868FFF7E3F8050009D1A068EF
:10850000C0B900BFFFF788F90028FBD1387898B1CF
:108510000D25A06870B16DB10948016B806B0290A8
:1085200004F10C00CDE90010A0690290A268694630
:10853000304690472846FEBD0025EAE7D42B0020B0
:1085400090EF0200FEB5124F044685697868A0429C
:1085500002D1FFF761F908B11120FEBDFFF7FEF966
:10856000060000D17860A86878B10A4907C98DE88B
:1085700007000EB1012000E000208DF80100A8697D
:108580000290AA686946204690473046FEBD00002A
:10859000D42B0020B4EF0200FEB51C4F06468469C0
:1085A00078680D46B04202D1FFF736F908B11120C4
:1085B000FEBD95E8070004F10C0383E80700A888D6
:1085C000296882B2A868FFF7C9F8050009D1A06838
:1085D000C0B900BFFFF720F90028FBD1387898B167
:1085E0000D25A06870B16DB10948C16B406C029057
:1085F00004F10C00CDE90010A0690290A268694660
:10860000304690472846FEBD0025EAE7D42B0020DF
:1086100090EF02002DE9FC410646C0074FF000052F
:108620000ED0104F00240122385D00950023114622
:10863000019502F0C1FD641C042CF4D300F024F871
:10864000B0070DD5074E0024361D0022305D0323F0
:1086500000951146019502F0AFFD641C042CF4D383
:10866000BDE8FC8169ED02000249085C012102F0CD
:1086700077BE000069ED02000249085C002102F0AB
:108680006FBE000069ED020010B500242046FFF720
:10869000EBFF641C042CF9D310BD00002DE9F84356
:1086A0000546861C00208DF8000090460F464FF0CE
:1086B00001096846FFF708FA1B4C20683860D4E9C6
:1086C0000001401AA16804F21C47081A0EE00121BB
:1086D000384602F0F5F901F0F3FE0146384602F0A3
:1086E000EFF9D4E90001401AA168081A401C86423B
:1086F000EDD8B8F1000F03D0052065F3891002E032
:10870000062065F39F50A2682168114004EB8101A7
:10871000C8602068304420609DF80000FFF7F8F939
:108720004846BDE8F88300002C3F002030B4826842
:108730000468531C8360A154D0E901128A4202D319
:1087400030BC02F040BC30BC70470000034803C896
:10875000814201D101207047002070472C3F00204A
:1087600010B50D2803D011A240F25A2119E0134888
:108770001349401AC008032101EB004011A103F086
:1087800035F8002C11D0A4F5405002380DD0082C3B
:108790000BD043F20140844207D0204603A240F2AE
:1087A0005521BDE81040FDF735BD10BD2E2E5C2EC5
:1087B0002E5C2E2E5C6D61696E2E63000CFA020039
:1087C000B4F9020053656E6420627574746F6E2094
:1087D0007374617465206368616E67652E000000C4
:1087E00005494FF0FF32082841F8202002D3084401
:1087F00080F8482070470000643A0020F0B54FF040
:10880000FF3512B10023082601E008230C260C4C8A
:1088100005E000BF54F823707F1C04D05B1CB342FA
:10882000F8D32846F0BD26185DB286F8305044F8DB
:108830002310002AF5D1E11881F84800F1E7000083
:10884000643A00200249084490F930007047000063
:10885000643A00202DE9F0438146887891B0904633
:108860000C4600B901208DF83E002088ADF83C0090
:1088700000250095607C694605F07AFB6E46A07C79
:10888000711C05F075FBE07B00289DF8020002D00A
:1088900040F0080001E020F008008DF80200217C83
:1088A00011B140F0100001E020F010008DF802003E
:1088B000217B11B140F0010001E020F001008DF8B2
:1088C0000200217D09B1022100E0012161F3420093
:1088D0008DF802001C2102A8FDF75BFD607BC1063C
:1088E00001D4800617D50E950EAFE07C791C05F0FB
:1088F0003FFB9DF83800079720F00F00401C20F048
:10890000F00010308DF838009DF83A0020F0060095
:10891000801C8DF83A00607B8DF80800A07B8DF8F4
:108920000900142109A8FDF734FD0FA8CDE90906B7
:10893000A088ADF83000A06820B1E088ADF82C0028
:10894000A0680D90A06998B301950088ADF810005B
:10895000A06901AD01A94088ADF81200A069406886
:1089600006950390A069007B05F002FBA069691CD5
:10897000407B05F0FDFAA069807A00289DF806008A
:1089800002D040F0080001E020F008008DF8060059
:10899000A169C97A11B140F0100001E020F0100087
:1089A0008DF80600A169097A19B140F0010002E0D2
:1089B0000DE020F001008DF80600A169897B09B166
:1089C000022100E0012161F342008DF80600E06918
:1089D00000B10590434609AA02A94846AADF11B092
:1089E000BDE8F08310B504460020E070401EE06250
:1089F000204601F0D3FF08B1042010BD04F22E2060
:108A000001F0A1FCA0F52A41553901D0032010BD89
:108A100094F83000E92805D0EB2814D194F83200FE
:108A2000902810D104F1660001F082FC0749B1EBF7
:108A3000002F06D004F1820001F07AFC044988423C
:108A400001D1002010BD022010BD0000004641549D
:108A50004641543370B5084C050009D010342168E4
:108A6000002907D008682060496828468847F6E74B
:108A70000834F4E770BD0000503A0020054A012197
:108A800020B1012805D19170FFF7E4BF517000209B
:108A9000FAE77047503A00204269891E921E8A42C6
:108AA00001D800207047826A408901FB002070478E
:108AB0002DE9F05F26484168F1B3DFF898B00E6801
:108AC0008146DBF8004087688078E11B21F07F4514
:108AD000ED1CB0B9DFF880804FF48030C8F8440353
:108AE000C8F804031120FDF7A1FD1120FDF7A9FD31
:108AF0004FF0010AC8F800A02F2003F04FFB89F8BF
:108B000002A0B54200D23546124BE8193C3320F0A2
:108B10007F401860DBF800105A46091B21F07F41A6
:108B2000001B20F07F40C91C81420FD910681860DB
:108B30002F2003F033FB00E004E0BDE8F05F1120DC
:108B4000FDF78ABDBDE8F05F04F07EBBBDE8F09F95
:108B5000B82B0020041501400010014073B58CB003
:108B60000646002000900D9880B100246D462146F5
:108B70000DA801F08AFF30B1009805EB4000848019
:108B80000098401C0090641C142CF0D32C226946E1
:108B90003046FDF7E5FB0EB070BD2DE9F0411788BA
:108BA0000646B81D14460D46984202D90C20BDE871
:108BB000F0813188072206290AD34FF4486C4FF61A
:108BC000FF73614501D9994202D17088062801D20C
:108BD0001046ECE7604501D99842F9D1994203D09B
:108BE000984201D08142F3D80520E855208812210F
:108BF000401C80B2208029542088401C80B22080F4
:108C00004119308805F054FF2188084480B2208043
:108C10004119708805F04CFF21880844208000200D
:108C2000C5E7000002A240F2A311FDF7F3BA00006D
:108C30002E2E5C2E2E5C2E2E5C6D61696E2E6300D6
:108C400038B54A7A0F4B62B100220A72596900297D
:108C500006D001228DF80020ADF802006846884752
:108C600038BD0A7A62B19B684C68024619462046B4
:108C7000FEF7D6FE0028F3D0BDE8384005F0B4B8C2
:108C80005B68F1E7BC3900202DE9F04105680F0071
:108C9000804606D001F04CF9022809D20120BDE837
:108CA000F081EE6816B16869B04207D8012605E088
:108CB000411CF4D069698142F1D83E463446686966
:108CC000641CA04202D80224022E0AD32146404648
:108CD00001F02EF938B10128E1D0411CDFD0B442B7
:108CE000EDD10020DBE74FF0FF3632462146284623
:108CF00004F0FAF930B957B122463946284604F053
:108D0000F3F920B101280FD001242046C7E7EC6019
:108D1000D5E90401891E884201D2401E28612879C4
:108D200040F001002871F0E73446EEE72DE9F0410C
:108D30000E4620300D6804460B22202101F0D0FDA4
:108D40000020014608232A5C401C202A12D92F2A21
:108D50000BD05C2A09D02E2A01D0994214D30B2BB8
:108D600037D02E2A35D10CE0401C2B5C2F2BFBD0AA
:108D70005C2BF9D02844306059B32078E52834D0F2
:108D800035E008210B23DEE7A2F181071E2F02D96F
:108D90005F3F1C2F13D82F5C401CA7F1400CBCF187
:108DA0003F0F04D3A7F1800CBCF17D0F11D2A3F1CA
:108DB000010C61450DD26254491C675413E010A7A1
:108DC00000E07F1C97F800C0BCF1000F04D0944570
:108DD000F7D10620BDE8F081A2F16107192F01D873
:108DE000203AD2B26254491CADE705202070202AF7
:108DF00001D8042000E00020E0720020EAE7000033
:108E0000222A2B2C3A3B3C3D3E3F5B5D7C7F0000A1
:108E100070B588B00646002005900690ADF8141095
:108E2000ADF816100190029001AA05A9304690DF16
:108E3000050021D003F048F9034611481149324694
:108E4000401AC108012000EB014004460E4902F01F
:108E5000D8FCBDF8042012B9BDF8060028B1BDF851
:108E60000630204609A102F0CCFCBDF808201AB15A
:108E70002046164902F0BEFC08B0284670BD00002E
:108E8000B4F90200B4F9020070F1020054686520E0
:108E90007265717565737465642054582F5258203B
:108EA0007061636B6574206C656E677468206973AC
:108EB00020746F6F206C6F6E672062792025752F8C
:108EC0002575206F63746574732E0000BCF1020079
:108ED00020BF70472DE9F0470025DFF88C803CE08B
:108EE0006068002100EBC506012032789146FDF74D
:108EF00023FAD4E9062300EA020701EA030C57EA41
:108F00000C0728D082438B434846C4E9062303F06C
:108F10002BFA32788246914601200021FDF70CFAA7
:108F2000D4E9042300EA020401EA03074A46504652
:108F30000021FDF701FA44404F403C430BD17078CB
:108F4000012801D0012100E00021726881EA0A01B4
:108F50000AB1484690476D1CEDB298F800004446AF
:108F60008542BDD3BDE8F087982B00202DE9F04164
:108F700004460021056800F008F9002826D128469B
:108F8000A16901F00BFD02001FD1E069017899B1E0
:108F9000C17A01F03F01A171C17A09070FD404F130
:108FA00020010B2610F8013B11F8017BDB1B761E1C
:108FB00004D0002BF6D002E0042206E02BB1002101
:108FC000204600F005F80200D9D01046BDE8F08137
:108FD0002DE9F0470546076904688069894620370E
:108FE00010B1B7F5001F02D30420BDE8F087F905E2
:108FF00060D1401CA86169694FF0000829B16089FF
:10900000401E10EA572F05D054E02089B0EB571FBF
:109010001DD94FE0284600F08BFF064601281BD9DA
:10902000701C33D06069B0423ED8B9F1000F0ED049
:1090300028466969FFF728FE06000BD0012E0BD0E9
:10904000701C23D0204605F037FAF8B906E0C5F8C1
:109050001880C9E70720C8E70220C6E74FF400726E
:10906000002104F1300001F03BFC4FF000083146D4
:109070002046FFF711FD4FF00109E0620DE000BF4F
:1090800084F80390204605F017FA08B10120ACE7F8
:10909000E06A08F10108401CE06261894145EFD8AF
:1090A000E16AA1EB0800E062314620466E61FFF7FD
:1090B000F3FCA861C7F30800204430302F61E86159
:1090C000002092E770B504460E460420256821E092
:1090D000284601F063FC10BBE2691178B1B1D27A85
:1090E000E52902F03F02A2710AD02E2908D00F2AEA
:1090F00006D022F0200108290AD00021B14210D068
:1091000000212046FFF764FF20B108E0042006E0BC
:109110000121F3E7A1690029DAD1002801D000215B
:10912000A16170BD70B504460021066800F02DF8FD
:109130000DE03046A16901F031FC50B9E0690078DA
:10914000E52809D040B101212046FFF741FF002862
:10915000EFD0042807D007E03046A16901F01EFCDB
:10916000050003D00FE0072005460CE02022002177
:10917000E06901F0B5FB0B2204F12001E06901F088
:10918000A5FB0120F070284670BD2DE9F04107686D
:109190000E460546B1F5001F36D2F00634D12E61D9
:1091A000AC6824B93878032805D37C6A1CB1788967
:1091B0004FEA402812E03889B0EB561F24D9786A6C
:1091C00012E0284600F0B4FE0446401C1AD0022CDF
:1091D0001AD37869A04217D9A6EB0806464521465E
:1091E000EFD23846FFF758FCC5E9054060B100EB07
:1091F0005620A861C6F3080038443030E8610020EA
:10920000BDE8F0810120FBE70220F9E770B51C4CB6
:10921000217888420DD2616800EB400551F8253075
:109220003BB101EB85014A7AD20704D04A6822B1EA
:1092300005E0032070BD487A70BD124A4A600122E1
:109240008A7202461868104906681846B04710B17D
:1092500010E040688047606800EB8500817A002953
:10926000F7D1616801EB8501097A19B9417A21F0DA
:1092700001014172606800EB8500407A70BD00001A
:109280005C2C0020D18E02000584020038B51D4DF3
:109290002B78984201D3042038BD00EB400439B14B
:1092A00018480129406815D002291DD0012038BD79
:1092B00001208DF8000068686A46002150F82400FB
:1092C00001F0B6FD08B1112817D19DF80000002863
:1092D000F1D112E050F8240088B1016814464969C0
:1092E00088470068206008E050F8240038B1016821
:1092F00014464969884780882080002038BD0320B3
:1093000038BD00005C2C0020FEB51D4C2578A8421D
:109310000DD263B100EB4005606850F8256026B1BE
:1093200000EB8506777AFF0703D00320FEBD0420FB
:10933000FEBD0092CDE901310121B17250F82560E6
:109340006F46306841693046884700680099884216
:1093500014D93068394682683046904710B10DE024
:1093600040688047606800EB8500817A0029F7D16A
:10937000606800EB8500007A0028D9D00120FEBD8E
:109380005C2C002006490A78904201D301207047E6
:10939000496800EB400001EB8000407A7047000014
:1093A0005C2C0020FEB5204C2578A8420DD263B17C
:1093B00000EB4005606850F8256026B100EB85069B
:1093C000777AFF0703D00320FEBD0420FEBD777A25
:1093D0007F0701D50220FEBD0092CDE901310121B8
:1093E000B17250F825606F46306841693046884751
:1093F00000680099884214D930683946C2683046FE
:10940000904710B10DE040688047606800EB850030
:10941000817A0029F7D1606800EB8500007A002886
:10942000D9D00120FEBD00005C2C0020014A506014
:10943000117070475C2C002010B50021024801F02B
:1094400050FB80F3100010BD484300200E4910B5BA
:109450000A784C780023A24212D0521CD2B20A7071
:10946000022A00D10B70084A0B780C3252F82320E4
:1094700002608868104420F07F408860012010BDA1
:109480000360002010BD0000B82B002017B581B08C
:10949000144602980090684600F0DAFD002802DACF
:1094A0000B2004B010BD0B4A002352F8201001B16C
:1094B0000B700199002900D00B7042F8201001D0E8
:1094C000012C01D00020ECE7002201A902A800F045
:1094D0009DFBE6E7682C00202DE9F7438CB00500E2
:1094E0000BD002F03F06324669460DA800F08EFB15
:1094F00004004FF0000804D0C0E009200FB0BDE820
:10950000F0830098019001A80D9900F0A5FC0400DB
:1095100004D19DF82F00000600D5062416F01C0F7C
:109520004CD04CB1042C03D101A8FFF7FBFD04463D
:1095300046F008065CB1A1E09DF80A0010F0110F9A
:1095400001D007249AE0700701D5082496E030077F
:1095500043D54D4F089839460E3004F017FF089850
:109560003946163004F012FF08992020C872089975
:10957000009800F0CAFE074600220899009804F0FF
:10958000F1FE089800211C3004F000FF0099012032
:10959000C87007B3D1F82C900022394601A803F017
:1095A00018FE04006AD14946009801F0F7F904005A
:1095B0000098A7F10107C7600BD05FE0CCBB9DF816
:1095C0000A00C10601D5042458E0B10701D5C0073F
:1095D000B7D1300701D546F040060098C16A29622C
:1095E00008996962089900F090FEA86008981C30FC
:1095F00000F09EFEE8600098286000984FF400722A
:109600000021C088A8802E7485F81180C5F81C80C0
:1096100005F128008146C5F8148001F061F9B00613
:109620002ED5EE6866B36E610098A968408947023E
:109630000FE023E0284600F07BFC0146012800D81B
:109640000224481C02D0F61B1CB104E00124F61BC6
:1096500001E0BE42EED8A96184B9F00510D00098AF
:10966000FFF71AFA70B100EB5622EA610098012365
:1096700049464078FFF748FE10B10124C5F8008044
:1096800020463BE70224F9E70000214813B582B0E9
:10969000040006D00022694603A800F0B7FA18B10A
:1096A00020E0092004B010BD0099216020460399F4
:1096B00000F0D2FB90B994F82B00000607D4A079F3
:1096C000C00612D5E169009800F01FFEA060009866
:1096D000C188A18020460021FFF757FD042804D04F
:1096E0000028DFD000212160DCE70520FAE738B54B
:1096F0000C460546694605F000FB002813D10146DB
:1097000028468CB1FFF7DEFC042801D000280AD1DE
:109710002146284600F06BFC00212846FFF758FC44
:10972000042800D1002038BDFFF72FFD38BD000010
:10973000F8B50446694605F0E0FA00280ED1217C10
:109740004A060BD508060ED50098E2690123407839
:1097500004F12801FFF726FE08B10120F8BD207CA6
:1097600000F07F002074154E216A009801F016F970
:109770000028F3D1656A2946E87A40F02000E872B3
:10978000A268206804F0EEFD05F11C00E16804F019
:10979000FDFD314605F1160004F0F8FD002105F14C
:1097A000120004F0FBFD00980121C17004F040FE9E
:1097B000217C01F0BF012174F8BD000000002148A8
:1097C0002DE9FE4F8846002119609946154604464A
:1097D00002A905F092FA002806D1607C002803D186
:1097E000207C800702D40720BDE8FE8F6069012736
:1097F00042194FF0020A04F1280B824200D2C543FD
:1098000094E06069C1056ED102994989491E11EA47
:10981000502612D108B1A16902E0A06828B9002140
:109820002046FFF731FA00287DD001282DD0411CB9
:1098300054D0A061A16801B9A060207C00060BD5BE
:109840000298E269012340785946FFF7ABFDA0BBBF
:10985000207C00F07F002074A1690298FFF71CF9BA
:1098600098B130440190680A009027D002993218CC
:109870004889824201D9801B0090DDE90032487896
:109880004146FFF78FFDC0B903E084F811A0022024
:10989000AAE7E1690198081A009988420AD208EB00
:1098A00040214FF40072584601F010F8207C00F07F
:1098B0007F0020740098460227E00FE0E1690198DC
:1098C00081420ED0E168606988420AD20298012381
:1098D00059464078019AFFF717FD10B167740120CF
:1098E00082E70198E061A08AC0F30800C0F5007625
:1098F000AE4200D92E46204432464146283000F080
:10990000E5FF207C40F0800020746069B044304462
:109910006061E168884200D80846E060D9F800003C
:10992000AD1B304400E004E0C9F80000002D7FF4D6
:1099300068AF207C40F040002074002054E7000015
:10994000F8B501214C48FFF771FD4C484C49401ACD
:10995000C608032000EB064004464AA101F046FF7A
:1099600003250020FFF752FC6D1E02D00028F8D11D
:1099700003E010B120464BA160E0514F5148796996
:10998000884740684FF48011B1FBF0F579694D4884
:10999000884700684CA1B0FBF5F2204601F02AFF91
:1099A00020464DA101F022FF01223DA14F48FFF7C3
:1099B0006DFD0028204601D04DA13FE050A101F0EF
:1099C00015FF55A15548FFF761FE10B1204654A17F
:1099D00034E00520514D00EB06462C3505F1090712
:1099E0004E494E482C31FFF782FE10B153A120465C
:1099F00024E0687A88B1287AC00605D530463A4610
:109A000054A101F0F7FE05E030463B4655A12A6817
:109A100001F0F7FE687A0028E2D1304620A101F07B
:109A2000E5FE204652A101F0E1FE3C48322258A159
:109A30008030FFF751FD20B1204658A101F0D6FE3D
:109A4000F8BD36486B461E225FA18030FFF7B8FE96
:109A500020B1204664A101F0C9FE08E006490120BA
:109A600040394871204664A1009A01F0C3FE2B489A
:109A70008030FFF75DFEF8BD682B00200CFA020075
:109A8000B4F90200496E697469616C697A696E673C
:109A9000206469736B20302028534443292E2E2ED6
:109AA000000000004469736B20696E697469616C21
:109AB000697A6174696F6E206661696C65642E00F5
:109AC00078EF020044ED02004361706163697479CC
:109AD0003A202564204D42004D6F756E74696E67A3
:109AE00020766F6C756D652E2E2E0000702C002078
:109AF0004D6F756E74206661696C65642E000000A0
:109B00000D0A204C697374696E672064697265631D
:109B1000746F72793A202F002F000000A02E0020D1
:109B20004469726563746F7279206C697374696ECD
:109B300067206661696C6564210000004469726594
:109B400063746F72792072656164206661696C6507
:109B5000642E00002020203C4449523E2020202535
:109B60007300000025396C7520202573000000006B
:109B700057726974696E6720746F2066696C65201E
:109B80004E4F524449432E5458542E2E2E0000005E
:109B90004E4F524449432E5458540000556E616252
:109BA0006C6520746F206F70656E206F7220637219
:109BB000656174652066696C653A204E4F52444970
:109BC000432E5458542E0000496D706564656E63D1
:109BD0006520636F6C6C656374696F6E207374616C
:109BE0007274732E0D0A00005772697465206661E5
:109BF000696C65640D0A2E002564206279746573B2
:109C0000207772697474656E2E0000002DE9FF41A3
:109C1000002790460E460F6000F01AFA050003D5A3
:109C20000B2004B0BDE8F081884850F825409CB175
:109C30003460207808F0FE0620B16078FFF7A2FBC0
:109C4000C1070BD02770E8B2B8466070FFF7DEFAA4
:109C5000C10708D00320E4E70C20E2E70EB140077B
:109C600004D40020DDE71EB1400701D50A20D8E763
:109C7000002631462046FEF7B5FE022822D10025F7
:109C80004FEA0D0704EB051090F8F21100F5F7709C
:109C900019B1083000F04CFB00E0002047F8250027
:109CA0006D1C042DEED3002557F8256036B13146E2
:109CB0002046FEF797FE022801D203E003206D1C28
:109CC000042DF1D3042809D002286DD204F13B0001
:109CD00000F039FBB0F5007F66D101E00120A0E77C
:109CE00004F1460000F02FFB18B904F1540000F015
:109CF0001FFBA06194F84050A570012D01D0022DEA
:109D000052D1454394F83D006081E8B3411E0842BA
:109D10004AD104F1410000F016FB2081000743D135
:109D200004F1430000F00FFB070004D104F15000E0
:109D300000F0FEFA074604F13E0000F004FB0100CB
:109D400032D02389481900EB131297422CD3B81A4A
:109D50006789B0FBF7F0B8B103274FF6F57C604593
:109D600000D8022740F6F57C604500D80127801C0A
:109D70003244A26231446061C4E90761032F15D007
:109D800013B12944616200E00EE0022F1FD000F001
:109D9000010100EB400001EB500000BFA16900F29F
:109DA000FF10B1EB502F14D20D203AE704F15A0006
:109DB00000F0C9FA0028F7D120890028F4D104F175
:109DC0005C0000F0B5FA606260698000E6E7400080
:109DD000E4E74FF0FF302061E06080202071032F26
:109DE0002CD104F1600000F0AEFA012826D1711CDC
:109DF000204600F0D3FD08BB84F8048004F22E2036
:109E000000F0A1FAA0F52A41553917D104F130002C
:109E100000F08EFA0E49884210D104F5057000F06A
:109E200087FA0C49884209D104F5067000F080FADF
:109E3000206104F5077000F07BFAE06003492770A9
:109E4000091F0888401C0880E0800AE7682C002071
:109E5000525261417272416173B5044605680198BE
:109E600001E0401C019001782F29FAD05C29F8D03C
:109E70000021A16001980078202806D2802084F873
:109E80002B002046FFF781F97CBD01A92046FEF793
:109E90004DFF0028F8D12046FFF768F894F82B1002
:109EA00028B10428F0D14907EED405207CBD49072C
:109EB000FCD4A079C006F8D5208AC0F30800411967
:109EC0002846303100F021FAA060DEE70EB515A17A
:109ED0009DF8080020F00F00401C20F0F00010302A
:109EE0008DF80800062202A87CDF18B10F4ACF21A6
:109EF000FCF790F90020009001901020ADF80000D0
:109F0000ADF802005A20ADF804004FF41670ADF819
:109F1000060068467ADF002803D0044AD921FCF7FE
:109F200079F90EBD496D704C594C0000A0A7020094
:109F30002DE9F04104680D4602290BD36069A8425F
:109F400008D920784FF0FF36012807D002282BD0FF
:109F5000032839D001263046BDE8F081206A05EBA0
:109F6000550700EB5721204600F018FD0028F2D1DC
:109F7000C7F3080020447F1C90F83080206A00EB73
:109F80005721204600F00AFD0028E4D1C7F308005D
:109F9000204490F8301048EA0120E90701D0060972
:109FA000D9E7C0F30B06D6E7206A00EB152120465F
:109FB00000F0F4FC0028CED1E8B204EB40003030D1
:109FC00000F0C1F90646C6E7206A00EBD51120462D
:109FD00000F0E4FC0028BED140F2FF1000EA85004A
:109FE0002044303000F0A4F920F07046B3E72DE9AA
:109FF000F041002305464B7280690C46002825D0AD
:10A0000000210A462E26E869805C521C20280AD0CE
:10A01000052800D1E520092A02D16718491C7E7263
:10A020006718491C78720B2AEDD360184372E869EF
:10A03000C07A2072E8691C3000F07AF92060E86983
:10A04000163000F075F9E080000CA080BDE8F081CA
:10A0500010B504464FF0FF302268002A13D0114695
:10A0600000E0491C0B78212B0ED33A2BF9D112F8C2
:10A07000013B303B0A2B06D28A4204D1002B02D18D
:10A08000491C1846216010BD002010BD2DE9F0418B
:10A090008046024601200021FCF74EF91A4F054682
:10A0A0000E467868FDF700FD00280CD1174CD4E966
:10A0B000062110462A4001EA06031A4305D0A843A8
:10A0C000B143C4E90601BDE8F081404602F04CF915
:10A0D00030B1D4E9040128433143C4E9040105E067
:10A0E000D4E90410A943B043C4E90410D4E906013B
:10A0F00028433143C4E90601A1687868BDE8F0410E
:10A100000022FDF78DBC0000CCED0200982B002052
:10A110000146034802888A4200D0002070470000B0
:10A12000A83900202DE9FC5F0E008346DDE90C47CD
:10A13000C6F1000098469246814600D408460125A3
:10A1400003E000BF90FBFAF06D1C5045FADAA84519
:10A1500000D9454624B1002E01DB780700D5641EE6
:10A16000B80702D5B8F1000F0AD0F80708D13CB102
:10A17000A54205D220215846641EFEF7D7FAF6E71D
:10A18000002E02DA4E462D2102E0780703D52B215E
:10A190005846FEF7CBFA07F0030002280BD1B8F1BE
:10A1A000000F08D13CB1A54205D230215846641EAB
:10A1B000FEF7BCFAF6E7CDE9004743465246314682
:10A1C000584604F07BFCBDE8FC9F000070B50D46CE
:10A1D000044600684FF4887101F09CFF4FF49071C1
:10A1E000206801F097FF4FF49271206801F092FF10
:10A1F0004FF4A271206801F08DFF20681249C0F869
:10A2000004132068690740F30730090E002806DAB6
:10A2100000F00F0000F1E02080F8141D03E000F1D1
:10A22000E02080F800142068012140F3073000F09E
:10A230001F0291404009800000F1E020C0F8801228
:10A24000C0F8001170BD000010030200024600209B
:10A250001268530713D502F00300012802D0022828
:10A260000CD105E0C2F383100B68801C184404E095
:10A270000223086803EB92521044086001207047E3
:10A280002DE9F041174688460646002417E000BF36
:10A290004FF4A07000EB84054FF480307159A0405A
:10A2A00059B1D6F80413014207D02946304601F0CF
:10A2B00015FFD8E9002128469047641CE4B2BC424F
:10A2C000E6D3BDE8F081F0B58488A518944200D8A3
:10A2D0002246A41AC288D6189A4200D81346D21A27
:10A2E0004B880788BB420CD34088834209D88888B2
:10A2F000A04206D3A84204D8C888904201D3B042F5
:10A3000001D90020F0BD0120F0BD70B506460D4614
:10A3100001F11A0000F017F804463078032805D13F
:10A3200005F1140000F00FF844EA0044204670BD27
:10A33000C178827842EA01214278007842EA01211C
:10A3400040EA012070474178007840EA01207047D8
:10A350000B480C4910B5401AC008032101EB00441A
:10A360004FF0020022B1FEF787F9204606A103E074
:10A37000FEF77AF9204609A1BDE8104001F036BA8F
:10A380000CFA0200B4F902005265636569766564EF
:10A39000204C4544204F4E2100000000526563656B
:10A3A00069766564204C4544204F464621000000F4
:10A3B000F7210180172141800021017141711B218A
:10A3C0008171C171704700002DE9F047394E0027B7
:10A3D00080463D46DFF8E090D6F804A057E003D071
:10A3E0000446D0F81C8035E099F8002002EB4201C9
:10A3F000521CD2B289F8002009EBC10199F8023051
:10A40000091D9A4201D189F8005048680A7804462B
:10A41000012A12D0022A02D0032A3BD108E004F01C
:10A420002BF900B10127257434E00574C06900E000
:10A4300070680028F9D170602CE0207C50BB8868DF
:10A440006060C868A0600869E0604869A061F07851
:10A4500000B165606268B168184B501A20F07F4007
:10A46000984202D2A168084406E0881AA16820F048
:10A470007F40814202D9081A206000E025606560B3
:10A480000120A56020742046E56104F0D7F8B8F1FA
:10A490000000A4D199F8001099F801008142A3D1DD
:10A4A00017B97168514502D00120BDE8F08700203E
:10A4B000FBE70000B82B0020D43B0020FFFF7F000B
:10A4C0002DE9FF410026234800F0F7FA2148001F3C
:10A4D000074600F0F2FA204C60680090A56800E0A2
:10A4E00000986946284004EB80000C30FFF7AEFE70
:10A4F0000028F5D101AA009901EA050304EB8303C2
:10A50000491CDB6842F82030401C00910228F2D33D
:10A51000019800F0030001280BD0022810D1019807
:10A52000032101EB90500099BDF80A6001EB900007
:10A5300005E00198BDF80A60C0F38310084400905C
:10A54000384600F0B7FA08B10098606004B03046B1
:10A55000BDE8F081444300202C3F002088B04FF438
:10A560000041002001F0BAF920B18DA240F275211E
:10A57000FBF750FE01F006F80120FEF74BF801272B
:10A58000B8070760D0F800110029FBD088490F6098
:10A59000C0F80870D0F804110029FBD0FDF716FAB6
:10A5A00020B17FA240F28931FBF734FE40F26662AF
:10A5B00001218048FCF764FF20B179A240F26E21AE
:10A5C000FBF728FE01F0A0FA20B175A240F281212C
:10A5D000FBF720FEFDF7F4FEFFF778FC002176483C
:10A5E00000F0F4FA18B16EA2E221FBF713FEFFF7B8
:10A5F000A7F902F079FE71480324714AD0E90410EA
:10A60000CDE900106D488DF802406946083002F02F
:10A610009FF920B162A240F25A31FBF7FBFD674877
:10A6200008300068D0F810054FF4FA42C240634881
:10A63000042302210830009702F074F95F480830C3
:10A6400002F062F903F068FCFCF704FE1C21684686
:10A65000FBF79FFE00254FF42030CDE900504FF46A
:10A66000702002905748059057488DF80C4006908E
:10A67000ADF80E508DF810506846FDF7ADFB20B1D7
:10A6800047A24FF4DD71FBF7C5FD50485049401A11
:10A69000C00804EB00464FA1304601F0A7F8FCF7D4
:10A6A000B1FE304651A101F0A1F8424CE9464FF607
:10A6B000FF78283C00F080FF0028FBD1207970B3A0
:10A6C000257161784FF0000059B14A46FF231354B9
:10A6D000401C1428FBDB59B1657025616561A770CA
:10A6E00007E0F0234A461354401C1428FBDBF2E732
:10A6F0006770314805AB227A2030216AFFF760F895
:10A700000028304601D03FA10BE042A1059A01F09C
:10A7100071F860780028304602D043A101E003E0E0
:10A7200044A101F063F80FE0E079B0B1E571657024
:10A73000657125616561A5700020A5816946F822D3
:10A740000A54401C1428FBDB6089404520D01A497C
:10A750006A461C39FDF714FE1AE0A08941F28831DF
:10A7600088420ED31448A570A5812030FEF7E0FF83
:10A770000028304601D031A100E035A101F036F8C3
:10A7800006E0E07820B13749606A02F0D5FDE57057
:10A7900000F012FF002891D101F0CAF98EE7000005
:10A7A0002E2E5C2E2E5C2E2E5C6D61696E2E63004B
:10A7B00018050040502B0020002F00202CED020037
:10A7C00099E5020045CE0200258C02000CFA020039
:10A7D000B4F90200426C696E6B79206578616D7026
:10A7E0006C6520737461727465642E004641544632
:10A7F00053206578616D706C652073746172746547
:10A80000642E00005772697465206661696C656426
:10A810000D0A2E00256420627974657320777269B1
:10A820007474656E2E0000005374617274206F6B37
:10A8300000000000456E64206F6B0000665F737956
:10A840006E63206661696C65640D0A2E000000006D
:10A85000665F73796E63207375636365737321211B
:10A860000D0A2E005C31002070B5144682880E4619
:10A8700005462088111D0144921C994201D8FE2AE8
:10A8800001D90C2070BD521C32542088FF21401C7D
:10A8900080B2208031542088401C80B220808119F1
:10A8A000288804F005F92188084480B22080AA880D
:10A8B00042B1A96841B13044FBF752FD2088A98814
:10A8C00008442080002070BD072070BD002A05D0FC
:10A8D00011F8013B00F8013B521EF9D1704700000E
:10A8E0005FFA81F100F8011B521EFBD170472DE980
:10A8F000F047C5881E1DB6FBF5F78946B6FBF5F196
:10A90000044605FB176C407916686843DDF820A003
:10A91000F718001F874200D9C61A166001E02468A4
:10A92000491E0029FBD1A5EB0C078846B74216D873
:10A9300018E004EB0C00001D09EB0803BAF1000F4E
:10A940003A4602D00146184600E01946FBF708FDDA
:10A950002468F61B4FF0000CB844B54201D93746C5
:10A9600000E02F46002EE4D1BDE8F08730B5024666
:10A9700051B100F0D1FF0021074C08E034F821303C
:10A980001568AB4202D11160002030BD491C8142E4
:10A99000F4D3052030BD00000000000070B504466F
:10A9A000C06A0D460026A8420FD0204603F084FD61
:10A9B00006000AD1607801232A4604F13001FEF72F
:10A9C000A3FC08B1751E0126E562304670BDF8B5DE
:10A9D0000F46017814460546012901D1687830B147
:10A9E0002088821C9A4232D8012902D006E0072032
:10A9F000F8BD69780144891C994228D8181A801E2C
:10AA000086B2ADF800602188B81C084469467DDF35
:10AA10000028EDD12978022904D06878BDF80020FB
:10AA2000904205D3BDF80000B04201D809200AE0E9
:10AA30000820012905D16978B14202D8ADF800108B
:10AA400001E0ADF80060BDF80010FE2901D90C202E
:10AA5000F8BD2288491CB9542188491C89B221803B
:10AA600078542088401C2080BDF8001008442080C5
:10AA70000020F8BD01F01F0301229A40D24349098A
:10AA800000EB8100114600F021B84A0950F822007D
:10AA900001F01F0201219140084000D001207047C1
:10AAA00001F01F0301229A40490900EB8100114681
:10AAB00000F01CB8002100F00FB8012100F016B81A
:10AAC00008B56A46FBF7E7FB009808BD08B56A467B
:10AAD000FBF7C7FB009808BD08B56A46FBF7C1FB4A
:10AAE00008BD08B56A46FBF7A3FB08BD08B56A4672
:10AAF000FBF7AAFB009808BD08B56A46FBF7D8FB30
:10AB0000009808BD38B5044600258DF80050684609
:10AB1000FCF7DAFF21686268086890420ED9401E8F
:10AB200008600178238AE26801FB0325227A216804
:10AB3000101AC0B20A79824200D208719DF8000052
:10AB4000FCF7E6FF284638BD38B5054600208DF8ED
:10AB500000000C466846FCF7B7FFE868298A201A0F
:10AB6000B0FBF1F12A681068431C136001709DF876
:10AB70000000FCF7CDFF38BD10B530B1017A426856
:10AB80000368891AC9B21A6006E00E2010BD036876
:10AB90001A68541C1C601170491EC9B2F7D20068B3
:10ABA00000210171084610BDC20800F00703012012
:10ABB000895C98400840704710B5C20800F0070350
:10ABC000885C01249C402043885410BD10B560B1BE
:10ABD0000161F72120F8021B20F8021B1B2100F85D
:10ABE000021BFFF7E5FB002010BD0E2010BD00008A
:10ABF000F0B5858893B00C46002D39D10188002628
:10AC00003F4F24293BD006DC102909D011290CD054
:10AC1000232958D14FE03A290BD0552953D129E0A7
:10AC20000146204602F028F94DE0A01DFFF7C0FBC9
:10AC300049E02246408934F8061F814200D8084680
:10AC40006080172800D217206080106970B1607989
:10AC500060B1D7E90001CDE90301ADF80E5060887D
:10AC6000ADF81000136903A9104698476671267164
:10AC700013B0F0BD0146204602F052F923E0011D59
:10AC80002C2206A8FBF76CFBBDF81800BDF81C20B1
:10AC900004EBC0014A732269AAB1D7E90423CDE9C4
:10ACA0000423ADF81200487B8DF814002269204679
:10ACB00004A9904707E0017A207B884200D2014630
:10ACC0002846FEF7A5F8A07A0028D1D0E1882846CA
:10ACD000A5DF012580B11128CAD001F0F5F902469F
:10ACE0000848094913B0401AC00805EB0040BDE808
:10ACF000F04006A100F07EBDA672E572B8E7000044
:10AD000074ED0200B4F90200B4F9020073645F62EA
:10AD10006C655F67617474635F65786368616E67B3
:10AD2000655F6D74755F7265717565737428292030
:10AD300072657475726E65642025732E00000000C4
:10AD400020B10278DE2A03D0082070470E20704719
:10AD500041800020704760B159B10278DE2A0AD0E4
:10AD600009684160DE2101704FF6FF7141800020CB
:10AD700070470E207047082070477FB505460029B0
:10AD80004DD0002D4BD008780C46DE2847D1A8883E
:10AD90006188884202D1204603F01EFF28880128DE
:10ADA00025D002283BD011283AD0512837D135F888
:10ADB000040F6188884232D1A978A81C02292ED1BB
:10ADC000017A042903D0062901D0052927D10021C1
:10ADD000009102228DF8002001914FF4C07202917F
:10ADE0000391ADF80420007A05280FD010E0297AED
:10ADF0002046012913D1A988428891420FD101210F
:10AE0000017204B0BDE8704003F0E6BEADF8041076
:10AE100028886946B0DF002801D0616888477FBD77
:10AE2000A88861888842FAD14FF6FF7060807FBDA4
:10AE300003681B69184700F180400068002800D0B3
:10AE40000120704708B500F18040002101600068D2
:10AE5000009008BD70B50B4C207808B185250FE037
:10AE60000020A06060602061E060074801F070F998
:10AE7000054601F09BF808B901F052F90120207055
:10AE8000284670BD503A00207D8A020038B5002562
:10AE90008DF800506846FCF717FE074CE068401E2E
:10AEA000E060E06810B901F063F9A5709DF800005A
:10AEB000FCF72EFE38BD0000503A00202DE9FF417E
:10AEC0001C460378164D174E45F823200C3545F8DF
:10AED0002340F0CE8DE8F0000C788DF800404C78DF
:10AEE0008DF801408C788DF80240CC788DF80340C5
:10AEF0000C798DF805404C798DF806408C680294E9
:10AF00000C7B8DF80C40497B8DF80D1002B1064A80
:10AF10006946001D01F0A8FB04B0BDE8F081000007
:10AF2000583B0020B8ED020071E202001FB5001D81
:10AF3000069C8DE81E000022694601F095FC04B0D5
:10AF400010BD0000F0B505460478154889B01646D6
:10AF500040F82420124A0869121DA2F1080742F89D
:10AF60002400487F385520226846FBF7F9F90494FD
:10AF70002878385C48B10EB10A4A00E000226946E0
:10AF8000281D01F07BFE09B0F0BD0EB1064A00E0BD
:10AF90000022694605F10C0001F042FDF3E70000D4
:10AFA000802B00208DE90200D1E702000FB408B524
:10AFB0000399002904D004AA00926A4600F00FF811
:10AFC00001B05DF814FB10B582680446002A05D074
:10AFD000D4E90403216898470020A06010BD2DE942
:10AFE000FC4791460C00804676D014F8011B39B11D
:10AFF00025290ED04046FDF799FB20780028F4D192
:10B0000098F80C00002867D04046BDE8FC47FFF7E1
:10B01000DABF0020012221782B291BD02D2902D054
:10B02000302908D102E040F0010001E040F00200C8
:10B03000641C002AEFD100252A290ED02178A1F125
:10B0400030020A2A11D205EB850201EB4205641C8D
:10B05000303DF1E740F00400EAE7D9F800100B1D9D
:10B06000C9F800300968641C0D44217800232E299A
:10B070000BD114F8011FA1F130020A2A05D203EB0B
:10B08000830201EB4203303BF3E76C290DD06829C2
:10B090000BD0692921D00BDC252918D0582931D0B3
:10B0A00063290ED0642915D117E014F8011FECE7CD
:10B0B000702969D0732932D075291BD0782909D11C
:10B0C00020E0D9F80000011DC9F8001001784046C1
:10B0D000FDF72CFB641C90E76CE0D9F800100A1D0A
:10B0E000C9F800200968CDE900500A224046FFF760
:10B0F00019F8EFE7D9F800100A1DC9F8002009680F
:10B100000A2206E0D9F800100A1DC9F800200968D3
:10B110001022CDE90050404603F0D0FCDAE7D9F820
:10B12000001000270A1DC9F800200E68C00705D1CD
:10B1300012E04046761C7F1CFDF7F8FA31780029B2
:10B14000F7D104E0202140466D1EFDF7EFFABD4225
:10B15000C0D9002DF6D1BDE74EB13046FBF724F93A
:10B16000074604E0202140466D1EFDF7DFFABD4290
:10B1700006D9002DF6D103E04046761CFDF7D6FA3D
:10B1800031780029F8D1A5E7D9F80000011DC9F8E8
:10B190000010056830214046FDF7C8FA7821404686
:10B1A000FDF7C4FA08200021CDE900010346102272
:10B1B0002946B0E7BDE8FC8770B541EA4201DDE908
:10B1C00004564FF0A04441EA830141EA052104EB13
:10B1D000800041EA0641C0F8001770BD70B541EA31
:10B1E0004201DDE904564FF0A04441EA830141EAFF
:10B1F000052104EB800041EA0641C0F8001770BD4C
:10B2000070B541EA4201DDE904564FF0A04441EA3D
:10B21000830141EA052104EB800041EA0641C0F8C0
:10B22000001770BD70B541EA4201DDE904564FF0E8
:10B23000A04441EA830141EA052104EB800041EA90
:10B240000641C0F8001770BD70B541EA4201DDE962
:10B2500004564FF0A04441EA830141EA052104EB82
:10B26000800041EA0641C0F8001770BD70B541EAA0
:10B270004201DDE904564FF0A04441EA830141EA6E
:10B28000052104EB800041EA0641C0F8001770BDBB
:10B290001CB5002100910B4601220191FFF7B0FF80
:10B2A0001CBD1CB5002100910B4601220191FFF746
:10B2B000B9FF1CBD1CB500220B460092114601923D
:10B2C000FFF79EFF1CBD1CB500220B4600921146E5
:10B2D0000192FFF7A7FF1CBD1CB5002100910B4692
:10B2E000012201911146FFF78BFF1CBD1CB5002107
:10B2F00000910B46012201911146FFF793FF1CBDFF
:10B300001CB5002100910B46012201911146FFF767
:10B310009BFF1CBD4FF0A04202EB8000D0F800273D
:10B3200022F44032C0F80027D0F8002742EA014159
:10B33000C0F8001770474FF0A04201218140C2F8C9
:10B340000C1570474FF0A04201218140C2F808154A
:10B3500070474FF0A04201218140C2F808157047A4
:10B3600001224FF0A043824011B1C3F80825704775
:10B37000C3F80C257047000018B5084B6C46014413
:10B380001B68009306E000BF54F82030D3F8103556
:10B39000401C08C28142F7D818BD00009CED020095
:10B3A000034908B50844002101600068009008BD09
:10B3B0000060004002494058012800D0002070473A
:10B3C0000060004030B5154A01460020D2F8104414
:10B3D00023460AE0DB681D79854205D1401C0A2816
:10B3E000F6DB4FF0FF3030BD1B68002BF2D1431C61
:10B3F000F9D0CB681871D2F8103443B1DB68CC684F
:10B400001B682360D2F81024D268116030BDC2F8E6
:10B410001014C96800220A6030BD00002C3F0020D3
:10B420007047FBF717BA704708B5034A00924023EC
:10B43000024A00F005F808BDF9DD0200543D002085
:10B44000F0B595B01C4615460F4608461A9E00F00A
:10B4500035FB182109A8FAF79CFF0E96CDE909548F
:10B460000023082203A9384600F03DFB059806900A
:10B47000BDF81000ADF81C00BDF81200ADF81E00BC
:10B4800000208DF821000398082600F00300012811
:10B4900002D0022818D032E003983346850AC0F360
:10B4A000C2008DF8200003980FA9C0F38314A200F6
:10B4B000384600F018FB09A8009006AB22460FA9F9
:10B4C000284600F057FA1AE00398840DC0F3C20032
:10B4D0008DF82000082C01D2254600E008253346CF
:10B4E0002A460FA9384600F0FEFA2E44641B09AB29
:10B4F00006AA29460FA800F09BF9002CEAD138468D
:10B5000000F0E2FA15B0F0BD7047012003F07EB9FB
:10B51000084810B50178084A515C19B1001D01F0C6
:10B5200039FC02E00C3001F047FBBDE81040002080
:10B5300003F06CB9E42B00207C2B002008B5034AF3
:10B5400000924023024AFFF77BFF08BD49DE02005C
:10B55000943D00200A4A012902EBC00007D00229CD
:10B5600007D0032907D0042907D000207047022004
:10B570007047042070470079704740797047000099
:10B58000B4F9020010B5FFF74CFF04210948FFF79A
:10B5900019FF08480124C0684471FFF7B6FF054849
:10B5A00004211030FFF70EFF02481030C0684471CC
:10B5B00010BD000094F902002DE9F04F8DB0FDF7A9
:10B5C000C5F818B100200DB0BDE8F08F7E4C4FF0EB
:10B5D000000BC4F818B4BFF34F8F60680290A568E1
:10B5E000D846284004EB80000CE000BFD4F81804D3
:10B5F00070B921680298814201D86160E2E7284071
:10B6000004EB80000C3002A9FEF720FE0028EDD1EB
:10B61000002005AA029901EA050304EB8303491CF3
:10B62000DB6842F82030401C02910228F2D30598D2
:10B6300000F00300022802D001284DD0AAE00598AE
:10B640005022810D8946B2EB905F00D850210E4602
:10B6500066F39F50059008315C4800F0E6F907005A
:10B6600078D000F02BFA4346082205A9384600F0AE
:10B6700042FA029908F1080A2940681A8000001D60
:10B68000864222D9504D0C3530B1C2B204EB810153
:10B69000301A90460C3104E02946F2B2002590465B
:10B6A0002846C6B25346384600F025FA0AEB08038E
:10B6B00025B132462946384600F01DFA029909F1B3
:10B6C000030001EB900002903BE004EB8101534644
:10B6D000324638460C31EFE70598C0F38310062850
:10B6E00000D30620059960F38911C1F38310801CF3
:10B6F00005918100354800F098F907004AD000F024
:10B70000DDF94346082205A9384600F0F4F908F1AE
:10B71000080800260FE00298434600EA0501401C95
:10B7200004EB81010290042238460C3100F0E3F969
:10B7300008F10408761C0598C0F38310B042EAD8DB
:10B7400047B1D4F81054D4F8180478B1384600F052
:10B75000BBF934E01EE0E8684079012804D12A688A
:10B760002846394612689047E8680568002DF2D1EE
:10B77000384600F0A9F98DF800B06846FCF7A4F946
:10B78000D4F8180408B9029860609DF80000FCF72E
:10B79000BFF914E0D4F8104405E021682046896818
:10B7A0008847E0680468002CF7D109480949401A25
:10B7B000C008022101EB004007A100F017F8FCF7D8
:10B7C000C5FF80F00100FEE62C3F00202CFA0200AD
:10B7D0000CFA0200B4F902004261636B656E647397
:10B7E00020666C75736865640000000000231A46CB
:10B7F00002F0D8BD08B5012300926A4602F0D2FDDE
:10B8000008BD1CB5CDE9002302236A4602F0CAFD3B
:10B810001CBD70B586B00DF1280C9CE870008DE859
:10B820007C0005236A4602F0BDFD06B070BD000035
:10B830002DE9F0470E4680461C46924608293ED820
:10B8400094F80C90002020731946104601F0F4FB88
:10B850000025B54206D218F805201AA12046FFF7A8
:10B86000A5FB03E019A12046FFF7A0FB6D1C082DE6
:10B87000EFD317A12046FFF799FB0025B54210D260
:10B8800018F80570FAF768FD0068C05D10F03E0F0B
:10B8900001D03A4600E02E220EA12046FFF786FB9B
:10B8A00003E00DA12046FFF781FB6D1C082DE5D3B9
:10B8B00001222146504601F0A1FB84F80C90BDE81E
:10B8C000F087000020253032780000002020200082
:10B8D0007C00000025630000200000000B4810B52C
:10B8E000FF218160002101604160C0F81814C0F898
:10B8F000141480F82014064800F0E4F8002803D15E
:10B90000044800F045F9002010BD00002C3F002045
:10B910002CFA020024F0020002480349401AC00831
:10B92000704700002CFA0200B4F9020013B5684613
:10B93000FFF71CF808B100201CBD0248009950F820
:10B9400031001CBDB4F9020070B509480125D0F8DA
:10B95000104480F8205407E0E068457121682046D3
:10B9600049688847E0680468002CF5D170BD000084
:10B970002C3F00202DE9FF4781460C9D00200C46FE
:10B980002F7B2873984616462946184601F054FB2B
:10B99000072E42D2DFE806F004090F161F2A3600F0
:10B9A00049462846FFF702FB37E049462846226809
:10B9B000FFF7FCFA31E0D4E9002349462846FFF7B7
:10B9C000F5FA2AE0A0680090D4E900234946284609
:10B9D000FFF7ECFA21E0D4E90201CDE90001D4E956
:10B9E000002349462846FFF7E1FA16E004F1080073
:10B9F00007C88DE80700D4E9002349462846FFF729
:10BA0000D5FA0AE004F108000FC88DE80F00D4E968
:10BA1000002349462846FFF7C9FA00222946404636
:10BA200001F0ECFA2F73BDE8FF872DE9F041058A9C
:10BA300080462D1F4819C01CB0FBF5F0C6B2404629
:10BA4000FFF760F8041E19D00020207101206071FA
:10BA5000E58000272546761EC4F800800BE04046AE
:10BA6000FFF750F860B16179491C617128600546A3
:10BA70007F1CC0F80080B742F1D32046BDE8F081BA
:10BA8000204600F002F80020F8E72DE9F041457962
:10BA900001466B1E002201E00968521C9A42FBD34A
:10BAA0000F680146002605E038460C68FFF74CF8A1
:10BAB0002146761CAE42F7D3BDE8F0810121001D7E
:10BAC000FEF7FEBFFFF758B810B504460121001D70
:10BAD000FFF712F810F0FF0F04D12046BDE8104028
