:020000040000FA
:1000000058280020150300001D0300001F030000F6
:10001000210300002303000025030000000000006E
:1000200000000000000000000000000027030000A6
:1000300029030000000000002B0300002D03000036
:100040002F0300002F0300009D0600002F03000077
:100050002F0300002F0300002F0300002F030000D8
:100060002F0300002F0300002F0300002F030000C8
:100070002F0300002F0300002F0300002F030000B8
:100080002F0300002F0300002F0300002F030000A8
:100090002F0300002F0300002F0300002F03000098
:1000A0002F0300002F0300002F0300002F03000088
:1000B0002F0300002F0300000000000000000000DC
:1000C0002F0300002F0300002F0300002F03000068
:1000D0002F0300002F0300002F030000000000008A
:1000E0000000000000000000000000000000000010
:1000F0000000000000000000000000000000000000
:1001000000000000000000000000000000000000EF
:1001100000000000000000000000000000000000DF
:1001200000000000000000000000000000000000CF
:1001300000000000000000000000000000000000BF
:1001400000000000000000000000000000000000AF
:10015000000000000000000000000000000000009F
:10016000000000000000000000000000000000008F
:10017000000000000000000000000000000000007F
:10018000000000000000000000000000000000006F
:10019000000000000000000000000000000000005F
:1001A000000000000000000000000000000000004F
:1001B000000000000000000000000000000000003F
:1001C000000000000000000000000000000000002F
:1001D000000000000000000000000000000000001F
:1001E000000000000000000000000000000000000F
:1001F00000000000000000000000000000000000FF
:10020000DFF80CD000F0AAF8004800470D0E0000FF
:100210005828002000B583B002900091019244F26A
:10022000010071466A4600F067FA03B000BD0000A5
:1002300030B4044654E8000F0D4644E80053002B48
:10024000F8D1156030BC704730B4044654E8000F54
:1002500040EA010544E80053002BF7D1156030BC9B
:10026000704730B4044654E8000F00EA010544E842
:100270000053002BF7D1156030BC704730B40446F2
:1002800054E8000F80EA010544E80053002BF7D141
:10029000156030BC704730B4044654E8000F00EBE2
:1002A000010544E80053002BF7D1156030BC7047BE
:1002B00030B4044654E8000FA0EB010544E80053B5
:1002C000002BF7D1156030BC704770B404464FF076
:1002D000000054E8006F0D68AE4207BF44E80023F9
:1002E000012044E800630E60002B1CBF0020F0E7F3
:1002F00070BC704730B4044654E8000F88422CBFED
:10030000451A054644E80053002BF5D1156030BC72
:10031000704700000648804706480047FEE7FEE7B2
:10032000FEE7FEE7FEE7FEE7FEE7FEE7FEE7FEE7A5
:10033000810300000102000040EA01039B0703D093
:1003400009E008C9121F08C0042AFAD203E011F814
:10035000013B00F8013B521EF9D27047064C074D95
:1003600006E0E06840F0010394E807009847103485
:10037000AC42F6D3FFF748FF1025000030250000FF
:10038000F0B5B5480023021D0178101D01254FF07E
:10039000805406290BD11678360708D10678C6F3A3
:1003A0000316032E06D0042E04D0052E02D00629F3
:1003B00007D00EE0B4F82463A84FC6F304263E60CD
:1003C00002E01678360704D10678C6F30316032E2A
:1003D00002D0062904D00FE0A24FA14E7E670EE0A6
:1003E0001678360708D10678C6F30316032E06D012
:1003F000042E04D0052E02D0062907D00EE0D4F832
:100400004462994FC6F342363E6002E016783607E2
:1004100004D10678C6F30316032E02D0062906D0AF
:1004200011E0924E376827F0807737600EE016783B
:10043000360708D10678C6F30316032E06D0042E1D
:1004400004D0052E02D006290AD011E04FF08046D4
:10045000C6F80C31C6F81031834E361F336002E007
:100460001678360704D10678C6F30316032E02D099
:10047000062905D00CE07C4F032664373E600AE075
:100480001678360704D10678C6F30316032E02D079
:1004900006290DD014E0764F05263E60744E78365E
:1004A0003560734E083633603F263F1D3E6002E0E4
:1004B0001678360704D10678C6F30316052E02D047
:1004C000062957D062E06B4E36686B4F3E60694E2E
:1004D000361D36683F1D3E60664E083636683F1D45
:1004E0003E60644E0C3636683F1D3E60614E1036ED
:1004F00036683F1D3E605F4E143636683F1D3E60D5
:100500005C4E183636685C4F20373E60594E1C36BC
:1005100036683F1D3E60574E203636683F1D3E60B0
:10052000544E243636683F1D3E60524E283636689B
:100530003F1D3E604F4E2C3636683F1D3E604D4E8F
:10054000303636684C4F40373E604A4E3436366857
:100550003F1D3E60474E383636683F1D3E60454E73
:100560003C3636683F1D3E60424E403636683F1D81
:100570003E6002E01678360708D10678C6F3031607
:10058000032E06D0042E04D0052E02D0062907D053
:1005900019E0D4F85812394A01F04F01116002E015
:1005A000117809070FD10078C0F30310032803D096
:1005B000042801D0052806D131480168C90702D0B6
:1005C0006FF001010160D4F83001062808D1D4F899
:1005D0003401062804D12B48016841F48061016090
:1005E00022487438016841F470010160BFF34F8FF5
:1005F000BFF36F8F4FF01021D1F80002002803DB0A
:10060000D1F80402002822DA1F4A15601F48046846
:10061000002CFCD01524C1F800420568002DFCD048
:10062000C1F8044201680029FCD013600168002968
:10063000FCD0BFF34F8F0D48F0380168144A01F425
:10064000E06111430160BFF34F8F00BFFDE7124926
:1006500010480860F0BD0000E00F00F04035014098
:100660000DF0ADBA00C007403C050040FCED00E0D5
:10067000105600400404001020C50040E40E004065
:10068000000400403C17004004E5014000E4014044
:100690000400FA050090D0034800002001480068DB
:1006A000004700000C000020014A024900F013B886
:1006B000AF0C00003400002002E008C8121F08C17F
:1006C000002AFAD170477047002001E001C1121FD3
:1006D000002AFBD170472DE9F04116460F4604462B
:1006E000002503E03946B047641C6D1C20780028C3
:1006F000F8D12846BDE8F081FEB514460E460746FF
:1007000072B600F0B7FE00BF00F05CFD0028FBD120
:100710001D4A1E496FF480403B18A2EB01014FF0C7
:1007200001004FEAD10100EB01451AD0012B11D095
:100730002846324616A100F061FE1B480068C0073B
:1007400000D000BE224603B031463846BDE8F04036
:1007500000F058B82388284614A1626800F055FEBE
:10076000EBE7A06800F02CFF0346D4E90001CDE9D7
:1007700000100296284614A1A26800F04EFE2846FA
:100780001BA100F037FED8E7482500003025000007
:10079000554E4B4E4F574E204641554C5420617498
:1007A0002030782530385800F0ED00E041535345B3
:1007B0005254494F4E204641494C454420617420D3
:1007C00025733A25750000004552524F5220257579
:1007D000205B25735D2061742025733A25750D0A11
:1007E00050432061743A203078253038780000007A
:1007F000456E64206F66206572726F72207265703C
:100800006F72740008B501238DF800309DF8003038
:10081000144B186059609A606FF48041401807D0FB
:1008200001280FD1DA60D86800889861D86807E09D
:100830001A611869806858611869006898611869B8
:100840004068D861186858689868D8681869586905
:100850009869D86972B600BF9DF800000028FBD1E6
:1008600062B608BD9C02002010B58268C36893423E
:1008700003D000F009FA002010BD052010BD29B1F9
:1008800012B1531E134203D0092070470E20704747
:100890000160838000218160C1600846704710B507
:1008A0008268C3689A1A83889A4203D800F0F6F9DE
:1008B000002010BD042010BD70B50B4E01460B4842
:1008C000B578FFF7D1FF04465DB10020B070711C10
:1008D0000122C81D00F0EEFB18B105A2CE21FFF7E2
:1008E00099FC204670BD000014000020BC020020CE
:1008F0002E2E5C2E2E5C2E2E5C2E2E5C2E2E5C2E32
:100900002E5C636F6D706F6E656E74735C6C696284
:100910007261726965735C756172745C6170705F3D
:10092000756172745F6669666F2E6300F0B5244E60
:1009300089B01F460D00044672603FD0A888296820
:1009400082B22048FFF79BFF002835D1A889A9680B
:1009500082B21C481030FFF792FF00282CD12022D1
:1009600019496846FFF7E8FC60690690207C00B1F1
:1009700001208DF814008DF81C70607C00B10E20F1
:100980008DF81500E0680290A0680390206801903F
:10099000606800900A480D4A6946083000F056FB2E
:1009A000002809D1B0702068401C05D004490122FC
:1009B000491CC81D00F07EFB09B0F0BD0720FBE715
:1009C00014000020BC020020E01F00009D1C00005D
:1009D00010B501461048FFF762FF040019D10F4817
:1009E0000F4A0178515C19B1001D01F081F802E055
:1009F0000C3000F065FF60B9084907480839FFF777
:100A000033FF30B9054901220839044800F062FB80
:100A10000446204610BD0000CC0200201C0000202F
:100A20000000002000F002B800F008B872B60248DA
:100A30000168491C016070473000002003490868C4
:100A4000401E086000D162B67047000030000020F0
:100A50002DE9F041064608680C46411C4FF0A047BE
:100A60004FF0010506D005FA00F1C7F80815206817
:100A700000F088FB6068411C02D0012100F070FB8F
:100A80003168A069C1F82405607D227D316810437A
:100A9000C1F86C05D4E900123068C0F81425C0F81C
:100AA0000C15207D012815D1A068411C02D0002121
:100AB00000F056FBE068411C05D08540C7F808559A
:100AC000E06800F05FFBD4E902123068C0F8082546
:100AD000C0F81015BDE8F0812DE9F0410646086820
:100AE0000C46411C4FF0A0474FF0010506D005FA17
:100AF00000F1C7F80815206800F04EFB6068411C43
:100B000002D0012100F035FB3168A069C1F824054D
:100B1000607D217D32680843C2F86C05D4E900127B
:100B20003068C0F80C15C0F81425207D012815D1B7
:100B3000A068411C02D0002100F01BFBE068411CB2
:100B400005D08540C7F80855E06800F025FBD4E9DA
:100B500002123068C0F80825C0F81015BDE8F08111
:100B60002DE9FC410646C0074FF000050ED0104F9E
:100B700000240122385D009500231146019500F004
:100B8000B9FA641C042CF4D300F01CF8B0070DD59E
:100B9000074E0024361D0022305D032300951146C8
:100BA000019500F0A7FA641C042CF4D3BDE8FC8185
:100BB000D01F00000249085C012100F0F7BA0000D4
:100BC000D01F000010B500242046FFF7F3FF641C7F
:100BD000042CF9D310BD00002DE9F0470546861C12
:100BE00090460F464FF001090020FFF71BFF1B4CFA
:100BF00020683860D4E90001401AA16804F21C475B
:100C0000081A0EE00121384600F0B7F900F0B0F8FC
:100C10000146384600F0B1F9D4E90001401AA16854
:100C2000081A401C8642EDD8B8F1000F03D0052009
:100C300065F3891002E0062065F39F50A2682168E1
:100C4000114004EB8101C86020683044206000201E
:100C5000FFF7EAFE4846BDE8F087000034040020B4
:100C6000034803C8814201D101207047002070472A
:100C70003404002010B50021024800F089F980F307
:100C8000100010BD50080020826883881A40036855
:100C90009A5C0A708168491C81607047C2688388C9
:100CA0001A4003689954C168491CC160704710B567
:100CB0000446C0B2FFF78CFE204610BD70B50D464D
:100CC000044600684FF4887100F09AFC4FF490716C
:100CD000206800F095FC4FF49271206800F090FCC1
:100CE0004FF4A271206800F08BFC20681249C0F814
:100CF00004132068690740F30730090E002806DA5C
:100D000000F00F0000F1E02080F8141D03E000F176
:100D1000E02080F800142068012140F3073000F043
:100D20001F0291404009800000F1E020C0F88012CD
:100D3000C0F8001170BD0000100302000246002040
:100D40001268530713D502F00300012802D00228CD
:100D50000CD105E0C2F383100B68801C184404E03A
:100D60000223086803EB9252104408600120704788
:100D70002DE9FF410026234800F0FCF82148001F20
:100D8000074600F0F7F8204C60680090A56800E086
:100D900000986946284004EB80000C30FFF7CEFF36
:100DA0000028F5D101AA009901EA050304EB8303A9
:100DB000491CDB6842F82030401C00910228F2D325
:100DC000019800F0030001280BD0022810D10198EF
:100DD000032101EB90500099BDF80A6001EB9000EF
:100DE00005E00198BDF80A60C0F383100844009044
:100DF000384600F0BCF808B10098606004B0304696
:100E0000BDE8F0814C0800203404002000218AB0A5
:100E1000084600F011FB18B121A25221FFF7FAF9A0
:100E200000F0CFF90120FFF79BFE21482149401A2D
:100E3000C008032101EB00401FA100F0DBFA1822DB
:100E400024496846FFF778FA2348069023494FF46F
:100E50008070CDE9070109900723214A06A9684659
:100E6000FFF764FD18B10EA2B721FFF7D3F912A066
:100E7000FFF71AFC06A8FFF71FFD0028FAD100BFF4
:100E80009DF81800FFF7A4FD0028F9D19DF818007F
:100E9000712801D05128EDD112A0FFF705FCFEE723
:100EA0002E2E5C2E2E5C2E2E5C6D61696E2E6300E4
:100EB00048250000302500000D0A55415254206598
:100EC00078616D706C6520737461727465642E0D49
:100ED0000A000000B81F00004C0000204C01002058
:100EE0006D1C0000200D0A45786974210D0A000070
:100EF0002DE9F047C5881E1DB6FBF5F78946B6FB00
:100F0000F5F1044605FB176C407916686843DDF877
:100F100020A0F718001F874200D9C61A166001E00A
:100F20002468491E0029FBD1A5EB0C078846B7426F
:100F300016D818E004EB0C00001D09EB0803BAF109
:100F4000000F3A4602D00146184600E01946FFF766
:100F5000F3F92468F61B4FF0000CB844B54201D9F0
:100F6000374600E02F46002EE4D1BDE8F08700218F
:100F700000F009B8012100F010B808B56A46FFF783
:100F80008AF9009808BD08B56A46FFF76AF908BDF6
:100F900008B56A46FFF74CF908BD08B56A46FFF781
:100FA00053F9009808BD08B56A46FFF781F9009823
:100FB00008BD70B5044600252846FFF733FD2168BB
:100FC0006268086890420ED9401E08600178238A42
:100FD000E26801FB0325227A2168101AC0B20A795F
:100FE000824200D208710020FFF71EFD284670BD26
:100FF00070B505460C460020FFF714FDE868298A05
:10100000201AB0FBF1F12A681068431C13600170CC
:10101000BDE870400020FFF707BD10B530B1017A80
:1010200042680368891AC9B21A6006E00E2010BD32
:1010300003681A68541C1C601170491EC9B2F7D2AB
:10104000006800210171084610BD0000F0B505469A
:101050000478154889B0164640F82420124A0869D9
:10106000121DA2F1080742F82400487F38552022BB
:101070006846FFF761F904942878385C48B10EB1EE
:101080000A4A00E000226946281D00F031FC09B040
:10109000F0BD0EB1064A00E00022694605F10C00E1
:1010A00000F0DCFAF3E7000004000020951E0000C9
:1010B0003D1D000030B40378054CE35C1BB130BC2F
:1010C000001D00F04BBC30BC0C3000F031BB000008
:1010D0000000002030B40378054CE35C1BB130BC49
:1010E000001D00F0BDBC30BC0C3000F097BB000010
:1010F0000000002070B541EA4201DDE904564FF0DE
:10110000A04441EA830141EA052104EB800041EA61
:101110000641C0F8001770BD70B541EA4201DDE933
:1011200004564FF0A04441EA830141EA052104EB53
:10113000800041EA0641C0F8001770BD70B541EA71
:101140004201DDE904564FF0A04441EA830141EA3F
:10115000052104EB800041EA0641C0F8001770BD8C
:101160001CB500220B46009211460192FFF7D4FFF6
:101170001CBD1CB500220B46009211460192FFF7E0
:10118000DDFF1CBD1CB5002100910B460122019121
:101190001146FFF7C1FF1CBD1CB5002100910B4695
:1011A000012201911146FFF7C9FF1CBD01224FF03A
:1011B000A043824011B1C3F808257047C3F80C253D
:1011C000704770472DE9F0478CB0FFF749FD18B123
:1011D00000200CB0BDE8F0877D4C0020C4F8180456
:1011E000BFF34F8F60680290A5684FF00008284059
:1011F00004EB80000CE000BFD4F8180470B921683B
:101200000298814201D86160E2E7284004EB800047
:101210000C3002A9FFF792FD0028EDD1002003AAAF
:10122000029901EA050304EB8303491CDB6842F8D9
:101230002030401C02910228F2D3039800F00300F2
:10124000022802D001284DD0A7E003985022810D3A
:101250008946B2EB905F00D850210E4666F39F504E
:10126000039008315B4800F01BF9070078D000F0CC
:1012700060F94346082203A9384600F06FF9029945
:1012800008F1080A2940681A8000001D864222D908
:101290004F4D0C3530B1C2B204EB8101301A90468B
:1012A0000C3104E02946F2B2002590462846C6B229
:1012B0005346384600F052F90AEB080325B132468E
:1012C0002946384600F04AF9029909F1030001EB7A
:1012D000900002903BE004EB8101534632463846D1
:1012E0000C31EFE70398C0F38310062800D30620E3
:1012F000039960F38911C1F38310801C039181006D
:10130000344800F0CDF8070047D000F012F943460A
:10131000082203A9384600F021F908F10808002640
:101320000FE00298434600EA0501401C04EB8101EE
:101330000290042238460C3100F010F908F104083C
:10134000761C0398C0F38310B042EAD847B1D4F8B2
:101350001054D4F8180478B1384600F0F0F831E0B1
:101360001BE0E8684079012804D12A6828463946FC
:1013700012689047E8680568002DF2D1384600F001
:10138000DEF80020FFF74EFBD4F8180408B90298E5
:1013900060600020FFF748FB14E0D4F8104405E03B
:1013A0002168204689688847E0680468002CF7D1E6
:1013B00009480A49401AC008022101EB004008A16F
:1013C00000F018F8FFF74CFC80F0010001E7000086
:1013D000340400205025000048250000302500007E
:1013E0004261636B656E647320666C7573686564D7
:1013F0000000000000231A4600F0D4BB08B501230A
:1014000000926A4600F0CEFB08BD1CB5CDE9002372
:1014100002236A4600F0C6FB1CBD70B586B00DF114
:10142000280C9CE870008DE87C0005236A4600F0DB
:10143000B9FB06B070BD00000B4810B5FF218160FC
:10144000002101604160C0F81814C0F8141480F83D
:101450002014064800F071F8002803D1044800F079
:1014600085F8002010BD0000340400205025000045
:101470002C21000070B509480125D0F8104480F8EF
:10148000205407E0E0684571216820464968884794
:10149000E0680468002CF5D170BD00003404002021
:1014A0002DE9F041058A80462D1F4819C01CB0FB6C
:1014B000F5F0C6B24046FFF77CFD041E19D00020AF
:1014C000207101206071E58000272546761EC4F852
:1014D00000800BE04046FFF76CFD60B16179491C6C
:1014E0006171286005467F1CC0F80080B742F1D3C7
:1014F0002046BDE8F081204600F002F80020F8E721
:101500002DE9F041457901466B1E002201E0096892
:10151000521C9A42FBD30F680146002605E038466C
:101520000C68FFF765FD2146761CAE42F7D3BDE897
:10153000F0810121001DFFF720BDFFF76EBD10B542
:1015400004460121001DFFF72EFD10F0FF0F04D10E
:101550002046BDE81040FFF7D3BF10BD1CB5019277
:101560000022009201AAFFF7C3FC1CBD8268002183
:10157000916082681161826851618268D16082687D
:1015800051608068016070470C4A10B502F58C7399
:101590000EE0991AC91001EBD171491002EBC1019B
:1015A0000C68844201D90B4602E005D201F1080221
:1015B0009A42EED3002010BD486810BD14200000F0
:1015C00000B5FFF7E1FF002800D1014800BD000091
:1015D000002000004058002800D00120704708B5C6
:1015E000002242504058009008BDD0F80403084043
:1015F00000D0012070474058002800D001207047DB
:1016000008B5002242504058009008BD0121B1EBBE
:10161000507F01D1012070470020704770B50D4602
:1016200000F074FA04000FD00020FFF7FBF92079D6
:1016300020B10020FFF7F8F9112070BD01202560CE
:1016400020710020FFF7F0F9002070BD0149024829
:1016500000F08CBB4C020020002000402DE9F0413E
:101660000546007916460F4600EB40012D4A01EB76
:10167000C00102EB810494F82A1011B10820BDE8E2
:10168000F081294951F820102868FFF7C7FF08B1F9
:101690001120F4E739462846FFF7DAF96660386921
:1016A000206030004FF001062FD03F7F4FF48E7145
:1016B0002868FFF794FF4FF4A2712868FFF78FFFA7
:1016C00028681A49C0F8041328684FEA471140F304
:1016D0000730002806DA00F00F0000F1E02080F863
:1016E000141D03E000F1E02080F80014286840F3A6
:1016F000073000F01F0206FA02F14009800000F1F5
:10170000E020C0F88012C0F8001128680421C0F859
:1017100000150020A061E06184F8290044F8140F4E
:10172000A675ACE74C020020D81F00008000020024
:101730002DE9F05F054600794FF4017600EB400398
:1017400003EBC000344B03EB80040020636813B14B
:101750002B68C3F80863A3694FF000096BB1E06917
:1017600038B1606810B12868C0F804631120BDE882
:10177000F09FE2610120216105E0C4F82490A2619C
:10178000E160C4F81C9094F82910014302D1284666
:1017900000F0F8F960680028286803D0C0F80463F6
:1017A0000020E4E74FF4A2763146FFF718FFB24677
:1017B0004FF4927B59462868FFF70CFF06464FF41A
:1017C00084712868FFF706FF804651462868FFF7B6
:1017D00001FF074648EA07003043EBD056EA07000E
:1017E00007D12146286800F09DF9A169606A81420D
:1017F000E0D8C4F818900EB10320B8E70FB10F205D
:10180000B5E794F8291001200029296801D0086063
:10181000C6E74860C4E700004C0200202DE9F0470D
:10182000054600790B4600EB400101EBC00023495F
:1018300001EB8004284600F043F810B11120BDE808
:10184000F0874FF00008C4F82080A360626184F83C
:1018500028804FF48E76474631462868FFF7BFFE52
:1018600028684FF00109C0F808902146286800F068
:10187000DFF9606800BBD5F800A00EE094F82800FE
:1018800008B10F2716E031465046FFF7A3FE0028A7
:10189000F4D02146504600F0CBF9216A60698142BC
:1018A000F1D331462868FFF795FE0028F9D0286863
:1018B000C0F80C90C4F814803846C0E74C020020F1
:1018C000007900EB400101EBC000044901EB80000E
:1018D0004069002800D00120704700004C02002021
:1018E0000149024800F0EEBA7802002000200040D2
:1018F0002DE9F0410546164600790F46154A00EBE2
:10190000C00102EB810494F8201011B10820BDE859
:10191000F081114951F820102868FFF77FFE08B1C7
:101920001120F4E739462846FFF7D6F86660386993
:1019300020601EB1397F2846FFF7C0F928680821CA
:10194000C0F800150020A061E0610121606184F809
:101950002010DCE778020020DC1F00002DE9F05F9A
:10196000044600790E4600EBC001DFF8F0A01746F0
:101970000AEB81053046FFF749FEB0B168684FF0C9
:1019800000084FF4047910B12168C1F80893A869E0
:101990004FF0000B80B1E86948B1686810B1206869
:1019A000C0F804931120BDE8F09F1020FBE7EF6121
:1019B0004FF001082E6102E0EE60C5E9067B0025CC
:1019C0004FF488712068FFF71BFE4FF4A271206866
:1019D000FFF716FE2068C0F83465C0F83875206837
:1019E000B8F1000F12D0D0F8001241F02001C0F879
:1019F00000122079D04600EBC0010AEB810040685C
:101A000038B12068C0F804932846CCE70121016072
:101A1000EFE74FF4887A4FF4A27951462068FFF738
:101A2000EAFD074649462068FFF7E5FD06464FF404
:101A300092712068FFF7DFFD014647EA0600084380
:101A4000EBD0227902EBC20308EB8302C2F818B094
:101A500001B10325002ED7D00F25D5E7780200204D
:101A60002DE9F04704460E460079204900EBC000FE
:101A700001EB800517463046FFF7C8FD30B1204620
:101A800000F036F820B11120BDE8F0871020FBE708
:101A90006F61AE604FF49076002731462068FFF703
:101AA000AFFD4FF4AC7841462068FFF7A9FD2068F0
:101AB000AA686969C0F84425C0F848152068012162
:101AC0008160686878B9B14649462068FFF793FDA0
:101AD000064641462068FFF78EFD0643F4D000B16C
:101AE0000F27002068613846CEE70000780200200A
:101AF0000079054900EBC00001EB80004069002837
:101B000000D001207047000078020020034988427D
:101B100001D10348704700207047000000200040BA
:101B20000C00002070B5054688690C4600284FF46B
:101B3000847128460AD0FFF752FDD5F81805626A6D
:101B4000E1688854606A401C606270BDFFF747FD21
:101B5000D5F8180570BD1FB501238DF80030CDE90B
:101B60000121D0E90012684690471FBD1FB501232F
:101B70008DF800308DF808100192D0E90012684607
:101B800090471FBD10B5044600684FF49271FFF7EF
:101B900026FD4FF484712068FFF721FD20680121A4
:101BA000016010BD2DE9F84F204D9246894606464A
:101BB0009846012269461846AF68FFF70DF858B3FA
:101BC000009800210446801C09E000BF00EA0703DA
:101BD0005AF8212005EB8303401C491CDA6041457B
:101BE000F4D34FEA164AFFF745F84AEA0041601C71
:101BF000384005EB80003C4005EB8402C160D068B2
:101C000066F3C50068F3891069F39F2020F0030094
:101C1000401C20F00400D06095F8200402E000BFD2
:101C2000FFF7D0FA0028FBD1BDE8F88F340400207C
:101C300070B50C4605464FF48E71FFF7D0FC216A53
:101C4000A068415C206A401C2062C5F81C1570BD6C
:101C50001FB500228DF80020029181680191426138
:101C6000D0E90012684690471FBD000001780229A4
:101C700006D0012908D1406804A25F21FEF7CABA44
:101C8000406802A25B21F9E7704700002E2E5C2E0F
:101C90002E5C2E2E5C6D61696E2E63007CB5017822
:101CA000244D81B301290BD002292BD18DF80010CE
:101CB000C068691C01900122C81DFFF7FBF92EE0E6
:101CC000406801781C48FEF7EAFD1B4C012618B15C
:101CD0008DF80060019006E0A068E168814205D0BF
:101CE00000208DF80000696868468847A068E168B0
:101CF000081AA188884207D80E490122491CC81D2C
:101D0000FFF7D8F97CBD01E0AE70FBE70A4809494E
:101D10001030FEF7A9FD30B103208DF8000069688E
:101D200068468847EEE70349012201F10800FFF702
:101D3000D1F9E7E714000020BC0200201FB50A46D5
:101D400001788DF8001041680191017A8DF8081032
:101D5000C0680390044850F82210001F50F8222059
:101D6000684690471FBD0000080000202DE9FF478E
:101D70000C4605464FF40071FFF737FC01274FF47E
:101D80000178002618B34FF4927949462846FFF7A8
:101D900021FCE0B149462846FFF721FCC5F808833D
:101DA00094F8290000B96F6002208DF80000D5F882
:101DB0008004C5F880040390A0690290E068019057
:101DC000A661E661D4E900126846904728E0042144
:101DD0002846FFF70AFC18B34FF484712846FFF732
:101DE000F9FBE8B121462846FFF79CFE616AA0692D
:101DF000884215D1E06938B1E268616AA061206962
:101E0000E6616662E06008E094F8290000B96F605E
:101E1000C5F80883A661E268616A2046FFF79BFE69
:101E20004FF48E7841462846FFF7D4FB78B1206AFC
:101E30006169884202D294F8280020B341462846BE
:101E4000FFF7CDFB616911B12046FFF701FF4FF4A9
:101E5000A27841462846FFF7BDFB002818D041462E
:101E60002846FFF7BCFB94F8290000B12F60A06959
:101E700000280DD0A661E268616A04B02046BDE882
:101E8000F047FFF768BE21462846FFF7D1FEDEE7A0
:101E9000BDE8FF871FB50A4601788DF8001041683C
:101EA0000191017A8DF80810C0680390044850F839
:101EB0002210001F50F82220684690471FBD0000E6
:101EC000080000202DE9FF410C464FF492770546AB
:101ED0003946FFF790FB0026C0B139462846FFF788
:101EE0008FFB02208DF80000D5F88004C5F880042F
:101EF0000390D5F83C058DF80800E0680190A661D4
:101F0000E661D4E900126846904723E04FF48877F1
:101F100039462846FFF76FFBE0B139462846FFF700
:101F20006FFBD5F83C15A069884213D1E06960B118
:101F3000E268D5F8000220F02000C5F80002E06950
:101F4000A0612069E661E06001E0A661E2682046E8
:101F5000FFF70CFE4FF4A27739462846FFF74BFBFC
:101F600060B139462846FFF74BFBA06930B1A66146
:101F7000D5F83C152046E268FFF7F8FD4FF490775E
:101F800039462846FFF737FB002813D03946284644
:101F9000FFF736FB606900280CD0D5F84C058DF8AA
:101FA00000608DF80800A06801906661D4E9001215
:101FB00068469047BDE8FF81080000000600000069
:101FC000050000000700000000000000005027008E
:101FD000111213140D0E0F104D160000E118000021
:101FE000FFFFFFFFFFFFFFFFFFFFFFFFFFFFFFFF01
:101FF00000000000000000000000D6010601000003
:10200000556E6B6E6F776E206572726F7220636FA4
:1020100064650000000000009C2400000100000036
:102020005C230000020000005021000003000000BB
:10203000D02300000400000024240000050000005C
:102040000423000006000000A0220000070000009A
:102050000C24000008000000182300000900000004
:102060007C2300000A000000842400000B00000014
:10207000382100000C000000302300000D0000009B
:10208000D42400000E000000FC2300000F0000001C
:1020900038240000100000006C2400001100000033
:1020A000E824000080000000B82200008100000049
:1020B000F421000082000000B42100008300000031
:1020C0009421000084000000D02100008500000061
:1020D000DC22000086000000E423000090000000E5
:1020E0008022000091000000742100009200000096
:1020F00044230000008200004C2400000182000004
:102100009823000002820000B42300000084000035
:102110001022000001840000A824000002840000B6
:102120005822000003840000342200009C03002099
:102130007F0000001C0400204E52465F4552524F63
:10214000525F494E56414C49445F4441544100005E
:102150004E52465F4552524F525F534F465444458C
:10216000564943455F4E4F545F454E41424C4544AE
:10217000000000004E52465F4552524F525F4645A6
:1021800041545552455F4E4F545F454E41424C4578
:10219000440000004E52465F4552524F525F4D552B
:1021A0005445585F554E4C4F434B5F4641494C4553
:1021B000440000004E52465F4552524F525F4D550B
:1021C0005445585F4C4F434B5F4641494C45440092
:1021D0004E52465F4552524F525F4D555445585FDF
:1021E000434F4E445F494E49545F4641494C454434
:1021F000000000004E52465F4552524F525F4D550F
:102200005445585F494E49545F4641494C45440046
:102210004E52465F4552524F525F424C455F4950C5
:1022200053505F52585F504B545F5452554E434188
:10223000544544004E52465F4552524F525F424C05
:10224000455F495053505F504545525F52454A459E
:1022500043544544000000004E52465F4552524FE1
:10226000525F424C455F495053505F4C494E4B5F63
:10227000444953434F4E4E454354454400000000EB
:102280004E52465F4552524F525F4150495F4E4F4A
:10229000545F494D504C454D454E54454400000057
:1022A0004E52465F4552524F525F4E4F545F535508
:1022B00050504F52544544004E52465F4552524F83
:1022C000525F4D4F44554C455F4E4F545F494E4908
:1022D0005449414C495A4544000000004E52465F63
:1022E0004552524F525F4D4F44554C455F414C5201
:1022F000454144595F494E495449414C495A454426
:10230000000000004E52465F4552524F525F4E4F02
:10231000545F464F554E44004E52465F4552524F11
:10232000525F494E56414C49445F53544154450015
:102330004E52465F4552524F525F444154415F53A3
:10234000495A45004E52465F4552524F525F494FDF
:102350005F50454E44494E47000000004E52465FD4
:102360004552524F525F5356435F48414E444C458D
:10237000525F4D495353494E470000004E52465F4D
:102380004552524F525F494E56414C49445F4C456D
:102390004E475448000000004E52465F4552524F8F
:1023A000525F4452565F5457495F4552525F414E07
:1023B00041434B004E52465F4552524F525F44528A
:1023C000565F5457495F4552525F444E41434B005C
:1023D0004E52465F4552524F525F494E5445524EFF
:1023E000414C00004E52465F4552524F525F53548B
:1023F0004F524147455F46554C4C00004E52465F98
:102400004552524F525F4E554C4C00004E52465F63
:102410004552524F525F494E56414C49445F5041DC
:1024200052414D004E52465F4552524F525F4E4F01
:102430005F4D454D000000004E52465F4552524FE1
:10244000525F464F5242494444454E004E52465F09
:102450004552524F525F4452565F5457495F45525E
:10246000525F4F56455252554E0000004E52465F45
:102470004552524F525F494E56414C49445F414488
:10248000445200004E52465F4552524F525F494EF1
:1024900056414C49445F464C414753004E52465FBB
:1024A00053554343455353004E52465F4552524F96
:1024B000525F424C455F495053505F4348414E4E36
:1024C000454C5F414C52454144595F45584953542E
:1024D000530000004E52465F4552524F525F5449DE
:1024E0004D454F55540000004E52465F4552524FE5
:1024F000525F4255535900005052530055415254B7
:102500000000000055415254450000006170700009
:1025100064250000000000204C000000B806000008
:10252000B02500004C0000200C280000C806000068
:10253000F824000000000000FC240000000000005F
:1025400004250000000000000C250000000003032B
:10255000400000203800002040000020DC02002065
:102560001800000000000000000000000000000053
:10257000000000000000000000000000000000005B
:10258000000000000020004000000000002000408B
:10259000000000000000000000000000000000003B
:1025A0000000000000000000000000000090D003C8
:0400000500000201F4
:00000001FF
