:020000040002F8
:1060000090500020F9620200016302000363020065
:10601000056302000763020009630200000000003C
:106020000000000000000000000000000B63020000
:106030000D630200000000000F6302001163020004
:106040002966020013630200296A0200136302003A
:106050001363020013630200616402001363020011
:106060001363020013630200136302001363020050
:106070001363020013630200136302001363020040
:1060800013630200816602001363020013630200BF
:106090000567020013630200096702001363020030
:1060A0001363020013630200136302001363020010
:1060B00013630200136302000000000000000000F0
:1060C00013630200136302001363020013630200F0
:1060D0001363020013630200136302000000000058
:1060E00000000000000000000000000000000000B0
:1060F00000000000000000000000000000000000A0
:10610000000000000000000000000000000000008F
:10611000000000000000000000000000000000007F
:10612000000000000000000000000000000000006F
:10613000000000000000000000000000000000005F
:10614000000000000000000000000000000000004F
:10615000000000000000000000000000000000003F
:10616000000000000000000000000000000000002F
:10617000000000000000000000000000000000001F
:10618000000000000000000000000000000000000F
:1061900000000000000000000000000000000000FF
:1061A00000000000000000000000000000000000EF
:1061B00000000000000000000000000000000000DF
:1061C00000000000000000000000000000000000CF
:1061D00000000000000000000000000000000000BF
:1061E00000000000000000000000000000000000AF
:1061F000000000000000000000000000000000009F
:10620000DFF80CD000F0EEF800480047B98102003A
:106210009050002030B4044654E8000F0D4644E886
:106220000053002BF8D1156030BC704730B40446E1
:1062300054E8000F40EA010544E80053002BF7D171
:10624000156030BC704730B4044654E8000F00EAD3
:10625000010544E80053002BF7D1156030BC7047AE
:1062600030B4044654E8000F80EA010544E80053C6
:10627000002BF7D1156030BC704730B4044654E8A9
:10628000000F00EB010544E80053002BF7D1156027
:1062900030BC704730B4044654E8000FA0EB010551
:1062A00044E80053002BF7D1156030BC704770B440
:1062B00004464FF0000054E8006F0D68AE4207BF7F
:1062C00044E80023012044E800630E60002B1CBF5B
:1062D0000020F0E770BC704730B4044654E8000F6B
:1062E00088422CBF451A054644E80053002BF5D1DF
:1062F000156030BC704700000648804706480047DC
:10630000FEE7FEE7FEE7FEE7FEE7FEE7FEE7FEE765
:10631000FEE7FEE70D67020001620200202A04DBAF
:10632000203A00FA02F1002070479140C2F12003A8
:1063300020FA03F31943904070470000004870476B
:10634000A8B4020040EA01039B0703D009E008C992
:10635000121F08C0042AFAD203E011F8013B00F82A
:10636000013B521EF9D27047D2B201E000F8012B76
:10637000491EFBD270470022F6E710B513460A46C5
:1063800004461946FFF7F0FF204610BD421C10F8E6
:10639000011B0029FBD1801A704710B5002200E0D4
:1063A000521C835C8C5CA34201D1002BF8D1D8B283
:1063B000E1B2401A10BD30B504460020034600E0AB
:1063C0005B1C934203D2E05CCD5C401BF8D030BD37
:1063D000034611F8012B00F8012B002AF9D11846C9
:1063E00070470000064C074D06E0E06840F00103EE
:1063F00094E8070098471034AC42F6D3FFF704FF47
:1064000084BC0200A4BC020070B58C1810F8015BBB
:1064100015F0070301D110F8013B2A1106D110F83D
:10642000012B03E010F8016B01F8016B5B1EF9D141
:106430002B0705D40023521E0DD401F8013BFAE7C7
:1064400010F8013BCB1A921C03E013F8015B01F832
:10645000015B521EF9D5A142D8D3002070BD0000C7
:106460002DE9F04700268AB0DFF85091B0464FF48E
:106470008075012437460696284602F0EFFC38B1B5
:10648000D9F80403204203D0284602F0DDFC26435D
:106490002D1D64007F1CADB2082FEDD34FF4BE74E8
:1064A000204602F0DBFC48B1204602F0CDFC46F06D
:1064B000004606AA0121002002F0B2FC404D16F071
:1064C000FF0F15D00127002437420DD009EB8401BE
:1064D000D1F81005D1F81015C0F3042055F8242088
:1064E000C1F3014102B190477F00641C082CEBD33B
:1064F000002E5FDA4FF0FF30CDF8108054E02819FD
:1065000010F8507F90F9000027F0C008401C3BD0E5
:1065100007A9404601F0C4FF10B34FEA971940465F
:1065200001F06EF955F820701FB1B9F1030F03D0D7
:1065300006E0B9F1030F27D104A9404601F0B8FFE6
:106540004FF0A04101EB8800D0F8000706A9C0F386
:10655000014A404601F0A4FF18B1BAF1020F03D07E
:1065600012E0BAF1030F0FD1B9F1030F08D1BAF15C
:10657000020F1DD00221404602F036FC761CF6B216
:1065800017B149464046B847641C042CB7D3002EC7
:1065900010D06A460121002002F042FC06990098C2
:1065A000884207D006900498002634460790A6E754
:1065B0000321E0E70AB0BDE8F0870000006000407A
:1065C0001C26002000F01F0201219140400980009C
:1065D00000F1E020C0F88012704700F01F02012196
:1065E00091404009800000F1E020C0F800117047A0
:1065F00000F01F02012191404009800000F1E020DD
:10660000C0F8001270474907090E002806DA00F0AA
:106610000F0000F1E02080F8141D704700F1E02029
:1066200080F800147047000070B54FF48076304653
:1066300002F0DCF9114CB50560B1304602F0DDF92D
:106640000120C5F80803607920B901206071216834
:10665000002088474FF48276304602F0C7F90028C0
:106660000AD0304602F0C9F90220C5F808032168B3
:10667000BDE870400120084770BD00007020002078
:1066800007480021C0F84011C0F84411C0F8481173
:10669000C0F84C11C0F80011C0F8041104F0C0BAE1
:1066A0000010014000F0C6B970B50E46144900EB69
:1066B000400001EBC0051446E86A183520B10128F6
:1066C0000FD0022805D113E0284600F0E7F9A042D8
:1066D00001D2002411E022463146284600F016FA85
:1066E0000BE0284600F0DAF9A042F4D20446F2E7C3
:1066F0003146284600F0DDF90446204670BD000012
:10670000082E002004F0DAB903F012B9F0B5B5484C
:106710000023021D0178101D01254FF08054062929
:106720000BD11678360708D10678C6F30316032E68
:1067300006D0042E04D0052E02D0062907D00EE084
:10674000B4F82463A84FC6F304263E6002E016782E
:10675000360704D10678C6F30316032E02D00629A5
:1067600004D00FE0A24FA14E7E670EE016783607E8
:1067700008D10678C6F30316032E06D0042E04D0E3
:10678000052E02D0062907D00EE0D4F84462994FB6
:10679000C6F342363E6002E01678360704D106782A
:1067A000C6F30316032E02D0062906D011E0924E3E
:1067B000376827F0807737600EE01678360708D103
:1067C0000678C6F30316032E06D0042E04D0052E39
:1067D00002D006290AD011E04FF08046C6F80C31ED
:1067E000C6F81031834E361F336002E01678360744
:1067F00004D10678C6F30316032E02D0062905D06D
:106800000CE07C4F032664373E600AE016783607BA
:1068100004D10678C6F30316032E02D006290DD044
:1068200014E0764F05263E60744E78363560734E20
:10683000083633603F263F1D3E6002E0167836077B
:1068400004D10678C6F30316052E02D0062957D0C8
:1068500062E06B4E36686B4F3E60694E361D36689F
:106860003F1D3E60664E083636683F1D3E60644EF2
:106870000C3636683F1D3E60614E103636683F1D4F
:106880003E605F4E143636683F1D3E605C4E1836E3
:1068900036685C4F20373E60594E1C3636683F1DC7
:1068A0003E60574E203636683F1D3E60544E2436BB
:1068B00036683F1D3E60524E283636683F1D3E60AA
:1068C0004F4E2C3636683F1D3E604D4E3036366892
:1068D0004C4F40373E604A4E343636683F1D3E606E
:1068E000474E383636683F1D3E60454E3C3636686A
:1068F0003F1D3E60424E403636683F1D3E6002E01E
:106900001678360708D10678C6F30316032E06D08C
:10691000042E04D0052E02D0062907D019E0D4F8A1
:106920005812394A01F04F01116002E0117809074D
:106930000FD10078C0F30310032803D0042801D03E
:10694000052806D131480168C90702D06FF001015E
:106950000160D4F83001062808D1D4F834010628A3
:1069600004D12B48016841F48061016022487438E9
:10697000016841F470010160BFF34F8FBFF36F8F67
:106980004FF01021D1F80002002803DBD1F80402F7
:10699000002822DA1F4A15601F480468002CFCD02A
:1069A0001524C1F800420568002DFCD0C1F804424E
:1069B00001680029FCD0136001680029FCD0BFF3F6
:1069C0004F8F0D48F0380168144A01F4E06111431B
:1069D0000160BFF34F8F00BFFDE712491048086008
:1069E000F0BD0000E00F00F0403501400DF0ADBA01
:1069F00000C007403C050040FCED00E010560040A0
:106A00000404001020C50040E40E004000040040D3
:106A10003C17004004E5014000E401400400FA0591
:106A20000090D0033C21002001480068004700008E
:106A30007820002010B5124C02202061606111A066
:106A4000A06104F17800E0614FF400702062002042
:106A5000A06260620BA1A164E06204F51E71E164B2
:106A60001021A065C4E91410E06509A1E01DFFF73D
:106A7000AFFC08A12046FFF7ABFC2020A07110BDA1
:106A8000082E00205465726D696E616C0000000074
:106A90005254540053454747455200000269C168AB
:106AA0008A4203D88068401A104400E0501A401E01
:106AB00070472DE9F047C4681746894606464FF0EF
:106AC00000083069A04201D9051B02E0B168201A14
:106AD0000D1AB0686D1E001BA84200D80546BD42C5
:106AE00000D33D4670682A4620444946FFF72AFCF9
:106AF000B0687F1B2C44A844A944A04200D10024C4
:106B0000F460002FDDD14046BDE8F0872DE9F0416B
:106B100004468846D4E90207C51BE168606816464A
:106B20000844B54206D94146FFF70CFCB819E060AD
:106B3000BDE8F0812A464146FFF704FC761B08EBCE
:106B4000050132466068FFF7FDFBE660F0E702E012
:106B500008C8121F08C1002AFAD1704770470020E8
:106B600001E001C1121F002AFBD17047012120283A
:106B700003DA81400548014003E0402802DA20386A
:106B8000814009B10120704700207047FC06FFBD1D
:106B900010B501220221002000F04AFD08B10728AB
:106BA00010D107220221012000F042FD08B1072880
:106BB00008D100210A22084600F03AFD08B1072852
:106BC00000D1002010BD000070B50024064D06E085
:106BD0006868012110F8340002F088FF641C2878EE
:106BE0008442F5D3002070BD80200020F8B5154602
:106BF0000C460646052A01D20720F8BD03F072F8BC
:106C000018B903F037F80028F7D1124900224E6076
:106C10000C708D60C1E90422C1E906220E4D0DE021
:106C200006EBC4002968009181788DF80110007886
:106C30000A4A694602F0ACFF0028DED1641EE4B2C5
:106C4000EED2BDE8F84004480021054A001D00F0DE
:106C500057B80000802000209CB10200F17C0200A7
:106C6000DD7A020072B602F0B5FB00BF02F0F8F95F
:106C70000028FBD111481249401AC408012000EB3A
:106C8000044010A102F006FB11480068C00700D0C4
:106C900000BE022000EB04400EA102F0FBFABFF39D
:106CA0004F8F0B48E43801680E4A01F4E06111434C
:106CB0000160BFF34F8F00BFFDE700001CBD020065
:106CC000C4BC0200466174616C206572726F720010
:106CD000F0ED00E053797374656D2072657365742F
:106CE000000000000400FA050EB500210091CDE976
:106CF00001106A4644F20100FFF7B4FF0EBD000028
:106D0000084B9B7823B12AB120B10068037C1BB1EA
:106D100008207047072070470023037441744261C4
:106D200018467047E826002070B503F015FD10489E
:106D300000240B21047044700E4D817014206C608F
:106D40002C706C70FFF73EFC06211420FFF75BFCF3
:106D50001420FFF742FC0848046006211120FFF7C9
:106D600052FC0548001F0068A860002070BD0000AC
:106D7000E8260020A0200020081501402DE9FC474E
:106D8000DFF8789099F8023073B368B3052902D21E
:106D90000720BDE8FC87436933B3437C012B25D032
:106DA000002704460025884616468DF800506846A0
:106DB00000F038F801A804F075F9C8B1012101709C
:106DC0000F4944600968C0E90218C0E904769DF8DB
:106DD000040089F801009DF8000000F047F8142035
:106DE000FFF706FC2846D4E70820D2E70F46D8E78D
:106DF00004259DF8000000F039F8F3E7E8260020AC
:106E0000041501400649897839B130B1416921B191
:106E100000210174022103F0DFBE0820704700004A
:106E2000E826002030B5EFF3108172B60D4A946861
:106E3000012324B10370002900D162B630BD9360F4
:106E40004FF0E023D3F88051074C25401560C3F87C
:106E50008041D3F8844154605A17C3F8842100223A
:106E60000270E8E7F4270020FC06FFBD0B498A68A2
:106E7000002A11D000280FD1EFF3108072B60B68F2
:106E80004FF0E022C2F800314B68C2F80431002212
:106E90008A60002800D162B670470000F427002005
:106EA0002DE9F041064608680C46411C4FF0A0470A
:106EB0004FF0010506D005FA00F1C7F80815206863
:106EC00001F07EFF6068411C02D0012101F066FFE5
:106ED0003168A069C1F82405607D227D31681043C6
:106EE000C1F86C05D4E900123068C0F81425C0F868
:106EF0000C15207D012815D1A068411C02D000216D
:106F000001F04CFFE068411C05D08540C7F80855EA
:106F1000E06801F055FFD4E902123068C0F8082596
:106F2000C0F81015BDE8F0812DE9F041064608686B
:106F30000C46411C4FF0A0474FF0010506D005FA62
:106F400000F1C7F80815206801F044FF6068411C93
:106F500002D0012101F02BFF3168A069C1F824059E
:106F6000607D217D32680843C2F86C05D4E90012C7
:106F70003068C0F80C15C0F81425207D012815D103
:106F8000A068411C02D0002101F011FFE068411C03
:106F900005D08540C7F80855E06801F01BFFD4E92B
:106FA00002123068C0F80825C0F81015BDE8F0815D
:106FB000F8B506464FF000001500ADF8000015D0FA
:106FC00009236A46304600F015F80446BDF8000073
:106FD000064458B154B12846FFF7D8F9A04205D16C
:106FE000224631462846FFF7E6F908B10020F8BDF1
:106FF0000120F8BD70B588B182B10024158803E086
:10700000065D641C3444A4B2A54203D80619767800
:107010009E4201D08C42F3D38C4201D3002070BD3C
:10702000A11C1180005D401E80B270BD70B540B1E2
:107030000C4D297839B1044603F072FB28B10020C9
:1070400070BD0E2070BD082070BDE868062807D20C
:107050000549226801EB8001401C0A60E860EEE708
:10706000042070BD4C2000205022002040B1054972
:1070700000220123CA600B70C1E90102104670476B
:107080000E2070474C20002070B504002DD0002940
:107090002BD020480078002827D020880D461128C2
:1070A00015D0302804D0322807D033281ED109E06B
:1070B000211D284603F032FA18E0211D284603F06E
:1070C00063F813E0211D284603F05AF90EE0A0886A
:1070D000B5F8CA12884209D1002085F8C70285F8A0
:1070E000C8024FF6FF70A5F8CA0270BD95F8C80235
:1070F0000028FAD020883028F7D34F28F5D8A08868
:10710000B5F8CA128842F0D12846BDE8704000F0B8
:1071100097BD00004C20002048B1084A137843B1C5
:10712000D26832B190F8C7222AB1112070470E20E0
:1071300070470820704700F083BD00004C200020FD
:1071400038B50188041D1F2939D014DC2748284A86
:107150001029A0EB02004FEAD0004FF0030202EB2F
:10716000004012D0112937D122A102F093F8BDE8D6
:10717000384003F075BB212925D03B292DD0562955
:107180002AD18088132176DF2AE01EA102F082F83E
:10719000218800221E4800F025F908B1FFF7A4FD60
:1071A00021881C48FFF7B8FF08B1FFF79DFD0120BB
:1071B00000F02CFABDE83840002000F01FBA20880B
:1071C000211D75DF0CE000210091808869468FDF6A
:1071D000002801D0FFF788FD38BD8088132176DFB5
:1071E0000028F9D0BDE83840FFF77EBD1CBD020085
:1071F000C4BC0200446973636F6E6E65637465643A
:107200002E000000436F6E6E65637465642E00008F
:10721000A8210020781D002010B51A4C0188606854
:1072200010290ED011292BD1401E606028D1FFF704
:10723000AFFC002824D02168002921D0BDE81040EF
:107240000847D0B900210122084600F0F1F908B141
:1072500007280FD107220221012000F0E9F908B127
:10726000072807D104220221002000F0E1F920B113
:10727000072802D0216801B188476068401C60601F
:1072800010BD0000442000202DE9F04F07468588FE
:1072900002883D48012197B08346102A09D0112A5F
:1072A00049D01A2A6CD1387AB1EB101F45D201228D
:1072B00044E0354C083CA068C0430B9061680BA8C3
:1072C00001F080F80B990CA800F03CFB2C220CA9D3
:1072D0006846FFF737F80026E946A04610E000BFF1
:1072E00009EB46005FF00004B0F804A008EB84004E
:1072F0005146001D01F03AF8641C1D2CF6D3761C93
:107300000098B042ECD8142D05D317B00420BDE886
:10731000F04FFFF7E9BC2946584601F03DF82946F1
:1073200008F1040001F038F8F87B012828D016484D
:107330002946001D15E029461AE000220221B1EB82
:10734000101F01D2012600E000260F49083901F183
:107350001000041D294682B101F01EF836B12946FD
:10736000204617B0BDE8F04F01F016B82946204678
:1073700017B0BDE8F04F00F0F9BF00F0F7FFF5E7F8
:1073800017B0BDE8F08F0000E021002070B518B301
:107390000288A2F57F41FF391CD0104C4388104D64
:1073A000206800EB8001401C00F00700206005EB26
:1073B000810102204B81C881081D086100248C8155
:1073C0000120087208714C710A80887003F062FC19
:1073D000204670BD082070BD0E2070BD5C200020CE
:1073E0006825002040B1018022B11168C0F8021068
:1073F0009188C180002070470E20704730B5134D32
:10740000040085B02DCD8DE82D001DD0E1B10868B8
:10741000D0B100206080A080E0804FF6FF70208017
:107420000868A06004F10C01684662DF002809D1F9
:10743000207B8DF8120041F22350ADF8100004A813
:10744000FFF7F4FD05B030BD0E20FBE780B1020070
:107450000EB5002921D000281FD00288112A25D07E
:10746000382A1BD0392A18D10A46098883889942BC
:1074700013D14189938899420FD1C18901290CD137
:1074800002218DF800101188ADF80210007C8DF8F3
:10749000040093686946104698470EBD09888088A5
:1074A0008142FAD1BDE80E4003F0F4BB0A8880881F
:1074B0008242F2D14FF6FF70088000204880888019
:1074C000C8800EBD70B518B30288A2F57F43FF3B9C
:1074D0001CD0104C104D236803EB83025B1C03F09F
:1074E0000703236005EB8202C38853810123D38104
:1074F000141D1461002494810224147211710088F7
:107500001080937003F0C6FB002070BD082070BD92
:107510000E2070BD5C200020682500203EB50A7852
:10752000002A40D18A88A2F5A853233B3BD18A790F
:10753000037B9A4237D101228DF800204A88ADF8AA
:107540000220002218E000BF02EBC20301EB43035C
:1075500033F80E4F04F6DC24B4F5005405D0012CAA
:1075600009D11B89ADF8083005E01C89ADF806404B
:107570005B89ADF80430521C0B7A9342E4D8018841
:10758000A1F57F42FF3A0BD0C18849B9818839B94A
:10759000418829B90199C0F80210BDF80810C180CE
:1075A0008268694690473EBD2DE9FC410646C0070A
:1075B0004FF000050ED0104F00240122385D0095D9
:1075C00000231146019501F08FFB641C042CF4D3B9
:1075D00000F024F8B0070DD5074E0024361D002218
:1075E000305D032300951146019501F07DFB641C7D
:1075F000042CF4D3BDE8FC81E2B002000249085C2F
:10760000012101F002BC0000E2B002000249085C66
:10761000002101F0FABB0000E2B0020010B5002426
:107620002046FFF7EBFF641C042CF9D310BD0000CB
:1076300070B50023042810D20D4D00EB4004012A40
:1076400002D101290CD00022094E00EB4000304449
:1076500061B1012906D0022906D00723184670BD62
:107660000E30C2B22A55F9E74270F7E78270F5E7AB
:10767000CC2100202DE9F8430546861C00208DF81A
:10768000000090460F464FF001096846FFF7CAFB1D
:107690001B4C20683860D4E90001401AA16804F24C
:1076A0001C47081A0EE00121384600F085FE00F064
:1076B00035FD0146384600F07FFED4E90001401A4E
:1076C000A168081A401C8642EDD8B8F1000F03D01B
:1076D000052065F3891002E0062065F39F50A2683B
:1076E0002168114004EB8101C860206830442060AB
:1076F0009DF80000FFF7BAFB4846BDE8F88300009C
:10770000E429002030B482680468531C8360A154CB
:10771000D0E901128A4202D330BC01F0ECB930BC8E
:1077200070470000034803C8814201D1012070471F
:1077300000207047E429002010B50C460D2809D11F
:107740000D48FFF7BFFE48B1A0F54051023912D0F5
:10775000082810D0BDE81040FFF7C6BA074808490E
:107760002246401AC008032101EB0040BDE810404A
:1077700004A101F093BD10BDA82100201CBD020092
:10778000C4BC02004C4253207772697465204C459A
:1077900044207374617465202564000005494FF02E
:1077A000FF32082841F8202002D3084480F84820FE
:1077B000704700001C260020F0B54FF0FF3512B1D5
:1077C0000023082601E008230C260C4C05E000BF2E
:1077D00054F823707F1C04D05B1CB342F8D32846B6
:1077E000F0BD26185DB286F8305044F82310002A08
:1077F000F5D1E11881F84800F1E700001C260020CF
:107800000249084490F93000704700001C2600200F
:1078100008B5024690F8C6020B4600EB8001C1EBAA
:10782000801002EB400092F8C52242B1521ED2B243
:1078300002EBC20100EB4102518A491C00E0C18801
:10784000ADF800100089ADF80200694618469DDFCA
:1078500008BD000070B5084C050009D0103421683F
:10786000002907D008682060496828468847F6E75D
:107870000834F4E770BD000008260020054A012105
:1078800020B1012805D19170FFF7E4BF51700020AD
:10789000FAE77047082600202DE9F05F2648416886
:1078A000F1B3DFF898B00E688146DBF800408768D6
:1078B0008078E11B21F07F45ED1CB0B9DFF88080B6
:1078C0004FF48030C8F84403C8F804031120FEF7D1
:1078D00079FE1120FEF781FE4FF0010AC8F800A0E2
:1078E0002F2002F0FBF889F802A0B54200D23546FD
:1078F000124BE8193C3320F07F401860DBF8001091
:107900005A46091B21F07F41001B20F07F40C91C13
:1079100081420FD9106818602F2002F0DFF800E0D4
:1079200004E0BDE8F05F1120FEF762BEBDE8F05F45
:1079300002F012BFBDE8F09FA02000200415014016
:107940000010014073B58CB00646002000900D98E1
:1079500080B100246D4621460DA800F012FD30B123
:10796000009805EB400084800098401C0090641C47
:10797000142CF0D32C2269463046FEF7E3FC0EB0FF
:1079800070BD000070B588B00646002005900690D6
:10799000ADF81410ADF816100190029001AA05A9D7
:1079A000304690DF050021D002F03CF80346114834
:1079B00011493246401AC108012000EB014004463B
:1079C0000E4901F072FCBDF8042012B9BDF80600A2
:1079D00028B1BDF80630204609A101F066FCBDF8CB
:1079E00008201AB12046164901F058FC08B0284674
:1079F00070BD0000CCBC0200C4BC020050B5020047
:107A00005468652072657175657374656420545897
:107A10002F5258207061636B6574206C656E6774BB
:107A20006820697320746F6F206C6F6E67206279B5
:107A30002025752F2575206F63746574732E0000E3
:107A40009CB5020001460148FFF768BDA82100204F
:107A50002DE9F843054690F8C6020F4600EB800179
:107A6000C1EB801005EB400695F8C542914604EB4A
:107A7000C40006EB40013279601C0A31904226D1E5
:107A80006B460022284600F023FA18B310E0401E8F
:107A9000A04201D1002004E004EBC40006EB40004A
:107AA0001C30804602466B46284600F011FA30B181
:107AB00000203870694648469EDFBDE8F88395F897
:107AC000C5024146401C641C85F8C502E4B2307909
:107AD000A042DCD8012038700020EEE72DE9F04705
:107AE0000025DFF88C803CE06068002100EBC506D3
:107AF000012032789146FEF711FCD4E9062300EA12
:107B0000020701EA030C57EA0C0728D082438B4393
:107B10004846C4E9062302F0A3F83278824691462B
:107B200001200021FEF7FAFBD4E9042300EA020455
:107B300001EA03074A4650460021FEF7EFFB4440A6
:107B40004F403C430BD17078012801D0012100E067
:107B50000021726881EA0A010AB1484690476D1C0B
:107B6000EDB298F8000044468542BDD3BDE8F087E9
:107B7000802000202DE9F047894690F8C6129046F3
:107B800001EB8102C2EB811100EB4107384602F0A4
:107B9000C7FD06002FD0194CA06806282BD2184D1F
:107BA000762205EBC0103946A0F80280001DFEF7D2
:107BB000C9FB0027B9F1000F04D0A06805EBC01085
:107BC000077004E0A168022005EBC1110870A068ED
:107BD00005EBC011401CCE67A060E16888420AD165
:107BE000002604E005EBC610C16F8847761CE068EC
:107BF0008642F7D3A760BDE8F08700004C20002044
:107C00006822002070B50E4690F8C612154601EBAA
:107C10008102C2EB8111A0B000EB410002F080FDB7
:107C2000040009D07C2205496846FEF78BFBADF8BD
:107C3000025068460196A04720B070BDECB002002B
:107C400070B50E4604464FF43371FEF794FB1148AD
:107C50000025A4F8CA62856084F8C9520E4884F8E9
:107C6000C65284F8C5520068206022460121304681
:107C70009BDF0121112806D0002809D184F8C71202
:107C800084F8C85203E084F8C71284F8C8120020B0
:107C900070BD00004C2000205022002010B50021B3
:107CA000024800F09AFB80F3100010BD002E002067
:107CB0000E4910B50A784C780023A24212D0521C0B
:107CC000D2B20A70022A00D10B70084A0B780C322B
:107CD00052F8232002608868104420F07F408860BA
:107CE000012010BD0360002010BD0000A020002076
:107CF0002DE9F0418046024601200021FEF70EFBEF
:107D00001A4F05460E467868FFF77CF800280CD11C
:107D1000174CD4E9062110462A4001EA06031A430B
:107D200005D0A843B143C4E90601BDE8F08140464F
:107D300001F096FF30B1D4E9040128433143C4E98E
:107D4000040105E0D4E90410A943B043C4E90410D8
:107D5000D4E9060128433143C4E90601A1687868E3
:107D6000BDE8F0410022FFF709B800009CB1020015
:107D7000802000202DE9FC5F0E008346DDE90C47E2
:107D8000C6F1000098469246814600D40846012577
:107D900003E000BF90FBFAF06D1C5045FADAA845ED
:107DA00000D9454624B1002E01DB780700D5641EBA
:107DB000B80702D5B8F1000F0AD0F80708D13CB1D6
:107DC000A54205D220215846641EFFF79BFCF6E72A
:107DD000002E02DA4E462D2102E0780703D52B2132
:107DE0005846FFF78FFC07F0030002280BD1B8F1CB
:107DF000000F08D13CB1A54205D230215846641E7F
:107E0000FFF780FCF6E7CDE900474346524631468E
:107E1000584603F0EDF8BDE8FC9F000070B50D4634
:107E2000044600684FF4887101F01CFE4FF4907115
:107E3000206801F017FE4FF49271206801F012FEE5
:107E40004FF4A271206801F00DFE20681249C0F8BD
:107E500004132068690740F30730090E002806DA8A
:107E600000F00F0000F1E02080F8141D03E000F1A5
:107E7000E02080F800142068012140F3073000F072
:107E80001F0291404009800000F1E020C0F88012FC
:107E9000C0F8001170BD000010030200024600206F
:107EA0001268530713D502F00300012802D00228FC
:107EB0000CD105E0C2F383100B68801C184404E069
:107EC0000223086803EB92521044086001207047B7
:107ED00010B509892AB1D088491C814218D10020E7
:107EE00010BD90F8C62202EB8204C4EB821200EBB4
:107EF000420212899142F2D0491C198090F8C612B0
:107F000001EB8102C2EB811100EB4100008902E02C
:107F10001980D088401E5880012010BD90F82E0096
:107F2000C0F3C100012803D0032801D0002070470E
:107F30000120704770B506461B481C4A0C46801A43
:107F40000978C008032202EB004501290FD002295D
:107F500029D12279284616A101F0A0F9207900281C
:107F60004FF002001BD0BDE87040FFF74FBB6188A7
:107F7000221D1948FFF736FA6288284617A101F03A
:107F80008DF9FEF721FE08B1FEF7AEFE3046FFF791
:107F9000FDF9002807D0BDE87040FEF7A5BEBDE89A
:107FA0007040FFF72BBB70BD1CBD0200C4BC0200BB
:107FB000427574746F6E20737461746520636861B8
:107FC0006E676564206F6E207065657220746F2027
:107FD000307825782E000000A82100204C45442050
:107FE000427574746F6E2073657276696365206480
:107FF0006973636F7665726564206F6E20636F6E60
:108000006E5F68616E646C6520307825782E0000A4
:108010001721018041800021017141711B21817173
:10802000C17170472DE9F047394E002780463D4623
:10803000DFF8E090D6F804A057E003D00446D0F86B
:108040001C8035E099F8002002EB4201521CD2B2AC
:1080500089F8002009EBC10199F80230091D9A4204
:1080600001D189F8005048680A780446012A12D0E4
:10807000022A02D0032A3BD108E002F07DFD00B1C4
:108080000127257434E00574C06900E07068002899
:10809000F9D170602CE0207C50BB88686060C868B3
:1080A000A0600869E0604869A061F07800B165608F
:1080B0006268B168184B501A20F07F40984202D293
:1080C000A168084406E0881AA16820F07F40814238
:1080D00002D9081A206000E0256065600120A560D3
:1080E00020742046E56102F029FDB8F10000A4D11A
:1080F00099F8001099F801008142A3D117B971686D
:10810000514502D00120BDE8F0870020FBE70000C8
:10811000A0200020E8260020FFFF7F002DE9FF417E
:108120000026234800F045F92148001F074600F0CB
:1081300040F9204C60680090A56800E0009869460E
:10814000284004EB80000C30FFF7A8FE0028F5D192
:1081500001AA009901EA050304EB8303491CDB68CB
:1081600042F82030401C00910228F2D3019800F020
:10817000030001280BD0022810D10198032101EB44
:1081800090500099BDF80A6001EB900005E001985D
:10819000BDF80A60C0F3831008440090384600F030
:1081A00005F908B10098606004B03046BDE8F08180
:1081B000FC2D0020E429002008B54FF400410020E8
:1081C00001F0D2F808B1FEF78FFD00F02FFFFEF7A7
:1081D000ABFD08B1FEF788FD0120FFF7E5F940F29D
:1081E000666201212748FEF701FD08B1FEF77CFD1C
:1081F00001F0D0F908B1FEF777FD01F05FFB08B19F
:10820000FEF772FD002000906946012001F010FA8F
:1082100008B1FEF769FD684601F08AFA08B1FEF779
:1082200063FD02F0F1FA0021174800F04BF908B1A4
:10823000FEF75AFD1548FEF719FF08B1FEF754FD89
:1082400013480090104869461038FFF7D7F808B176
:10825000FEF74AFD0F481049401AC008032101EB00
:1082600000400EA101F016F802F0FAFA0020FFF724
:10827000CDF900BF00F0F4FE0028FBD101F09EF91B
:10828000F8E70000701D0020B8210020457A0200A8
:10829000357F02001CBD0200C4BC0200426C696E46
:1082A0006B792043454E5452414C206578616D7086
:1082B0006C6520737461727465642E002DE9F0475B
:1082C000C5881E1DB6FBF5F78946B6FBF5F10446D9
:1082D00005FB176C407916686843DDF820A0F71895
:1082E000001F874200D9C61A166001E02468491EA3
:1082F0000029FBD1A5EB0C078846B74216D818E039
:1083000004EB0C00001D09EB0803BAF1000F3A461C
:1083100002D00146184600E01946FEF713F824681B
:10832000F61B4FF0000CB844B54201D9374600E0C7
:108330002F46002EE4D1BDE8F087000030B502469C
:1083400051B101F02FF80021074C08E034F821303A
:108350001568AB4202D11160002030BD491C81423A
:10836000F4D3052030BD00000000000001F01F0321
:1083700001229A40D243490900EB8100114600F0E6
:1083800021B84A0950F8220001F01F020121914052
:10839000084000D00120704701F01F0301229A40DD
:1083A000490900EB8100114600F01CB8002100F0E3
:1083B0000FB8012100F016B808B56A46FDF75DFF59
:1083C000009808BD08B56A46FDF73DFF009808BD56
:1083D00008B56A46FDF737FF08BD08B56A46FDF7E0
:1083E00019FF08BD08B56A46FDF720FF009808BDD3
:1083F00008B56A46FDF74EFF009808BD38B504463B
:1084000000258DF800506846FEF70CFD2168626873
:10841000086890420ED9401E08600178238AE268FD
:1084200001FB0325227A2168101AC0B20A79824220
:1084300000D208719DF80000FEF718FD284638BDEF
:1084400038B5054600208DF800000C466846FEF75A
:10845000E9FCE868298A201AB0FBF1F12A68106863
:10846000431C136001709DF80000FEF7FFFC38BD4F
:1084700010B530B1017A42680368891AC9B21A602E
:1084800006E00E2010BD03681A68541C1C601170B1
:10849000491EC9B2F7D2006800210171084610BD1B
:1084A000C20800F007030120895C9840084070472B
:1084B00010B5C20800F00703885C01249C402043EB
:1084C000885410BD10B560B10161172120F8021B5E
:1084D00020F8021B1B2100F8021BFFF799FD00206A
:1084E00010BD0E2010BD0000F0B5858893B00C467D
:1084F000002D39D1018800263F4F24293BD006DCCE
:10850000102909D011290CD0232958D14FE03A293C
:108510000BD0552953D129E00146204601F0DCFE5D
:108520004DE0A01DFFF774FD49E02246408934F874
:10853000061F814200D808466080172800D2172005
:108540006080106970B1607960B1D7E90001CDE950
:108550000301ADF80E506088ADF81000136903A94F
:10856000104698476671267113B0F0BD014620464B
:1085700001F07EFF23E0011D2C2206A8FDF7E2FE9C
:10858000BDF81800BDF81C2004EBC0014A73226935
:10859000AAB1D7E90423CDE90423ADF81200487B42
:1085A0008DF814002269204604A9904707E0017A5B
:1085B000207B884200D201462846FFF7E3F9A07AE3
:1085C0000028D1D0E1882846A5DF012580B11128F7
:1085D000CAD001F027FA02460848094913B0401AE8
:1085E000C00805EB0040BDE8F04006A100F056BE13
:1085F000A672E572B8E7000068B10200CCBC0200C8
:10860000C4BC020073645F626C655F67617474630D
:108610005F65786368616E67655F6D74755F7265CD
:10862000717565737428292072657475726E65643E
:108630002025732E000000002DE9F041044600F1D2
:108640002E0700F1240590F82C6090F8230086B0E6
:1086500001F10208002814D08BDF14216846FDF7D1
:108660008AFE33462A46394640468CDF06218DF87D
:1086700000100190002804D0E16B002901D0684669
:10868000884706B0BDE8F0814FF4C87141850621E6
:1086900081841821C18400210185704710F82E1FA4
:1086A000A02242805022828021F018010022C28044
:1086B00041F0040101700121417070472DE9F04142
:1086C00020B11AB121B10720BDE8F0810E20FBE7EF
:1086D000054600F1200490461046FDF757FE10F0C5
:1086E000FF0001D0202801D90C20EDE7207808B147
:1086F0000420E9E70026374605EB46104146FDF722
:108700004CFE80B1761C16F0FF06F5D04046FDF712
:108710003DFE02462078414605EB4013401C207088
:108720001846FDF70FFE3846CEE720B1002180F84D
:108730002110084670470E20704710B50B46040004
:1087400002D0980702D009E00E2010BD580705D4CA
:10875000D80603D4180701D4072010BD2046FFF720
:10876000E4FFD80702D0012084F8210084F82220F9
:10877000002010BD70B50D46040012D02321E26325
:10878000FDF7F9FDEDB1287984F82300287B84F802
:108790002C00296839B10E2204F12E00FDF7D2FD1C
:1087A00004E00E2070BD2046FFF778FFA86820B1D6
:1087B000016861624068A0620CE02046FFF764FF38
:1087C00008E02046FFF76AFF2046FFF75DFF002024
:1087D00084F8230004F1400020661F20A4F8640000
:1087E000002070BD2DE9F04F87B00F4604464FF0D2
:1087F000000A564614216846FDF7BDFD04F12E001F
:1088000004902046FFF78AFB010004F16000059008
:1088100010D002208DF800000197E16B6846884770
:10882000002005998ADF39462046FFF705FF07B08B
:10883000BDE8F08F94F8229094F821004FF00008E2
:10884000E8B194F820B0B88B4FF0010A00250690EB
:1088500013E000BF04EB4512B8690699FEF7A8FBC8
:1088600048B19DF808004FF0010840F001008DF874
:108870000800761C03E06D1CEDB25D45EAD301975C
:10888000B9F1000F01D0564502D038EA090007D0EF
:1088900000208DF8000039462046FFF7CDFE02E0AB
:1088A00003208DF80000E16B09B16846884700207D
:1088B00005998ADFBBE770B50D46014601F1080254
:1088C0000C1D284609882E3586B0102935D01B2965
:1088D0001FD01D2917D0202942D1064614216846F1
:1088E000241DFDF748FDF06B002839D005208DF8D8
:1088F000000004952068019060680290207A8DF84D
:108900000C00F16B2AE006B01146BDE87040FFF79D
:1089100069BF064614216846241DFDF72CFD20780A
:1089200001281DD1F06B00281AD004208DF800001A
:10893000049520788DF80400E3E706461421684684
:10894000FDF719FD07208DF80000201D01902088FB
:10895000ADF808000495F16B002901D068468847FE
:1089600006B070BD30B585B0040025D0142168462E
:10897000FDF701FD8BDF2046FFF7D0FA012528B176
:10898000E16B19B18DF800506846884704F1600129
:1089900004F12E008ADF044608280FD074B108487D
:1089A00008492246401AC00805EB004006A100F025
:1089B00075FC204605B030BD0E20FBE70020F9E72E
:1089C000D4BC0200C4BC020073645F626C655F6764
:1089D00061705F7363616E5F73746172742072653E
:1089E0007475726E656420307825780000F18040DF
:1089F0000068002800D00120704708B500F18040D1
:108A0000002101600068009008BD000070B50B4CAB
:108A1000207808B185250FE00020A060606020610B
:108A2000E060074801F03CF8054600F093FF08B904
:108A300001F01EF801202070284670BD0826002095
:108A40007D78020038B500258DF800506846FEF7A5
:108A5000E9F9074CE068401EE060E06810B901F0F9
:108A60002FF8A5709DF80000FEF700FA38BD000051
:108A700008260020F0B505460478154889B016464A
:108A800040F82420124A0869121DA2F1080742F892
:108A90002400487F385520226846FDF753FC049493
:108AA0002878385C48B10EB10A4A00E000226946D5
:108AB000281D01F085FA09B0F0BD0EB1064A00E0AC
:108AC0000022694605F10C0001F04CF9F3E70000C3
:108AD00068200020CDAE020019AD02000FB408B529
:108AE0000399002904D004AA00926A4600F00FF806
:108AF00001B05DF814FB10B582680446002A05D069
:108B0000D4E90403216898470020A06010BD2DE936
:108B1000FC4791460C00804676D014F8011B39B111
:108B200025290ED04046FEF7EDFD20780028F4D12F
:108B300098F80C00002867D04046BDE8FC47FFF7D6
:108B4000DABF0020012221782B291BD02D2902D049
:108B5000302908D102E040F0010001E040F00200BD
:108B6000641C002AEFD100252A290ED02178A1F11A
:108B700030020A2A11D205EB850201EB4205641C82
:108B8000303DF1E740F00400EAE7D9F800100B1D92
:108B9000C9F800300968641C0D44217800232E298F
:108BA0000BD114F8011FA1F130020A2A05D203EB00
:108BB000830201EB4203303BF3E76C290DD06829B7
:108BC0000BD0692921D00BDC252918D0582931D0A8
:108BD00063290ED0642915D117E014F8011FECE7C2
:108BE000702969D0732932D075291BD0782909D111
:108BF00020E0D9F80000011DC9F8001001784046B6
:108C0000FEF780FD641C90E76CE0D9F800100A1DA7
:108C1000C9F800200968CDE900500A224046FFF754
:108C2000A9F8EFE7D9F800100A1DC9F80020096873
:108C30000A2206E0D9F800100A1DC9F800200968C8
:108C40001022CDE90050404602F0D2F9DAE7D9F817
:108C5000001000270A1DC9F800200E68C00705D1C2
:108C600012E04046761C7F1CFEF74CFD317800294F
:108C7000F7D104E0202140466D1EFEF743FDBD42C2
:108C8000C0D9002DF6D1BDE74EB13046FDF77EFBD1
:108C9000074604E0202140466D1EFEF733FDBD422D
:108CA00006D9002DF6D103E04046761CFEF72AFDDA
:108CB00031780029F8D1A5E7D9F80000011DC9F8DD
:108CC0000010056830214046FEF71CFD7821404623
:108CD000FEF718FD08200021CDE90001034610220F
:108CE0002946B0E7BDE8FC8770B541EA4201DDE9FD
:108CF00004564FF0A04441EA830141EA052104EB08
:108D0000800041EA0641C0F8001770BD70B541EA25
:108D10004201DDE904564FF0A04441EA830141EAF3
:108D2000052104EB800041EA0641C0F8001770BD40
:108D300070B541EA4201DDE904564FF0A04441EA32
:108D4000830141EA052104EB800041EA0641C0F8B5
:108D5000001770BD70B541EA4201DDE904564FF0DD
:108D6000A04441EA830141EA052104EB800041EA85
:108D70000641C0F8001770BD1CB5002100910B46DC
:108D800001220191FFF7D4FF1CBD1CB50021009109
:108D90000B4601220191FFF7DDFF1CBD1CB500222F
:108DA0000B46009211460192FFF7C2FF1CBD1CB595
:108DB00000220B46009211460192FFF7CBFF1CBD2B
:108DC0001CB5002100910B46012201911146FFF7CD
:108DD000AFFF1CBD1CB5002100910B460122019183
:108DE0001146FFF7B7FF1CBD4FF0A04202EB800019
:108DF000D0F8002722F44032C0F80027D0F800272E
:108E000042EA0141C0F80017704701224FF0A04329
:108E1000824011B1C3F808257047C3F80C2570478C
:108E200018B5084B6C4601441B68009306E000BF70
:108E300054F82030D3F81035401C08C28142F7D8CE
:108E400018BD000090B10200034908B50844002194
:108E500001600068009008BD006000400249405871
:108E6000012800D0002070470060004030B5154A4E
:108E700001460020D2F8104423460AE0DB681D7941
:108E8000854205D1401C0A28F6DB4FF0FF3030BD8B
:108E90001B68002BF2D1431CF9D0CB681871D2F8B3
:108EA000103443B1DB68CC681B682360D2F810240F
:108EB000D268116030BDC2F81014C96800220A607F
:108EC00030BD0000E42900207047FDF7EBBB704780
:108ED00008B5034A00924023024A00F005F808BD95
:108EE00031A902000C280020F0B595B01C461546AB
:108EF0000F4608461A9E00F027FB182109A8FDF727
:108F00003AFA0E96CDE909540023082203A93846FF
:108F100000F02FFB05980690BDF81000ADF81C007E
:108F2000BDF81200ADF81E0000208DF82100039856
:108F3000082600F00300012802D0022818D032E0F1
:108F400003983346850AC0F3C2008DF820000398C9
:108F50000FA9C0F38314A200384600F00AFB09A849
:108F6000009006AB22460FA9284600F049FA1AE005
:108F70000398840DC0F3C2008DF82000082C01D2A4
:108F8000254600E0082533462A460FA9384600F05A
:108F9000F0FA2E44641B09AB06AA29460FA800F07C
:108FA0008DF9002CEAD1384600F0D4FA15B0F0BDA6
:108FB0007047012001F0CEBE084810B50178084A7C
:108FC000515C19B1001D01F087F802E00C3000F08F
:108FD00095FFBDE81040002001F0BCBEC420002079
:108FE0006420002008B5034A00924023024AFFF79C
:108FF0007BFF08BD81A902004C2800200A4A0129F4
:1090000002EBC00007D0022907D0032907D00429AA
:1090100007D0002070470220704704207047007975
:109020007047407970470000C4BC020010B5FFF7DC
:109030004CFF04210948FFF719FF08480124C068C4
:109040004471FFF7B6FF054804211030FFF70EFF0B
:1090500002481030C068447110BD0000A4BC02007A
:109060002DE9F04F8DB0FEF75DFB18B100200DB07B
:10907000BDE8F08F7E4C4FF0000BC4F818B4BFF37E
:109080004F8F60680290A568D846284004EB8000A6
:109090000CE000BFD4F8180470B92168029881422E
:1090A00001D86160E2E7284004EB80000C3002A99F
:1090B000FEF7F4FE0028EDD1002005AA029901EA8E
:1090C000050304EB8303491CDB6842F82030401C95
:1090D00002910228F2D3059800F00300022802D082
:1090E00001284DD0AAE005985022810D8946B2EBA7
:1090F000905F00D850210E4666F39F5005900831CE
:109100005C4800F0D8F9070078D000F01DFA43461B
:10911000082205A9384600F034FA029908F1080A35
:109120002940681A8000001D864222D9504D0C3516
:1091300030B1C2B204EB8101301A90460C3104E028
:109140002946F2B2002590462846C6B25346384614
:1091500000F017FA0AEB080325B1324629463846D3
:1091600000F00FFA029909F1030001EB9000029060
:109170003BE004EB81015346324638460C31EFE7C1
:109180000598C0F38310062800D30620059960F3E4
:109190008911C1F38310801C05918100354800F0CE
:1091A0008AF907004AD000F0CFF94346082205A902
:1091B000384600F0E6F908F1080800260FE00298AA
:1091C000434600EA0501401C04EB810102900422A1
:1091D00038460C3100F0D5F908F10408761C0598E2
:1091E000C0F38310B042EAD847B1D4F81054D4F891
:1091F000180478B1384600F0ADF934E01EE0E868B4
:109200004079012804D12A682846394612689047D7
:10921000E8680568002DF2D1384600F09BF98DF81A
:1092200000B06846FDF7FEFDD4F8180408B90298AE
:1092300060609DF80000FDF719FE14E0D4F81044BA
:1092400005E02168204689688847E0680468002CAA
:10925000F7D109480949401AC008022101EB004032
:1092600007A100F017F8FEF75DFA80F00100FEE6B6
:10927000E42900203CBD02001CBD0200C4BC020069
:109280004261636B656E647320666C7573686564B8
:109290000000000000231A4601F0CABB08B50123F4
:1092A00000926A4601F0C4FB08BD1CB5CDE900235D
:1092B00002236A4601F0BCFB1CBD00002DE9F0470B
:1092C0000E4680461C46924608293ED894F80C90DB
:1092D000002020731946104601F0CAF90025B54256
:1092E00006D218F805201AA12046FFF7F7FB03E085
:1092F00019A12046FFF7F2FB6D1C082DEFD317A133
:109300002046FFF7EBFB0025B54210D218F8057098
:10931000FDF714F80068C05D10F03E0F01D03A462A
:1093200000E02E220EA12046FFF7D8FB03E00DA19E
:109330002046FFF7D3FB6D1C082DE5D30122214603
:10934000504601F077F984F80C90BDE8F0870000F2
:109350002025303278000000202020007C00000012
:1093600025630000200000000B4810B5FF2181603C
:10937000002101604160C0F81814C0F8141480F88E
:109380002014064800F0E4F8002803D1044800F057
:1093900037F9002010BD0000E42900203CBD020088
:1093A00074B3020002480349401AC0087047000025
:1093B0003CBD0200C4BC020013B56846FEF7BEFF08
:1093C00008B100201CBD0248009950F831001CBDB6
:1093D000C4BC020070B509480125D0F8104480F8DB
:1093E000205407E0E06845712168204649688847B5
:1093F000E0680468002CF5D170BD0000E42900206D
:109400002DE9FF4781460C9D00200C462F7B2873D9
:10941000984616462946184601F02AF9072E42D2E8
:10942000DFE806F004090F161F2A360049462846D1
:10943000FFF754FB37E0494628462268FFF74EFB0A
:1094400031E0D4E9002349462846FFF747FB2AE0EC
:10945000A0680090D4E9002349462846FFF73EFB68
:1094600021E0D4E90201CDE90001D4E90023494615
:109470002846FFF733FB16E004F1080007C88DE823
:109480000700D4E9002349462846FFF727FB0AE0F6
:1094900004F108000FC88DE80F00D4E90023494605
:1094A0002846FFF71BFB00222946404601F0C2F880
:1094B0002F73BDE8FF872DE9F041058A80462D1FF7
:1094C0004819C01CB0FBF5F0C6B24046FEF796FF47
:1094D000041E19D00020207101206071E580002752
:1094E0002546761EC4F800800BE04046FEF786FF56
:1094F00060B16179491C6171286005467F1CC0F824
:109500000080B742F1D32046BDE8F081204600F04C
:1095100002F80020F8E72DE9F041457901466B1E7D
:10952000002201E00968521C9A42FBD30F680146F1
:10953000002605E038460C68FEF782FF2146761CBF
:10954000AE42F7D3BDE8F0810121001DFEF734BF24
:10955000FEF78EBF10B504460121001DFEF748FF3F
:1095600010F0FF0F04D12046BDE81040FFF7D3BF35
:1095700010BD1CB501920122009201AAFEF79EFEC9
:109580001CBD1CB501920022009201AAFEF796FEB6
:109590001CBD0000064910B500204870091D086078
:1095A000BFF35F8F0349044800F0F8F9002010BDB5
:1095B000B4200020E0B102000028002008B50020FF
:1095C0008DF800006846FDF72DFCF1EE100A20F042
:1095D0009F00E1EE100ABFF35F8F08494020C1F8F9
:1095E00080029DF80000FDF741FC00F0B3F908B1DE
:1095F00041DF08BD20BF40BF20BF08BD04E000E040
:10960000826800219160826811618268516182687C
:10961000D1608268516080680160704720B1034961
:1096200009680160002070470E207047F8B30200FF
:10963000FEB502460E460846FFF7F0FF002867D148
:10964000002500950195012706208DF80020ADF832
:10965000040002958DF8027069462020326869DFA7
:109660002C492D4A891AC908012202EB014430B164
:1096700000F0D8F9024620462849FFF70FFE009572
:109680008DF801508DF80270019502958DF80370E8
:1096900069464020326869DF30B100F0C3F9024604
:1096A00020461F49FFF7FAFD00950A208DF80000BB
:1096B0000195029569460120326869DF30B100F0FA
:1096C000B1F9024620461749FFF7E8FDF82000905F
:1096D000019502956946A120326869DF30B100F03A
:1096E000A1F9024620461049FFF7D8FD00950195E3
:1096F00002958DF800506946A020326869DF30B1CC
:1097000000F090F9024620460849FFF7C7FD002007
:10971000FEBD00002CBD0200C4BC02003CBB020028
:1097200084BB02009CBA0200E8BA020048BA0200F8
:109730002DE9F0410546076860DF804619491A485F
:109740002A68081AC608BA4219D9022000EB064452
:1097500016A12046FFF79EFD20463A461FA12B6822
:10976000FFF7A3FD4FF08050D0F80C01296880026C
:1097700000F10050421A204625A1FFF78FFDB8F1F5
:1097800000004FF001040AD000F04CF9024604EB4F
:1097900006402AA1FFF782FD4046BDE8F0812F4830
:1097A0000470F9E72CBD0200C4BC0200496E737559
:1097B0006666696369656E742052414D20616C6C08
:1097C0006F636174656420666F72207468652053EE
:1097D0006F66744465766963652E00004368616E48
:1097E0006765207468652052414D207374617274FE
:1097F000206C6F636174696F6E2066726F6D2030CC
:1098000078257820746F20307825782E00000000AD
:109810004D6178696D756D2052414D2073697A658F
:1098200020666F72206170706C69636174696F6E1D
:1098300020697320307825782E00000073645F6201
:109840006C655F656E61626C652829207265747550
:10985000726E65642025732E000000003B210020FD
:1098600030B5144891B00078002820D05FF034055E
:10987000ADF8405010A903A861DF30B1052816D01B
:1098800011B0BDE83040FDF72FBA03AC0A49684675
:1098900000F084F807E000BFD0E90021204690479F
:1098A000684600F092F802980028E1D0F4E711B081
:1098B00030BD00003B210020FCB302007CB5194CF8
:1098C000207808B108207CBD0120A070002001F0A4
:1098D00001F8112819D0002001F014F812480026D0
:1098E000006801908DF800606846FDF79BFA0F490B
:1098F00001A810DF05000AD0002020709DF80000AC
:10990000FDF7B4FA2DB128467CBD00207CBD0120B6
:10991000F3E7A670667001F05FF8012000F0F2FF37
:10992000F3E700003821002090B30200656C0200CC
:109930000EB50749684600F031F805E0D0E900109F
:109940008847684600F041F802980028F6D10EBD1D
:10995000ACB30200014800787047000038210020B5
:109960001FB568464BDF30B1052814D004B0BDE800
:109970001040FDF7B9B9084901A800F00FF806E05A
:10998000D0E900210098904701A800F01EF8039844
:109990000028E6D0F4E71FBD18B402000160096892
:1099A0004160AFF3008010B5D0E9002153689942BF
:1099B00001D1002104E0D1E90034A34202D01946CC
:1099C000816010BD08314160F0E7816800290BD04B
:1099D000026892680A44826041684B689A4203D1E7
:1099E00008314160FFF7DFBF704700000C4A10B537
:1099F00002F594730EE0991AC91001EBD171491068
:109A000002EBC1010C68844201D90B4602E005D289
:109A100001F108029A42EED3002010BD486810BD43
:109A200000B2020000B5FFF7E1FF002800D10148B5
:109A300000BD0000ECB102004058002800D0012019
:109A4000704708B5002242504058009008BDD0F839
:109A50000403084000D0012070474058002800D07F
:109A60000120704708B5002242504058009008BDC0
:109A700009480068012110F0010F08D14FF0E020E3
:109A8000C02280F80024C0F88012C0F800110349F9
:109A9000012008607047000000E100E01805004068
:109AA0000649024600200B790BB1852070470A60F9
:109AB00001220A7100224A717047000070200020C4
:109AC00004490120086004480168C1F300410029ED
:109AD000FAD170470C00004018040040002802D062
:109AE0000149800108477047B1B102002DE9F041FA
:109AF0008846054600F086FD234E002828461AD0E9
:109B0000FDF77EFE304490F848008009032802D01B
:109B100001280ED007E04FF0A040D0F81005E84033
:109B200010F0010F05D003212846BDE8F041FFF7F2
:109B30005BB90221F8E700F071FD002822D0284629
:109B4000FDF75EFE04464FF4807000EB84000F4F7B
:109B500081B207EB8400D0F8102542F00102C0F872
:109B600010250846FFF770F9B8F1000F0AD0284613
:109B7000FDF746FE56F82000002803D00120A04043
:109B8000C7F80403BDE8F0811C26002000600040F7
:109B90002DE9FC41DFF8BC80044608EB04000027F7
:109BA00090F930001346C0170E46401C01D008271C
:109BB0004CE0B0781946C0F340022046FDF7FCFDAA
:109BC0000546401C41D0B078410719D4C0070AD0DF
:109BD0004FF0A04000EB8401D1F8000720F0020014
:109BE000C1F8000707E000217378204600910A467B
:109BF0000191FFF78BF8174920465431FEF758FCC6
:109C0000B078800718D51448317800EB8500D0F87B
:109C10001025124B1A40C0F810254FF4F8524FF49B
:109C2000403302EA042203EA01410A43D0F8101546
:109C30000A43C0F8102509E008EB0500327810F857
:109C4000481F41EA8211017000E004273846BDE850
:109C5000FC8100001C26002000600040FFE0FCFFAB
:109C60004FF0A041D1F81015C14011F0010000D013
:109C70000120704770B5184D95F8580008B10820BC
:109C800070BD0020411E2A18401CC0B282F830105E
:109C90002028F8D300242046FDF780FD641CE4B2A0
:109CA0000C2CF8D300240D49C0206C6581F8000409
:109CB00001264020891FC1F88002C1F800014FF43D
:109CC000BE70FFF7C1F80649F007C1F8040385F834
:109CD0005860204670BD00001C26002006E000E011
:109CE00000600040034890F85800002800D0012090
:109CF000704700001C2600200121B1EB507F01D1EC
:109D0000012070470020704738B50D4600F0FCFC7C
:109D1000040014D000208DF800006846FDF782F89A
:109D2000207928B19DF80000FDF7A0F8112038BD7A
:109D30000120256020719DF80000FDF797F80020B4
:109D400038BD10B500F0E0FC002802D00021016011
:109D5000017110BD0149024801F024B878260020A5
:109D6000002000402DE9F0410546007916460F46D7
:109D700000EB40012D4A01EBC00102EB810494F895
:109D80002A1011B10820BDE8F081294951F82010AE
:109D90002868FFF7B9FF08B11120F4E739462846D3
:109DA000FDF77EF866603869206030004FF00106EC
:109DB0002FD03F7F4FF48E712868FFF742FE4FF49B
:109DC000A2712868FFF73DFE28681A49C0F80413FD
:109DD00028684FEA471140F30730002806DA00F000
:109DE0000F0000F1E02080F8141D03E000F1E020F6
:109DF00080F80014286840F3073000F01F0206FACC
:109E000002F14009800000F1E020C0F88012C0F8A3
:109E1000001128680421C0F800150020A061E0614D
:109E200084F8290044F8140FA675ACE778260020C2
:109E300094B10200800002002DE9F0470546007948
:109E40000B4600EB400101EBC000234901EB80040D
:109E5000284600F043F810B11120BDE8F0874FF01C
:109E60000008C4F82080A360626184F828804FF461
:109E70008E76474631462868FFF7E3FD28684FF0A5
:109E80000109C0F808902146286800F027FF6068A3
:109E900000BBD5F800A00EE094F8280008B10F2709
:109EA00016E031465046FFF7C7FD0028F4D02146A2
:109EB000504600F013FF216A60698142F1D33146B8
:109EC0002868FFF7B9FD0028F9D02868C0F80C9081
:109ED000C4F814803846C0E778260020007900EBEB
:109EE000400101EBC000044901EB800040690028FB
:109EF00000D0012070470000782600202DE9F047AF
:109F0000044600794FF0000900EB400101EBC0006E
:109F1000254901EB80072068C0F80095786880B17A
:109F200020682249C0F808132068012140F3073057
:109F300000F01F0291404009800000F1E020C0F8CD
:109F400080112068D0F80C25D0F81485D0F8086569
:109F5000D0F810554FF0FF31C0F81415C0F80C15AB
:109F60002068C0F80815C0F81015501C02D0104623
:109F7000FEF702FFB8F1FF3F02D04046FEF7FCFEBD
:109F8000681C02D02846FEF7F7FE701C02D030464F
:109F9000FEF7F2FE2068FFF7D4FE87F82A90C7F894
:109FA0000490BDE8F08700007826002084020200BB
:109FB0000149024800F0A2BFA42600200020004072
:109FC0002DE9F0410546164600790F46154A00EB8B
:109FD000C00102EB810494F8201011B10820BDE803
:109FE000F081114951F820102868FFF78DFE08B163
:109FF0001120F4E739462846FCF796FF6660386979
:10A0000020601EB1397F2846FDF708FF2868082127
:10A01000C0F800150020A061E0610121606184F8B2
:10A020002010DCE7A426002098B102002DE9F047BB
:10A0300004460E460079204900EBC00001EB800584
:10A0400017463046FFF758FE30B1204600F036F88C
:10A0500020B11120BDE8F0871020FBE76F61AE60F2
:10A060004FF49076002731462068FFF7FBFC4FF451
:10A07000AC7841462068FFF7F5FC2068AA6869695A
:10A08000C0F84425C0F8481520680121816068683F
:10A0900078B9B14649462068FFF7DFFC06464146DD
:10A0A0002068FFF7DAFC0643F4D000B10F27002048
:10A0B00068613846CEE70000A426002000790549F3
:10A0C00000EBC00001EB80004069002800D00120B7
:10A0D00070470000A42600202DE9F04704460079CF
:10A0E000274900EBC00001EB800720684FF0000912
:10A0F000C0F80095786880B120682249C0F808133C
:10A100002068012140F3073000F01F029140400910
:10A11000800000F1E020C0F880112068D0F80C2504
:10A12000D0F81485D0F80865D0F810554FF0FF31FD
:10A13000C0F80C15C0F814152068C0F80815C0F850
:10A140001015501C02D01046FEF71FFEB8F1FF3F5D
:10A1500002D04046FEF719FE681C02D02846FEF7E2
:10A1600014FE701C02D03046FEF70FFE2068FFF789
:10A17000E8FD87F82090C7F80490BDE8F08700005C
:10A18000A4260020100302002DE9F84F05460C46D6
:10A190000888B5F8CA1288427ED195F8C602DFF861
:10A1A00024A100EB8001C1EB801005EB4006608824
:10A1B0004FF0000B00285DD13079E288A71D814661
:10A1C000D1B250FA82F2062A02D80844307111E066
:10A1D000062030713C483D493288401AC1080220AF
:10A1E00000EB014080463A49FFF758F840463949AC
:10A1F000FFF750F848460023D8461BE000EBC001AB
:10A2000006EB410203EB830107EB4101401CD1F84F
:10A2100002C0C2F80AC0D1F806C0C2F80EC049890F
:10A220005182A2F81480A2F81680A2F81880A2F831
:10A230001A805B1C31798142E0D895F8C61200EB98
:10A24000C00001EB8102C2EB811105EB410136F840
:10A250001000098988420DD2307906280AD085F885
:10A26000C50221882846FDF7D3FA01001AD085F8E7
:10A27000C7820BE085F8C5B25E462288694628464B
:10A28000FDF7E6FB01000FD085F8C762228828465B
:10A29000FDF7B8FC032100E004E08AF800102188F3
:10A2A000AAF80210BDE8F88F9DF800000028F9D048
:10A2B000228801212846FDF75DFC2188284600F010
:10A2C00063F9EFE768220020C4BC0200C4BC0200AE
:10A2D000ACB40200F4B4020070B58D88027900EBD2
:10A2E000C5042273C97BA41D012902D0022904D10F
:10A2F00001E0008800E04088208021886088814259
:10A3000011D92846A5DF0126B0B1112816D0FFF7D4
:10A3100089FB02460B480C49401AC00806EB004076
:10A320000AA1FEF7BBFFA179E079814208D928464E
:10A33000BDE87040FDF726BB6671F4E72671F2E7D1
:10A3400070BD0000CCBC0200C4BC020073645F623C
:10A350006C655F67617474635F65786368616E677D
:10A36000655F6D74755F72657175657374282920FA
:10A3700072657475726E65642025732E000000008E
:10A38000F8B505460C460888B5F8CA1288425DD172
:10A3900095F8C602A61D00EB8001C1EB801005EB0D
:10A3A000400395F8C502618800EBC00003EB400054
:10A3B0000A3039B329E000BF01EB410206EB42024B
:10A3C0009788B7F5245F0CD06FF4245C17EB0C076B
:10A3D0000AD0012F02D0072F0BD108E0528842810A
:10A3E00007E05288828104E05288C28101E05288ED
:10A3F000028242892AB182891AB1C2890AB1028ACB
:10A400001AB9491C32888A42D6D800268DF80060D5
:10A4100095F8C5021979401C884203D101208DF8B6
:10A42000000018E085F8C502228869462846FDF735
:10A430000FFB01000BD085F8C76222882846FDF784
:10A44000E1FB0A480321017021884180F8BD9DF895
:10A4500000000028FAD0228801212846FDF78AFB57
:10A460002188284600F090F8F8BD000068220020FE
:10A470007CB506468D88C88806EBC504A41D172840
:10A4800000D217202188814200D808466080002031
:10A49000207121882846B5DF60B1FFF7C3FA024674
:10A4A0000F481049401AC008012101EB00400EA1DD
:10A4B000FEF7F4FE6079002810D1306900280DD035
:10A4C0001549D1E90201CDE90001ADF802506088DB
:10A4D000ADF8040032696946304690477CBD000003
:10A4E000CCBC0200C4BC020073645F626C655F6731
:10A4F000617474735F65786368616E67655F6D74BE
:10A50000755F7265706C7928292072657475726E3A
:10A5100065642025732E000068B1020070B5054601
:10A520000C4690F8C602228800EB8001C1EB801037
:10A5300005EB4001B5F8CA02824222D1608848B1D9
:10A5400000212846FDF716FB21882846BDE870400B
:10A5500000F01AB8A2680A60E068C1F80600218815
:10A560002846FDF755F901000BD0002085F8C702F9
:10A5700022882846FDF746FB024803210170218806
:10A58000418070BD682200202DE9F041044690F81A
:10A59000C9020E46401C1949C0B284F8C902C968F4
:10A5A0000327174D4FF0000E884224D284F8C5E2ED
:10A5B00094F8C602401CC0B200EB8001C1EB8011D0
:10A5C00004EB410284F8C602A5F1180101EB8000FA
:10A5D00001210068106082F804E030469BDF010032
:10A5E00007D084F8C7E232462046FDF70BFB2F70F8
:10A5F0006E80BDE8F08184F8C7E2F8E74C200020C7
:10A60000682200200449084490F93000082801DB42
:10A6100001207047002070471C2600200449084490
:10A6200090F93000082801D20120704700207047BF
:10A630001C26002010B50C46017A052908D0407A66
:10A6400038B1084808A102682046FEF747FA00E042
:10A650001AB106A12046FEF741FA2046BDE8104097
:10A66000FEF749BA14210020257300000D0A0000EE
:10A6700038B5C3880D46044633B114A0009015A226
:10A6800016A12846FEF72AFA217A05291CD0607AFD
:10A6900048B1A088FEF7B2FC164951F8202016A157
:10A6A0002846FEF71BFAA0880021FEF785FE034628
:10A6B0001049207A143951F8202001B02846BDE80D
:10A6C00030400EA1FEF70ABA38BD00001B5B306DAA
:10A6D000000000001B5B313B33316D0025734C6F74
:10A6E00067732064726F7070656420282564292563
:10A6F000730D0A0014210020257300003C25733ED1
:10A700002025733A200000000349884201D1034804
:10A710007047002070470000002000407820002093
:10A7200070B50C4B00210A4ADC680DE002EB810594
:10A730008678AD78B54206D132F821500688B54208
:10A7400001D1586870BD491CA142EFD3002070BDF3
:10A75000502200204C20002070B5012670044FF0DC
:10A76000E0210025C1F88001084C4010C4F84803DE
:10A77000C4F8080366602F20FFF7B0F9A660044C08
:10A780002F20A560FFF7AAF9A57070BD0010014049
:10A79000A020002070B5054688690C4600284FF4BB
:10A7A000847128460AD0FFF74CF9D5F81805626A7B
:10A7B000E1688854606A401C606270BDFFF741F92F
:10A7C000D5F8180570BD1FB501238DF80030CDE90F
:10A7D0000121D0E90012684690471FBD1FB5012333
:10A7E0008DF800308DF808100192D0E9001268460B
:10A7F00090471FBD0178062904D14068002801D088
:10A80000FCF772BA704700001FB50020009001905D
:10A810000290039001208DF804008DF80C000D4A81
:10A8200069460D48FDF7A6FF08B1FCF75DFA002266
:10A8300001210948FDF781FF08B1FCF755FA074AE5
:10A8400000210548FDF73AFF002801D0FCF74CFA3B
:10A850001FBD0000F5A7020040210020D4B0020077
:10A8600010B50748FEF77EF808B1FCF73DFA012065
:10A87000FCF7C4FEBDE810400020FCF7C7BE000096
:10A880004021002038B50021012548B101280CD015
:10A89000032809D1FFF7ECF8BDE83840FEF7D2B83D
:10A8A0004FF0E020C0F8805138BD8DF800106846A8
:10A8B000FCF7B8FA064C207808B9FEF7A7F8E0686C
:10A8C000401CE060A5709DF80000FCF7CFFA38BD91
:10A8D000082600203EB5044609496846FFF75EF8A1
:10A8E00008E000BFD0E900212046904730B168461B
:10A8F000FFF76BF802980028F4D13EBD11203EBD51
:10A9000094B302003EB5044608496846FFF746F88E
:10A9100007E000BFD0E90021204690476846FFF7D6
:10A9200054F802980028F5D13EBD0000A0B3020003
:10A930002DE9F0411400884618D000250E4F03265B
:10A9400008EB050122460020FBF7AEFE0544241A61
:10A9500040B93878002809D008494FF47A40884730
:10A96000761E05D001203870002CE9D1BDE8F081B9
:10A9700000203870FAE70000BC20002041B302003C
:10A9800070B50D4C0020D2B22070201D0B4D037805
:10A99000EB5C1BB1001DFFF749FB02E00C30FFF739
:10A9A0004BFA08B1FCF7A0F96078002802D02178B2
:10A9B0000029FAD070BD0000C020002064200020D3
:10A9C000002805D10349012048700020FCF742BF50
:10A9D000704700000826002010B51620FCF7C6F8C6
:10A9E000A0B1114890F800044009082811D20121B3
:10A9F000814011F0EC0F0CD00C4882684FF48001BC
:10AA00006AB1016841F48001016010BD42F20100A9
:10AA100001E042F20200BDE81040FCF765B94FF0DA
:10AA2000E020C0F8001110BD16E000E0F42700207F
:10AA30002DE9F84F204D9246894606469846012258
:10AA400069461846AF68FCF715FE58B30098002118
:10AA50000446801C09E000BF00EA07035AF82120E1
:10AA600005EB8303401C491CDA604145F4D34FEAEF
:10AA7000164AFDF713F94AEA0041601C384005EB1D
:10AA800080003C4005EB8402C160D06866F3C500DD
:10AA900068F3891069F39F2020F00300401C20F028
:10AAA0000400D06095F8200402E000BFFEF7D8FA59
:10AAB0000028FBD1BDE8F88FE42900202DE9F84FEC
:10AAC0001D4C00256846D4E901A6FDF7F1F80027E2
:10AAD00038B30023009A61681CE0D1F800C0084632
:10AAE000944503D9ACEB02020A6015E0A2EB0C021C
:10AAF00063440760D0F80CC0C1698146BCF1000F07
:10AB000008D006EB030828F07F48C0E9018CC9F89B
:10AB10001C5005460029E0D128466160FDF782FA05
:10AB200003E02846FDF77EFA10B15046FCF7B4FE6C
:10AB3000E770BDE8F88F0000A02000200D4B10B595
:10AB4000596831B102680C68A24204D8A21A0A609E
:10AB5000C161586010BD0B4603E00B46C969121B6A
:10AB600021B10C689442F8D3A41A0C600260C16150
:10AB7000D86110BDA02000202DE9F041144E776867
:10AB80003D462C4603E0844204D02546E469002C6F
:10AB9000F9D11BE0D4B1A5420BD1F869706040B97E
:10ABA0000C49012088600021B160F0702F20FEF771
:10ABB00095FF2168E069E86110B102681144016005
:10ABC0007068874202D00120BDE8F0810020FBE7D9
:10ABD000A0200020001001407CB5064600240D4650
:10ABE0008DF800406846FCF71DF901A800F05AFAFC
:10ABF00070B10570094946609DF8040048709DF8E1
:10AC00000000FCF733F91420FBF7F2FC20467CBD72
:10AC100004249DF80000FCF729F9F7E7E826002056
:10AC20002DE9F041194D6C68002C2CD018480027F4
:10AC30000068A968B846401A20F07F462068B042F4
:10AC40000CD82146361A0744E469087C20B181F803
:10AC50001080886949698847002CEFD12978687885
:10AC6000814206D1401CC0B26870022801D185F82B
:10AC70000180064869780C3040F82170BDE8F04149
:10AC80001420FBF7B5BCBDE8F0810000A020002037
:10AC90000415014010B50F4CD4E90010884211D0C2
:10ACA00000EB80020C4800EB82018B785BB130F83E
:10ACB00022000831A3DF002804D12079401C00F0D5
:10ACC0000700606010BD30F8220089880022A1DFF3
:10ACD000F1E700005C2000206825002070B50C46DC
:10ACE00005464FF48E71FEF7ACFE216AA068415C08
:10ACF000206A401C2062C5F81C1570BD1FB50022DB
:10AD00008DF800200291816801914261D0E9001222
:10AD1000684690471FBD00001FB50A4601788DF8B0
:10AD2000001041680191017A8DF80810C068039005
:10AD3000044850F82210001F50F82220684690471F
:10AD40001FBD00006C2000200149012008707047E1
:10AD5000C020002010B588B0044620220E49684665
:10AD6000FBF7F0FA06200090C01F019002900390BC
:10AD70004FF0EB7006900CB1084A00E000226946E3
:10AD80000748FDF777FE08B1FBF7AEFF0448001F48
:10AD9000447008B010BD000054B3020049AD020079
:10ADA000C42000202DE9FF470C4605464FF40071F2
:10ADB000FEF74DFE01274FF40178002618B34FF43B
:10ADC000927949462846FEF737FEE0B149462846C3
:10ADD000FEF737FEC5F8088394F8290000B96F60C4
:10ADE00002208DF80000D5F88004C5F88004039097
:10ADF000A0690290E0680190A661E661D4E90012C2
:10AE00006846904728E004212846FEF720FE18B344
:10AE10004FF484712846FEF70FFEE8B1214628461C
:10AE2000FFF7B8FC616AA069884215D1E06938B1C2
:10AE3000E268616AA0612069E6616662E06008E03C
:10AE400094F8290000B96F60C5F80883A661E2682C
:10AE5000616A2046FFF7B7FC4FF48E7841462846DA
:10AE6000FEF7EAFD78B1206A6169884202D294F85F
:10AE7000280020B341462846FEF7E3FD616911B181
:10AE80002046FFF73BFF4FF4A27841462846FEF7E5
:10AE9000D3FD002818D041462846FEF7D2FD94F88D
:10AEA000290000B12F60A06900280DD0A661E268DA
:10AEB000616A04B02046BDE8F047FFF784BC214634
:10AEC0002846FFF70BFFDEE7BDE8FF871FB50A4600
:10AED00001788DF8001041680191017A8DF8081011
:10AEE000C0680390044850F82210001F50F8222038
:10AEF000684690471FBD00006C2000202DE9FF41EF
:10AF00000C464FF4927705463946FEF7A6FD00261B
:10AF1000C0B139462846FEF7A5FD02208DF8000095
:10AF2000D5F88004C5F880040390D5F83C058DF869
:10AF30000800E0680190A661E661D4E90012684665
:10AF4000904723E04FF4887739462846FEF785FD81
:10AF5000E0B139462846FEF785FDD5F83C15A069D5
:10AF6000884213D1E06960B1E268D5F8000220F0B0
:10AF70002000C5F80002E069A0612069E661E06098
:10AF800001E0A661E2682046FFF728FC4FF4A277B3
:10AF900039462846FEF761FD60B139462846FEF77E
:10AFA00061FDA06930B1A661D5F83C152046E26884
:10AFB000FFF714FC4FF4907739462846FEF74DFD15
:10AFC000002813D039462846FEF74CFD606900285A
:10AFD0000CD0D5F84C058DF800608DF80800A068FD
:10AFE00001906661D4E9001268469047BDE8FF8190
:10AFF0002DE9F05F8346DDE90A4A994690460D4601
:10B000000846012703E000BFB0FBF8F07F1C404575
:10B01000FAD2B94500D94F465FEACA7012D18CB155
:10B020005FEA8A7002D5B9F1000F01D0202607E04F
:10B03000302605E031465846641EFCF763FB0CB130
:10B04000A742F7D35FF00106B9F1010F02D9A9F1C8
:10B05000010903E0B5FBF6F0404502D306FB08F614
:10B06000F2E7DFF83C9000BFB5FBF6F000FB1655A9
:10B0700019F800105846FCF745FBB6FBF8F6002E11
:10B08000F2D15FEACA7009D0002C07D0A74205D2DE
:10B0900020215846641EFCF735FBF5E7BDE8F09F1C
:10B0A000B6B102000A494A788B78521CD2B2934258
:10B0B00000D100220B78934201D10020704702702A
:10B0C000487800EB400001EBC000001D7047000015
:10B0D000E82600204E6F726469635F426C696E6B94
:10B0E0007900111213140D0E0F1000000100000062
:10B0F0000000000000000000000000000000000050
:10B10000000000000000000000000000000000003F
:10B11000000000000000000000000000000000002F
:10B12000000000000000000000000000000000001F
:10B13000000000000000000000000000000000000F
:10B1400000000000000000000000000000000000FF
:10B1500000000000000000000000000000000000EF
:10B160000000000000000000770A0000000000005E
:10B17000770A0000000000007ADA000000000000FA
:10B1800023D1BCEA5F782315DEEF12120000000025
:10B1900000000050559D0200B19F02000300000016
:10B1A000C826002000000000000000000000000091
:10B1B0000338FDD8704730313233343536373839BB
:10B1C00041424344454600000000000000000000EA
:10B1D000000000000000000000000000000000006F
:10B1E000C8B10200E0B1020004000000556E6B6EB1
:10B1F0006F776E206572726F7220636F64650000F6
:10B20000000000006CB902000100000018B8020044
:10B21000020000000CB60200030000008CB802001F
:10B2200004000000E0B8020005000000C0B7020002
:10B23000060000005CB7020007000000C8B802006A
:10B2400008000000D4B702000900000038B802006E
:10B250000A00000054B902000B000000F4B502001F
:10B260000C000000ECB702000D000000BCB90200A9
:10B270000E000000B8B802000F000000F4B8020091
:10B280001000000028B9020011000000D0B902002F
:10B2900012000000A4B902001300000040B902002F
:10B2A0008000000074B7020081000000B0B6020008
:10B2B0008200000070B602008300000050B6020059
:10B2C000840000008CB602008500000098B70200E0
:10B2D00086000000A0B80200900000003CB7020009
:10B2E0009100000030B602009200000000B8020099
:10B2F0000082000008B902000182000054B8020078
:10B300000282000070B8020000840000CCB6020087
:10B310000184000078B902000284000014B7020022
:10B3200003840000F0B60200D18E0200CF8E02002E
:10B33000C98E0200000000000000000000000000B4
:10B340000338FDD870470000E58F0200B98F020076
:10B35000B18F0200FFFFFFFFFFFFFFFFFFFFFFFFB7
:10B36000FFFFFFFF00000000000000000000D6010A
:10B37000060100004C2900207F000000CC2900209D
:10B3800000000000000000000000000000000000BD
:10B390000100000780B3020090B302000800000023
:10B3A000B8B30200C8B3020008000000C8B302002E
:10B3B000D8B3020008000000A0BD0200A8BD020032
:10B3C000000000000000000090BD0200A0BD0200CF
:10B3D000000000000000000050BD020058BD020047
:10B3E00058BD020078BD020078BD020080BD020099
:10B3F00080BD020088BD0200701D0020D8B302008D
:10B40000F8B302000800000088BD020090BD0200F1
:10B41000000000000000000008B4020018B40200A0
:10B420000800000000404040404040404040414152
:10B430004141414040404040404040404040404009
:10B4400040404040400502020202020202020202A3
:10B4500002020202022020202020202020202002A0
:10B460000202020202029090909090901010101030
:10B4700010101010101010101010101010101010CC
:10B480000202020202028888888888880808080860
:10B49000080808080808080808080808080808082C
:10B4A000020202024000000025B402004E6F742028
:10B4B000656E6F75676820737061636520666F7273
:10B4C0002063686172616374657269737469637320
:10B4D000206173736F636961746564207769746850
:10B4E0002073657276696365203078253034582082
:10B4F00021000000496E63726561736520424C450E
:10B500005F474154545F44425F4D41585F43484157
:10B51000525320746F2062652061626C6520746FE5
:10B520002073746F7265206D6F726520636861723D
:10B53000616374657269737469637320666F7220E6
:10B540006561636820736572766963652100000038
:10B5500073645F626C655F6761705F646174615F93
:10B560006C656E6774685F75706461746528292006
:10B57000287265717565737429206F6E20636F6E14
:10B580006E656374696F6E203078257820726574FB
:10B5900075726E65642025732E0000005468652066
:10B5A00072657175657374656420636F6D62696E31
:10B5B0006174696F6E206F6620545820616E64203C
:10B5C0005258207061636B6574206C656E67746897
:10B5D0007320697320746F6F206C6F6E67206279BF
:10B5E000202575206D6963726F7365636F6E647378
:10B5F0002E0000004E52465F4552524F525F494E58
:10B6000056414C49445F4441544100004E52465F0C
:10B610004552524F525F534F465444455649434555
:10B620005F4E4F545F454E41424C45440000000080
:10B630004E52465F4552524F525F46454154555215
:10B64000455F4E4F545F454E41424C45440000001B
:10B650004E52465F4552524F525F4D555445585FCA
:10B66000554E4C4F434B5F4641494C45440000000A
:10B670004E52465F4552524F525F4D555445585FAA
:10B680004C4F434B5F4641494C4544004E52465F48
:10B690004552524F525F4D555445585F434F4E44AB
:10B6A0005F494E49545F4641494C45440000000003
:10B6B0004E52465F4552524F525F4D555445585F6A
:10B6C000494E49545F4641494C4544004E52465FFD
:10B6D0004552524F525F424C455F495053505F5262
:10B6E000585F504B545F5452554E434154454400AB
:10B6F0004E52465F4552524F525F424C455F495051
:10B7000053505F504545525F52454A454354454466
:10B71000000000004E52465F4552524F525F424C6D
:10B72000455F495053505F4C494E4B5F444953432A
:10B730004F4E4E4543544544000000004E52465F74
:10B740004552524F525F4150495F4E4F545F494DF1
:10B75000504C454D454E5445440000004E52465F06
:10B760004552524F525F4E4F545F535550504F52B7
:10B77000544544004E52465F4552524F525F4D4F22
:10B7800044554C455F4E4F545F494E495449414CD6
:10B79000495A4544000000004E52465F4552524F00
:10B7A000525F4D4F44554C455F414C5245414459C1
:10B7B0005F494E495449414C495A454400000000F4
:10B7C0004E52465F4552524F525F4E4F545F464F66
:10B7D000554E44004E52465F4552524F525F494EBD
:10B7E00056414C49445F5354415445004E52465FC4
:10B7F0004552524F525F444154415F53495A4500AC
:10B800004E52465F4552524F525F494F5F50454E30
:10B8100044494E47000000004E52465F4552524F89
:10B82000525F5356435F48414E444C45525F4D4929
:10B830005353494E470000004E52465F4552524F07
:10B84000525F494E56414C49445F4C454E4754481F
:10B85000000000004E52465F4552524F525F445224
:10B86000565F5457495F4552525F414E41434B002A
:10B870004E52465F4552524F525F4452565F5457A4
:10B88000495F4552525F444E41434B004E52465F22
:10B890004552524F525F494E5445524E414C000062
:10B8A0004E52465F4552524F525F53544F5241479A
:10B8B000455F46554C4C00004E52465F4552524F34
:10B8C000525F4E554C4C00004E52465F4552524F0F
:10B8D000525F494E56414C49445F504152414D00E0
:10B8E0004E52465F4552524F525F4E4F5F4D454D4F
:10B8F000000000004E52465F4552524F525F464F85
:10B900005242494444454E004E52465F4552524FC2
:10B91000525F4452565F5457495F4552525F4F56EB
:10B92000455252554E0000004E52465F4552524F0E
:10B93000525F494E56414C49445F414444520000D5
:10B940004E52465F4552524F525F5245534F5552E9
:10B95000434553004E52465F4552524F525F494E47
:10B9600056414C49445F464C414753004E52465F56
:10B9700053554343455353004E52465F4552524F31
:10B98000525F424C455F495053505F4348414E4ED1
:10B99000454C5F414C52454144595F4558495354C9
:10B9A000530000004E52465F4552524F525F434F84
:10B9B0004E4E5F434F554E54000000004E52465FBE
:10B9C0004552524F525F54494D454F555400000067
:10B9D0004E52465F4552524F525F425553590000F6
:10B9E0007761726E696E670064656275670000005A
:10B9F0001B5B313B33306D001B5B306D0000000082
:10BA00001B5B313B33316D001B5B313B33326D00CF
:10BA10001B5B313B33336D001B5B313B33346D00BB
:10BA20001B5B313B33356D001B5B313B33366D00A7
:10BA30001B5B313B33376D00696E666F00000000A1
:10BA40006572726F7200000073645F626C655F63A1
:10BA500066675F73657428292072657475726E65F8
:10BA600064202573207768656E20617474656D703D
:10BA700074696E6720746F2073657420424C455F53
:10BA800047415454535F4346475F534552564943D9
:10BA9000455F4348414E4745442E000073645F6252
:10BAA0006C655F6366675F736574282920726574CF
:10BAB00075726E6564202573207768656E206174E9
:10BAC00074656D7074696E6720746F20736574207F
:10BAD000424C455F434F4D4D4F4E5F4346475F5687
