:020000040002F8
:10600000F05C0020DD630200E5630200E76302004C
:10601000E9630200EB630200ED6302000000000090
:10602000000000000000000000000000EF6302001C
:10603000F163020000000000F3630200F563020058
:1060400071670200F7630200B96C0200F763020097
:10605000F7630200F7630200A9650200ED67020022
:10606000F7630200F7630200F7630200F7630200C0
:10607000F7630200F7630200F7630200F7630200B0
:10608000F7630200C9670200F7630200F7630200CA
:1060900095690200F763020099690200F763020044
:1060A000F7630200F7630200F7630200F763020080
:1060B000F7630200F7630200000000000000000028
:1060C000F7630200F7630200F7630200F763020060
:1060D000F7630200F7630200F763020000000000AC
:1060E00000000000000000000000000000000000B0
:1060F00000000000000000000000000000000000A0
:10610000000000000000000000000000000000008F
:10611000000000000000000000000000000000007F
:10612000000000000000000000000000000000006F
:10613000000000000000000000000000000000005F
:10614000000000000000000000000000000000004F
:10615000000000000000000000000000000000003F
:10616000000000000000000000000000000000002F
:10617000000000000000000000000000000000001F
:10618000000000000000000000000000000000000F
:1061900000000000000000000000000000000000FF
:1061A00000000000000000000000000000000000EF
:1061B00000000000000000000000000000000000DF
:1061C00000000000000000000000000000000000CF
:1061D00000000000000000000000000000000000BF
:1061E00000000000000000000000000000000000AF
:1061F000000000000000000000000000000000009F
:10620000DFF80CD000F092F9004800475DB80200BA
:10621000F05C002000B583B002900091019244F23E
:10622000010071466A4601F04FFA03B000BD00005C
:1062300030B450E8012F93B2C48923448489A34227
:1062400028BF1B1B0489A34202BFBFF32F8F00206E
:1062500007E0C3EA020340E80134002CE9D14FF023
:1062600001000A6030BC704750E8012FC2EA0242C8
:1062700040E801210029F7D1704730B450E8022FDF
:106280001FFAA2F3C488A34202BFBFF32F8F0020DE
:106290000DE0C48923448489A34228BF1B1BC2EAA2
:1062A000034340E80234002CE8D14FF001000A60BB
:1062B00030BC704750E8022FC2EA224240E8022177
:1062C0000029F7D17047034653E8022FD988B2EB73
:1062D000324F4FF0000017BF92B241EA014142EA4B
:1062E000014104E05A68B2EB324F08BF012043E895
:1062F0000212002AE8D1704730B4044654E8000F77
:106300000D4644E80053002BF8D1156030BC7047AF
:1063100030B4044654E8000F40EA010544E8005355
:10632000002BF7D1156030BC704730B4044654E8F8
:10633000000F00EA010544E80053002BF7D1156077
:1063400030BC704730B4044654E8000F80EA0105C1
:1063500044E80053002BF7D1156030BC704730B4CF
:10636000044654E8000F00EB010544E80053002BFD
:10637000F7D1156030BC704730B4044654E8000FC4
:10638000A0EB010544E80053002BF7D1156030BCA9
:10639000704770B404464FF0000054E8006F0D6879
:1063A000AE4207BF44E80023012044E800630E60CA
:1063B000002B1CBF0020F0E770BC704730B40446CF
:1063C00054E8000F88422CBF451A054644E80053A4
:1063D000002BF5D1156030BC70470000064880479F
:1063E00006480047FEE7FEE7FEE7FEE7FEE7FEE7BA
:1063F000FEE7FEE7FEE7FEE79D690200016202009C
:106400002DE9F05F0546002092469B4688460646E9
:10641000814640241BE0284641464746224600F07C
:1064200074F853465A46C01A914110D31146184683
:10643000224600F016F82D1A67EB01084F46224657
:106440000120002100F00DF817EB00094E41201E3D
:10645000A4F10104DFDC484631462A464346BDE844
:10646000F09F202A04DB203A00FA02F10020704756
:106470009140C2F1200320FA03F319439040704782
:10648000004870478C1B030040EA01039B0703D0C0
:1064900009E008C9121F08C0042AFAD203E011F863
:1064A000013B00F8013B521EF9D27047D2B201E025
:1064B00000F8012B491EFBD270470022F6E710B509
:1064C00013460A4604461946FFF7F0FF204610BD62
:1064D000421C10F8011B0029FBD1801A704730B50F
:1064E00004460020034600E05B1C934203D2E05CBC
:1064F000CD5C401BF8D030BD034611F8012B00F8ED
:10650000012B002AF9D118467047202A04DB203AD3
:1065100021FA02F00021704721FA02F3D040C2F1C3
:10652000200291400843194670470000064C074D71
:1065300006E0E06840F0010394E807009847103453
:10654000AC42F6D3FFF760FE143103003431030090
:1065500070B58C1810F8015B15F0070301D110F825
:10656000013B2A1106D110F8012B03E010F8016B52
:1065700001F8016B5B1EF9D12B0705D40023521ED5
:106580000DD401F8013BFAE710F8013BCB1A921C3D
:1065900003E013F8015B01F8015B521EF9D5A1423B
:1065A000D8D3002070BD00002DE9F04700268AB046
:1065B000DFF85091B0464FF48075012437460696B7
:1065C000284606F063F938B1D9F80403204203D015
:1065D000284606F051F926432D1D64007F1CADB2FC
:1065E000082FEDD34FF4BE74204606F04FF948B1A2
:1065F000204606F041F946F0004606AA0121002097
:1066000006F026F9404D16F0FF0F15D001270024A3
:1066100037420DD009EB8401D1F81005D1F81015DF
:10662000C0F3042055F82420C1F3014102B1904782
:106630007F00641C082CEBD3002E5FDA4FF0FF3094
:10664000CDF8108054E0281910F8507F90F9000020
:1066500027F0C008401C3BD007A9404605F0E9FBE5
:1066600010B34FEA9719404602F0B2FF55F8207078
:106670001FB1B9F1030F03D006E0B9F1030F27D121
:1066800004A9404605F0DDFB4FF0A04101EB880076
:10669000D0F8000706A9C0F3014A404605F0C9FB3F
:1066A00018B1BAF1020F03D012E0BAF1030F0FD103
:1066B000B9F1030F08D1BAF1020F1DD002214046F3
:1066C00006F0AAF8761CF6B217B149464046B8471C
:1066D000641C042CB7D3002E10D06A460121002080
:1066E00006F0B6F806990098884207D006900498FC
:1066F000002634460790A6E70321E0E70AB0BDE88C
:10670000F0870000006000401C31002000F01F02F4
:10671000012191404009800000F1E020C0F8801282
:10672000704700F01F02012191404009800000F1F4
:10673000E020C0F80011704700F01F0201219140D5
:106740004009800000F1E020C0F8001270474907BE
:10675000090E002806DA00F00F0000F1E02080F8B2
:10676000141D704700F1E02080F80014704700000D
:1067700070B54FF48076304605F09EFC114CB5059F
:1067800060B1304605F09FFC0120C5F80803607930
:1067900020B9012060712168002088474FF482767B
:1067A000304605F089FC00280AD0304605F08BFC05
:1067B0000220C5F808032168BDE8704001200847A1
:1067C00070BD0000F825002007480021C0F84011E6
:1067D000C0F84411C0F84811C0F84C11C0F80011BD
:1067E000C0F804110AF0D6BA001001402DE9FE43AA
:1067F0004FF48278404606F037FC4C4F00254C4C55
:10680000012600B3404606F037FC94F82E0010B184
:1068100094F82F10D1B18DF8005061680191218951
:10682000ADF80810E26832B1218B6183626021818A
:10683000E56010B102E0257400E03E602168684622
:10684000884784F82F5094F82E0060B34FF4807777
:10685000384606F009FC30B3384606F00DFC628B72
:1068600094F82D108A420AD9A2EB010080B260830D
:106870002289A2EB0000626802EB400005E007D12C
:10688000E06828B184F82F60658306F0DBFB04E044
:106890008A4202D184F82F606583404606F0ECFB03
:1068A0002248001D06604FF48877384606F0DCFB6E
:1068B00048B1384606F0E0FB257402208DF8000050
:1068C0002168684688474FF48A77384606F0CCFB43
:1068D00028B1384606F0D0FB2574BDE8FE834FF0A2
:1068E00000484FF48C7967691DE000BFB7FA87F064
:1068F00028FA00F109EB80058F43284606F0B4FB27
:1069000088B1284606F0B8FBA5F58C75E8088DF827
:10691000040045F38000401C8DF800608DF80500F0
:10692000216868468847002FE0D1D6E70070004014
:106930007831002000F0C6B970B50E46144900EB5E
:10694000400001EBC0051446E86A183520B1012863
:106950000FD0022805D113E0284600F0E7F9A04245
:1069600001D2002411E022463146284600F016FAF2
:106970000BE0284600F0DAF9A042F4D20446F2E730
:106980003146284600F0DDF90446204670BD00007F
:10699000683A00200AF04CB906F04EBDF0B5B54893
:1069A0000023021D0178101D01254FF08054062997
:1069B0000BD11678360708D10678C6F30316032ED6
:1069C00006D0042E04D0052E02D0062907D00EE0F2
:1069D000B4F82463A84FC6F304263E6002E016789C
:1069E000360704D10678C6F30316032E02D0062913
:1069F00004D00FE0A24FA14E7E670EE01678360756
:106A000008D10678C6F30316032E06D0042E04D050
:106A1000052E02D0062907D00EE0D4F84462994F23
:106A2000C6F342363E6002E01678360704D1067897
:106A3000C6F30316032E02D0062906D011E0924EAB
:106A4000376827F0807737600EE01678360708D170
:106A50000678C6F30316032E06D0042E04D0052EA6
:106A600002D006290AD011E04FF08046C6F80C315A
:106A7000C6F81031834E361F336002E016783607B1
:106A800004D10678C6F30316032E02D0062905D0DA
:106A90000CE07C4F032664373E600AE01678360728
:106AA00004D10678C6F30316032E02D006290DD0B2
:106AB00014E0764F05263E60744E78363560734E8E
:106AC000083633603F263F1D3E6002E016783607E9
:106AD00004D10678C6F30316052E02D0062957D036
:106AE00062E06B4E36686B4F3E60694E361D36680D
:106AF0003F1D3E60664E083636683F1D3E60644E60
:106B00000C3636683F1D3E60614E103636683F1DBC
:106B10003E605F4E143636683F1D3E605C4E183650
:106B200036685C4F20373E60594E1C3636683F1D34
:106B30003E60574E203636683F1D3E60544E243628
:106B400036683F1D3E60524E283636683F1D3E6017
:106B50004F4E2C3636683F1D3E604D4E30363668FF
:106B60004C4F40373E604A4E343636683F1D3E60DB
:106B7000474E383636683F1D3E60454E3C363668D7
:106B80003F1D3E60424E403636683F1D3E6002E08B
:106B90001678360708D10678C6F30316032E06D0FA
:106BA000042E04D0052E02D0062907D019E0D4F80F
:106BB0005812394A01F04F01116002E011780907BB
:106BC0000FD10078C0F30310032803D0042801D0AC
:106BD000052806D131480168C90702D06FF00101CC
:106BE0000160D4F83001062808D1D4F83401062811
:106BF00004D12B48016841F4806101602248743857
:106C0000016841F470010160BFF34F8FBFF36F8FD4
:106C10004FF01021D1F80002002803DBD1F8040264
:106C2000002822DA1F4A15601F480468002CFCD097
:106C30001524C1F800420568002DFCD0C1F80442BB
:106C400001680029FCD0136001680029FCD0BFF363
:106C50004F8F0D48F0380168144A01F4E061114388
:106C60000160BFF34F8F00BFFDE712491048086075
:106C7000F0BD0000E00F00F0403501400DF0ADBA6E
:106C800000C007403C050040FCED00E0105600400D
:106C90000404001020C50040E40E00400004004041
:106CA0003C17004004E5014000E401400400FA05FF
:106CB0000090D003DC260020014800680047000057
:106CC0000026002010B5124C02202061606111A046
:106CD000A06104F17800E0614FF4007020620020B0
:106CE000A06260620BA1A164E06204F51E71E16420
:106CF0001021A065C4E91410E06509A1E01DFFF7AB
:106D0000FBFB08A12046FFF7F7FB2020A07110BD78
:106D1000683A00205465726D696E616C0000000075
:106D20005254540053454747455200000269C16818
:106D30008A4203D88068401A104400E0501A401E6E
:106D400070472DE9F047C4681746894606464FF05C
:106D500000083069A04201D9051B02E0B168201A81
:106D60000D1AB0686D1E001BA84200D80546BD4232
:106D700000D33D4670682A4620444946FFF784FB0D
:106D8000B0687F1B2C44A844A944A04200D1002431
:106D9000F460002FDDD14046BDE8F0872DE9F041D9
:106DA00004468846D4E90207C51BE16860681646B8
:106DB0000844B54206D94146FFF766FBB819E060C2
:106DC000BDE8F0812A464146FFF75EFB761B08EBE3
:106DD000050132466068FFF757FBE660F0E7000008
:106DE0000FB4084B10B504A902AA039800F0D2F81A
:106DF000044602A9002000F02DFA204610BC5DF8E0
:106E000014FB00005572020002E008C8121F08C1FE
:106E1000002AFAD170477047002001E001C1121F1B
:106E2000002AFBD1704700000121202803DA8140AD
:106E30000548014003E0402802DA2038814009B1CA
:106E40000120704700207047FC06FFBD2DE9F84384
:106E5000804643F2020669B9694607F0A7FEB042D0
:106E600004D018B1284A8D21FFF7D4F99DF800000D
:106E7000800746D40021404607F0D4FE050040D0EC
:106E8000112D3ED021482249401AC708022000EBAC
:106E900007440D2D0AD00B2D1DD0B5421FD11D4921
:106EA00020464246BDE8F84305F0DEBE2046424695
:106EB000194905F0D9FE1321404676DF002820D07D
:106EC00006F064FB024601B020464346BDE8F043AD
:106ED00012A105F0D0BE204642461E49E2E72846F0
:106EE00006F054FB0246012000EB074043461AA17E
:106EF00005F0C1FE2846BDE8F843034ABC21FFF770
:106F000089B9BDE8F88300002C2403008431030014
:106F1000443103005C230300E822030073645F62D2
:106F20006C655F6761705F646973636F6E6E6563E4
:106F30007428292072657475726E6564202573202B
:106F40006F6E20636F6E6E5F68616E646C65202586
:106F5000642E0000A8230300417373657274696E88
:106F6000672E20706D5F636F6E6E5F736563757201
:106F70006528292072657475726E656420257320FA
:106F80006F6E20636F6E6E5F68616E646C65202546
:106F9000642E00002DE9FF4F8DB09B460F4604463E
:106FA000002606E025280BD05A460F999047641C0E
:106FB000761C20780028F5D111B03046BDE8F08F5E
:106FC0000025A8460122984900E0054314F8013F36
:106FD000203B02FA03F00842F7D120782E2817D17F
:106FE00014F8010F45F004052A280ED06FF02F0287
:106FF0002078A0F1300109290AD808EB880102EBBA
:10700000410100EB0108641CF2E757F8048B641C93
:1070100020786C280DD004DC4C2812D06A2811D1BD
:1070200004E074280DD07A280CD10AE045F400154C
:1070300007E0617845F48015814202D1641C05F5B2
:107040008015641C2278692A45D008DC002AB3D058
:10705000582A69D0632A10D0642A08D13BE0702AEC
:1070600067D0732A13D0752A5CD0782A5CD010467A
:107070005A460F999047761CD3E017F8040B8DF809
:10708000000000208DF80100E946012003E057F8D8
:10709000049B4FF0FF3069074FF0000501D40AE070
:1070A0006D1C45450DDA8542FADB19F805100029FB
:1070B000F6D106E06D1C8542FCDB19F805100029AD
:1070C000F8D12E4404E019F8010B5A460F99904765
:1070D0006D1EF8D2A5E00A200021CDE90801C5F314
:1070E000025002280DD001CFC117031E71F1000319
:1070F0000DDA4FF0000CD0EB0C006CEB01012D23EE
:1071000008E0FF1D27F00707F7E80201EDE72B0570
:1071100004D52B238DF8283001233BE0EB0739D031
:107120002023F7E70A2000E010200021CDE9080124
:1071300007E01020002145F00405CDE908014FF0DB
:107140000808C5F3025002280FD001CF00214FF0EC
:10715000000A2B071FD5702A0DD0DDE908C38CF07B
:10716000100C5CEA030C0CD015E0FF1D27F007079C
:10717000F7E80201EBE740228DF828204FF0010AE2
:107180000BE050EA010306D030238DF828308DF84B
:10719000292002239A46582A04D024A20DF120095E
:1071A0000B9209E026A2F9E7DDE90823FFF728F9A9
:1071B0000B9B9B5C09F8013D50EA0102F4D1ADEB59
:1071C000090020300890680701D44FF001080899A1
:1071D000884502DDA8EB010000E000208046002584
:1071E00006E00AA85A46405D0F9990476D1C761C30
:1071F0005545F6DB04E030205A460F999047761C3F
:10720000B8F10001A8F10108F5DC05E019F8010B5F
:107210005A460F999047761C0899481E08900029F5
:10722000F4DC641CC5E6000009280100303132336B
:1072300034353637383961626364656600000000B2
:10724000303132333435363738394142434445469C
:10725000000000000A68531C0B60107070470000AB
:107260000EB51849184806F087FB20B1174A4FF4AD
:107270009071FEF7CFFF144A121D07CA8DE8070070
:107280006946002006F022FB20B1104A40F2251189
:10729000FEF7C0FF01210E4806F0C6FA20B10B4AE6
:1072A0004FF49471FEF7B6FF09480121801C06F0E7
:1072B000BBFA002804D0054A40F22B11FEF7AAFFC2
:1072C0000EBD0000A1FD0200A01503000475020020
:1072D0002222002010B560B159B102780B78520813
:1072E000B2EB530F05D10622401C491CFFF7F7F8FB
:1072F00008B1002010BD012010BD800701D0002082
:10730000704701207047C3688B4206D8114400695A
:10731000491E814201D8012070470020704710B5F6
:1073200001220221002001F033FF08B1072810D10B
:1073300007220221012001F02BFF08B1072808D104
:1073400000210A22084601F023FF08B1072800D1D6
:10735000002010BD2DE9F043CBB0AC216846FFF70B
:10736000ACF802208DF8000001268DF8026005209F
:107370008DF80300402135A8FFF79FF845A86DDF81
:10738000002045A90DF1B805C0F105020A44527864
:107390002A54401CC0B20628F6D3364836499DF818
:1073A000B820401AC108032000EB014433A1204655
:1073B00005F05AFC9DF8B920204630A105F054FC98
:1073C0009DF8BA2020462DA105F04EFC9DF8BB206B
:1073D00020462AA105F048FC9DF8BC20204627A1A4
:1073E00005F042FC9DF8BD20204624A105F03CFCA0
:1073F000142130A8FFF761F80024A04630AF4FF009
:107400003A0900BFCDF8AC802A5D20A12BA8FFF778
:10741000E7FC04EB44009DF8AC103954C1199DF809
:10742000AD20801C4A70112801DA81F80290641C9A
:10743000062CE7DB0620ADF8200147A8099028209C
:10744000229044F2506023908DF87C60104829907F
:10745000499569460F4800F02BFD20B10EA24FF46C
:10746000F671FEF7D7FE01210A4800F01DFD4BB072
:10747000BDE8F083F43103004431030061646472B9
:107480006573733A253032780000000025580000FB
:1074900035DA0200802700202E2E5C2E2E5C2E2E48
:1074A0005C6D61696E2E630010B588B10F4810499C
:1074B000401AC008032101EB00400EA105F0D0FBEB
:1074C00008F010F9002810D00EA240F2434108E065
:1074D0000321104800F0B0FD002806D009A240F2B8
:1074E0005441BDE81040FEF795BE10BDF4310300D5
:1074F00044310300457261736520626F6E647321CD
:10750000000000002E2E5C2E2E5C2E2E5C6D61691C
:107510006E2E63008027002070B58CB015460E4695
:1075200000236C46C3F10F01415CE1545B1C102B3E
:10753000F8D30D2104F11000FEF7BFFF0020C0F1C9
:107540000F02315C2244401C11740328F7D36846B3
:1075500046DF0020C0F10F01214491F8201029548A
:10756000401C0328F6D30CB070BD00001B491C4A18
:1075700010B5891AC908032202EB014298B101280B
:107580001ED0022829D1104616A105F069FB102053
:1075900001F020FE002820D015A240F2C221BDE853
:1075A0001040FEF737BE104615A105F059FB11201B
:1075B00001F010FE002810D00DA240F2B621EEE737
:1075C000104612A105F04CFB0D2001F003FE00282F
:1075D00003D007A24FF42F71E1E710BDF43103008F
:1075E000443103004849474820416C6572742E00BD
:1075F0002E2E5C2E2E5C2E2E5C6D61696E2E63002D
:107600004E6F20416C6572742E0000004D696C64F1
:1076100020416C6572742E00022001F085BC0000D0
:107620000149C97800F070BFD825002070B500244A
:10763000064D06E06868012110F8340005F0EEFF01
:10764000641C28788442F5D3002070BD08260020F1
:10765000F8B515460C460646052A01D20720F8BDA6
:1076600006F0D8F818B906F09DF80028F7D11249AD
:1076700000224E600C708D60C1E90422C1E906222F
:107680000E4D0DE006EBC4002968009181788DF85D
:10769000011000780A4A694606F012F80028DED187
:1076A000641EE4B2EED2BDE8F84004480021054A69
:1076B000001D00F0EDB8000008260020101803009F
:1076C000E5AA0200099D0200FEB515460E460746D2
:1076D00072B605F085FB00BF05F0A8F90028FBD1C4
:1076E0002249234A0120891AC90800EB0144012FCD
:1076F00023D06FF48050381822D0B0F5405F24D0EA
:107700006FF44051C84206D12B88204619A16A68FF
:1077100005F0B1FA04E0204632461DA105F0A4FAB6
:1077200021480068C00700D000BE2A4603B0314699
:107730003846BDE8F04000F079B820461BA101E0D2
:10774000204622A105F08CFAEAE7A86805F01EFFA2
:107750000346D5E90001CDE900100296204624A198
:10776000AA6805F0A3FA20462BA1EBE7F431030049
:1077700044310300415353455254494F4E20464132
:10778000494C45442061742025733A25750000005A
:10779000554E4B4E4F574E204641554C5420617428
:1077A0002030782530385800F0ED00E0534F465433
:1077B0004445564943453A20415353455254494F55
:1077C0004E204641494C454400000000534F46546A
:1077D0004445564943453A20494E56414C49442078
:1077E0004D454D4F525920414343455353000000EE
:1077F0004552524F52202575205B25735D206174E0
:107800002025733A25750D0A50432061743A2030C3
:107810007825303878000000456E64206F6620655A
:1078200072726F72207265706F72740008B50123F6
:107830008DF800309DF80030144B186059609A6044
:107840006FF48041401807D001280FD1DA60D86862
:1078500000889861D86807E01A61186980685861E3
:1078600018690068986118694068D8611868586894
:107870009868D868186958699869D86972B600BF5D
:107880009DF800000028FBD162B608BDC831002079
:10789000084B9B7823B12AB120B10068037C1BB14F
:1078A0000820704707207047002303744174426129
:1078B00018467047E831002070B508F053FA1048B8
:1078C00000240B21047044700E4D817014206C60F4
:1078D0002C706C70FEF71AFF06211420FEF737FF9C
:1078E0001420FEF71EFF0848046006211120FEF751
:1078F0002EFF0548001F0068A860002070BD000032
:10790000E831002028260020081501402DE9FC4719
:10791000DFF8789099F8023073B368B3052902D282
:107920000720BDE8FC87436933B3437C012B25D096
:10793000002704460025884616468DF80050684604
:1079400000F038F801A809F03FFBC8B1012101702F
:107950000F4944600968C0E90218C0E904769DF83F
:10796000040089F801009DF8000000F047F8142099
:10797000FEF7E2FE2846D4E70820D2E70F46D8E714
:1079800004259DF8000000F039F8F3E7E831002005
:10799000041501400649897839B130B1416921B1F6
:1079A00000210174022109F0D1B9082070470000BC
:1079B000E831002030B5EFF3108172B60D4A9468BB
:1079C000012324B10370002900D162B630BD936059
:1079D0004FF0E023D3F88051074C25401560C3F8E1
:1079E0008041D3F8844154605A17C3F8842100229F
:1079F0000270E8E7F4320020FC06FFBD0B498A68FC
:107A0000002A11D000280FD1EFF3108072B60B6856
:107A10004FF0E022C2F800314B68C2F80431002276
:107A20008A60002800D162B670470000F43200205E
:107A300003F0E4BD2DE9F047814605884A484FF040
:107A400000088AB001784246284600F075FD99F892
:107A50000500400701D4002176E005F58077B8B233
:107A600001AB0122072106F009FD04003F48404A0E
:107A70004FF00101A0EB02004FEAD00001EB0046FD
:107A80000AD0204605F082FD024630462B46394991
:107A900005F0F1F8214629E0284603F0E5FA4FF613
:107AA000FF71044688422BD18A46029803F046FAB9
:107AB0000446504510D00146284603F0B5FA284642
:107AC000FFF7AEFDE0B9284608F09AFB2846FFF71D
:107AD000A7FD0028BFD013E006F09CFE04465045E9
:107AE00008D1304624A105F0BBF80421284608F04F
:107AF000B5FBB0E70146284603F096FA4FF00108BF
:107B0000B8B22246072106F031FD07001BD0862FB0
:107B10001ED005F03BFD024630462B46234900941B
:107B200005F0B1F83946284608F098FB0021484690
:107B300006F098FBB8F1000F02D0204603F07EFA61
:107B40000AB0BDE8F0870121484606F08BFBF7E755
:107B50001822174903A8FEF797FCADF80E5003A8AA
:107B600002F0F6FAEFE70000D82500208C31030080
:107B700044310300A8260300436F756C64206E6FC8
:107B80007420616C6C6F63617465206E6577207022
:107B90006565725F696420666F7220696E636F6DE0
:107BA000696E6720626F6E642E0000005427030028
:107BB000B017030070B5044690B0087B0D468DF8F1
:107BC0003800202105A8FEF778FC42F61920ADF810
:107BD00014000120ADF81800ADF81A000EA80790A7
:107BE000617C9DF82100A21D61F3041040F00200A9
:107BF0008DF82100A87B8DF82700687B8DF8250083
:107C0000A08805A901F0ECFC00281CD1A968E1B10D
:107C10000FA801F0ECF8064614216846FEF74DFC6B
:107C200042F60810ADF80000E87B8DF806000FA8BA
:107C3000ADF80A60ADF80E600490E08804F10E0221
:107C4000694601F0C5FF10B070BD0020E081FAE781
:107C500010B505F0D9FE002806D0BDE8104003A2FB
:107C600040F23D11FEF7D6BA10BD00002E2E5C2E5C
:107C70002E5C2E2E5C6D61696E2E63000A460146F5
:107C80001046AEDF704770B51500044609D00020DD
:107C9000286034B1206820B1A079800703D0072084
:107CA00070BD0E2070BD084600F0BEFBC0B21428A7
:107CB00004D02179814203D8042070BD052070BD15
:107CC000E288216800FB02102860002070BD2DE9C9
:107CD000FC47002517880646158090F82D001446AD
:107CE000894630B13A462146484600F0D9FC051E87
:107CF00009D1B0784FF00C0A18B32088C846001D8F
:107D0000B84202D95046BDE8FC87684679DF0028B2
:107D1000F9D12088032108F8001020881921401C7F
:107D200080B2208008F800102088401C80B220809B
:107D300000EB0801BDF8000009F066F8218808444E
:107D40002080F0780222C8B1218896F9033001F131
:107D5000030C4846BC45D5D8425421884FF0010C4D
:107D6000491C89B2218000F801C02188491C89B2D0
:107D7000218009F801302088401C20807068B8B14B
:107D8000218890F9003001F1030C4846BC45B9D870
:107D9000425421880A22491C89B2218042542188F8
:107DA000491C89B2218009F801302088401C2080BC
:107DB000308950B1CDE900474B460622022106F139
:107DC000080009F019F9051E9DD1308A50B1CDE99E
:107DD00000474B460722032106F1100009F00CF979
:107DE000051E90D1308B50B1CDE900474B4615228E
:107DF000142106F1180009F0FFF8051E83D1306A3E
:107E000030B13B462246494601F089FD051EDBD1D3
:107E1000706A30B13B462246494603F0E3FD051E39
:107E2000D2D196F82C0038B13B462246494630461E
:107E300008F0F6FA051EC7D1307838B13B46224625
:107E40004946304603F05CFE051EBDD128465AE780
:107E500018B504460020ADF8000013466A462046D7
:107E600000F006F8002802D0BDF80000204418BD3C
:107E700070B588B182B10024158803E0065D641CEA
:107E80003444A4B2A54203D8061976789E4201D0A4
:107E90008C42F3D38C4201D3002070BDA11C118011
:107EA000005D401E80B270BD80F830107047000049
:107EB0002DE9F0470D00044606D02CB195F87A0064
:107EC0000026012803D006E00E20BDE8F08795F8D3
:107ED0009800012829D0D5F8A000042825D0D5F88D
:107EE0009C00042821D04FF00109A6702C2205F136
:107EF0007801201DFEF7C8FA84F83060D5F8A40098
:107F00006063D5F8A800A0634FF6FF70A4F848029C
:107F100004F50D70C4F84402C4F84A62A4F84E6235
:107F200084F85062207810B104E00720CDE7FF20EC
:107F300084F8540004F15501C4F8341294F8240074
:107F4000EE274FF01F0801281FD0A4F8388200BF89
:107F500004F50E722846FFF7BAFE0028B5D115F1D8
:107F60003C0F18D004F24311C4F83C1294F82400DA
:107F700001280DD0A4F8408204F5107205F13C00F0
:107F8000FFF7A5FE0028A0D109E0A4F83872DFE7CA
:107F9000A4F84072F0E7C4F83C62A4F8406284F8A8
:107FA0005190208BA4F8480084F83C90266484F813
:107FB0005060606960644D4604F13C02002104F1A8
:107FC000540072DF002880D125707EE710B502884A
:107FD000102A1BD0112A20D0262A1DD1007A0C4647
:107FE000012801D0022817D1A0780521401CB0FB40
:107FF000F1F201FB1201204600F01EF800280BD020
:10800000A16B002908D0BDE810400847C27B012AB7
:1080100002D18088A1F8480210BD0C46002184F8E6
:1080200052128088B4F848128842F5D1207900288D
:10803000F2D10121DFE770472DE9F05F04460078B7
:108040000F4698B1A7700025C4F84A52A4F84E52C2
:1080500084F85052A079012608B1012F09D0E079A7
:1080600080B1012F05D0022F03D00BE00820BDE81E
:10807000F09F616B21B184F851620820884701E0CC
:1080800084F8515204F24B2100200A5C0AB13046B8
:1080900003E0401C0628F8D300204FF002084FF000
:1080A000030B012F06D0022F0CD0032F0FD0042F6B
:1080B00015D110E0A17929B194F8241011B908B1B3
:1080C00030460DE0E17911B108B1404608E0207A70
:1080D00008B1584604E0607A08B1042000E0284660
:1080E000A070616B41B1032801D0042804D16079EC
:1080F00010B194F85202A0B184F8535204F13C003C
:1081000018210746FEF7D9F904F12C0084F83C60E9
:10811000814606F0B7FC58B194F82C0084F8510061
:1081200008E084F8545284F8536207208847E5E752
:1081300084F8516094F8240050B1484606F0A2FC3F
:1081400020B194F8280084F8520001E084F85260CD
:1081500084F85050A27804F24A2104F50D794FF0CA
:10816000060A052A62D2DFE802F07A030F224100F4
:1081700084F83160C4F84452C4E9101584F83C8096
:108180008020A4F8480053E084F8318094F824203B
:10819000384612B10722027001E080F800B0228A4E
:1081A0008281C4F844524160E168B96040E060698E
:1081B000B860208BB88194F824003D4610B184F853
:1081C0003CA001E084F83C60204608F0D9FE50B1A4
:1081D00085F814800421204602F08EF930BB052179
:1081E00084F8311020E084F831B01DE0E069B86017
:1081F000208CB88194F824003D4610B184F83CA04E
:1082000001E084F83C60204608F0BAFE48B185F8E9
:1082100014800421204602F06FF938B984F831A0A7
:1082200002E0042084F83100C4F84492A07878B1C8
:108230003A4604F15400D4F8441272DF00287FF467
:1082400016AF94F8301094F8540073DF0028F6D17C
:10825000616B11B194F831008847002007E784F87A
:108260003150F5E7F7B594B0174605003CD0287CAF
:108270009DF854100024884252D000264FF0010E81
:108280000D9615A8ADF834E00E90ADF83660E9888B
:108290000DAA4FF6FF70ACDF040026D19DF8540004
:1082A0002874687CA0B30F96109611961296E888F1
:1082B000ADF83C00BDF83600ADF840000DA81190B7
:1082C0000E981290A7F57F408DF83EE0FE3805D05D
:1082D00039460FA8FFF7D2FC044621E0684600F0BB
:1082E0009DF800256F460FE00E2017B0F0BD00BFCF
:1082F00007EB4506B08800F0E9F8022803D144B145
:108300000FA9B088AEDF6D1C0098A842F0D807E036
:1083100005E0B1880FA8FFF7B1FC0446F3E7082495
:108320002046E2E738B50D46040018D0BDB12868F4
:10833000206028796074FF20207401208DF80200ED
:1083400041F60F00ADF80000221D69460120A8DFAC
:10835000002803D129462046FFF72CFC38BD0E200B
:1083600038BD38B5002924D0002822D00288502AF0
:108370001FD10546487C0C4600281AD0E98862893E
:10838000A81D914215D14189022912D121680029E5
:108390000FD00C3000F027FD08B1002000E00120D4
:1083A0008DF80000A888ADF80200226869462046D2
:1083B000904738BD70B5040012D001461C22144805
:1083C000FEF762F81248134D0560206850B17ADF5D
:1083D000002806D12068016829604068686005E0CF
:1083E0000E2070BD0B487BDF0028FAD108484FF6FD
:1083F000FF711438084A20F8041B0549343901601C
:108400000021FFF745FA0028EBD0032070BD0000E3
:10841000782A002024250020190F0300014949680B
:1084200001F05EBA942A002010B5044600F0A4F8CA
:1084300008B1204610BD142010BD000010B5044640
:1084400000F09AF8002805D02146BDE81040024807
:1084500003F053BC10BD0000A42A002070B51546DF
:108460000E46044608F098FD002809D0054800EBA8
:10847000840080692A463146BDE8704002F068B841
:1084800070BD0000942A002010B5044600F074F876
:10849000002805D02146BDE81040024803F02DBC5D
:1084A00010BD0000A82A002070B50546002400F089
:1084B00063F838B12946044803F01FFC08B10224D0
:1084C00000E00124204670BDA02A002070B50546BA
:1084D000002400F051F838B12946044803F00DFC9F
:1084E00008B1022400E00124204670BD9C2A00202F
:1084F00010B51821034803F0DBFB182800D0C0B2E8
:1085000010BD0000942A002070B505460C460846B0
:1085100008F042FD60B1284600F02EF840B1054851
:10852000294600EB8400BDE87040183003F0E5BB3D
:10853000002070BD942A002070B5054614460E46F2
:10854000084608F029FD002812D0284600F014F84B
:1085500000280DD00748294600EB860018301CB1D2
:10856000BDE8704003F0D4BBBDE8704003F085BBAC
:1085700070BD0000942A0020142801D30020704709
:108580000146014803F0B9BB982A002070B540B1FC
:108590000C4D297839B1044607F0BEFB28B1002004
:1085A00070BD0E2070BD082070BDE868062807D297
:1085B0000549226801EB8001401C0A60E860EEE793
:1085C000042070BD2C2500200C2B002040B1054953
:1085D00000220123CA600B70C1E9010210467047F6
:1085E0000E2070472C25002070B504002DD00029E6
:1085F0002BD020480078002827D020880D4611284D
:1086000015D0302804D0322807D033281ED109E0F5
:10861000211D284605F06EFC18E0211D284605F0B6
:1086200069FA13E0211D284605F060FB0EE0A088E2
:10863000B5F8CA12884209D1002085F8C70285F82A
:10864000C8024FF6FF70A5F8CA0270BD95F8C802BF
:108650000028FAD020883028F7D34F28F5D8A088F2
:10866000B5F8CA128842F0D12846BDE8704001F042
:10867000FDBB00002C25002048B1084A137843B107
:10868000D26832B190F8C7222AB1112070470E206B
:1086900070470820704701F0E9BB00002C2500203E
:1086A0007CB5054608880C460930904201D90C205B
:1086B0007CBD68466DDF0028FAD121880820685407
:1086C00020881B21401C80B2208029542088401C17
:1086D00080B220802844DDF801100160BDF805104B
:1086E00081802088801D80B220809DF8001049087C
:1086F00000D0012129542088401C208000207CBD0E
:1087000038B501880446212943D012DC2C482D4A73
:108710001029A0EB02004FEAD0004FF0030202EB59
:10872000004016D0112940D1BDE8384026A104F000
:1087300097BA3B293AD0562937D18088132176DF62
:10874000002832D024A240F27D31BDE83840FDF748
:1087500061BD25A104F084FA072000F03BFD20B1A3
:108760001DA24FF45671FDF755FDA188214803F075
:108770002BFC20B118A24FF45771FDF74BFDA188D7
:108780001D48FFF779FF00280FD013A240F2613196
:10879000DBE700200090A08869468FDF002804D026
:1087A0000DA240F26D31FDF735FD38BD80881321F3
:1087B00076DF0028F9D008A240F27531C5E7000045
:1087C000F431030044310300446973636F6E6E65D6
:1087D000637465642E0000002E2E5C2E2E5C2E2EFF
:1087E0005C6D61696E2E6300436F6E6E65637465C8
:1087F000642E0000742700203C22002010B51A4C83
:108800000188606810290ED011292BD1401E6060AC
:1088100028D1FEF784FD002824D02168002921D02A
:10882000BDE810400847D0B900210122084600F0F9
:10883000AFFC08B107280FD107220221012000F068
:10884000A7FC08B1072807D104220221002000F06C
:108850009FFC20B1072802D0216801B188476068D9
:10886000401C606010BD00001C2500202DE9F04771
:1088700001883B4E40F2F3194FF6FF7510291BD0CB
:1088800011293ED0122954D0502946D1C188F289ED
:10889000841D914241D1618902293ED186883046AA
:1088A00002F090FC050038D004F10C0000F09BFAB7
:1088B000A8B3294630464EE0C17B8788044601298B
:1088C0002BD1A846284602F07DFC050017D02F804A
:1088D00000202872234843464A460168C5F80A101A
:1088E0004068C5F80E0004F1100105F10A0002F01D
:1088F000E9FC6872F08900280FD129462AE004209B
:1089000013E0808802F05EFC040006D06068FFF788
:1089100041F808B107F086FC2580BDE8F087FFE745
:108920006868FFF737F80028F7D0BDE8F04707F090
:1089300079BC87880646384602F044FC0400ECD037
:108940002B464A4606F1080104F10A0002F0BAFC7F
:10895000607221463846BDE8F04701F033B80000A8
:10896000782A0020242500202DE9F04F074685882D
:1089700002883E48012197B08346102A09D0112A67
:108980004BD01A2A6ED1387AB1EB101F47D2012290
:1089900046E0364C083CA068C0430B9061680BA8C9
:1089A00003F0CFF90B990CA800F09AFF2C220CA928
:1089B0006846FDF769FD0026E946A04610E000BFC5
:1089C00009EB46005FF00004B0F804A008EB840057
:1089D0005146001D03F051F9641C1D2CF6D3761C82
:1089E0000098B042ECD8142D07D317B0E321BDE8AE
:1089F000F04F1FA20420FDF70DBC2946584603F096
:108A000087F9294608F1040003F082F9F87B012870
:108A100028D016482946001D15E029461AE00022F4
:108A20000221B1EB101F01D2012600E000260F4900
:108A3000083901F11000041D294682B103F068F9DC
:108A400036B12946204617B0BDE8F04F03F060B9B3
:108A50002946204617B0BDE8F04F03F00EB903F0E9
:108A60000CF9F5E717B0BDE8F08F00009C2A002054
:108A70002E2E5C2E2E5C2E2E5C2E2E5C2E2E5C2E30
:108A80002E5C636F6D706F6E656E74735C626C6587
:108A90005C636F6D6D6F6E5C626C655F636F6E6E55
:108AA0005F73746174652E630000000010B50446A6
:108AB0000748007800280AD0204602F0B1F9204685
:108AC00007F0C2FD2046BDE8104001F08FBE10BD8A
:108AD0006825002018B10181C282002070470E2055
:108AE0007047C8B10A68BAB1B1B104C0496842F66A
:108AF000062202C04FF6FF7120F8081B0021C1803A
:108B0000012100F8021920F8022900F8021941F6A3
:108B100002010180FFF73ABD0E207047C08A00288D
:108B200000D0012070471FB50088112811D14FF6E1
:108B3000FF7008810C460846FFF7F0FF002808D0B8
:108B400002208DF8000022686946204690470020E8
:108B5000E0821FBD7FB5002400940122019402949D
:108B600003948DF800204A88ADF802200A7801F1BC
:108B70000E0312BB8A88A2F5C055023D1DD18A7929
:108B8000012A1AD1002215E002EBC20533F8156064
:108B9000A6F60626B6F5005F0BD103EB45052E7948
:108BA000760706D52E6801966E6802962D89ADF877
:108BB0000C50521C0D7A9542E6D8BDF80C1009B144
:108BC0008DF800400268694690477FBD13B584B0B8
:108BD0000446FFF7A3FFA0B12089E48A0023012205
:108BE000009305A90193ADF802400224ADF80430CA
:108BF00002918DF80040ADF806206946A3DF06B06B
:108C000010BD0520FBE770B5044608688AB00E4623
:108C100068B3012520608DF8225041F60200ADF8BE
:108C20002000221D08A92846A8DF00281DD18DF8A4
:108C3000240020216846FDF740FC42F60620ADF8EE
:108C4000000009A802909DF80D00ADF8045040F016
:108C50000400ADF806508DF80D0030798DF8120043
:108C6000A088A21D694600F0BBFC0AB070BD0720B9
:108C7000FBE7FEB50A4601880026102912D05029CC
:108C80001AD10546841DC088D1881746884213D161
:108C90006089012810D1A98802AA3869FEF7F3FF7C
:108CA00070B90AE00096818810696A46FEF7EBFF0A
:108CB000002801D100980670FEBD0299207B087043
:108CC0008DF80060A888ADF80200029801903A681B
:108CD000694638469047FEBD1CB568B161B10022B7
:108CE00001230092ADF80030ADF8022001914189D6
:108CF000408A6A46ADDF1CBD0E201CBD70B58AB02F
:108D00000C46050037D0A4B3206898B3286060688B
:108D1000686001268DF8226041F60300ADF820005E
:108D200005F1080208A93046A8DF00281FD120213C
:108D30006846FDF7C2FB42F60620ADF800009DF83C
:108D40000D00ADF8046040F00A008DF80D00A07A27
:108D50008DF81200607A08348DF81100ADF80660C5
:108D60000294288905F10A02694600F039FC0AB02C
:108D700070BD00E001E00E20F9E70720F7E738B505
:108D80000246002929D0002A27D013880020102B62
:108D90000FD0112B11D0192B1FD10B46117A00299E
:108DA0001BD18DF800008DF80100694618461A683D
:108DB00017E00B4691885982F3E70C46117A08298F
:108DC0000BD18DF8000020460DF10101FFF784FF63
:108DD00020B16168002900D0884738BD2268694603
:108DE0002046904738BD007800F0010070470A78AF
:108DF00002704978417002207047000008B504F005
:108E0000E1FA20B10D4A4FF46471FDF703FA002036
:108E100000906946012004F043F920B1074A40F26E
:108E20009631FDF7F7F9684604F0BAF9002804D046
:108E3000024A40F29A31FDF7EDF908BD04750200CF
:108E400070B58AB0044601258DF8225041F6040021
:108E50000E46ADF82000224608A92846A8DF0028C3
:108E60001AD120216846FDF728FB42F60720ADF80D
:108E700000009DF80D00ADF8045040F00200ADF880
:108E8000065002968DF80D0070788DF8110020883C
:108E9000A21C694600F0A4FB0AB070BD0288102A2B
:108EA00001D18088488170470149085C7047000003
:108EB000B11503000649095C4FF0A040D0F8100539
:108EC000C84010F0010000D0012080F00100704780
:108ED000B11503002DE9FC410646C0074FF000051F
:108EE0000ED0104F00240122385D0095002311465A
:108EF000019503F06DFC641C042CF4D300F046F8DB
:108F0000B0070DD5074E0024361D0022305D032327
:108F100000951146019503F05BFC641C042CF4D30E
:108F2000BDE8FC81AD15030007490B5C4FF0A04183
:108F3000D1F804250120984020EA0203C1F8083541
:108F40001040C1F80C057047AD1503000249085CDC
:108F5000012103F072BC0000AD1503000249085C5A
:108F6000002103F06ABC0000AD1503000649095C4E
:108F70004FF0A040D0F80405C84010F0010000D028
:108F8000012080F001007047AD15030010B50024EA
:108F90002046FFF7DBFF641C042CF9D310BD10B58D
:108FA00000242046FFF7DAFF641C042CF9D310BD1F
:108FB00010B50246064B4FF0FF3000215C5C944236
:108FC00001D1084610BD491C0429F7D310BD00008B
:108FD000B115030070B50C4E0C004FF00005306069
:108FE0000BD0012000F06AF808B1022004E0002054
:108FF00000F064F800B10B202070706810B9FEF723
:109000008EF90546284670BD1C25002010B50020AD
:1090100000F01AFA08B1062806D1012000F014FA6F
:1090200008B1062800D1002010BD00002DE9F0474E
:109030000D468146FFF7BCFF0446042836D2DFF810
:1090400074801B481C4EA8F10C0725B3012D0ED0CF
:10905000022D2BD104EB440030444578002D25D05F
:10906000B968002922D02846BDE8F047084704EB3C
:109070004401755C0E44717849B10E4A4FF40041C9
:10908000093A8068FEF742FC08B987F80390B17886
:1090900008F80410E2E78068FEF77CFC04EB44016A
:1090A000314418F804008D78A842D7D0BDE8F08785
:1090B000B815030018250020182A0020042801D222
:1090C000FFF7F8BE0020704710B504281FD00A280B
:1090D00019D00E2827D00F2842D122482249401A01
:1090E000C008032101EB004020A103F0B9FD1120CD
:1090F00000F070F8002833D01FA24FF47F71BDE854
:109100001040FDF787B8BDE8104007F077BA1E4859
:109110001321008976DF082822D0002820D016A24B
:1091200040F2D631EBE7194C2078002818D060784F
:1091300080B100211448FFF749FD68B113280FD012
:1091400043F2014188420BD0052809D00AA24FF40E
:109150007D71D4E70221EDE7607880F00100607056
:1091600010BD0000F431030044310300416C65720E
:1091700074204F66662E00002E2E5C2E2E5C2E2E46
:109180005C6D61696E2E630048270020202200205C
:1091900070B50023042810D20D4D00EB4004012AC5
:1091A00002D101290CD00022094E00EB40003044CE
:1091B00061B1012906D0022906D00723184670BDE7
:1091C0000E30C2B22A55F9E74270F7E78270F5E730
:1091D000182A0020044A014600201279D20702D042
:1091E000084600F04DB870470C25002070B50646C3
:1091F0001E480024C0E90161B00720D500250122E6
:1092000011462846FFF7C4FF6D1C0446042D02D208
:10921000002CF4D013E094B940F2666204211448A3
:10922000FEF716FA04000AD1FEF700FA040006D190
:109230000F48104A0021001FFEF72AFB0446F007E2
:1092400012D00120FFF746FE74B909480A4A0021EE
:109250000C38FEF71DFB040006D10548074A012122
:109260000838FEF715FB0446204670BD0C2500208B
:10927000C415030015950200A5B30200197602007B
:109280002DE9F05F6E4C054600266078B34618B1B4
:1092900084F801B002F06EF86A4F4FF47A694FF427
:1092A000C87A4FF00108182D69D2DFE805F00C13D9
:1092B00013384754696E727B727BC58484848484BE
:1092C000B3B6B9BCC5C502F055F83868FEF762FB05
:1092D00006465CE00020FFF749FE00284FF0000042
:1092E00008D0FFF733FE022D02D14FF4E16008E011
:1092F000484606E0FFF732FE022D01D1C82000E00B
:109300005046410CC0034FF4FA72801841F100013D
:10931000257052000023FDF773F801462AE0002073
:10932000FFF724FE00284FF0000004D0FFF70EFEE8
:109330004FF44870E5E7FFF711FEDFE70020FFF785
:1093400015FE00284FF0000002D0FFF7FFFDCFE729
:10935000FFF704FED4E70020FFF708FE00284FF0D7
:10936000000002D0FFF7F2FD01E0FFF7F7FD2570E6
:1093700041F69A1100223868FEF7C8FA064646E020
:109380000020FFF7D1FD257008E0002051E0257096
:109390003DE084F801800120FFF7C6FD002240F681
:1093A000CD41E8E784F801800120FFF7BDFD0022F0
:1093B0004FF48041DFE77868FEF7ECFA0646D5F116
:1093C000110000D02EB10220FFF7C0FD84F802B0DA
:1093D0001DE0012816D980B2C8214843C117C9032E
:1093E00041EA5041C0034FF4FA72801841F1000184
:1093F00052000023FDF704F8014600227868FEF7CA
:1094000085FA06460220FFF7A9FD84F8028030465F
:10941000BDE8F09F01F0AEFFB9E701F0ABFFB4E7A4
:1094200001F0A8FF04E001F0A5FF0020FFF796FD82
:109430000120FFF793FDAAE7FFF7B1FDA7E70000C2
:109440000C250020B8150300012107F03CBE0000E8
:109450002DE9F8430546861C00208DF80000904653
:109460000F464FF001096846FEF7A4FA1B4C20682E
:109470003860D4E90001401AA16804F21C47081AB8
:109480000EE00121384602F056FC02F099F901463F
:10949000384602F050FCD4E90001401AA168081ACD
:1094A000401C8642EDD8B8F1000F03D0052065F3CB
:1094B000891002E0062065F39F50A26821681140E0
:1094C00004EB8101C8602068304420609DF80000F2
:1094D000FEF794FA4846BDE8F883000044360020C1
:1094E00030B482680468531C8360A154D0E901122F
:1094F0008A4202D330BC02F030BE30BC704700005C
:10950000034803C8814201D1012070470020704701
:109510004436002000780221FFF788BD1CB50446C0
:1095200001F0A2FD00236A46092105F0E9F80528AB
:1095300005D10348012241792046FEF7FDFF1CBDFD
:109540003C2500201CB50021009142F6A621ADF873
:10955000001001218DF80210034901AA0968019148
:109560006946A0DF1CBD00006016030005494FF0EE
:10957000FF32082841F8202002D3084480F8482010
:10958000704700001C310020F0B54FF0FF3512B1DC
:109590000023082601E008230C260C4C05E000BF40
:1095A00054F823707F1C04D05B1CB342F8D32846C8
:1095B000F0BD26185DB286F8305044F82310002A1A
:1095C000F5D1E11881F84800F1E700001C310020D6
:1095D0000249084490F93000704700001C31002017
:1095E0002DE9F0438146887891B090460C4600B949
:1095F00001208DF83E002088ADF83C000025009544
:10960000607C694606F0E2FF6E46A07C711C06F0A5
:10961000DDFFE07B00289DF8020002D040F008004A
:1096200001E020F008008DF80200217C11B140F02B
:10963000100001E020F010008DF80200217B11B134
:1096400040F0010001E020F001008DF80200217DD2
:1096500009B1022100E0012161F342008DF802000E
:109660001C2102A8FCF729FF607BC10601D48006FB
:1096700017D50E950EAFE07C791C06F0A7FF9DF87C
:109680003800079720F00F00401C20F0F000103049
:109690008DF838009DF83A0020F00600801C8DF807
:1096A0003A00607B8DF80800A07B8DF8090014213A
:1096B00009A8FCF702FF0FA8CDE90906A088ADF8BC
:1096C0003000A06820B1E088ADF82C00A0680D90B3
:1096D000A06998B301950088ADF81000A06901ADAC
:1096E00001A94088ADF81200A06940680695039072
:1096F000A069007B06F06AFFA069691C407B06F048
:1097000065FFA069807A00289DF8060002D040F02D
:10971000080001E020F008008DF80600A169C97A70
:1097200011B140F0100001E020F010008DF80600AB
:10973000A169097A19B140F0010002E00DE020F0C2
:1097400001008DF80600A169897B09B1022100E0C2
:10975000012161F342008DF80600E06900B1059037
:10976000434609AA02A94846AADF11B0BDE8F08322
:1097700008B5024690F8C6020B4600EB8001C1EB2B
:10978000801002EB400092F8C52242B1521ED2B2C4
:1097900002EBC20100EB4102518A491C00E0C18882
:1097A000ADF800100089ADF80200694618469DDF4B
:1097B00008BD70B504464FF6FF750A462846AC4210
:1097C00009D14FF480742146104602F071FA80B23C
:1097D000A0420BD070BDFF2CFCD82146104602F0F1
:1097E00057FA90F0010F01D0204670BD284670BD99
:1097F00070B5084C050009D010342168002907D045
:1098000008682060496828468847F6E70834F4E786
:1098100070BD000008310020054A012120B1012857
:1098200005D19170FFF7E4BF51700020FAE770474F
:10983000083100202DE9F05F26484168F1B3DFF8D8
:1098400098B00E688146DBF8004087688078E11B9D
:1098500021F07F45ED1CB0B9DFF880804FF48030F7
:10986000C8F84403C8F804031120FCF74FFF112087
:10987000FCF757FF4FF0010AC8F800A02F2003F0B3
:10988000C5FE89F802A0B54200D23546124BE81950
:109890003C3320F07F401860DBF800105A46091B6B
:1098A00021F07F41001B20F07F40C91C81420FD96D
:1098B000106818602F2003F0A9FE00E004E0BDE866
:1098C000F05F1120FCF738BFBDE8F05F06F04ABA40
:1098D000BDE8F09F2826002004150140001001403B
:1098E00073B58CB00646002000900D9880B100241E
:1098F0006D4621460DA802F000FA30B1009805EB44
:10990000400084800098401C0090641C142CF0D30C
:109910002C2269463046FCF7B7FD0EB070BD2DE92C
:10992000F04117880646B81D14460D46984202D9E4
:109930000C20BDE8F0813188072206290AD34FF4B4
:10994000486C4FF6FF73614501D9994202D1708886
:10995000062801D21046ECE7604501D99842F9D1BA
:10996000994203D0984201D08142F3D80520E855AE
:1099700020881221401C80B2208029542088401C5D
:1099800080B220804119308807F03EFA21880844CF
:1099900080B220804119708807F036FA2188084487
:1099A00020800020C5E7000002A240F28E21FCF7D3
:1099B00031BC00002E2E5C2E2E5C2E2E5C6D61695B
:1099C0006E2E630038B54A7A0F4B62B100220A72DC
:1099D0005969002906D001228DF80020ADF8020057
:1099E0006846884738BD0A7A62B19B684C6802466F
:1099F00019462046FDF78AFF0028F3D0BDE838401D
:109A000006F010BC5B68F1E7782A0020F0B587B05B
:109A100016460F4604461D4618220B496846FCF7B9
:109A200033FD0A488DF80870ADF80240ADF80A60C1
:109A30008DF80C50017800222046FEF77DFD684627
:109A400000F086FB07B0F0BDC8170300D825002042
:109A5000FDF7FCB970B588B0064600200590069069
:109A6000ADF81410ADF816100190029001AA05A9E6
:109A7000304690DF050021D003F088FD03461148F1
:109A800011493246401AC108012000EB014004464A
:109A90000E4903F0F0F8BDF8042012B9BDF8060035
:109AA00028B1BDF80630204609A103F0E4F8BDF85E
:109AB00008201AB12046164903F0D6F808B0284607
:109AC00070BD000064310300443103001C1F03001B
:109AD00054686520726571756573746564205458A7
:109AE0002F5258207061636B6574206C656E6774CB
:109AF0006820697320746F6F206C6F6E67206279C5
:109B00002025752F2575206F63746574732E0000F2
:109B1000681F030001460148FFF71CB848270020D2
:109B200070B504460948012102F020F9BFF35F8FA8
:109B30000025002808D1204601F0BCFD002803D1F3
:109B4000BFF35F8F0148056070BD0000482500200D
:109B50007FB50C4610B1012004B070BD20790026FD
:109B600038B141F61D5501281BD0022826D00F2000
:109B7000F2E70220207102960396E06801906946A0
:109B800001A806F02FF850B102988188E180008882
:109B90002081BDF80010029806F0A2F8DCE70A2048
:109BA000DAE70A4B6A460021A01D05F0D7FF38B15D
:109BB000064918398E61CE610A28CDD12846CBE7F7
:109BC00002488188019806F08BF8F5E754260020BA
:109BD000F0B587B00C4607461646142101A8FCF7DD
:109BE0006CFCA07800B901208DF81A002088ADF82F
:109BF000180006A80190A079694606F0E7FC6D46BA
:109C0000E079691C06F0E2FCE07800289DF802008B
:109C100002D040F0080001E020F008008DF80200BA
:109C2000217911B140F0100001E020F010008DF812
:109C30000200617911B140F0010001E020F0010063
:109C40008DF80200217A09B1022100E0012161F3BF
:109C500042008DF8020002956089ADF80C00A089E1
:109C6000ADF80E00E089ADF810002069059032468D
:109C700001A93846ABDF07B0F0BD2DE9F843054632
:109C800090F8C6020F4600EB8001C1EB801005EB97
:109C9000400695F8C542914604EBC40006EB40012E
:109CA0003279601C0A31904226D16B460022284648
:109CB00001F02AFB18B310E0401EA04201D10020A1
:109CC00004E004EBC40006EB40001C308046024672
:109CD0006B46284601F018FB30B100203870694609
:109CE00048469EDFBDE8F88395F8C5024146401C12
:109CF000641C85F8C502E4B23079A042DCD80120AA
:109D000038700020EEE700002DE9F0470025DFF86D
:109D10008C803CE06068002100EBC50601203278B1
:109D20009146FCF79EFBD4E9062300EA020701EA0C
:109D3000030C57EA0C0728D082438B434846C4E9FA
:109D4000062303F025FD327882469146012000214A
:109D5000FCF787FBD4E9042300EA020401EA0307C5
:109D60004A4650460021FCF77CFB44404F403C43B0
:109D70000BD17078012801D0012100E00021726828
:109D800081EA0A010AB1484690476D1CEDB298F885
:109D9000000044468542BDD3BDE8F0870826002078
:109DA0002DE9F047894690F8C612904601EB8102F2
:109DB000C2EB811100EB4107384605F0ADFF06000C
:109DC0002FD0194CA06806282BD2184D762205EB0F
:109DD000C0103946A0F80280001DFCF755FB002793
:109DE000B9F1000F04D0A06805EBC010077004E0C3
:109DF000A168022005EBC1110870A06805EBC01135
:109E0000401CCE67A060E16888420AD1002604E0C9
:109E100005EBC610C16F8847761CE0688642F7D311
:109E2000A760BDE8F08700002C250020242B00202F
:109E300070B50E4690F8C612154601EB8102C2EBD2
:109E40008111A0B000EB410005F066FF040009D0CD
:109E50007C2205496846FCF717FBADF802506846BE
:109E60000196A04720B070BDE415030070B50E4602
:109E700004464FF43371FCF720FB11480025A4F889
:109E8000CA62856084F8C9520E4884F8C65284F8C4
:109E9000C552006820602246012130469BDF012127
:109EA000112806D0002809D184F8C71284F8C852B6
:109EB00003E084F8C71284F8C812002070BD0000C7
:109EC0002C2500200C2B002010B50021024801F0A9
:109ED0004DFF80F3100010BD603A00200E4910B510
:109EE0000A784C780023A24212D0521CD2B20A70D7
:109EF000022A00D10B70084A0B780C3252F823204A
:109F000002608868104420F07F408860012010BD06
:109F10000360002010BD00002826002013460A46DA
:109F20000021FFF773BD00002DE9F843104D0F46E7
:109F300080461E4691466946286801F072FE04007C
:109F400014D01C21FCF7B9FA01202071C4F8149038
:109F5000380BC4F80080C4E902606946286801F043
:109F600081FE05F067FD0020BDE8F8830420FBE7D3
:109F7000B018030010B503780022072B06D2DFE8E3
:109F800003F005040610202930000A7010BD0123DB
:109F90000B7003898B818388CB81C06888600A74C9
:109FA00010BD02220A7002898A818288CA81C26831
:109FB0008A60807D062802D00020087410BD012030
:109FC000FBE703220A70C2888A810289CA81C068BD
:109FD000886010BD04230B70C0888881CA818A60A4
:109FE00010BD0520087010BD70B5064D0646002452
:109FF00055F8241009B130468847641C042CF7D367
:10A0000070BD00001C33002030B50446006887B0E6
:10A010000D46806800281FD018216846FCF74DFACD
:10A020000195A0680590207910B1012810D107E0B2
:10A0300001208DF8000020690290E068039005E09F
:10A0400002208DF80000E06800030290606904902F
:10A05000206881686846884707B030BD2DE9F04127
:10A0600086B016460C00804629D0112C27D0082C2B
:10A0700025D018216846FCF720FAADF8028040464A
:10A0800000F0F2FFADF804001B481C490027401AFD
:10A09000C5080D2C16D0204603F078FA02460120A0
:10A0A00000EB05404346164902F0E5FD07208DF818
:10A0B000000002948DF80C70684600F057F806B066
:10A0C000BDE8F081022000EB054042460D4902F058
:10A0D000CBFD03208DF8000026B13078C00701D0F9
:10A0E000012000E002208DF8080041F201108DF8F7
:10A0F0000C70ADF80A00DFE794310300443103002F
:10A10000202903001028030010B50446408800F001
:10A11000ABFFA080024801682046BDE81040084718
:10A12000442500202DE9F04107460024064E074D46
:10A1300005E000BF56F8241038468847641CE878CC
:10A140008442F7DBBDE8F081BC30002068250020A8
:10A1500010B50446408800F087FFA08002480168DF
:10A160002046BDE8104008477C17030001490968F4
:10A17000084700000818030070B586B0044618218F
:10A180006846FCF79AF9A0890125A0F54040ADF892
:10A1900004002078324E062835D2DFE800F0340380
:10A1A00003032E4EA08900F08BF930B9E08943F605
:10A1B000FE71A0F54040884225D8A07B8DF80800AC
:10A1C0002078032811D000208DF80900A0680390A2
:10A1D000606860B109208DF80000606804908DF817
:10A1E0001450684604F0DEF90DE00120ECE7082089
:10A1F0008DF800008DF81050F3E7A08900F060F9A9
:10A2000008B1E08930B17078002801D004F014FB67
:10A2100006B070BD606840B10B208DF8000060682A
:10A2200002908DF80C507570DBE70A208DF8000065
:10A23000BDF8040004F09EFBF5E7606858B11420F7
:10A240008DF80000606802908DF80C504FF6FF709A
:10A25000ADF80400C5E713208DF80000F6E7000014
:10A260005425002038B504460E480078A8B1A4F55E
:10A270007F40FF380FD0684605F00EFB78B105210E
:10A28000017001210171C480684605F013FB05F0DF
:10A29000C3FB002038BD042038BD022038BD082093
:10A2A00038BD00005C2600200C4808B5007888B155
:10A2B000684605F0F1FA78B106210170684605F0AC
:10A2C000F9FA0748017809B10121017305F0A4FBEF
:10A2D000002008BD022008BD082008BD5C26002023
:10A2E000E0330020F0B587B014216846FCF7E5F8AC
:10A2F0002B4C207818B16846FFF776FE4EE0201D03
:10A3000001F016FDB8BB4FF010204169000402694E
:10A3100040694B1C01D100FB02F12248002201617F
:10A32000A1F54051C160204902F0ACF8002820D1CD
:10A330001F481C238C221D49006801F05FFC03F0BC
:10A34000C3FE051E14D0022812D000270126062DB8
:10A3500012D005A805F0A0FA88B106700C2D18D20D
:10A36000DFE805F0170F170F17161716171113113F
:10A370000B2007B0F0BD11E026706760BBE7082036
:10A38000F7E7077105E0032100E00221017100E019
:10A39000067105A805F08EFA05F03EFB0020E8E7FF
:10A3A0005C260020E0260020C01803002C3300208B
:10A3B0002818030038B5040014D0694605F012FCD3
:10A3C000A0B1BDF8000000EB8001094800EB81005E
:10A3D000C16849B1A17A39B1C168491EC160002084
:10A3E000A07238BD052038BD062038BD0A2038BD12
:10A3F000B83300201FB501A9684605F0AFFB04B0D3
:10A4000010BD07B513460A466946002005F0A6FBB5
:10A410000EBD07B513460A460021684605F09EFBAF
:10A420000EBD20B119B100680860002070470520FA
:10A4300070470000F8B50D46040018D0BDB169465C
:10A4400005F0D0FBA8B1BDF800000B4900EB80007F
:10A4500001EB800001210C30666801F06CFC2E607D
:10A4600060680C3068600120A0720020F8BD0520F3
:10A47000F8BD0A20F8BD0000B833002018B103234E
:10A48000002206F063BF052070470223002206F079
:10A490005DBF0000084910B50A69042A0AD0074ABE
:10A4A000096942F8210004480121103001F043FC01
:10A4B000002010BD0C2010BD3C2600201C330020C5
:10A4C00043F6FE71A0F54040884201D80120704754
:10A4D0000020704710B504460078182802D1FEF716
:10A4E00007F8207010BD10B504460078182802D176
:10A4F000FDF7FEFF207010BD70B50D460446B0F8A4
:10A500003812D0F834020122FDF7A2FC00B1057028
:10A5100004F13C0204F50D7104F1540072DF70BDCA
:10A5200070B5134600220546112900D10122074CBF
:10A5300033B12179FEF700F800226178284600E067
:10A540006178BDE87040FDF7F7BF0000E02500200E
:10A55000F7B517460E0011D00098002560B1002411
:10A560002146684601F0C9FB18B1A0B23946B04790
:10A570006D1C641C142CF3D32846FEBD0020FEBDC8
:10A58000406805F0A9B900000EB51AA19DF80800B1
:10A5900020F00F00401C20F0F00010308DF8080073
:10A5A0000B2202A87CDF20B1154A40F26511FBF7AF
:10A5B00031FE4FF4107078DF20B1114A4FF4B471BE
:10A5C000FBF728FE00204FF4C87100900190ADF811
:10A5D0000400ADF800104A00ADF80220ADF80610F6
:10A5E00068467ADF002804D0054A4FF4B971FBF7BA
:10A5F00011FE0EBD4E6F726469635F50726F78001A
:10A600000475020070B508B1012070BD1B4C002517
:10A61000207B08B1257301E000F0A4F82078082819
:10A620002AD2DFE800F02904080C10291422BDE822
:10A63000704000F025B8BDE8704000F081B8BDE87A
:10A64000704000F063B8BDE8704000F03FB80620ED
:10A6500020706088094900EB8000283901EB8000F8
:10A660004068BDE8704003F00FBD072020706560B2
:10A67000BDE8704003F016BD0F2070BDE033002030
:10A680001149F0B48A1C00200346A1F128050C18DA
:10A69000A67A4EB1A37200EB800405EB8404E66851
:10A6A00016B9247C012C0AD0401C80B20228EED3BB
:10A6B0000B704B804B60F0BC41F61D507047108012
:10A6C000F0BC00F03DB80000E03300200C484188A9
:10A6D00001EB8102A0F1280101EB8201CA6852B1AD
:10A6E00005210170074802218180016800230122B1
:10A6F000054801F02BBE042202704968F6E700000D
:10A70000E033002064260020E026002038B50A4906
:10A71000084803240B684268898803EB8101538849
:10A720000470DB1C00201B0400909B0B034801F00D
:10A7300061FF38BDE033002064260020E0260020C1
:10A74000074910B54888091D05F09CFA18B1BDE805
:10A750001040FFF7DBBFBDE81040FFF7B7BF0000B8
:10A76000E0330020F0B51F481F4901250678022478
:10A770008B88A0F12802082E19D2DFE806F0041811
:10A78000181B222F2F170189491C018100214180AC
:10A7900080F80C1001EB810312F8233043B1002341
:10A7A0004418491C89B2A3720229F3D30570F0BD85
:10A7B0000123F5E742685288D21C1A448A8004704B
:10A7C000F0BD46880D6806EB860602EB86025668E9
:10A7D0000E60556013818C80062100E00721017016
:10A7E000F0BD0000E0330020642600202DE9F04198
:10A7F000044680882188394E86B00746352937D0EF
:10A80000502923D0522902D054295DD102E000F012
:10A81000F5FE59E0182232496846FBF735FEADF8DF
:10A820000270384600F020FCADF8040000F09CF9FE
:10A83000002231793846FDF77FFE0022F178384654
:10A84000FDF77AFE6846FFF75FFC3DE0207B0128BC
:10A850003AD1A07A012837D12089A0F524510239B4
:10A8600032D10121384600F01DFF06F03DFB2BE000
:10A870004FF0000842467179FDF75EFEE288B2F5BE
:10A88000857F1DD017481849401AC008022101EBE6
:10A89000004512B1284615A10BE06289012A03D0B8
:10A8A000284621A102F0E0F9A289012A04D0284615
:10A8B0002CA102F0D9F903E0A07B00B10120804671
:10A8C0004146384606F088F900223549B078FDF750
:10A8D000C5FD06B0BDE8F04105F0FCBC3C250020FC
:10A8E000BC1603004C31030044310300556E6578FB
:10A8F00070656374656420474154542073746174B7
:10A900007573207768696C652067657474696E6714
:10A910002043415220636861722076616C75653A0C
:10A9200020307825780000004D756C7469706C6576
:10A9300020282564292043415220636861726163A5
:10A9400074657269737469637320666F756E642CC5
:10A95000207573696E672074686520666972737408
:10A960002E000000556E6578706563746564204341
:10A9700041522063686172616374657269737469BE
:10A98000632076616C7565206C656E67746820283D
:10A990002564292C2073746F726520302E0000000E
:10A9A000317A020070B504460078002814D160881E
:10A9B00000F024FE6588284600F098F928B1074881
:10A9C0000122C1782846FDF7B7FD6088FEF7A6FD95
:10A9D000BDE8704006F088BA70BD00003C2500203C
:10A9E00070B51A4C00252570FDF782FD6070FDF7EB
:10A9F0007FFDA070FDF77CFDE070FDF779FD207113
:10AA0000FDF776FD607162780121182A12D0A278D4
:10AA1000182A0FD0E278182A0CD02279182A09D0E7
:10AA2000182807D004F10C000560BFF35F8F217078
:10AA3000002070BD0648074A801AC00801EB00409C
:10AA4000054902F00DF9032070BD00003C250020EF
:10AA50004C31030044310300341C03007CB5044630
:10AA60000078082837D1607A58BB207A1C4E4FF600
:10AA7000FF75012811D0072802D008282BD121E02A
:10AA8000A08800F03BFA0446A84224D0012100F03F
:10AA900009FE2046FEF742FD1DE0A0886A4601211E
:10AAA00003F0A2FC68B90198007850B1A08800F0CA
:10AAB00025FAA8420FD00122F178FDF73DFD05F0FF
:10AAC00009FC08E0F068012805D1BFF35F8F044955
:10AAD00000200C310860BDE87C4006F005BA00009B
:10AAE0003C2500202DE9F04180460246012000214E
:10AAF000FBF7B7FC1A4F05460E467868FCF74AFF8D
:10AB000000280CD1174CD4E9062110462A4001EA4E
:10AB100006031A4305D0A843B143C4E90601BDE8C2
:10AB2000F081404602F034FE30B1D4E904012843FC
:10AB30003143C4E9040105E0D4E90410A943B0435A
:10AB4000C4E90410D4E9060128433143C4E90601ED
:10AB5000A1687868BDE8F0410022FCF7D7BE00008C
:10AB600010180300082600201CB5054AD2E902127D
:10AB7000CDE900120022694603F0FCFD1CBD000077
:10AB8000D816030003484FF6FF7181800121017040
:10AB9000002070474C2500202DE9FC41804600F044
:10ABA00063FA002403250127A0F57F412646FF39DB
:10ABB00008D06A46082103F017FC18B90198841DD3
:10ABC0008688056832462B4621464046B1DF042878
:10ABD00004D0082804D00B2808D002E0112000E09F
:10ABE0000020002F00D10B20BDE8FC810027A80722
:10ABF00001D50125E6E7344303D00024264603258A
:10AC0000E0E7064806494246401AC008012101EB28
:10AC10000040044902F028F8E5E700005431030041
:10AC200044310300A41E03002DE9FC41804600F0DE
:10AC30001BFAA0F57F410646FF390ED001252A46B2
:10AC40006D1C0027ADB26B460821304603F016FCA0
:10AC5000040006D0072C33D033E043F20200BDE8F5
:10AC6000FC81019903230A1D0B604046891DB2DF58
:10AC7000040004D00C2C09D0052C09D009E0324680
:10AC80000821104603F072FC04461AE0012700E098
:10AC900000240821304603F05FFC70B102F076FC1E
:10ACA0000346094809493246401AC008012101EB10
:10ACB0000040074901F0DFFF0324002FBFD100E06F
:10ACC0000C242046CBE7000054310300443103003C
:10ACD000241E030004488088A0F57F41FF3901D07D
:10ACE00005F002BB704700004C2500200EB502A9FC
:10ACF000019100F0B9F96A46012103F075FB08B132
:10AD000000200EBD019800780EBD00002DE9F04135
:10AD100007464FF6FF761048B3DF78B102F036FCF5
:10AD200002460E480E49401AC008012101EB0040BE
:10AD30000C4901F099FF0320BDE8F081064C43F275
:10AD40000305A41E324661883846AFDFA842F3D11E
:10AD50006088401C6080F5E74E25002054310300D8
:10AD600044310300D81D0300428800EB82020C32FC
:10AD70008A4201D9022070478188A1F57F42FF3ABB
:10AD800003D0008808B10020704701207047884236
:10AD900004D20068401C01D0012070470020704799
:10ADA0003EB5027802230C46B3EB520F17D1B0F830
:10ADB0000110ADF80010C1788DF802108188ADF84F
:10ADC000041080798DF8060002AA01A92046FCF73C
:10ADD000A3FB032202A96846FBF781FB08B1002010
:10ADE0003EBD01203EBD000070B50D46044614284E
:10ADF00010D2FDF7C1FB68B1084904EB840001EBF8
:10AE00004000D0F802102960C188A980007AA8719A
:10AE1000002070BD43F2020070BD0000242E00200F
:10AE200070B5018892B0102961D1011D2C226846AD
:10AE3000FBF72AFB9DF804004FF6FF76032134460A
:10AE4000B1EB500F2BD003F053FC9DF804006D467E
:10AE500040080ED001280CD0022820D118E00D990E
:10AE6000281D1131FCF736FA18B100BFBDF82C408F
:10AE700015E00CAA0BA9072003F00EFC0028EED168
:10AE80000DE00D99281D491CFFF78AFF0028EDD120
:10AE90000CAA0BA9072003F0FFFB0028F1D1BDF895
:10AEA0000000B44200EB8001124820F8114000EB92
:10AEB00041000199C0F80210BDF80810C1809DF84A
:10AEC0000A10017213D0BDF80000ADF82E0000206A
:10AED000ADF83040084E8DF82C000BAD044600BF95
:10AEE00056F8241028468847641C022CF8D312B068
:10AEF00070BD0000242E0020EC1603002DE9F04167
:10AF00004FF6FF760546B04213D00B4F002400BF2A
:10AF100004EB840037F81000A84206D12046FDF764
:10AF20002BFB10B12046BDE8F081641CA4B2142CA8
:10AF3000EED33046F7E70000242E00203EB50C4645
:10AF4000054603F0D5FB0BE0BDF80000A04207D09A
:10AF50002846029900F00EF810B1BDF800003EBD81
:10AF600001AA6946072003F097FB0028ECD14FF6B1
:10AF7000FF703EBD2DE9F0410C46054600F111077A
:10AF800001F111061022491C401CFBF7A8FA48B930
:10AF9000681C00F0DFF928B1601C00F0DBF908B193
:10AFA000012400E0002431463846FCF793F93B7851
:10AFB0000222B2EB530F0CD00321B1EB530F08D098
:10AFC0003378B2EB530F04D0B1EB530F01D0012112
:10AFD00000E00021084201D18C4302D00120BDE8ED
:10AFE000F0810020FBE7018811B9421892780AB17C
:10AFF00001207047491C0829F7D30020704710B57D
:10B000000C460346FFF7EFFF00280AD01888218876
:10B01000884205D10822A11C981CFBF760FA08B1F0
:10B02000002010BD012010BD142804D2024A00EBFC
:10B03000800022F810107047242E002070B50546BD
:10B04000FFF75CFF0446284603F0D2F9002808D138
:10B05000142C06D2034B04EB84024FF6FF7123F845
:10B06000121070BD242E002010B50446142808D2FA
:10B07000FDF782FA28B1044904EB840031F810008E
:10B0800010BD4FF6FF7010BD242E00203EB50446C3
:10B0900003F02EFB0EE0019920464631FFF7AFFF8B
:10B0A00028B9019920462A31FFF7A9FF10B1BDF850
:10B0B00008003EBD6A4602A9072003F0EDFA002809
:10B0C000E9D14FF6FF703EBD10B50A4941600A480C
:10B0D00000F02EFE58B902F0C1F907491C238C225A
:10B0E000087404488C39001F006800F087FD0020B8
:10B0F00010BD0000B41803008C3400202DE9F0418D
:10B100002D4F002518B17D600120BDE8F081087940
:10B11000012258B1294E01280CD0274C4FF00208CB
:10B120000834022821D0032842D128E00A7102F015
:10B13000B9FF3BE05FF0000000EB800116F8211042
:10B14000022908D0401C80B20228F5D33A707D60F5
:10B1500041F61D50D9E700EB800006F8205006EBC1
:10B160008000406802F090FF20E00D71A4F8048098
:10B17000002301221248216801F0E8F816E00D7161
:10B18000206802F081FF0D4923682831498801EBCE
:10B19000810206EB8201D1F804C0C4F800C04B6004
:10B1A000A3880B81A4F8048006F822500028ACD0B4
:10B1B0007D600E20A9E700005C260020B833002047
:10B1C000E02600200146034802888A4200D0002081
:10B1D00070470000642A00202DE9FC5F0E008346C2
:10B1E000DDE90C47C6F1000098469246814600D43E
:10B1F0000846012503E000BF90FBFAF06D1C5045A6
:10B20000FADAA84500D9454624B1002E01DB7807BB
:10B2100000D5641EB80702D5B8F1000F0AD0F807B0
:10B2200008D13CB1A54205D220215846641EFEF744
:10B2300057F9F6E7002E02DA4E462D2102E0780794
:10B2400003D52B215846FEF74BF907F003000228DF
:10B250000BD1B8F1000F08D13CB1A54205D2302185
:10B260005846641EFEF73CF9F6E7CDE90047434631
:10B2700052463146584605F0DDFDBDE8FC9F0246CA
:10B2800000201268530713D502F00300012802D0F2
:10B2900002280CD105E0C2F383100B68801C18440F
:10B2A00004E00223086803EB925210440860012076
:10B2B000704700000248007A002800D00120704743
:10B2C0008C340020F0B58488A518944200D822461A
:10B2D000A41AC288D6189A4200D81346D21A4B88AC
:10B2E0000788BB420CD34088834209D88888A04293
:10B2F00006D3A84204D8C888904201D3B04201D9ED
:10B300000020F0BD0120F0BD10B509892AB1D08818
:10B31000491C814218D1002010BD90F8C62202EBD2
:10B320008204C4EB821200EB420212899142F2D0F5
:10B33000491C198090F8C61201EB8102C2EB811101
:10B3400000EB4100008902E01980D088401E58803F
:10B35000012010BD0021425C0AB101207047491C48
:10B360001029F8D300207047800701D000207047D3
:10B37000012070470A4810B5807860B1002401E0D0
:10B38000022C06D02046FDF7E1FD641C042CF7D307
:10B3900010BD0324F6E7BDE81040FDF7F7BD00003F
:10B3A0000C25002003480179C90702D00078FDF779
:10B3B00067BF70470C2500201721018041800021C4
:10B3C000017141711B218171C17170472DE9FE4FDF
:10B3D0002E4F984692460D00814601D000260DE082
:10B3E000684600F0E1FB6A460021484602F054FF3F
:10B3F0003878009E10B99DF8090098B15246314640
:10B40000484605F083FA0446014600224846FFF705
:10B4100087F80D2C37D008DCA4B3082C33D00B2CC4
:10B4200009D130E00520BDE8FE8F112C1ED0A4F517
:10B430004050023827D0204602F0A8F802461448AF
:10B4400014494B46401AC008012101EB0040124943
:10B4500001F011FC5FF00305B8F1000F04D0324693
:10B4600021464846FEF7FAFD2846DCE72A46F978E9
:10B470004846FDF761F85246B9784846FDF75CF852
:10B480000025E9E7FFE72546E6E70000E025002084
:10B490009431030044310300C828030070B50E4600
:10B4A0000C49154604460978FDF72EF800280FD000
:10B4B000204602F097FE00282A463146204603D057
:10B4C000BDE8704002F094BEBDE87040FEF726BDB6
:10B4D00070BD0000D825002070B5094D0646A9783A
:10B4E000FDF712F80446E9783046FDF70DF80146FD
:10B4F00022463046BDE870400123FFF767BF0000D9
:10B50000E02500202DE9F047394E002780463D46D2
:10B51000DFF8E090D6F804A057E003D00446D0F856
:10B520001C8035E099F8002002EB4201521CD2B297
:10B5300089F8002009EBC10199F80230091D9A42EF
:10B5400001D189F8005048680A780446012A12D0CF
:10B55000022A02D0032A3BD108E005F0C7FB00B164
:10B560000127257434E00574C06900E07068002884
:10B57000F9D170602CE0207C50BB88686060C8689E
:10B58000A0600869E0604869A061F07800B165607A
:10B590006268B168184B501A20F07F40984202D27E
:10B5A000A168084406E0881AA16820F07F40814223
:10B5B00002D9081A206000E0256065600120A560BE
:10B5C00020742046E56105F073FBB8F10000A4D1BA
:10B5D00099F8001099F801008142A3D117B9716858
:10B5E000514502D00120BDE8F0870020FBE70000B4
:10B5F00028260020E8310020FFFF7F00F0B587B04B
:10B600000546002718216846FAF757FFA5F57F4041
:10B61000ADF80250FF3825D02846FFF7BDFA0400E8
:10B6200022D01B481B49401AC6080B2C22D0112CD3
:10B630001ED0A4F5405002380ED0204601F0A6FFDF
:10B640000246012000EB06402B46134901F013FB94
:10B650002146284604F0EEFD10483A4681782846F7
:10B66000FCF76AFF07B0F0BD0E208DF800000BE07C
:10B670000127F1E70F208DF80000022000EB0640C3
:10B680002A46074901F0F0FA6846FEF73DFDE3E778
:10B690004C31030044310300041D03003C2500200D
:10B6A000581D03000A4602494978FCF745BF0000CF
:10B6B0003C2500202DE9F041002786B080463E461B
:10B6C000FFF7B2FA040022D0112C22D01B481C49EB
:10B6D000401AC508862C1ED0A4F5405002380ED062
:10B6E000204601F053FF0246012000EB054043468F
:10B6F00014A101F0C0FA2146404604F09BFD3946F2
:10B700004046FFF7CFFF06B03046BDE8F081012686
:10B71000F5E70127F3E718221A496846FAF7B4FE5D
:10B720000220ADF8028000EB0540424616A101F070
:10B730009BFA6846FEF7E8FCE1E700004C310300A5
:10B74000443103006773636D5F6C6F63616C5F64AA
:10B75000625F63616368655F757064617465282901
:10B760002072657475726E656420257320666F7231
:10B7700020636F6E6E5F68616E646C653A2025644D
:10B78000000000008C160300466C6173682066752B
:10B790006C6C2E20436F756C64206E6F7420737414
:10B7A0006F7265206461746120666F7220636F6ED2
:10B7B0006E5F68616E646C653A202564000000006D
:10B7C0002DE9FF410026234800F0AFFA2148001F71
:10B7D000074600F0AAFA204C60680090A56800E0D7
:10B7E00000986946284004EB80000C30FFF747FDC5
:10B7F0000028F5D101AA009901EA050304EB8303AF
:10B80000491CDB6842F82030401C00910228F2D32A
:10B81000019800F0030001280BD0022810D10198F4
:10B82000032101EB90500099BDF80A6001EB9000F4
:10B8300005E00198BDF80A60C0F383100844009049
:10B84000384600F06FFA08B10098606004B03046E6
:10B85000BDE8F0815C3A00204436002088B04FF407
:10B860000041002001F086FA20B14E4A40F21D410D
:10B87000FAF7D0FC01F0CCF8FCF71EF820B1494AE9
:10B8800040F24B11FAF7C6FC474A01214748FBF743
:10B89000FFFF20B1434A40F25111FAF7BBFC444983
:10B8A0000320FDF7A3FC20B13E4A40F20F41FAF716
:10B8B000B1FC69460020FDF78DFB20B1394A40F20A
:10B8C0001241FAF7A7FC9DF80000022868D0002476
:10B8D00001F066FB20B1334A40F22941FAF79AFCA5
:10B8E000FDF78CFAFBF7BCFCFEF74EFE0021314859
:10B8F00000F0B1FA20B12B4A40F27B11FAF78AFC32
:10B90000FBF728FD2C48FCF761FE20B1254A4FF4D7
:10B910002171FAF77FFC04F0D3FD1C216846FAF789
:10B92000CCFD00204FF42031CDE9000103258DF836
:10B930000C504FF47021ADF80E00059002911F4895
:10B94000012106908DF810106846FCF733FD20B1F8
:10B95000144A40F2A521FAF75DFC03F051F81848AB
:10B960001849401AC00805EB004017A101F078F90A
:10B970002046FBF799FD0F486FF00702203090F842
:10B980005410012077DF20B1064A40F25E41FAF7F9
:10B9900041FC01F04BF80028FBD101F015FBF8E762
:10B9A000012495E704750200517C02009C150300F8
:10B9B000C990020060270020159B0200A99902008F
:10B9C000F43103004431030050726F78696D69747B
:10B9D00079206578616D706C65207374617274652F
:10B9E000642E000070B5144682880E4605462088F5
:10B9F000111D0144921C994201D8FE2A01D90C2044
:10BA000070BD521C32542088FF21401C80B220801F
:10BA100031542088401C80B220808119288805F08C
:10BA2000F3F92188084480B22080AA8842B1A9682D
:10BA300041B13044FAF728FD2088A98808442080C5
:10BA4000002070BD072070BD2DE9F047C5881E1D80
:10BA5000B6FBF5F78946B6FBF5F1044605FB176C16
:10BA6000407916686843DDF820A0F718001F874268
:10BA700000D9C61A166001E02468491E0029FBD1CE
:10BA8000A5EB0C078846B74216D818E004EB0C006B
:10BA9000001D09EB0803BAF1000F3A4602D0014637
:10BAA000184600E01946FAF7EFFC2468F61B4FF041
:10BAB000000CB844B54201D9374600E02F46002EAD
:10BAC000E4D1BDE8F087000030B5024651B101F085
:10BAD0006FF90021074C08E034F821301568AB42BB
